:020000021000EC
:1090000000600020A59301005D9301005F930100C3
:10901000619301006393010065930100000000006B
:109020000000000000000000000000006793010045
:1090300069930100000000006B9301006D93010033
:1090400051B201006F93010011B40100DDC50100B0
:109050006F93010000000000D9B20100D1C00100EF
:109060006F9301006F9301006F9301006F930100F4
:109070006F9301006F9301006F9301006F930100E4
:10908000B5BF01002D9F01006F9301006F93010098
:10909000C99F01006F93010099D301006F930100F4
:1090A0006F9301006F9301000000000000000000BA
:1090B0006F9301006F9301000000000000000000AA
:1090C00000000000000000000000000000000000A0
:1090D0000000000000000000000000000000000090
:1090E0000000000000000000000000000000000080
:1090F0000000000000000000000000000000000070
:10910000000000000000000000000000000000005F
:10911000000000000000000000000000000000004F
:10912000000000000000000000000000000000003F
:10913000000000000000000000000000000000002F
:10914000000000000000000000000000000000001F
:10915000000000000000000000000000000000000F
:1091600000000000000000000000000000000000FF
:1091700000000000000000000000000000000000EF
:1091800000000000000000000000000000000000DF
:1091900000000000000000000000000000000000CF
:1091A00000000000000000000000000000000000BF
:1091B00000000000000000000000000000000000AF
:1091C000000000000000000000000000000000009F
:1091D000000000000000000000000000000000008F
:1091E000000000000000000000000000000000007F
:1091F000000000000000000000000000000000006F
:10920000354936480A1A02D0072291438D4634491F
:1092100034480A1A06D00722914381F309880222B2
:1092200082F3148830483149314A00F044F831481B
:109230003149324A00F03FF831483249324A00F0B1
:109240003AF832483249334A00F035F83248334967
:10925000334A00F030F833483349344A00F02BF8F1
:1092600033483449344A00F026F83448344900225F
:1092700000F02CF833483449002200F027F8334836
:109280003349091A082902DB002202604160314A91
:1092900090471F481F49884205D00268043003B434
:1092A000904703BCF7E700208646EC4600200021EB
:1092B000294A9047FEE7884207D0521A05D0037822
:1092C00001300B700131013AF9D17047884202D068
:1092D00002700130FAE7704700600020005800205B
:1092E0000060002000600020403D020010120020BD
:1092F00084170020EC930100EC930100A41F0200EE
:10930000403D0200101200201012002058200200E0
:109310005820020058200200582002005820020065
:10932000582002005820020058200200403D020050
:10933000B442020084170020841700208417002004
:109340009C3C00209C3C0020A43C0020A43C00202D
:10935000A4440020BB930100B5C70100FEE7FEE76F
:10936000FEE7FEE7FEE7FEE7FEE7FEE7FEE7FEE7D5
:1093700009480068094909680A280AD1002908D162
:10938000074802686FF070031A404FF040031A4319
:10939000026000F009B80000300100103401001034
:1093A000E40E0040FFF7E4BF0B484FF0070188438D
:1093B00085460A488047FFF723BF094809490A4AFA
:1093C000884207D0521A05D0037801300B70013162
:1093D000013AF9D1704700000060002039AE010069
:0C93E00058200200101200201012002083
:1093EC0000487047943C00207047000007B5044BC0
:1093FC000093044A402300F032F803B05DF804FBFC
:10940C0015940100851700202DE9F8438846144671
:10941C00B2B10F4B0F4E0325002743F00109224632
:10942C0008EB0701002003F051FC0744241A48B94B
:10943C0033782BB14FF47A40C847013D02D13570D7
:10944C00BDE8F88301233370002CE8D1F8E700BFA6
:10945C006020020084170020704703F067BCF0B551
:10946C0095B008460C4616461D4601F0D1FA1A9ADC
:10947C000D920023082205A920460A938DF82C3062
:10948C000C93CDE9086501F0DFFA079B0293069B6C
:10949C00039301238DF811309DF8143003F003026F
:1094AC00012A1DD1BDF81420059DC3F3C203C2F3DC
:1094BC0083168DF81030B20008230EA9204601F057
:1094CC00C3FAC5F3952508AB0093324602AB0EA93F
:1094DC00284600F0B1FB204601F09EFA15B0F0BD15
:1094EC00022AF8D1BDF81650C3F3C203C5F389158F
:1094FC008DF810300827082D2E4628BF08263B462D
:10950C0032460EA9204601F09FFAAD1B08AB02AA09
:10951C0031460EA8374400F0F3FB002DEBD1DAE70F
:10952C0008B5FFF79AFF0448042100F0F5FA034B45
:10953C0001225A7108BD00BF482002001012002001
:10954C000378024613F0040006D003F00300012850
:10955C0003D0022809D0012070470B68128802330F
:10956C00C2F3831213440B6070470B6852880233AA
:10957C0003EB92130B60EEE72DE9F04FDFF81CA123
:10958C0087B00F4600230446861C0DF107001546D4
:10959C008DF8073000F00EFFDAF804203A60DAF8A4
:1095AC00083003F580739B1A0AF21C470AF583698D
:1095BC000AF21448B3421AD30020002D69D004F0EB
:1095CC000F039B0143F0050363F30F00DAF804303B
:1095DC00DAB2033233444AF822009DF80700CAF885
:1095EC00043000F00BFF012007B0BDE8F08F012123
:1095FC00384600F03CFF484600F051FF404600F072
:10960C004EFFDAF808000290C0B203300AEB80007B
:10961C0002A9FFF795FF029B30BBDAB20AEB82027C
:10962C00D16803919A1C0133DBB20AEB83030292DB
:10963C00D3F80CB001F00303012B22D0022B15D070
:10964C008346404600F02EFF10B1029BCAF808304A
:10965C005946384600F00BFFDAF80830DAF80420E7
:10966C0003F580739B1AA5E7D8B2CEE7BDF80E3090
:10967C00C3F3891303334FEA1B4B02EB930302939F
:10968C00DFE7BDF80C30C3F383134FEA1B4B1344D5
:10969C00F5E7A40544F0060098E700BF98180020F1
:1096AC00064B074810B500221A7001F06AF90446FF
:1096BC0010B9044801F0F6F9204610BD98180020A6
:1096CC00C41F02009C20020030B50A4C71B10A4A3A
:1096DC000A49121BD20800239A4201D1002030BD46
:1096EC0031F82350854202D00133F5E7034654F894
:1096FC003300F4E7D81F02004820020010120020AB
:10970C00094B013903EBC000032909D8DFE801F04C
:10971C000A020406042070470079704740797047AC
:10972C000020704702207047D81F020070470000CD
:10973C00034BD3E90130C31A58425841704700BF5C
:10974C00981800202DE9F04186B0FFF7F1FF05468F
:10975C00002840F0ED80774CC4F81804BFF34F8F0D
:10976C00A3680293DBB2033304EB830002A9FFF777
:10977C00E7FE029B18B1D4F81824002A5AD0DAB2AA
:10978C00991C013304EB8202DBB204EB8303D26835
:10979C00DB68049302F00303022B0392029154D171
:1097AC00BDF80E306448C3F38917502F3E4628BFCE
:1097BC00502606F1080166F38F13C1F30901ADF8C9
:1097CC000E3001F0F6F80546002800F09C8001F000
:1097DC001FF90023082203A9284601F02BF902994E
:1097EC00CB43DBB20133C9B20331B6EB830F4FEA83
:1097FC00830204EB810125D95FFA82F80823A6EBDA
:10980C000806284601F016F9F6B208F108034B4990
:10981C0003F0FC033246284601F00CF9029B033797
:10982C0003EB97070297D4F81834002B43D1D4F8E4
:10983C00106453E062689A4294D8A260284606B03D
:10984C00BDE8F08108233246E5E7012B5BD1BDF87A
:10985C000C303948C3F38311062928BF062161F364
:10986C008913023101F00F018900ADF80C3001F0C1
:10987C00A0F80546002846D001F0CAF800230822BB
:10988C0003A9284601F0D6F80026BDF80C20C2F337
:10989C008312B300964203F10803C4D202994A1C06
:1098AC00C9B20331029204EB81010422284601F073
:1098BC00C1F80136E9E7284601F0AEF8FFF738FFAA
:1098CC0080F00105EDB2B9E7F3685B7923B1336839
:1098DC0029461B6830469847F3681E68002EF3D162
:1098EC00284601F099F80DF107008DF8076000F09B
:1098FC0061FDD4F818340BB9029BA3609DF80700E6
:10990C0000F07CFDDAE7D4F8104454B90C4B0D4848
:10991C000D49C01AC008000440F0020000F05EF8C7
:10992C00CCE7236820469B689847E3681C68ECE703
:10993C00002583E798180020C41F0200A4180020FB
:10994C00D81F020018200200842002002DE9F347E2
:10995C0004460E46924601A9012218469946FFF785
:10996C000BFE1C4F10B3019D4FF00008AA1CC845FC
:10997C0008EB020125D11848002100F055FD80F3B9
:10998C001000000440EA1440E4006B1C04F038049E
:10999C00DBB2EDB244F0010407EB8303033544EA78
:1099AC00881444EA8624D86047F825403B781BB1DC
:1099BC00FFF7C8FE0028FBD1FFF7B8FE02B0BDE8E8
:1099CC00F087C9B207EB81015AF82830CB6008F157
:1099DC000108CCE798180020B41C002000231A467C
:1099EC00FFF7B4BF07B50123019201AAFFF7AEFF41
:1099FC0003B05DF804FB07B5CDE9002302236A46EA
:109A0C00FFF7A4FF03B05DF804FB1FB5CDE90123FC
:109A1C00069B039301AA0323FFF798FF05B05DF89B
:109A2C0004FB1FB5CDE90023069B0293079B039310
:109A3C006A460423FFF78AFF05B05DF804FB7FB587
:109A4C00CDE90023089B0293099B03930A9B049383
:109A5C000B9B05936A460623FFF778FF07B05DF86A
:109A6C0004FB00002DE9F7430446D01C884616463B
:109A7C0001A900228008FFF77FFD254D80B3019FCF
:109A8C00B81C0190C0B2C0F58073B6EB830F00F127
:109A9C0003004FEA830905EB800028D83246414683
:109AAC0006F040FD1B48002100F0BEFC80F31002C4
:109ABC007B1CDBB2FFB205EB8303200C033740EABF
:109ACC000240E400D86004F0380455F8273044F024
:109ADC00020444EA865203F47C131A4345F8272007
:109AEC002B787BB9FFF722FE03B0BDE8F0834A4622
:109AFC00414606F017FDA6EB090208EB090105F13A
:109B0C000C00CDE7FFF71EFE0028FBD1EAE700BFF3
:109B1C0098180020B41C002030B50F4CD4F8102439
:109B2C0003460020114631B9D96808714AB9C4F806
:109B3C0010340A6030BDC9680D79854206D00968B9
:109B4C00F1E7D26814680C601360F3E701300A285F
:109B5C00E8D14FF0FF30EDE79818002038B5084BEE
:109B6C000125D3F810441D7004B938BDE3685D714C
:109B7C00236820465B689847E3681C68F4E700BFDD
:109B8C0098180020C38873B504460D4633B1144AA7
:109B9C0000921449144A284600F0E7FC217A052962
:109BAC001CD0637A4BB1A088FFF7AAFD0F4B10496C
:109BBC0053F82020284600F0D8FC227A0D4BA088C0
:109BCC0053F822600021FFF77FFD0B490346324614
:109BDC00284602B0BDE8704000F0C7BC02B070BDB2
:109BEC0043360200B0200200A82002002C21020003
:109BFC00ED33020050210200C820020010B5037A98
:109C0C00052B0C460FD0437A23B1084A084920464D
:109C1C0000F0ABFC0749204600F0A7FC2046BDE84D
:109C2C00104000F097BC002AF8D0F3E7433602004E
:109C3C00ED330200AF3202002DE9F04385B01F4630
:109C4C000C9D002395F80C902B7306460C46904601
:109C5C0029463846FFF796FFB8F1060F09D8DFE81A
:109C6C0008F00412181F283340003146284600F033
:109C7C007CFC002229463846FFF7C0FF85F80C9083
:109C8C0005B0BDE8F08322683146284600F06DFC33
:109C9C00EFE7D4E900233146284600F066FCE8E7FC
:109CAC00A36800933146D4E90023284600F05DFCFC
:109CBC00DFE7E3680193A36800933146D4E90023FE
:109CCC00284600F052FCD4E723690293E368019321
:109CDC00A36800933146D4E90023284600F045FCE4
:109CEC00C7E76369039323690293E3680193A3684D
:109CFC0000933146D4E90023284600F036FCB8E73F
:109D0C0008292DE9F74F80460E4617461C463DD8CC
:109D1C0000251B7B2573214610460193FFF732FF6C
:109D2C00DFF888A0DFF888B0AE4232D918F80520E9
:109D3C005946204600F019FC0135082DF4D11D4977
:109D4C00DFF874A0DFF874B0204600F00EFC4FF082
:109D5C0000094E4524D918F809507E2D1ED82846E6
:109D6C0005F0D2FF002814BF2A462E225946204661
:109D7C0000F0FBFB09F10109B9F1080FE9D101224F
:109D8C0021463846FFF73AFF019B237303B0BDE829
:109D9C00F08F5146204600F0E8FBCDE72E22E5E798
:109DAC005146204600F0E1FBE4E700BFD82002005A
:109DBC00D2200200DC200200DA200200DE200200A9
:109DCC001FB50021039001AA44F20100CDE9011155
:109DDC0000F004F805B05DF804FB000038B572B66D
:109DEC00FFF7BCFEFFF7AEFC0028FBD1104B114C6B
:109DFC00114D1249E41AE408240444F00100FFF761
:109E0C00EDFDD5F8F030DB0700D500BE0C4944F071
:109E1C000200FFF7E3FDBFF34F8FEA68094B02F432
:109E2C00E0621343EB60BFF34F8F00BFFDE700BF51
:109E3C00D81F02001820020000ED00E0642102008F
:109E4C00702102000400FA05094B5A789978013206
:109E5C00D2B2914208BF0022197891421FBF027002
:109E6C005878182202FB003014BF043000207047D1
:109E7C00501D002073B5054600240DF107000E4659
:109E8C008DF8074000F096FA0DF10600FFF7DCFFA5
:109E9C0090B10670094B9DF8062045605A709DF8EC
:109EAC00070000F0ABFA24B9054B4FF48012C3F84D
:109EBC000021204602B070BD0424F0E7501D0020A4
:109ECC0000E100E0024B4FF43C6043F00103184703
:109EDC008021020038B50E4B4FF40032C3F88020BD
:109EEC00BFF34F8FBFF36F8F0A4C4FF480330125B4
:109EFC00C4F84833C4F808336560FFF7E3FF064B3A
:109F0C00A56000241C60FFF7DDFF044B1C7038BDFE
:109F1C0000E100E0001001406C1E00205D1E0020DE
:109F2C00F8B51F4B1F491B680025C1F84051C1F8FB
:109F3C004451C1F84851C1F84C51C1F80051C1F815
:109F4C0004514BB3D1F8044517490968641A24F03D
:109F5C007F442F461A68A24209D8A41A15441A7CC9
:109F6C00DE691AB1D3E905201F749047AEB90F4AC8
:109F7C000F4B11781B788B4205D10133DBB2022BCE
:109F8C0008BF0023137012780A4B43F822500A4B77
:109F9C004FF48012C3F80021F8BD3346DAE700BF56
:109FAC00701E0020001001406C1E0020691E002055
:109FBC00681E0020601E002000E100E02DE9F04F3B
:109FCC00A14AA24913780978A14D994285B03CD099
:109FDC000133DBB2022B08BF002313709D491278AA
:109FEC009D4B0F6853F822003B1823F07F4300224F
:109FFC000B602B6816461446944613B942B12B607D
:10A00C0006E0196881420ED902B12B60091A196059
:10A01C0001272B68DFF844A201934FF00008BEB96A
:10A02C00DFF83CB260E0401A0C44D968D3F81CE06D
:10A03C00C3F800C031B13A1922F07F42C3E90121C3
:10A04C00DE611E4673460122D7E700263746E0E75D
:10A05C003446F6697F4B60681B68DFF808C2A1685C
:10A06C00C21A22F07F42624500F2A6800A442260A6
:10A07C00012222742A680023C4E90133E361002A17
:10A08C0040F0A3802C60CAE79BF802105A1CD2B295
:10A09C0091428BF8002004BF00228BF8002018227C
:10A0AC0002FB03B32A6819799C68022975D003292D
:10A0BC007FD0012918D1207CB0B9D3E90312A2605A
:10A0CC005A69E2609A69684BA2611A78002A18BF33
:10A0DC0001466160BEE78C4200F094808946C969F4
:10A0EC000029F8D1002323749BF800309BF8012041
:10A0FC009A42C9D12B68B8F1000F04D1019A9A4247
:10A10C0001D1002F43D0002B79D0D3F800A0534DB0
:10A11C00504BD5F804751C68DFF850813E1B98F83D
:10A12C00003026F07F4603369BB94FF48033C5F8D8
:10A13C004433C5F804334E4B4FF40032C3F880213E
:10A14C001A604FF00109C5F80090FFF7BBFE88F8C4
:10A15C000090B2452CBF5444A41924F07F44C5F898
:10A16C004045D5F80435DB1B23F07F43E41B033358
:10A17C0024F07F44A3420AD9D5F80435C5F84035FC
:10A18C00FFF7A0FE3A4B4FF40032C3F80021364BD8
:10A19C0000221A7005B0BDE8F08F114691469FE77A
:10A1AC001174D2690123002AFAD1002B9CD02A60A9
:10A1BC009AE700231946F6E71B1A23F07F438B42DC
:10A1CC0034BFCB1A0023236052E7216813689942ED
:10A1DC0013D85B1A1360E26154E7091AD8691A465E
:10A1EC0038B1034618688842F7D3401A18601846ED
:10A1FC0013462160E061DC6111E71346F2E7FFF7DB
:10A20C0069FEC4E74C4511D1D3692B6073B9DFF8F3
:10A21C0044E00120CDE90212CAF80800CEF8003063
:10A22C00114B1870FFF74EFEDDE902120B68C9697D
:10A23C00C9F81C1011B1086803440B602B689342D9
:10A24C0018BF4FF001084DE7681E0020691E002062
:10A25C00701E00206C1E0020601E002000100140AB
:10A26C00501D0020FEFF7F005C1E00205D1E0020A4
:10A27C0000E100E010B5FFF72DFE114B00200B2282
:10A28C0018809A700F4B18600F4B18700F4B18708A
:10A29C000F4B4FF48012C021C3F8802183F81413A4
:10A2AC001A6002F18042A2F56F221F24C2F8084501
:10A2BC0083F81113074BD2F804251A6010BD00BFA8
:10A2CC00501D0020701E0020681E0020691E0020FA
:10A2DC0000E100E06C1E0020074B9B784BB132B1C3
:10A2EC0028B10368187C20B959745A61704707204B
:10A2FC0070470820704700BF501D00202DE9F74320
:10A30C00DFF8808098F8023005460E461746BBB33E
:10A31C00B0B31D4B4A1F9A4230D8436983B3437C78
:10A32C000024012B0DF107000CBF8946A1468DF8C6
:10A33C00074000F03FF80DF10600FFF785FDD8B19E
:10A34C0001230370114B4560D3F80435C0E9049721
:10A35C00C0E902369DF8063088F801309DF80700F8
:10A36C0000F04CF824B90A4B4FF48012C3F80021CA
:10A37C00204603B0BDE8F0830424EFE70724F7E799
:10A38C000824F5E7501D0020FAFFFF0000100140E3
:10A39C0000E100E0064A92783AB130B1426922B14C
:10A3AC00002202740221FFF765BD0820704700BF30
:10A3BC00501D002070B5EFF3108672B60C4A9468ED
:10A3CC0001239CB993600B4B0B4DD3F880102940A3
:10A3DC001160C3F88050D3F8841051604FF0FF32F5
:10A3EC00C3F88420047006B962B670BD0370FAE736
:10A3FC00741E002000E100E0FC06FFBD084B9A68CB
:10A40C0010B55AB150B9EFF3108172B6054A1C68F9
:10A41C0014605C685460986001B962B610BD00BFEE
:10A42C00741E002000E100E010B5034653E8000F55
:10A43C000A4643E8002494F0000FF7D110BD10B584
:10A44C00034653E8002F42EA010043E8000494F06D
:10A45C00000FF6D110BD10B5034653E8000F00EA0B
:10A46C00010243E8002494F0000FF6D110BD10B5A2
:10A47C00034653E8002F02EB010043E8000494F07C
:10A48C00000FF6D110BD10B5034653E8002FA2EB18
:10A49C00010043E8000494F0000FF6D110BD012137
:10A4AC00FFF7CDBF0021FFF7D6BF10B590B1D0E9B3
:10A4BC00012301689B1ADBB20A60013BDBB2FF2B64
:10A4CC00026802D10020107110BD11684C1C146080
:10A4DC000B70F2E70E20F7E737B5054600240DF1B7
:10A4EC0007008DF80740FFF765FF2A686B68116855
:10A4FC0099420ED9481E106011F8013CEC68298A6B
:10A50C0001FB0344AB6811791B1ADBB2994238BFCB
:10A51C0013719DF80700FFF771FF204603B030BDA3
:10A52C0037B5054600230DF107000C468DF80730B2
:10A53C00FFF740FF2A681368591C1160E968641A18
:10A54C00298AB4FBF1F41C709DF80700FFF756FF45
:10A55C0003B030BD826810B504462AB14369016866
:10A56C00006998470023A36010BD0EB403B503998E
:10A57C0021B104AB01AA019300F076F802B05DF8AA
:10A58C0004EB03B070470A2938B504460D4602D1D6
:10A59C000D21FFF7F8FFA3682268591CA160D55460
:10A5AC00D4E901329A4204D32046BDE83840FFF783
:10A5BC00D1BF38BD2DE9F84F9846DDE90A43154661
:10A5CC0082460F460A464FF00109AA420FD2C145F6
:10A5DC0038BFC14613F0010B01D16CB90024012620
:10A5EC00B8F1010F1BD908F1FF386E43F8E709F1F8
:10A5FC000109B2FBF5F2E8E79B070ED5B8F1000FA5
:10A60C000CBF30262026A145E9D2013C31465046EC
:10A61C00FFF7B9FF002CF6D1E0E72026F3E7B7FBF4
:10A62C00F6F39D42E1D9DFF83C80B7FBF6F35046D8
:10A63C0018F8031006FB1377FFF7A5FF3346AB4260
:10A64C00B6FBF5F6F1D2BBF1000F02D00CB1A1456F
:10A65C0001D3BDE8F88F20215046013CFFF793FF52
:10A66C00F4E700BF862102002DE9F74F0546174697
:10A67C008846002900F03E8118F8011B49B92B7B54
:10A68C00002B00F03781284603B0BDE8F04FFFF7F0
:10A69C0061BF252940F0B780002698F800302D2B9B
:10A6AC00424608F1010823D0302B24D02B2B25D087
:10A6BC0000242A2B02F1010123D13B681A1D1B68CF
:10A6CC003A601C440A4613782E2B26D101324FF0E7
:10A6DC00000A104610F8011BA1F1300CBCF1090F57
:10A6EC001DD80A2303FB0A13A3F1300A0246F0E734
:10A6FC0046F00106D1E746F00206CEE746F0040626
:10A70C00CBE711F8013CA3F130000928DBD80A2271
:10A71C0002FB0434303C0A46CBE74FF0000A12F837
:10A72C00011B01F0FB0068289046F8D0782909D865
:10A73C006F290CD8632962D022D8252963D05829D7
:10A74C0000F0888098F80030002B95D197E770398D
:10A75C000829F7D801A353F821F000BFDBA80100AA
:10A76C0051A7010051A7010071A8010051A70100D8
:10A77C004FA8010051A7010051A7010061A80100D9
:10A78C00642901D06929DDD13A68D2F80090111DF5
:10A79C0089EAE9723960A2EBE9724FF0010B092AE0
:10A7AC0035DCD34538BFD3462CB1B9F1000F01DBF2
:10A7BC00720700D5013CB30702D5BAF1000F03D0E4
:10A7CC00F00701D44CBB0024B9F1000F2DDAC9F10C
:10A7DC0000092D212846FFF7D6FE06F00302022AB7
:10A7EC0004D1BAF1000F01D11CBB0024CDE9004605
:10A7FC0053460A2249462846FFF7DCFEA2E73B688F
:10A80C001A1D19783A602846FFF7BDFE9AE70A230D
:10A81C000BF1010BB2FBF3F2C1E7A345D4D220211B
:10A82C002846013CFFF7AFFECCE77107D5D52B21AD
:10A83C00D0E7A345DAD230212846013CFFF7A3FE2E
:10A84C00D2E73968CDE900460A1D3A6053460A2220
:10A85C000968D0E739680A1D3A60CDE900465346CD
:10A86C001022F5E73B681A1D3A6016F00106D3F882
:10A87C00009024D1B9F1000F03D0484605F0D0FE6A
:10A88C000646B4421DD809F1FF3919F8011F0029F9
:10A89C003FF458AF2846FFF776FEF6E72846013618
:10A8AC00FFF771FE19F806100029F7D1A642BFF484
:10A8BC0049AF20212846013CFFF765FEF6E700264C
:10A8CC00F0E720212846013CFFF75DFED9E73B6805
:10A8DC001A1D3A60302128461C68FFF754FE782177
:10A8EC002846FFF750FE00220823CDE9003221460E
:10A8FC00102280E703B0BDE8F08F00BF2DE9F84FC0
:10A90C00B0F806A04579D2F800B09DF828900AFB63
:10A91C0005F5043D88460BEB0301A94203F1040441
:10A92C0088BFA5EB030BB4FBFAF607460AFB1644EB
:10A93C00C2F800B04EB9AAEB04055D4528BF5D46D0
:10A94C00BBF1000F04D1BDE8F88F3F68013EF1E781
:10A95C00043408EB06003C442A46B9F1000F0DD034
:10A96C002146ABEB050B05F0DDFDDA452E443F68C7
:10A97C0055464FF0000428BF5D46E1E701462046EE
:10A98C00EFE7FFF792BDF8B546790146721E054612
:10A99C00002393422D6803D30024A64202D8F8BDAD
:10A9AC000133F6E70F682846FFF7BAFD0134394644
:10A9BC00F3E72DE9F843068ACD1C0746FFF78CFD1B
:10A9CC00043E35440446B5FBF6F5F0B14FF4807304
:10A9DC00EDB28380C680013D076081464FF00008D0
:10A9EC00A84512D23846FFF777FD064648B1637981
:10A9FC000133637108F10108C9F800000760814652
:10AA0C00EEE72046FFF7BFFF34462046BDE8F8834B
:10AA1C0001210430FFF72BBD10B501210446043091
:10AA2C00FFF731FDC0B220B92046BDE81040FFF75A
:10AA3C00AABF10BD1FB503920022009203AAFFF714
:10AA4C005DFF05B05DF804FB1FB503920122009277
:10AA5C0003AAFFF753FF05B05DF804FB41DF704715
:10AA6C00064B10B500241C70054B1C60BFF35F8FA8
:10AA7C000449054800F01FF8204610BD881E002030
:10AA8C008C1E0020A0210200801E002008B502F0C0
:10AA9C0063FC18B1BDE80840FFF7E0BF20BF40BF22
:10AAAC0020BF08BD836800225A60C3E904229A6063
:10AABC00DA601A6070470B684A684360934208BFBB
:10AACC000023016008BF43607047436843B10268CC
:10AADC00916852680B449342436004BF0023436067
:10AAEC007047000010B50D49A1F59472914201D840
:10AAFC0000200FE08C1AE30F03EBE4035B1002EB76
:10AB0C00C30452F83330834205D802D204F1080250
:10AB1C00ECE7606810BD2146E8E700BFA426020000
:10AB2C0008B5FFF7DFFF024B002808BF184608BD29
:10AB3C00662502000648074A03780749D35C0122C0
:10AB4C0013B1043001F0C4B90C3000F0F7BE00BFF3
:10AB5C0018120020D81E0020B81E00200648074AF4
:10AB6C0003780749D35C012213B1043001F062B9B8
:10AB7C000C3000F093BE00BF18120020D81E00202D
:10AB8C00B91E002037B50578012D0DD0022D30D01F
:10AB9C0075B91F491F4800F022F9002834D103B0C1
:10ABAC00BDE83040FFF7DABF037A1BB9FFF7C2FFED
:10ABBC0003B030BD4368184C1978204600F0FDF8FE
:10ABCC0080B18DF800500190144B68461B68984773
:10ABDC00A168E368A2885B1A9A42E7D2104B012263
:10ABEC001A70E5E7A268E3689A42F1D08DF800008C
:10ABFC00EAE7C3688DF800500193FFF79BFF074B02
:10AC0C0068461B689847D3E703238DF80030F6E7B6
:10AC1C00B91E0020A81E0020941E0020901E0020AB
:10AC2C00A41E0020F0B51F46234B89B004461A60C1
:10AC3C000D4600293DD08A882048096800F0ACF800
:10AC4C00002834D1AA89A9681D4800F0A5F800286D
:10AC5C002DD11C4E0FCE6D460FC596E80F0085E822
:10AC6C000F0063690693237C174A18488DF81C70F3
:10AC7C00003B18BF01238DF81430637C002B14BFEC
:10AC8C000E2300238DF81530E3680293A368039319
:10AC9C002368019369466368009300F05BFA30B94E
:10ACAC000B4B18702368013301D0FFF743FF09B039
:10ACBC00F0BD0720FBE700BF901E0020941E002073
:10ACCC00A81E0020A426020091AB0100181200203F
:10ACDC00A41E002008B5054800F092F820B9BDE884
:10ACEC000840034800F08CB808BD00BF941E00203B
:10ACFC00A81E002070B5084D014608482E7800F0BB
:10AD0C006EF8044636B100232B70FFF713FF08B121
:10AD1C00FFF756F8204670BDA41E0020941E00209C
:10AD2C0010B501460E4800F048F80446A8B90D4885
:10AD3C000D4A0378D35C63B1043001F06FF860B94D
:10AD4C000A49074800F04BF838B9BDE81040FFF746
:10AD5C0005BF0C3000F096FDF1E7204610BD00BF9A
:10AD6C00A81E002018120020D81E0020B91E00209A
:10AD7C0008B50748074A0378D35C23B1043000F0C8
:10AD8C00BDFF002008BD0C3000F012FDF9E700BF3C
:10AD9C0018120020D81E002010B5034649B152B13C
:10ADAC00541E14EA020006D1986019609C80D86089
:10ADBC0010BD0E20FCE70920FAE710B58468C268C4
:10ADCC008388121B934208D3C26813400268D15483
:10ADDC00C3680133C360002010BD0420FCE7826807
:10ADEC00C3689A420AD08268838813400268D35C95
:10ADFC000B70836801338360002070470520704717
:10AE0C00C3688360002070474FF08053D3F8300143
:10AE1C00A0F10A035842584170470000024AD2F888
:10AE2C000034002BFBD0704700E0014010B5FFF759
:10AE3C00EBFF48B14FF080534FF08042D3F84432CF
:10AE4C00C3F34233C2F83C35FFF7DEFF40B14FF09D
:10AE5C0080430022C3F80C21C3F81021C3F8382515
:10AE6C00FFF7D2FF002846D04FF08052494BD2F862
:10AE7C000414C3F82015D2F80814C3F82415D2F81A
:10AE8C000C14C3F82815D2F81014C3F82C15D2F8EA
:10AE9C001414C3F83015D2F81814C3F83415D2F8BA
:10AEAC001C14C3F84015D2F82014C3F84415D2F87A
:10AEBC002414C3F84815D2F82814C3F84C15D2F84A
:10AECC002C14C3F85015D2F83014C3F85415D2F81A
:10AEDC003414C3F86015D2F83814C3F86415D2F8DA
:10AEEC003C14C3F86815D2F84014C3F86C15D2F8AA
:10AEFC004424C3F87025FFF787FF48B14FF0804317
:10AF0C00D3F80024D20744BF6FF00102C3F8002429
:10AF1C004FF08053D3F830210A2A0AD1D3F83431B8
:10AF2C003BB14FF08042D2F8E43E43F00F03C2F83D
:10AF3C00E43E4FF01023D3F80022002A03DBD3F8B1
:10AF4C000432002B22DA144901234FF01020C1F8EF
:10AF5C0004351524FFF762FFC0F80042FFF75EFFCF
:10AF6C00C0F80442FFF75AFF0023C1F80435FFF77D
:10AF7C0055FFBFF34F8F0949094BCA6802F4E062D1
:10AF8C001343CB60BFF34F8F00BFFDE7054B064A61
:10AF9C001A6010BD00C0004000E0014000ED00E070
:10AFAC000400FA052C1200200090D00338B5074C91
:10AFBC00051E04F1080318BF1C4623682BB11A6840
:10AFCC0022605B6828469847F7E738BDC41E00200E
:10AFDC0020B9054B01225A70FFF7E8BF012802D1B6
:10AFEC00014A9070F8E77047BC1E002020B9034B53
:10AFFC0001225A70FFF7DABF704700BFBC1E002059
:10B00C0038B50E4C2378B3B90D486360A360236147
:10B01C00E36000F0E7F8054602F09EF908B900F08D
:10B02C00EDF801232370074BD3F800340BB1012347
:10B03C00A370284638BD8525F5E700BFBC1E00204F
:10B04C00DDAF01000000014037B50D4C00230DF1C0
:10B05C0007008DF80730FFF7ADF9E368013BE360BB
:10B06C00E36833B9074BD3F8005415B900F0D8F89E
:10B07C00A5709DF80700FFF7C1F903B030BD00BF04
:10B08C00BC1E002000000140012813B50CD0032881
:10B09C0020D038B9134B0122C3F88020BFF34F8F57
:10B0AC00BFF36F8F02B010BD0F4C00230DF10700E2
:10B0BC008DF80730FFF77EF923780BB9FFF7A0FF67
:10B0CC00E3689DF807000133E3600123A370FFF7E9
:10B0DC0095F9E7E700F092F802B0BDE81040FFF7F1
:10B0EC00B3BF00BF00E100E0BC1E00201FB5037819
:10B0FC008DF800304368019383688DF80830C3687D
:10B10C00054A0393054B684653F8213052F8211039
:10B11C00984705B05DF804FBD01E0020D41E00201B
:10B12C001FB503788DF800304368019383688DF860
:10B13C000830C368054A0393054B684653F8213021
:10B14C0052F82110984705B05DF804FBD01E002082
:10B15C00D41E0020F0B5194B90F800C091F81DE0FA
:10B16C0043F82C20164B16460A6943F82C20154B35
:10B17C0003F80CE00C4607460FCC89B06D460FC5A2
:10B18C0094E80F0085E80F00CDF810C0BEF1000F59
:10B19C0009D0002E0C4A694608BF3246381D00F013
:10B1AC00EBFC09B0F0BD002E084A694608BF3246D8
:10B1BC0007F10C0000F048FAF3E700BFD41E0020A2
:10B1CC00D01E0020D81E0020F9B001002DB10100C6
:10B1DC0000F18040002382B0036003680193019B5F
:10B1EC0002B07047044B0246187918B91A60012254
:10B1FC009A80704785207047DC1E0020074B1A6828
:10B20C00D20704D4C02283F8002301221A604FF025
:10B21C0080430122C3F81825704700BF00E100E00D
:10B22C004FF0804208B50223C2F808334FF4827005
:10B23C00FFF7CEFF0123D360D2F81834DB03FBD425
:10B24C0008BD00004FF0804110B5D1F8003163B15A
:10B25C004FF48070FFF7BCFF0D4B58790122C1F8F9
:10B26C00082310B95A711B6898474FF08042D2F8E6
:10B27C00043163B14FF48270FFF7AAFF0223C2F8C6
:10B28C000833034BBDE810401B680120184710BD64
:10B29C00DC1E002000F1804000F5C040002382B08D
:10B2AC00036003680193019B02B07047800000F1BA
:10B2BC00A040D0F8002722F44032C0F80027D0F884
:10B2CC00003743EA0143C0F8003770472DE9F743D4
:10B2DC0000244A4D01944FF48072012102F1804305
:10B2EC0003F5C04390B21B68012B06D1D5F804338B
:10B2FC000B4202D0FFF7CEFF0C430432B2F5907F25
:10B30C004FEA4101EAD13D4BD3F87C31012B0CD1F2
:10B31C004FF4BE70FFF7BEFF4FF0A04344F0004463
:10B32C00D3F820250192C3F82025E3B2D3B1344FD2
:10B33C0000250126344210D0AB0003F1804303F505
:10B34C00C043D3F81005D3F8101557F8253023B1A6
:10B35C00C1F30141C0F3042098470135082D4FEA91
:10B36C004606E7D1002C1FDADFF894904FF0A04787
:10B37C0099F944305A1C10D0C3F3C20208326A4403
:10B38C00DCB212F8042C03F03F054FF0010803F077
:10B39C00070308FA03F31A4209D1D7F820350193B1
:10B3AC00C7F82035002BE3D103B0BDE8F08305F5D9
:10B3BC00E073284657F82360C6F30146022E0CBFF3
:10B3CC0003210221FFF772FF08FA05F3C7F82035B5
:10B3DC0009EB050393F9243059F82330002BDCD00A
:10B3EC00A109032903D0022E04D10129D5D1284665
:10B3FC009847D2E7032ED0D10229F7E7006000402E
:10B40C00E41E0020014B1B68184700BF301F0020B2
:10B41C000E4B984237B50C4602D0002003B030BD1D
:10B42C0000230DF107008DF80730FEF7C3FF084B22
:10B43C001D7915B901221C601A719DF80700FEF7E1
:10B44C00DDFF002DE9D01120E8E700BF002000400F
:10B45C00301F0020034B984201BF034B00221A609F
:10B46C001A71704700200040301F00200023435009
:10B47C0082B043580193019B02B070470A4610B545
:10B48C004FF48E71FFF7F2FF136A9168C95C136A6F
:10B49C0001331362C0F81C1510BD024608B50068D4
:10B4AC004FF49271FFF7E2FF10684FF48471FFF7CD
:10B4BC00DDFF136801221A6008BD8B690A4610B5BE
:10B4CC004FF4847123B9FFF7D1FFD0F8183510BDB4
:10B4DC00FFF7CCFF536AD168D0F81805C854536AEB
:10B4EC0001335362F3E700001FB501238DF80030E0
:10B4FC00044BCDE90110D3E900126846904705B022
:10B50C005DF804FB381F002030B54D4DD5F80433E1
:10B51C009A0585B051D5D5F82431002B4DD04FF478
:10B52C0092712846FFF7A2FF4FF40173C5F8083358
:10B53C00444B93F829200AB901226A60404902223F
:10B54C008DF80020D1F88024C1F8802403929A69E8
:10B55C000292DA6801920022C3E906226846D3E916
:10B56C00001290473648D0F81C315BB1354A51690E
:10B57C00136A99424DD992F82830002B49D11146C3
:10B58C00FFF77CFF2E48D0F84431002B56D04FF4F7
:10B59C00A271FFF76BFF2B4B93F829200AB1012204
:10B5AC0002609A69002A49D0586AD96800229A61C7
:10B5BC0005B0BDE83040FFF797BFD5F804335B0703
:10B5CC00D0D5D5F80831002BCCD01E4C1C482146C8
:10B5DC00FFF773FF636AA2699A42C3D1E369E1681A
:10B5EC004BB1A3612369E3600023606AE36163628A
:10B5FC00FFF77AFFB6E794F829300BB901236B609B
:10B60C000F4B4FF40172C3F808230023606AA36147
:10B61C00EEE70B484FF48E71FFF728FF5369002BB0
:10B62C00B0D051690291002391688DF800300191DE
:10B63C0053616846D2E900139847A3E705B030BDC3
:10B64C0000200040381F00202DE9F843534D90F89E
:10B65C0004802C2303FB0853064693F82A300C462F
:10B66C009146002B40F096804D490068FFF7D0FEC4
:10B67C000746002840F0908022683068511C0BD09F
:10B68C004FF0A04101239340C1F8083502F5E07357
:10B69C004FF0030C41F823C061684B1C1FBF01F530
:10B6AC00E0734FF0A04C4FF0000E4CF823E0A36970
:10B6BC00C0F8243594F814C0637DBCF1010F4CEA3A
:10B6CC000303C0F86C35C0F81415C0F80C251DD157
:10B6DC00A268531C1FBF02F5E0734FF0A0414FF05E
:10B6EC00000C41F823C0E368591C0BD04FF0A04C60
:10B6FC0001219940CCF8081503F5E0714FF0030EC9
:10B70C004CF821E0C0F80835C0F810252C2202FBBB
:10B71C0008F2AB18C3F804902369AB50B9F1000FD1
:10B72C0020D04FF48E71247FFFF7A0FE4FF4A2714E
:10B73C003068FFF79BFE32681A4BC2F80433130BC8
:10B74C0042F307326101002AC9B21EDB1648841885
:10B75C0084F800130121520903F01F0301FA03F3CB
:10B76C0040F8223033680422C3F800252C2303FB55
:10B77C0008530022C3E9062283F829205A610122CA
:10B78C0083F82A203846BDE8F883084A03F00F03F3
:10B79C00D154E7E70827F5E71127F3E7381F002016
:10B7AC0015B501008000020000E100E014ED00E09E
:10B7BC00F8B503680579304C0022C3F800252C221B
:10B7CC0002FB05425268A2B12C4AC3F808231A0B9B
:10B7DC0043F30733002B0CDB02F01F015B09012242
:10B7EC008A402033264941F82320BFF34F8FBFF303
:10B7FC006F8F0068D0F80C65D0F81415D0F80835A8
:10B80C00D0F810254FF0FF37BE42C0F8147518BFA2
:10B81C0006F5E076C0F80C75C0F80875C0F8107520
:10B82C001EBF4FF0A0474FF0020C47F826C04E1C2D
:10B83C001FBF4FF0A04601F5E071022746F82170BA
:10B84C00511C1FBF4FF0A04102F5E072022641F8D7
:10B85C0022605A1C1FBF03F5E0734FF0A042022177
:10B86C0042F82310FFF7F6FD2C2303FB05440023BD
:10B87C0084F82A306360F8BD381F0020840202006F
:10B88C0000E100E00279044B2C2101FB02335869E2
:10B89C00003818BF01207047381F00202DE9F84FE1
:10B8AC00064690F8048089469246FFF7EBFF044663
:10B8BC0000283CD1204F2C2508FB057B4FF48E71C2
:10B8CC00CBF814A0CBF80890CBF820008BF828000C
:10B8DC003068FFF7CBFD3068012383605946FFF7D2
:10B8EC00CDFDDBF804305D461BBB3068DBF8144043
:10B8FC002B6A9C4211D83368D3F81C21002AFBD048
:10B90C000122DA6000202C2303FB087700237B61E3
:10B91C00BDE8F88F95F828303BB9D0F81C31002BD6
:10B92C00F8D05946FFF7AAFDE2E70F20EBE711200C
:10B93C00EEE72046ECE700BF381F00202DE9F0476A
:10B94C003A4D07792C2303FB075306465C6824B158
:10B95C0003684FF40170C3F808032C2303FB07534F
:10B96C00986950B1D869002841D024B133684FF49C
:10B97C000172C3F80423112436E09A61D96058622D
:10B98C00D8612C2303FB075393F829301BB910B94A
:10B99C003046FFF782FD4FF02C0808FB075A306841
:10B9AC00DAF80430002B37D14FF4A271D046FFF7F0
:10B9BC005DFD3068D0F82491D0F80831D0F84441BE
:10B9CC00CBB914B9B9F1000FF3D02C2303FB0755F5
:10B9DC000023AB61B9F1000F24D12CBB95F82910D1
:10B9EC0033680122B1B11A602046BDE8F0871961B5
:10B9FC00DA610120C5E7B9F1000FE6D1002CE4D1E2
:10BA0C004146FFF75AFDDAF82430DAF818209A424A
:10BA1C00CFD8DAE75A60E7E74FF40173C0F8043384
:10BA2C000024E1E70324DFE70F24DDE7381F0020C3
:10BA3C000023435082B043580193019B02B07047DE
:10BA4C001FB501238DF80030044BCDE90110D3E96B
:10BA5C0000126846904705B05DF804FB641F002097
:10BA6C007FB5434AD2F82461002E60D010464FF4C3
:10BA7C009271FFF7DDFF02238DF80030D2F880348D
:10BA8C00C2F880340393D2F83C350293394BDA6810
:10BA9C0001920022C3E906226846D3E900129047BE
:10BAAC003348D0F8443173B14FF4A271FFF7C0FFA3
:10BABC00304B9A693AB10022C3E90622D968D0F812
:10BACC003C05FFF7BDFF2A48D0F82031ABB14FF44D
:10BADC009071FFF7ADFF0123C360264B5A6962B129
:10BAEC00D0F84C150291002299688DF80020019134
:10BAFC005A616846D3E9001290471D48D0F8583176
:10BB0C009BB14FF4AC71FFF793FF1A4B5A6962B1BA
:10BB1C00D0F84C150291002299688DF80020019103
:10BB2C005A616846D3E90012904704B070BDD2F850
:10BB3C001031002BB4D04FF488711046FFF778FF0A
:10BB4C000C4BD2F83C0599698842A9D1DC69D968BB
:10BB5C0064B1D2F8005225F02005C2F800521A69DF
:10BB6C009C61DA60DE61FFF76BFF99E79C61FAE795
:10BB7C0000200040641F00202DE9F8435A4E90F835
:10BB8C000480242303FB0863044693F820300D46FD
:10BB9C009146002B40F0A38054490068FFF738FC15
:10BBAC000746002840F09D802A682068511C0BD065
:10BBBC004FF0A04101239340C1F8083502F5E07322
:10BBCC004FF0030C41F823C069684B1C1FBF01F5F3
:10BBDC00E0734FF0A04C4FF0000E4CF823E0AB6933
:10BBEC00C0F8243595F814C06B7DBCF1010F4CEAFC
:10BBFC000303C0F86C35C0F80C25C0F814151DD122
:10BC0C00AA68531C1FBF02F5E0734FF0A0414FF020
:10BC1C00000C41F823C0EB68591C0BD04FF0A04C22
:10BC2C0001219940CCF8081503F5E0714FF0030E93
:10BC3C004CF821E0C0F80835C0F81025242202FB8E
:10BC4C0008F2B318C3F804902B69B350B9F1000F84
:10BC5C002FD04FF488712A7FFFF7EAFE20684FF44B
:10BC6C009071FFF7E5FE20684FF49271FFF7E0FE4C
:10BC7C0020684FF4A271FFF7DBFE4FF4AC71206823
:10BC8C00FFF7D6FE23681A49C3F80413190B43F3C4
:10BC9C0007335201002BD2B21CDB1648C51885F8AD
:10BCAC00002301225B0901F01F0102FA01F140F8A7
:10BCBC00231023680822C3F80025242303FB0866FD
:10BCCC000023C6E906337361012386F82030384619
:10BCDC00BDE8F883084B01F00F015A54E9E7082737
:10BCEC00F5E71127F3E700BF641F00206DBA0100D0
:10BCFC001003420000E100E014ED00E0F8B5444C04
:10BD0C000579242303FB054302465B680068ABB14D
:10BD1C00404BC0F8083340F30733002B4FEA103187
:10BD2C000CDB01F01F065B090121B14020333A4EB8
:10BD3C0046F82310BFF34F8FBFF36F8FD0F800324C
:10BD4C0023F02003C0F80032242303FB05439B6936
:10BD5C002BB14FF4A271FFF76BFE012343604FF43C
:10BD6C00AC71FFF765FE0123C360242303FB05437D
:10BD7C00D0F858110029FBD0996919B1D0F84411A9
:10BD8C000029F5D00023C0F800351368D3F80C75E2
:10BD9C00D3F81465D3F80825D3F810154FF0FF3CF1
:10BDAC006745C3F80CC518BF07F5E077C3F814C591
:10BDBC00C3F808C5C3F810C51EBF4FF0A0434FF021
:10BDCC00020C43F827C0771C1FBF4FF0A04306F5A9
:10BDDC00E076022743F826704E1C1FBF01F5E07178
:10BDEC004FF0A043022643F82160531C1FBF4FF0B5
:10BDFC00A04302F5E072022143F82210FFF72AFB60
:10BE0C00242303FB0544002384F820306360F8BD31
:10BE1C00641F00201003420000E100E00279044B93
:10BE2C00242101FB02335869003818BF01207047E8
:10BE3C00641F002001F06043B3F1005F2DE9F0476F
:10BE4C000646884692463BD190F80490FFF7E6FFF1
:10BE5C000446002836D11D4F3068242505FB097592
:10BE6C004FF49071C5F814A0C5F80880FFF7E0FDF9
:10BE7C004FF4AC713068FFF7DBFD33686A69A96871
:10BE8C00C3F84415C3F8482501229A606A68DAB9E8
:10BE9C00D3F82021D3F858011AB90028F8D00F2074
:10BEAC0007E00028FBD10122DA60D3F85821002AE0
:10BEBC00FBD0242303FB097700237B61BDE8F087CB
:10BECC001020FBE71120F9E72046F7E7641F00205C
:10BEDC00F8B501F06043B3F1005F04460F465ED144
:10BEEC000379304D242101FB0351496821B10068CD
:10BEFC004FF40476C0F80863242000FB03539E69BA
:10BF0C0056B1D869002839D021B123684FF4047296
:10BF1C00C3F80423112030E09A61DF60DE612068F1
:10BF2C004FF48871FFF784FD20684FF4A271FFF77E
:10BF3C007FFD2368C3F83475C3F8382516BB01227E
:10BF4C001A602479242202FB045252680ABBD3F8EB
:10BF5C001011D3F84421D3F82401114302D1002845
:10BF6C00F5D00A46242303FB04550023984218BF3E
:10BF7C0003209A42AB6118BF0F20F8BD1F61DA6134
:10BF8C000126CCE7D3F8002242F02002C3F80022AD
:10BF9C00D7E74FF40472C3F804230020EDE7102018
:10BFAC00EBE700BF641F002013B5084CD4F8003138
:10BFBC004BB1074B1B6898470023C4F80031D4F8E9
:10BFCC0000310193019B02B010BD00BF0000014085
:10BFDC008C1F002070B5114B1960114B1C78054655
:10BFEC00D4B9104E01221A700378C6F80C3541688A
:10BFFC004FF47A720023C803490C03F0BFFCC6F857
:10C00C0004052B7A084A5B01DBB282F810334FF43B
:10C01C0080331360204670BD0820FCE78C1F002085
:10C02C00891F00200000014000E100E0044B0122C8
:10C03C00C3F804231A60034B02221A70704700BF26
:10C04C0000000140891F002037B5054600240DF182
:10C05C0007008DF80740FEF7ADF90C4B1A78072A4C
:10C06C0011D8511C19700A492A70D1F808050123FE
:10C07C0093400343C1F808359DF80700FEF7BEF95D
:10C08C00204603B030BD0424F6E700BF881F002013
:10C09C0000000140034B044A00F5C07043F8202017
:10C0AC00704700BF000001403546526E00F18040E1
:10C0BC0000F5E040002382B0036003680193019B0C
:10C0CC0002B07047F0B5524B524CD3F8043185B0E6
:10C0DC00002B3DD094F82E204FF48270FFF7E6FF32
:10C0EC002AB394F82F3013BB494AD2F80031002BF5
:10C0FC0032D04FF48070FFF7D9FF638B94F82D008A
:10C10C00834250D921891B1A9BB289B26383CB1A03
:10C11C00616801EB4303C2F82C36C2F830064FF4C9
:10C12C008270FFF7C3FF3A4B01225A6014E0636838
:10C13C0002932389ADF80C30E36800218DF80410CC
:10C14C0033BB2374236801A89847002384F82F304D
:10C15C0094F82E30002BC7D12D4BD3F810315BB196
:10C16C004FF48870FFF7A2FF0023237402238DF88D
:10C17C00043001A823689847254BD3F81431EBB150
:10C18C004FF48A70FFF792FF0023237405B0F0BDC3
:10C19C00208B608363602081E160002AD2D11C4B2C
:10C1AC0001221A60CEE7BAD1E368012184F82F107E
:10C1BC0013B100216183AEE76383B0E766694FF08A
:10C1CC0000470125002EE1D0B6FA86F227FA02F3D9
:10C1DC004632920026EA030602F1804303F5E0435F
:10C1EC001B68002BEED01046A2F58C72FFF75EFF99
:10C1FC00D30882F00402C2F380028DF808308DF867
:10C20C00045023688DF8092001A89847DAE700BF8D
:10C21C0000700040901F002038B5204A92F82C3056
:10C22C000446002B37D111601D490078C1F8F00588
:10C23C006078C1F8F4050125E078137482F82D308C
:10C24C00536182F82F306FF0004382F82E0082F891
:10C25C002C504FF48270C1F80833FFF727FF4FF4CE
:10C26C008070FFF723FF4FF48A70FFF71FFFA3784E
:10C27C000C485B01DBB280F8073380230360022398
:10C28C00C1F8043392F82E300BB1C1F80453C1F845
:10C29C000055002038BD0820FCE700BF901F00208F
:10C2AC000070004000E100E070B52A4B1A7C02F0EF
:10C2BC00FF05002A4BD10A79012A9CBF264CC4F8F1
:10C2CC00005500F10C0503EB4504247924B993F8CF
:10C2DC002D40013483F82D4003EB4503CC790D7AC6
:10C2EC008E781C715D714B7836021B0106F4E0668A
:10C2FC0003F0300333430E7806F003063343CE7855
:10C30C00360306F480563343160406F4E026334312
:10C31C004E798979360506F480160906334301F007
:10C32C0080710B430C4901EB0016000100F18040B9
:10C33C0000F5E040012AC6F81835C0F81455C0F8CD
:10C34C00104502D80123C1F80035002000E011206F
:10C35C0070BD00BF901F00200070004070B5324AC5
:10C36C00147C04F0FF03002C5CD1304C0125032617
:10C37C001574C4F80863C4F82C16C4F8305692F837
:10C38C002D40AC420CD91D46190101F1804101F53B
:10C39C00E0410133082BC1F81455C1F81055F3D105
:10C3AC0000F10C03000102EB430300F1804000F5A7
:10C3BC00E04019795B79C0F81435C0F810151B49A9
:10C3CC0001230B604B6042F21073D1F8040108B9E1
:10C3DC00013BFAD14FF48070FFF768FE4FF4827086
:10C3EC00FFF764FE012C11D90F4800210B0103F15A
:10C3FC00804303F5E0430131047F457FC3F81455B6
:10C40C000829C3F8104500F10200EFD192F82E1064
:10C41C00064B29B103210020C3F80413107470BD1E
:10C42C000221F8E71120FAE7901F0020007000406D
:10C43C00F0B51C4F8BB207EB001443EA0243C4F86F
:10C44C001C35194B40005C6900F1010C4FF00046A3
:10C45C0011F5006F26FA0CF64FF0800505FA00F581
:10C46C000BBFB44334435C615C610CBFC7F8085329
:10C47C00C7F804534FF0004140245D69844021FA11
:10C48C0000F040F2FF718A42064A0BBF25EA000019
:10C49C002843586158610CBFC2F80843C2F80443E2
:10C4AC00F0BD00BF00700040901F002010B5124B73
:10C4BC001A7CF2B900F10C0103EB4102127922B1A2
:10C4CC0093F82D20013A83F82D2003EB410300242F
:10C4DC009C80030103F1804303F5E0430749C3F853
:10C4EC00144540F2FF72C3F81045FFF7A1FF204638
:10C4FC0010BD1120FCE700BF901F002000F8FFFFCB
:10C50C0038B5144B6FF00042C3F80823124A80214F
:10C51C00C2F88010BFF34F8FBFF36F8F01229A6068
:10C52C0042F21072D3F8141109B9013AFAD10B4D39
:10C53C000024C3F800452C7405EB44031B7F13B196
:10C54C00E0B2FFF7B3FF0134082CF5D1002385F8D6
:10C55C002C3038BD0070004000E100E0901F00203E
:10C56C000023435082B043580193019B02B07047A3
:10C57C000A7B0346032A29D8DFE802F02125190299
:10C58C008A68500304D5D3F84C250869904207D12A
:10C59C008A6852031AD4D3F84C254969914215D0B4
:10C5AC0000200622C3F80005C3F800257047D3F815
:10C5BC004C2508699042F3D1D3F83C25EDE7D3F82C
:10C5CC004C250969EAE7D3F83C25FAE701207047C6
:10C5DC00F0B5594D594CD5F8243187B0FBB14FF417
:10C5EC0092712846FFF7BCFFD5F80431BBB9A3689C
:10C5FC00C5F808330223A360A368C5F80433D5F843
:10C60C0060311BB1D5F800329F0503D44A4B01228F
:10C61C001A625A61012384F82E3007B0F0BDD5F8A8
:10C62C000431002B50D044484FF48271FFF798FF2F
:10C63C00236A5E0609D494F82E3033B93F49FFF7CC
:10C64C0097FF80F0010084F82E00236A5D0720D448
:10C65C003B4E0FCE01AD0FC5336837482B604FF4FE
:10C66C00B071FFF77DFF4FF4AE71FFF779FF94F8CF
:10C67C00303013B194F82E305BB12F4B0022C3F83D
:10C68C000022A2602F4AC3F808232F4B0822C3F8BC
:10C69C008021294AD2F8C434C2F8C43498073DD555
:10C6AC0001238DF8003094F830300BB984F82F301A
:10C6BC00236A5B0703D594F82E30002BADD0D4E958
:10C6CC00003168469847A8E71B484FF4A471FFF760
:10C6DC0047FF237B83B91A4F0FCF01AE0FC63B68C0
:10C6EC00336094F83030002BD3D1C5F80032A360FE
:10C6FC00144BC5F80833C8E74FF40073C5F8003283
:10C70C0040F20223A36003F1CE73C5F80833A3688B
:10C71C00C5F804330123AB602B627EE7590701D5C2
:10C72C000223BEE7DA0701D50323BAE794F82E30CB
:10C73C00002BB6D00423B4E700300040C01F00200B
:10C74C00CC1F002002029C0100E100E070B5114EEC
:10C75C00114D002333704FF0A0434FF40042C3F847
:10C76C000825142445F001054FF47A40A847013CF4
:10C77C00FAD101F0A5FA3378002BFCD00748084B0E
:10C78C000849C01AC0080004BDE8704040F003001E
:10C79C00FDF724B9C5230020202A0200182002002E
:10C7AC00D81F0200F52602008FB54FF480610020DF
:10C7BC00FCF776FF08B1FDF703FBFCF7B1FE00F0C8
:10C7CC0045FFFEF74DF908B1FDF7FAFA4FF0A0431B
:10C7DC0003224FF48051C3F830270027C3F80C15FF
:10C7EC004FF40041C3F83C27C3F80C15C3F870771D
:10C7FC00C3F840274FF48032C3F80C25BC4DBD4B19
:10C80C00BD4ABE49BE4EDFF8FC92ED1AED082D0470
:10C81C004FF0804845F00304BB4B2046FDF7EBF886
:10C82C00D8F80034B9494FF0FF32C8F8002420463C
:10C83C00B74A0093B74BFDF7E8F84EF6602001F0CD
:10C84C0039F94FF47A71384600F052FF01F0E4FAEE
:10C85C000123C9F80070C6F80475C8F800303360BD
:10C86C00D6F80031002B74D00023C6F80031D6F86E
:10C87C000835D6F80825A249A74F9B0544BF6FEA97
:10C88C0082526FEA9252002AB8BF033201239210EF
:10C89C00C9F800204B604FF0804120464B609F4907
:10C8AC00FDF7A0F802F0B4FA142647F001074FF494
:10C8BC007A40B847013EFAD1994E02F0AAFA3046B6
:10C8CC0001F0BEF87379039333790293F3780193F3
:10C8DC00B37800937378327892499348934E03F06F
:10C8EC00C5FA01F047F8FFF731FF02F047F901F004
:10C8FC00AFFEDFF83C8298F80030012B2CD0022BD5
:10C90C0000F0B580002BF8D18A492046FDF766F877
:10C91C0002F0DAF940B9884B1A68511C196045F0DD
:10C92C0001008649FDF75EF800F092FF844A03236C
:10C93C001380844A40F2E2411180834A0021118025
:10C94C00824A1380824A1380824B05221A8001236B
:10C95C0066E001F0CFF883E77F4B804F1B78012B0B
:10C96C0023D07F49DFF8EC912046FDF737F801F032
:10C97C00CFF94FF0A0434FF40042C3F80C25794A8D
:10C98C007949002313701370784A33701360204672
:10C99C00B9F800203B70FDF725F8B9F800304FF4DA
:10C9AC007A715943052000F0A3FEDFF8C49133E0FF
:10C9BC003378032B50D8DFE803F0022436466B4B58
:10C9CC00DFF87CA11A686B49013220461A60FDF72A
:10C9DC0009F800F0CFFF00F0F5FF00F07BFFBAF88C
:10C9EC00002065492046FCF7FDFFBAF800304FF4F3
:10C9FC007A715943012000F07BFE00F0A5FF04235F
:10CA0C0009E0012000F0FAFE5C492046FCF7E6FF45
:10CA1C0000F0A8FF022333703B78002BC8D0022310
:10CA2C0088F8003065E7DFF81CA100F0C1FF204654
:10CA3C00BAF800205249FCF7D5FFBAF800100220D2
:10CA4C0000F056FEDBE7022000F0D8FE49462046F7
:10CA5C00FCF7C4FF0023DEE702F0DDF901F04AF831
:10CA6C00FCF770FE0028D7D1FEF710F8D4E7454F3D
:10CA7C00364B3A681B88384801329A423A6040F289
:10CA8C008B8000230370052000F0B8FE00233B6070
:10CA9C003378022B17D045F002073B493846FCF798
:10CAAC009DFF3A493846FCF799FF012000F0A6FE9D
:10CABC00022000F0A3FE00F055FF00F079FF34498E
:10CACC003846FCF78BFF33492046FCF787FFFFF70E
:10CADC003DFE02F0F9F800287FF439AF164B1A68C6
:10CAEC00511C196045F001001449FCF77BFF2EE73F
:10CAFC0018200200D81F0200232702002F27020053
:10CB0C0000C00040F41F00201A270200A5270200D5
:10CB1C009727020089270200202A0200E32702003F
:10CB2C0019200020F52702000C200020F81F0020FF
:10CB3C00FA1F00200E2802000420002034280200D6
:10CB4C00301200203212002034120020FC1F002072
:10CB5C00FE1F002036120020F91F0020C2220020E8
:10CB6C0057280200C52300207F2802000020002047
:10CB7C0032290200A9280200E12802000129020042
:10CB8C001829020008200020412902006229020015
:10CB9C007C290200952902000A4909888A4294BF1F
:10CBAC004FF0010C4FF0000C80F800C03FF66BAF5B
:10CBBC00009145F002000449FCF727FF034B0022CB
:10CBCC001A70C4E6FE1F0020AE290200C22200200B
:10CBDC000369C26893429CBF80681B18013B981A7A
:10CBEC0070472DE9F843D0E902940546A9EB0408F7
:10CBFC004068904520440F46144404D903F092FC3D
:10CC0C00EC60BDE8F8834246A4EB090403F08AFC0F
:10CC1C006868224607EB0801F0E72DE9F843C56880
:10CC2C000646894617464FF000083469B3687068A9
:10CC3C00A54228BFE418013C621B5C1BBC4228BF08
:10CC4C003C46944228BF144649462844224603F0E9
:10CC5C0069FCB3682544AB4208BF00253F1BA044C8
:10CC6C00A144F560E1D14046BDE8F88310B5114C04
:10CC7C00114AA2610223C4E90433104BE361A2649C
:10CC8C004FF400730E4A0F492362E2640023102212
:10CC9C00E01DA3626362E362A3656365E3652265DD
:10CCAC0003F09CFC0849204603F098FC2023A37158
:10CCBC0010BD00BF34200020262A0200BC2000201A
:10CCCC00AC2000202F2A0200332A020070B5164B2C
:10CCDC00182400FB04451D4404FB00331646DC6A93
:10CCEC00012C0ED0022C18D0E4B92846FFF770FFA7
:10CCFC00864204D832462846FFF773FF3446204656
:10CD0C0070BD2846FFF764FF8642344628BF0446B0
:10CD1C0022462846FFF765FFF1E72846BDE870403C
:10CD2C00FFF77BBF0024EAE734200020FFF79EBF0B
:10CD3C006DDF704779DF70477DDF704764DF7047C8
:10CD4C002DE9F04F85B000250E9CBDF83CB0B4F831
:10CD5C0000A00191074690461E46A9463A884A45CE
:10CD6C000DDC45B12388013BA3EB0A039BB2FF2BDF
:10CD7C003AD806F80A30002005B0BDE8F08F7A6882
:10CD8C0052F82900039000220DF10B0103A8FFF7C4
:10CD9C00D5FF0028F0D19DF80B20424521D12288E7
:10CDAC00002D14BF0020022002EB0801014459455C
:10CDBC001ADC3DB9013292B2019B2280B354228815
:10CDCC000132228022880DF10B01324403A8FFF7B7
:10CDDC00B5FF0028D0D121889DF80B200A44228071
:10CDEC00012509F10109B9E70C20C5E72DE9F3414B
:10CDFC00089FBDF824801546CDE900780222044630
:10CE0C001E46FFF79DFF50B9334610222946204697
:10CE1C00CDE9087802B0BDE8F041FFF791BF02B050
:10CE2C00BDE8F0812DE9F04F00231788138090F8AE
:10CE3C002D3085B006460D4614465BB3082F01D83D
:10CE4C000C2028E102A8FFF773FF002840F0238193
:10CE5C002388DDF809100822EA54238801339BB299
:10CE6C001B222380EA54238801339BB2EA182380C7
:10CE7C00E950BDF80D30938023889DF808200633C7
:10CE8C009BB212F0FE0218BF01222380EA542388C1
:10CE9C0001332380B378FBB123880433BB42CFD852
:10CEAC0002A8FFF747FF002840F0F58023880322F3
:10CEBC00EA54238801339BB219222380EA54238835
:10CECC00BDF8082001339BB2E9182380EA54120AFA
:10CEDC004A70238802332380F2789AB12388D91CB4
:10CEEC00B942ADD80221E954238801339BB2012108
:10CEFC002380E95423880B449BB22380EA54238873
:10CF0C000B4423807268AAB12388D91CB94297D8E4
:10CF1C00022192F90020E954238801339BB20A21A3
:10CF2C002380E954238801339BB22380EA5423885D
:10CF3C00013323803389002B40F0A180338A5BB10D
:10CF4C00CDE900472B460722032106F11000FFF71D
:10CF5C004DFF002840F09F80338B5BB1CDE900473B
:10CF6C002B461522142106F11800FFF73FFF00286D
:10CF7C0040F09180326A002A40F09080D6F82480EC
:10CF8C00B8F1000F30D0B8F804302188981C8A1CF6
:10CF9C000244BA423FF654AFFE283FF651AF03337A
:10CFAC006B54238801339BB2FF222380EA542388DD
:10CFBC0001339BB22380B8F80020EA54E918120A16
:10CFCC004A702088023080B22080B8F804205AB110
:10CFDC00D8F8081000296BD0284403F0A3FA238852
:10CFEC00B8F804201344238096F82C30002B40F022
:10CFFC009880307800284ED03388012B58D0228866
:10D00C0002F1020CBC453FF61BAF012805D1737829
:10D01C00023313449F42FFF413AF023FBF1ABFB257
:10D02C0002A905EB0C00ADF80870FFF785FE90BB6C
:10D03C003178BDF80830022900F0B98072789A4234
:10D04C0002D39F4280F0B180012940F0B280974218
:10D05C0093B2C0F0AE80ADF808300821BDF80830AE
:10D06C00FE2B3FF6EDAE22880133AB542288013201
:10D07C0092B22280A9542288134423800BE0CDE97C
:10D08C0000472B460622022106F10800FFF7AEFEF0
:10D09C0000283FF453AF05B0BDE8F08FB4F800C0E2
:10D0AC000CF10603BB423FF6CBAE1188052901D823
:10D0BC000720F0E76FF4486E01EB0E039BB24FF2C2
:10D0CC007D3E7345F4D95388052BF1D96FF4486034
:10D0DC00181880B27045EBD94FF6FF70814201D021
:10D0EC009942E5D8052305F80C30238801339BB20F
:10D0FC0012212380E954238801339BB223801188A9
:10D10C00E954E818090A4170238802339BB2238042
:10D11C005288EA54E918120A4A7023880233238091
:10D12C002CE7B36A002BC3D04FF000084FF00C0A69
:10D13C004FF0160BB16A5FFA88F20AFB02F201EBB0
:10D14C000209B9F80430981CFE283FF679AE208805
:10D15C0003332B54238801339BB2238005F803B08F
:10D16C00238801339BB223808A5AEA54E918120AA5
:10D17C004A702088023080B22080B9F804205AB15D
:10D18C00D9F80810002993D0284403F0CBF9238850
:10D19C00B9F804201344238096F82C2008F10108D8
:10D1AC005FFA88F39A42C5D823E7092156E79F42D4
:10D1BC00FBD2ADF8087050E710DF704711DF7047F5
:10D1CC0013B5044609496846FDF775FC019808B982
:10D1DC0002B010BDD0E900312046984718B168461E
:10D1EC00FDF773FCF2E71120F2E700BF482A0200BA
:10D1FC0013B5044607496846FDF75DFC019B0BB966
:10D20C0002B010BD2046D3E9002190476846FDF7D7
:10D21C005CFCF3E7602A0200084B9A6822B11A689A
:10D22C0022F480021A607047054B4FF48002C3F859
:10D23C008020BFF34F8FBFF36F8F7047741E002099
:10D24C0000E100E00B4991F816335A09EC23134125
:10D25C00DB0706D5084B9A683AB94FF480030B608C
:10D26C00704742F20200FCF7ABBD1A6842F4800230
:10D27C001A60704700E100E0741E0020F7B5194FEA
:10D28C003C7864BB184E012520463570FFF798FF9B
:10D29C00112821D02046FFF7ABFF144B8DF803402B
:10D2AC00186801900DF10300FDF784F8104901A8EE
:10D2BC00FFF782FF0446B0FA80F0400938709DF801
:10D2CC000300FDF79BF83CB90A4B34701C70FFF758
:10D2DC00B9FF2846FFF78CFF204603B0F0BD0824A9
:10D2EC00FAE700BFBD220020BC220020422A020027
:10D2FC00E99D0100BE220020F7B5154F3B781BB30A
:10D30C00144E01203070FFF75BFF11284FF0000521
:10D31C001CD00220FFF76CFF0DF107008DF80750B1
:10D32C00FDF748F8FFF74AFF04469DF807003D70EB
:10D33C00FDF764F82CB903203470FFF76DFFFFF78D
:10D34C0057FF204603B0F0BD0824FAE72C46F8E757
:10D35C00BD220020BC220020014B1878704700BF72
:10D36C00BD22002007B508496846FDF7A4FB019BC8
:10D37C0013B903B05DF804FBD3E90020904768466D
:10D38C00FDF7A3FBF3E700BF542A0200FFF7EABF47
:10D39C0060DF704769DF704761DF704730B5134B52
:10D3AC001B7891B0FBB1124D34240DF1020103A88E
:10D3BC00ADF80240FFF7F0FF70B9294601A8FDF760
:10D3CC007AFB029B002BF0D003A8D3E900219047F5
:10D3DC0001A8FDF77AFBF4E7052804D011B0BDE8ED
:10D3EC003040FCF7EDBC11B030BD00BFBF220020B7
:10D3FC00A42C020030B50C4685B0002900F08280C8
:10D40C000023CDE90133404A039301230A608DF8D0
:10D41C0004008DF8063001A906232020ADF8083051
:10D42C00FFF7B8FF60B1FDF77BFB384B384902467C
:10D43C0038481B1ADB081B0443F00100FCF7D2FA36
:10D44C0000232268039301A94020CDE90133FFF7A3
:10D45C00A1FF60B1FDF764FB2C4B2F4902462D4810
:10D46C001B1ADB081B0443F00100FCF7BBFA00237A
:10D47C002268039301A90120CDE90133FFF78AFF4C
:10D48C0060B1FDF74DFB214B2449024621481B1A84
:10D49C00DB081B0443F00100FCF7A4FA0023CDE9E0
:10D4AC0002332268F82301A9A1200193FFF772FF30
:10D4BC0060B1FDF735FB154B1949024615481B1A8F
:10D4CC00DB081B0443F00100FCF78CFA00252268F2
:10D4DC00039501A9A020CDE90155FFF75BFF034699
:10D4EC0068B1FDF71DFB094B0E49024609481B1A92
:10D4FC00DB081B0443F00100FCF774FA2B461846BA
:10D50C0005B030BD0E23FAE71012002030200200C7
:10D51C006C2A0200D81F0200B22A0200FE2A020066
:10D52C004A2B02009B2B0200F8B506460768FFF752
:10D53C002FFF3368BB4205461DD91948194C1A49AF
:10D54C00241AE408240444F002042046FCF746FAAA
:10D55C00336816493A462046FCF74DFA4FF0805393
:10D56C003268D3F80C3112499B0203F100539A1A1A
:10D57C002046FCF737FA25B90E4B01221A702846C3
:10D58C00F8BD2846FDF7CCFA064B0B490246044879
:10D59C001B1ADB081B0443F00100FCF723FAEEE72F
:10D5AC00D81F020030200200EE2B02001D2C0200BE
:10D5BC004E2C0200BF220020782C02004BDF70475B
:10D5CC001FB50E4C01A8FFF7F9FF70B9214602A850
:10D5DC00FDF771FA039B002BF4D00198D3E90021DD
:10D5EC00904702A8FDF771FAF4E7052804D004B0BF
:10D5FC00BDE81040FCF7E4BB04B010BDBC2C02002D
:10D60C00024A136801331360704700BFC422002024
:10D61C00014B01221A707047F81F0020014B0322A6
:10D62C001A707047F81F0020014B01221A707047C6
:10D63C00C0220020014B01221A707047C122002029
:10D64C00014B01221A707047C222002008B5FCF76A
:10D65C0011FE08B1FCF7B4FB194A1A480121FCF77A
:10D66C003BFE08B1FCF7ACFB174A18480121FCF74C
:10D67C0033FE08B1FCF7A4FB154A16480121FCF750
:10D68C002BFE08B1FCF79CFB134A14480121FCF754
:10D69C0023FE08B1FCF794FB114A12480121FCF758
:10D6AC001BFE08B1FCF78CFB0F4A10480121FCF75C
:10D6BC0013FE18B1BDE80840FCF782BB08BD00BFE3
:10D6CC000DD60100FC2C02001DD60100F82C020026
:10D6DC0029D60100082D020035D60100002D0200CC
:10D6EC0041D60100042D02004DD601000C2D020084
:10D6FC0070B50C46052817D8DFE800F0031D2E3F47
:10D70C00506100254FF400464FF47A5029464FF4EF
:10D71C00FA420023E4FB060102F030F901463148DD
:10D72C002A46FCF7EBFD0346002B59D0BDE87040B0
:10D73C001846FCF745BB00254FF400464FF47A50D1
:10D74C0029464FF4FA420023E4FB060102F016F9D5
:10D75C002A4601462448E4E700254FF400464FF4DE
:10D76C007A5029464FF4FA420023E4FB060102F0FA
:10D77C0005F92A4601461D48D3E700254FF400461B
:10D78C004FF47A5029464FF4FA420023E4FB060189
:10D79C0002F0F4F82A4601461548C2E700254FF47A
:10D7AC0000464FF47A5029464FF4FA420023E4FB2A
:10D7BC00060102F0E3F82A4601460E48B1E70025BF
:10D7CC004FF400464FF47A5029464FF4FA420023A6
:10D7DC00E4FB060102F0D2F82A4601460648A0E70F
:10D7EC0070BD00BFE8220020C82200204823002082
:10D7FC0008230020282300206823002008B50528D2
:10D80C0008D8DFE800F0030D0F1113150A48FCF7D8
:10D81C00C1FD034673B11846BDE80840FCF7D0BA09
:10D82C000648F4E70648F2E70648F0E70648EEE754
:10D83C000648ECE708BD00BFE8220020C822002003
:10D84C0048230020082300202823002068230020E0
:10D85C0030B5104D104C2B6887B005A8059302F01D
:10D86C0057FE0E49641A0168D0E9043203914168ED
:10D87C00029181680191E408C1680091240444F08C
:10D88C0003000749013302F26C72FCF7D8F82868E0
:10D89C0007B030BDC422002018200200D81F02009F
:10D8AC00C82C020010B58AB0064C01A801F0A2F8F1
:10D8BC00002301A8236002F07FFD2368034423604A
:10D8CC000AB010BDC422002072DF704773DF7047AE
:10D8DC0074DF704700B593B05923ADF80030164B88
:10D8EC0002933C221723002103A8ADF8043002F068
:10D8FC0042FE04238DF80F30104BCDF830D0182297
:10D90C000021184602F037FE05220270A022826028
:10D91C000B4A03A852F8041BFFF784FA08B1FCF772
:10D92C004FFA064A06490748FFF7CEFF08B1FCF745
:10D93C0047FA13B05DF804FB491200208C23002039
:10D94C00381200204812002008B5054B0121187828
:10D95C00FFF7BCFF18B1BDE80840FCF731BA08BDB1
:10D96C004812002008B5024B1878FFF7B1FF08BD2C
:10D97C004812002013B50D4C2378ABB9FFF77EFC91
:10D98C0008B1FCF71DFA002301A901200193FFF750
:10D99C0031FD08B1FCF714FA01A8FFF7C5FD08B179
:10D9AC00FCF70EFA0123237002B010BD882300206F
:10D9BC0008B5FFF7A1FC024B00221A7008BD00BF8E
:10D9CC008823002010B5174C0023A3755223237015
:10D9DC0058236370144BA21C03F1140153F8040B6D
:10D9EC0042F8040B8B42F9D100F016FA0F4901F002
:10D9FC00CBFB01F0ADFEA0750D480E4C0E49241A60
:10DA0C00E408240444F003042046FBF7E7FF204617
:10DA1C0004491722FCF726F820460849BDE81040B7
:10DA2C00FBF7DCBF491200201F2000200000204122
:10DA3C00D81F020018200200102D02003B2D0200FE
:10DA4C00F0B54FF08055174FD5F8A820C2F3072238
:10DA5C0042F0C0020270D5F8A8304370D5F8A4602B
:10DA6C00360E8670D5F8A410090CC170D5F8A440F8
:10DA7C00240A0471D5F8A45045710B48C01B85B01D
:10DA8C00C008EDB2E4B2C9B20004CDE9006103955F
:10DA9C0006490294DBB240F00300FBF7D0FF05B05F
:10DAAC00F0BD00BFD81F020018200200662D020036
:10DABC00704700001FB50C4A044607CA01AB83E847
:10DACC0007000A4902941846FEF784FA08B1FCF7DD
:10DADC0077F90748FEF7B8FA08B1FCF771F9FEF7C9
:10DAEC00A5FA04B010BD00BF982D0200BDDA0100EC
:10DAFC00C3230020014B1878FEF7CCBAC3230020B7
:10DB0C0037B500238DF807300378012B00F0A8807F
:10DB1C00022B00F0A58023BB0DF10700FDF7EAF8FE
:10DB2C0051499DF807300C781CB90A2B19D00D2BD4
:10DB3C0017D00A2B4D4D4E4A15D00D2B13D0601C0F
:10DB4C002B55087000241178002900F084800023E4
:10DB5C0048494648137002F0D5F958B1464B032298
:10DB6C001A7003B030BD00200870012128551170C7
:10DB7C00A4B2E8E741493D4802F0C4F918B13B4969
:10DB8C003F48224612E03F49384802F0BBF910B139
:10DB9C00394B0422E4E73C49344802F0B3F950B164
:10DBAC00354B3249394805221A70224603B0BDE87C
:10DBBC00304002F0B7BC36492C4802F0A3F90028DB
:10DBCC00EED13449294802F09DF920B93249274851
:10DBDC0002F098F930B1314B1B78012BDAB201D13C
:10DBEC002F4BBDE72F49214802F08CF908B10C2CC2
:10DBFC00C5D82D491D4802F085F90028BFD12B4905
:10DC0C001A4802F07FF918B11B4B06221A70B6E7BE
:10DC1C002749164802F076F910B1264B01229FE7EE
:10DC2C002549124802F06EF938B122460F491448C2
:10DC3C0002F078FC104B072292E720490B4802F0C7
:10DC4C0061F900288DD0224608490D4802F06AFC83
:10DC5C00094B082284E73E2B83D1074B09227FE72F
:10DC6C004068FCF7ADF87CE7C6270020C6230020EF
:10DC7C00C7270020A42D0200D03A0020A72D0200B7
:10DC8C00D0330020682E0200AD2D0200D0370020CA
:10DC9C00B12D0200BF2D0200CA2D02006E1700200C
:10DCAC00C4230020D52D0200E02D0200E62D020039
:10DCBC00F02D0200C5230020FA2D0200012E0200D7
:10DCCC0030B50F4D0FCD8BB004AC0FC40D4B009382
:10DCDC0095E803004FF4806301930B4B02934FF4D0
:10DCEC00006384E803000393084A0723694604A8E9
:10DCFC00FCF798FF08B1FCF763F80BB030BD00BF20
:10DD0C000C2E0200C8270020C82B00200DDB0100C0
:10DD1C0008B5FCF7DFFFFDF72BF8054B8422C3F8A1
:10DD2C00082301225A60DA600022C3F8002508BDDE
:10DD3C000020004070B50A4D441E022614F8012F35
:10DD4C0022B913B9064B01221A7070BD2078FCF76A
:10DD5C00E7FF03460028F1D01128F7D02E70EDE72D
:10DD6C00D03A002038B5054D322445F001054FF46A
:10DD7C007A40A847013CFAD138BD00BF502E0200B2
:10DD8C001FB50C4A10685168127A01AB03C30A48DC
:10DD9C001A700021FEF740FA08B1FCF711F801A93E
:10DDAC000620FEF781FA08B1FCF70AF805B05DF819
:10DDBC0004FB00BF3F2E0200482E0200F0B585B0D8
:10DDCC00002401948DF80840FFF7DAFF4FF0A043D0
:10DDDC004FF48032C3F80825FFF7C4FF01AD0526C8
:10DDEC0029460620FEF7BAFAFFF7BCFF2B88013E46
:10DDFC001C4405F1020524B2F2D14FF0A0434FF4BC
:10DE0C008032C3F80C25FFF7ADFFFEF779FB052038
:10DE1C0094FBF0F005B0F0BD2DE9F743FFF7CEFF12
:10DE2C00254B264C188001F0A3FC2549254E01F00A
:10DE3C00ABF94FF06A5101F0A7F9234901F0A4F9AD
:10DE4C00224901F0A1F9224B3060E41AE4082404C1
:10DE5C000021054644F0030401F048FC30B31D4991
:10DE6C00284601F02BFC08B3DFF86C80284601F043
:10DE7C0055FC074601F07CFC00218146284601F048
:10DE8C001DFCB0B14946284601F076F9134901F062
:10DE9C007BF901F043FC124900903B462046424678
:10DEAC00FBF7B3FD306803B0BDE8F083DFF83480D6
:10DEBC00DCE729464846E7E7CC330020182002006F
:10DECC009A99193FC8330020713DEA3F0000C040C9
:10DEDC00D81F0200000080BF242E02000000C842A0
:10DEEC00262E0200B132020038B5054D044645F02D
:10DEFC0001054FF47A40A847013CFAD138BD00BF68
:10DF0C00803902002DE9F8432D4FDFF8B8902E4CE4
:10DF1C0000258046032016463D7089F80050257078
:10DF2C00FFF7E6FBFCF7D6FE28484FF48062294643
:10DF3C0002F021FB4046FFF7FDFE3B78013B082B2E
:10DF4C0034D8DFE803F0050B1C21281E1E331E00FD
:10DF5C003D7099F80030002BEFD00CE01C481D4BA5
:10DF6C001D49C01AC008000440F00100FBF736FD43
:10DF7C000320FFF743FC2078C0B2BDE8F883002EE5
:10DF8C00E7D101232370F3E71148124B1349C01A50
:10DF9C00C0080004E8E70F4B0D481149C01AC0082F
:10DFAC00000440F00300FBF719FDEAE700F033FF33
:10DFBC00FFF7A0FDFBF7C6FB0028FBD1C9E700BFAC
:10DFCC00D03A0020C0220020CE330020D0330020D5
:10DFDC0018200200D81F0200562E0200622E0200EA
:10DFEC006E2E020008B51948002242F21071FFF79C
:10DFFC0089FF60B9164B1748174A1849C01AC00850
:10E00C00000440F00100FBF7EDFC042008BD1449AE
:10E01C00144801F077FF90B91349124801F072FFD0
:10E02C0078B912490F4801F06DFF60B910490D48DD
:10E03C0001F068FF002814BF03200020E6E7002051
:10E04C00E4E70120E2E70220E0E700BF7E2E0200B9
:10E05C00D81F0200182002001E390200882E020070
:10E06C00A42E0200D0330020AD2E0200B62E0200EA
:10E07C00BF2E020038B54FF4806200214648474C51
:10E08C0002F079FA4648002242F21071FFF73AFF8B
:10E09C00444BE41AE408240468B9434A434944F065
:10E0AC000100FBF79FFCFFF7B7FE414C2062FFF726
:10E0BC00CFFBE06138BD44F00305374A3D492846A3
:10E0CC00FBF790FCFBF73EFB0028FBD13A493248AA
:10E0DC0001F018FF50B1394A394901F0DDFE012831
:10E0EC0004D1364A37492846FBF77CFC36492A4886
:10E0FC0001F008FF50B1354A354901F0CDFE012839
:10E10C0004D1324A33492846FBF76CFC3249224889
:10E11C0001F0F8FE50B1314A314901F0BDFE012841
:10E12C0004D12E4A2F492846FBF75CFC2E491A488D
:10E13C0001F0E8FE50B12D4A2D4901F0ADFE012849
:10E14C0004D12A4A2B492846FBF74CFC4FF4806239
:10E15C000021114802F00FFA2748002242F21071F8
:10E16C00FFF7D0FE10B9104A244998E711490A4A22
:10E17C002846FBF737FC2249074801F0C3FE00286C
:10E18C0091D00B4C1F4904F1280201F085FEA26AC4
:10E19C001D49284685E700BFD03300201820020017
:10E1AC00C82E0200D81F02000B390200D62E020026
:10E1BC00743B0020022F0200102F0200A23B002013
:10E1CC00142F02001B2F02003B2F0200A63B002045
:10E1DC003F2F0200462F0200662F0200AA3B0020B0
:10E1EC006B2F0200732F0200062E0200B03B0020A2
:10E1FC00932F02009B2F0200BB2F0200C32F0200A3
:10E20C00E22F0200E92F0200F32F0200F0B50646C0
:10E21C0000251046771C013A8D4200D3F0BD735D8A
:10E22C00392B86BF43F02003A3F15704A3F130042C
:10E23C007B5D392B86BF43F02003573B303B43EAD1
:10E24C00041302F8013F0235E6E7000030B55A49E5
:10E25C005A4C85B001F074FE10B101F001FF208022
:10E26C005549002001F06CFE10B101F0F9FE608000
:10E27C005149002001F064FE10B101F0F1FEA080C4
:10E28C004D49002001F05CFE10B101F0E9FEE08088
:10E29C004949002001F054FE10B101F0E1FE20814B
:10E2AC004549002001F04CFE10B101F0D9FE60810F
:10E2BC004149002001F044FE10B101F0D1FEA081D3
:10E2CC003D49002001F03CFE48B103AA0421FFF7B0
:10E2DC009DFF9DF80C30A3739DF80D30E373364908
:10E2EC00002001F02DFE48B103AA0421FFF78EFF98
:10E2FC009DF80C3023749DF80D3063742E4900206A
:10E30C0001F01EFE10B101F0ABFEA0822A490020E4
:10E31C0001F016FE10B101F0A3FE60822649002028
:10E32C0001F00EFE10B101F09BFEA07522490020F9
:10E33C0001F006FE10B101F093FEE0751E490020BD
:10E34C0001F0FEFD10B101F08BFE20831A49002074
:10E35C0001F0F6FD10B101F083FE60831649002038
:10E36C0001F0EEFD30B101F07BFE431E58425841E6
:10E37C00134B18701049002001F0E2FD10B101F0B0
:10E38C006FFEA0830F4B22881A800F4BE1880F4839
:10E39C001980638803800E48A48904800D4D0E48B3
:10E3AC00401BC0080004CDE9001440F003000B49E9
:10E3BC00FBF737FB05B030BDFB310200503C0020B1
:10E3CC00CF33002034120020FC1F0020FE1F002041
:10E3DC0030120020D81F0200182002001330020057
:10E3EC002DE9F0437D4B7E4EF61AF6083604D1B07B
:10E3FC0046F00304804660BB4FF400720146794836
:10E40C0002F0B9F87849774802F0E8F8754A77498C
:10E41C00774D2046FBF7E6FA4FF480720021284630
:10E42C0002F0A9F86F48012247F23051FFF76AFD5C
:10E43C0000284CD146F001006A4B6E4A6E49FBF73E
:10E44C00DAFA6E492A46204651B0BDE8F043FBF794
:10E45C00C9BA6B4F6B4DFFF70DFE3A686A49013232
:10E46C0020463A604FF00009FBF7BCFA4FF40072FB
:10E47C0000215C4802F07FF8E86CA5F8249001F0CC
:10E48C00B7F905F13C030A9305F136030993CDE97D
:10E49C000E01CDE90C0105F13203089305F12E03B1
:10E4AC000793AB6ACDE905933B680493286A01F0A6
:10E4BC009FF9CDE90201EB69544A00934FF40071C6
:10E4CC00534B484801F0BCFC464A5249A0E72A4647
:10E4DC004A492046FBF786FA284602F0A1F84E4A34
:10E4EC004E49009503462046FBF78FFA28464C49C7
:10E4FC004C4D01F007FD05F10809074628B3464AC3
:10E50C0049492046FBF76EFA4FF0FF338822002171
:10E51C002846109302F02FF84449384601F0F2FCDB
:10E52C002B1D00283BD0009341492B4610AA38469E
:10E53C0001F0B2FC3F4A109BD2F884209A4204D0DE
:10E54C00354A3D492046FBF756FACDF80090D5E9FF
:10E55C0000233A492046FBF758FA6B68002B1BDD69
:10E56C001E334FF48072002121486B6002F003F8D7
:10E57C004FF48072002110A801F0FDFF30480022FA
:10E58C004FF47A71FFF7BEFC90B9164B194A1A4931
:10E59C0046F00100FBF72FFA51B0BDE8F083CDE94E
:10E5AC00009328492B4610AA384601F075FCC1E7A8
:10E5BC006A682549033A10A801F0B4FF234910AA50
:10E5CC002046FBF70FFAFBF7BDF80028FBD1B8F19A
:10E5DC00000FE1D110A8FFF739FEDDE7D81F0200CC
:10E5EC0018200200D03800209C300200E2300200DB
:10E5FC00D03700205B390200BA310200ED33020043
:10E60C00703C0020743B0020FF30020020310200DF
:10E61C0015310200A53102004A390200D031020046
:10E62C00EC310200C83B0020E0310200F93102005D
:10E63C00FD310200D43A002036320200553202007D
:10E64C009E32020017320200D3370020B232020091
:10E65C00F0B5AF4CAF4E85B0A0220021204601F0A2
:10E66C008AFFAD4AAD495379039313790293D3785A
:10E67C000193937800935378A948127801F0F6FB34
:10E68C00A84BA74AA849F61AF608360446F0030523
:10E69C002846FBF7A7F9A549204601F09FFF002764
:10E6AC0040F2BB13C4E9203702220123C4E925231D
:10E6BC00C4E922339E49C4F89030224613232846DD
:10E6CC00C4F89C30FBF78EF9D4F880209949284681
:10E6DC00FBF788F9D4F8842097492846FBF782F990
:10E6EC00D4F8882095492846FBF77CF9944BD4F84C
:10E6FC008C10944A2846B94208BF1A469249FBF737
:10E70C0071F9D4F8902091492846FBF76BF9D4F8AD
:10E71C0094208F492846FBF765F9D4F898208D4949
:10E72C002846FBF75FF9D4F89C208B492846FBF769
:10E73C0059F98A4A8A492846FBF754F9894B8A4980
:10E74C001A682846FBF74EF9D4F88C3083B1D4F80C
:10E75C009030D3B9854A86492846FBF743F9D4F85B
:10E76C008C30002B79D1834A83492846FBF73AF940
:10E77C002846824A8249FBF735F9824A8249284663
:10E78C0005B0BDE8F040FBF72DB94FF400723946E7
:10E79C007E4801F0F0FE7E4AD4F89C307B484FF462
:10E7AC00007101F04DFB79483A4642F21071FFF7C7
:10E7BC00A9FB38B9D4F89C306C4A764946F0010074
:10E7CC00FBF719F94FF400720021704801F0D3FEE9
:10E7DC00714801F025FF714A00904FF40071D4F894
:10E7EC009C306A4801F02CFB6848002242F2107100
:10E7FC00FFF788FBA8B9D4F89C305C4A684946F00E
:10E80C000100FBF7F8F85D4A664946F00100FBF79A
:10E81C00E9F8654946F0010005B0BDE8F040FBF7AA
:10E82C00DDB85D4A61492846FBF7DCF85A4801F02F
:10E83C00F7FE5F4902462846FBF7D4F856480022FB
:10E84C0042F21071FFF75EFB20B9D4F89C30474AB6
:10E85C005849D4E7454A58497EE74FF400720021E5
:10E86C004A4801F088FE04F190010EC9B9B9009232
:10E87C004648524A4FF4007101F0E2FA4348002234
:10E88C0042F21071FFF73EFBA8B93A4A4C493F4B94
:10E89C0046F00100FBF7AFF8384A4A49B5E7D4F81F
:10E8AC009C000092CDE90110474A38484FF40071A2
:10E8BC0001F0C6FAE2E74FF400720021334801F090
:10E8CC005AFED4E92221D4F88030B1B1D4F8981092
:10E8DC000093CDE901210E4B3C4A2C484FF40071BA
:10E8EC0001F0AEFA2948002242F21071FFF70AFB40
:10E8FC000028CAD01F4A364937E7CDE900324FF419
:10E90C000071034B334A214801F09AFAEAE700BF41
:10E91C00D43A00201820020019200020F52702000C
:10E92C00803B0020D81F0200C8320200DF320200F8
:10E93C00F932020010330200273302003E3302008A
:10E94C00553302005E330200663302007D33020051
:10E95C0094330200AB330200C233020015310200C3
:10E96C00D9330200703C0020F0330200D83802008A
:10E97C00083402006839020066350200EC380200E7
:10E98C0071360200FC38020098360200D0380020A4
:10E99C003534020054340200601200207E34020030
:10E9AC009F34020047350200C6360200CE34020006
:10E9BC00E1340200F83402001D3502008E350200ED
:10E9CC00BA31020048360200A6350200C2350200F8
:10E9DC0019360200EF35020008B50120FFF700FDE3
:10E9EC004FF4FA60FFF780FABDE808400020FFF70B
:10E9FC00F7BC00002DE9F04F93B006AF002206469D
:10EA0C0042F210715048ADF81820504CADF810205F
:10EA1C008DF81220ADF814208DF81620BA70ADF8D0
:10EA2C001C208DF81E20ADF820208DF82220ADF88A
:10EA3C0024208DF82620FFF765FA454BE41AE408EC
:10EA4C002404804648B9434A434944F00100FAF78C
:10EA5C00C9FF404613B0BDE8F08F40490AA844F006
:10EA6C00030401F0BBFD3E490AAA2046FAF7BAFF9F
:10EA7C00FAF768FE05460028FAD13A490AA801F0CF
:10EA8C005FFA00285ED03849284601F059FA0DF19A
:10EA9C001C090146484601F0A1FD3349284601F006
:10EAAC004FFA0DF1200A0146504601F097FD2F490F
:10EABC00284601F045FA0DF1240B0146584601F0A9
:10EACC008DFD2B49284601F03BFA014604A801F0C4
