:020000021000EC
:1090000000600020A59301005D9301005F930100C3
:10901000619301006393010065930100000000006B
:109020000000000000000000000000006793010045
:1090300069930100000000006B9301006D93010033
:1090400051B201006F93010011B40100DDC50100B0
:109050006F93010000000000D9B20100D1C00100EF
:109060006F9301006F9301006F9301006F930100F4
:109070006F9301006F9301006F9301006F930100E4
:10908000B5BF01002D9F01006F9301006F93010098
:10909000C99F01006F930100C1D301006F930100CC
:1090A0006F9301006F9301000000000000000000BA
:1090B0006F9301006F9301000000000000000000AA
:1090C00000000000000000000000000000000000A0
:1090D0000000000000000000000000000000000090
:1090E0000000000000000000000000000000000080
:1090F0000000000000000000000000000000000070
:10910000000000000000000000000000000000005F
:10911000000000000000000000000000000000004F
:10912000000000000000000000000000000000003F
:10913000000000000000000000000000000000002F
:10914000000000000000000000000000000000001F
:10915000000000000000000000000000000000000F
:1091600000000000000000000000000000000000FF
:1091700000000000000000000000000000000000EF
:1091800000000000000000000000000000000000DF
:1091900000000000000000000000000000000000CF
:1091A00000000000000000000000000000000000BF
:1091B00000000000000000000000000000000000AF
:1091C000000000000000000000000000000000009F
:1091D000000000000000000000000000000000008F
:1091E000000000000000000000000000000000007F
:1091F000000000000000000000000000000000006F
:10920000354936480A1A02D0072291438D4634491F
:1092100034480A1A06D00722914381F309880222B2
:1092200082F3148830483149314A00F044F831481B
:109230003149324A00F03FF831483249324A00F0B1
:109240003AF832483249334A00F035F83248334967
:10925000334A00F030F833483349344A00F02BF8F1
:1092600033483449344A00F026F83448344900225F
:1092700000F02CF833483449002200F027F8334836
:109280003349091A082902DB002202604160314A91
:1092900090471F481F49884205D00268043003B434
:1092A000904703BCF7E700208646EC4600200021EB
:1092B000294A9047FEE7884207D0521A05D0037822
:1092C00001300B700131013AF9D17047884202D068
:1092D00002700130FAE7704700600020005800205B
:1092E0000060002000600020A03D0200101200205D
:1092F00088170020EC930100EC9301003C20020051
:10930000A03D02001012002010120020F0200200E8
:10931000F0200200F0200200F0200200F020020005
:10932000F0200200F0200200F0200200A03D020028
:109330001843020088170020881700208817002093
:10934000A03C0020A03C0020A83C0020A83C00201D
:10935000A8440020BB93010001C90100FEE7FEE71D
:10936000FEE7FEE7FEE7FEE7FEE7FEE7FEE7FEE7D5
:1093700009480068094909680A280AD1002908D162
:10938000074802686FF070031A404FF040031A4319
:10939000026000F009B80000300100103401001034
:1093A000E40E0040FFF7E4BF0B484FF0070188438D
:1093B00085460A488047FFF723BF094809490A4AFA
:1093C000884207D0521A05D0037801300B70013162
:1093D000013AF9D1704700000060002039AE010069
:0C93E000F02002001012002010120020EB
:1093EC0000487047983C00207047000007B5044BBC
:1093FC000093044A402300F032F803B05DF804FBFC
:10940C0015940100891700202DE9F843884614466D
:10941C00B2B10F4B0F4E0325002743F00109224632
:10942C0008EB0701002003F065FC0744241A48B937
:10943C0033782BB14FF47A40C847013D02D13570D7
:10944C00BDE8F88301233370002CE8D1F8E700BFA6
:10945C00F020020088170020704703F07BBCF0B5A9
:10946C0095B008460C4616461D4601F0D1FA1A9ADC
:10947C000D920023082205A920460A938DF82C3062
:10948C000C93CDE9086501F0DFFA079B0293069B6C
:10949C00039301238DF811309DF8143003F003026F
:1094AC00012A1DD1BDF81420059DC3F3C203C2F3DC
:1094BC0083168DF81030B20008230EA9204601F057
:1094CC00C3FAC5F3952508AB0093324602AB0EA93F
:1094DC00284600F0B1FB204601F09EFA15B0F0BD15
:1094EC00022AF8D1BDF81650C3F3C203C5F389158F
:1094FC008DF810300827082D2E4628BF08263B462D
:10950C0032460EA9204601F09FFAAD1B08AB02AA09
:10951C0031460EA8374400F0F3FB002DEBD1DAE70F
:10952C0008B5FFF79AFF0448042100F0F5FA034B45
:10953C0001225A7108BD00BFE02002001012002069
:10954C000378024613F0040006D003F00300012850
:10955C0003D0022809D0012070470B68128802330F
:10956C00C2F3831213440B6070470B6852880233AA
:10957C0003EB92130B60EEE72DE9F04FDFF81CA123
:10958C0087B00F4600230446861C0DF107001546D4
:10959C008DF8073000F00EFFDAF804203A60DAF8A4
:1095AC00083003F580739B1A0AF21C470AF583698D
:1095BC000AF21448B3421AD30020002D69D004F0EB
:1095CC000F039B0143F0050363F30F00DAF804303B
:1095DC00DAB2033233444AF822009DF80700CAF885
:1095EC00043000F00BFF012007B0BDE8F08F012123
:1095FC00384600F03CFF484600F051FF404600F072
:10960C004EFFDAF808000290C0B203300AEB80007B
:10961C0002A9FFF795FF029B30BBDAB20AEB82027C
:10962C00D16803919A1C0133DBB20AEB83030292DB
:10963C00D3F80CB001F00303012B22D0022B15D070
:10964C008346404600F02EFF10B1029BCAF808304A
:10965C005946384600F00BFFDAF80830DAF80420E7
:10966C0003F580739B1AA5E7D8B2CEE7BDF80E3090
:10967C00C3F3891303334FEA1B4B02EB930302939F
:10968C00DFE7BDF80C30C3F383134FEA1B4B1344D5
:10969C00F5E7A40544F0060098E700BF9C180020ED
:1096AC00064B074810B500221A7001F06AF90446FF
:1096BC0010B9044801F0F6F9204610BD9C180020A2
:1096CC005C2002002C21020030B50A4C71B10A4A10
:1096DC000A49121BD20800239A4201D1002030BD46
:1096EC0031F82350854202D00133F5E7034654F894
:1096FC003300F4E770200200E0200200101200207A
:10970C00094B013903EBC000032909D8DFE801F04C
:10971C000A020406042070470079704740797047AC
:10972C000020704702207047702002007047000034
:10973C00034BD3E90130C31A58425841704700BF5C
:10974C009C1800202DE9F04186B0FFF7F1FF05468B
:10975C00002840F0ED80774CC4F81804BFF34F8F0D
:10976C00A3680293DBB2033304EB830002A9FFF777
:10977C00E7FE029B18B1D4F81824002A5AD0DAB2AA
:10978C00991C013304EB8202DBB204EB8303D26835
:10979C00DB68049302F00303022B0392029154D171
:1097AC00BDF80E306448C3F38917502F3E4628BFCE
:1097BC00502606F1080166F38F13C1F30901ADF8C9
:1097CC000E3001F0F6F80546002800F09C8001F000
:1097DC001FF90023082203A9284601F02BF902994E
:1097EC00CB43DBB20133C9B20331B6EB830F4FEA83
:1097FC00830204EB810125D95FFA82F80823A6EBDA
:10980C000806284601F016F9F6B208F108034B4990
:10981C0003F0FC033246284601F00CF9029B033797
:10982C0003EB97070297D4F81834002B43D1D4F8E4
:10983C00106453E062689A4294D8A260284606B03D
:10984C00BDE8F08108233246E5E7012B5BD1BDF87A
:10985C000C303948C3F38311062928BF062161F364
:10986C008913023101F00F018900ADF80C3001F0C1
:10987C00A0F80546002846D001F0CAF800230822BB
:10988C0003A9284601F0D6F80026BDF80C20C2F337
:10989C008312B300964203F10803C4D202994A1C06
:1098AC00C9B20331029204EB81010422284601F073
:1098BC00C1F80136E9E7284601F0AEF8FFF738FFAA
:1098CC0080F00105EDB2B9E7F3685B7923B1336839
:1098DC0029461B6830469847F3681E68002EF3D162
:1098EC00284601F099F80DF107008DF8076000F09B
:1098FC0061FDD4F818340BB9029BA3609DF80700E6
:10990C0000F07CFDDAE7D4F8104454B90C4B0D4848
:10991C000D49C01AC008000440F0020000F05EF8C7
:10992C00CCE7236820469B689847E3681C68ECE703
:10993C00002583E79C1800205C200200A81800205A
:10994C0070200200B0200200142102002DE9F34720
:10995C0004460E46924601A9012218469946FFF785
:10996C000BFE1C4F10B3019D4FF00008AA1CC845FC
:10997C0008EB020125D11848002100F055FD80F3B9
:10998C001000000440EA1440E4006B1C04F038049E
:10999C00DBB2EDB244F0010407EB8303033544EA78
:1099AC00881444EA8624D86047F825403B781BB1DC
:1099BC00FFF7C8FE0028FBD1FFF7B8FE02B0BDE8E8
:1099CC00F087C9B207EB81015AF82830CB6008F157
:1099DC000108CCE79C180020B81C002000231A4674
:1099EC00FFF7B4BF07B50123019201AAFFF7AEFF41
:1099FC0003B05DF804FB07B5CDE9002302236A46EA
:109A0C00FFF7A4FF03B05DF804FB1FB5CDE90123FC
:109A1C00069B039301AA0323FFF798FF05B05DF89B
:109A2C0004FB1FB5CDE90023069B0293079B039310
:109A3C006A460423FFF78AFF05B05DF804FB7FB587
:109A4C00CDE90023089B0293099B03930A9B049383
:109A5C000B9B05936A460623FFF778FF07B05DF86A
:109A6C0004FB00002DE9F7430446D01C884616463B
:109A7C0001A900228008FFF77FFD254D80B3019FCF
:109A8C00B81C0190C0B2C0F58073B6EB830F00F127
:109A9C0003004FEA830905EB800028D83246414683
:109AAC0006F08CFD1B48002100F0BEFC80F3100278
:109ABC007B1CDBB2FFB205EB8303200C033740EABF
:109ACC000240E400D86004F0380455F8273044F024
:109ADC00020444EA865203F47C131A4345F8272007
:109AEC002B787BB9FFF722FE03B0BDE8F0834A4622
:109AFC00414606F063FDA6EB090208EB090105F1EE
:109B0C000C00CDE7FFF71EFE0028FBD1EAE700BFF3
:109B1C009C180020B81C002030B50F4CD4F8102431
:109B2C0003460020114631B9D96808714AB9C4F806
:109B3C0010340A6030BDC9680D79854206D00968B9
:109B4C00F1E7D26814680C601360F3E701300A285F
:109B5C00E8D14FF0FF30EDE79C18002038B5084BEA
:109B6C000125D3F810441D7004B938BDE3685D714C
:109B7C00236820465B689847E3681C68F4E700BFDD
:109B8C009C180020C38873B504460D4633B1144AA3
:109B9C0000921449144A284600F0E7FC217A052962
:109BAC001CD0637A4BB1A088FFF7AAFD0F4B10496C
:109BBC0053F82020284600F0D8FC227A0D4BA088C0
:109BCC0053F822600021FFF77FFD0B490346324614
:109BDC00284602B0BDE8704000F0C7BC02B070BDB2
:109BEC00062A02004021020038210200BC2102009A
:109BFC0048340200E02102005821020010B5037A1B
:109C0C00052B0C460FD0437A23B1084A084920464D
:109C1C0000F0ABFC0749204600F0A7FC2046BDE84D
:109C2C00104000F097BC002AF8D0F3E7062A020097
:109C3C00483402001F3102002DE9F04385B01F4665
:109C4C000C9D002395F80C902B7306460C46904601
:109C5C0029463846FFF796FFB8F1060F09D8DFE81A
:109C6C0008F00412181F283340003146284600F033
:109C7C007CFC002229463846FFF7C0FF85F80C9083
:109C8C0005B0BDE8F08322683146284600F06DFC33
:109C9C00EFE7D4E900233146284600F066FCE8E7FC
:109CAC00A36800933146D4E90023284600F05DFCFC
:109CBC00DFE7E3680193A36800933146D4E90023FE
:109CCC00284600F052FCD4E723690293E368019321
:109CDC00A36800933146D4E90023284600F045FCE4
:109CEC00C7E76369039323690293E3680193A3684D
:109CFC0000933146D4E90023284600F036FCB8E73F
:109D0C0008292DE9F74F80460E4617461C463DD8CC
:109D1C0000251B7B2573214610460193FFF732FF6C
:109D2C00DFF888A0DFF888B0AE4232D918F80520E9
:109D3C005946204600F019FC0135082DF4D11D4977
:109D4C00DFF874A0DFF874B0204600F00EFC4FF082
:109D5C0000094E4524D918F809507E2D1ED82846E6
:109D6C0006F01EF8002814BF2A462E22594620461B
:109D7C0000F0FBFB09F10109B9F1080FE9D101224F
:109D8C0021463846FFF73AFF019B237303B0BDE829
:109D9C00F08F5146204600F0E8FBCDE72E22E5E798
:109DAC005146204600F0E1FBE4E700BF68210200C9
:109DBC00622102006C2102006A2102006E21020065
:109DCC001FB50021039001AA44F20100CDE9011155
:109DDC0000F004F805B05DF804FB000038B572B66D
:109DEC00FFF7BCFEFFF7AEFC0028FBD1104B114C6B
:109DFC00114D1249E41AE408240444F00100FFF761
:109E0C00EDFDD5F8F030DB0700D500BE0C4944F071
:109E1C000200FFF7E3FDBFF34F8FEA68094B02F432
:109E2C00E0621343EB60BFF34F8F00BFFDE700BF51
:109E3C0070200200B020020000ED00E0F4210200CE
:109E4C00002202000400FA05094B5A789978013275
:109E5C00D2B2914208BF0022197891421FBF027002
:109E6C005878182202FB003014BF043000207047D1
:109E7C00541D002073B5054600240DF107000E4655
:109E8C008DF8074000F096FA0DF10600FFF7DCFFA5
:109E9C0090B10670094B9DF8062045605A709DF8EC
:109EAC00070000F0ABFA24B9054B4FF48012C3F84D
:109EBC000021204602B070BD0424F0E7541D0020A0
:109ECC0000E100E0024B4FF43C6043F00103184703
:109EDC001022020038B50E4B4FF40032C3F880202C
:109EEC00BFF34F8FBFF36F8F0A4C4FF480330125B4
:109EFC00C4F84833C4F808336560FFF7E3FF064B3A
:109F0C00A56000241C60FFF7DDFF044B1C7038BDFE
:109F1C0000E100E000100140701E0020611E0020D6
:109F2C00F8B51F4B1F491B680025C1F84051C1F8FB
:109F3C004451C1F84851C1F84C51C1F80051C1F815
:109F4C0004514BB3D1F8044517490968641A24F03D
:109F5C007F442F461A68A24209D8A41A15441A7CC9
:109F6C00DE691AB1D3E905201F749047AEB90F4AC8
:109F7C000F4B11781B788B4205D10133DBB2022BCE
:109F8C0008BF0023137012780A4B43F822500A4B77
:109F9C004FF48012C3F80021F8BD3346DAE700BF56
:109FAC00741E002000100140701E00206D1E002049
:109FBC006C1E0020641E002000E100E02DE9F04F33
:109FCC00A14AA24913780978A14D994285B03CD099
:109FDC000133DBB2022B08BF002313709D491278AA
:109FEC009D4B0F6853F822003B1823F07F4300224F
:109FFC000B602B6816461446944613B942B12B607D
:10A00C0006E0196881420ED902B12B60091A196059
:10A01C0001272B68DFF844A201934FF00008BEB96A
:10A02C00DFF83CB260E0401A0C44D968D3F81CE06D
:10A03C00C3F800C031B13A1922F07F42C3E90121C3
:10A04C00DE611E4673460122D7E700263746E0E75D
:10A05C003446F6697F4B60681B68DFF808C2A1685C
:10A06C00C21A22F07F42624500F2A6800A442260A6
:10A07C00012222742A680023C4E90133E361002A17
:10A08C0040F0A3802C60CAE79BF802105A1CD2B295
:10A09C0091428BF8002004BF00228BF8002018227C
:10A0AC0002FB03B32A6819799C68022975D003292D
:10A0BC007FD0012918D1207CB0B9D3E90312A2605A
:10A0CC005A69E2609A69684BA2611A78002A18BF33
:10A0DC0001466160BEE78C4200F094808946C969F4
:10A0EC000029F8D1002323749BF800309BF8012041
:10A0FC009A42C9D12B68B8F1000F04D1019A9A4247
:10A10C0001D1002F43D0002B79D0D3F800A0534DB0
:10A11C00504BD5F804751C68DFF850813E1B98F83D
:10A12C00003026F07F4603369BB94FF48033C5F8D8
:10A13C004433C5F804334E4B4FF40032C3F880213E
:10A14C001A604FF00109C5F80090FFF7BBFE88F8C4
:10A15C000090B2452CBF5444A41924F07F44C5F898
:10A16C004045D5F80435DB1B23F07F43E41B033358
:10A17C0024F07F44A3420AD9D5F80435C5F84035FC
:10A18C00FFF7A0FE3A4B4FF40032C3F80021364BD8
:10A19C0000221A7005B0BDE8F08F114691469FE77A
:10A1AC001174D2690123002AFAD1002B9CD02A60A9
:10A1BC009AE700231946F6E71B1A23F07F438B42DC
:10A1CC0034BFCB1A0023236052E7216813689942ED
:10A1DC0013D85B1A1360E26154E7091AD8691A465E
:10A1EC0038B1034618688842F7D3401A18601846ED
:10A1FC0013462160E061DC6111E71346F2E7FFF7DB
:10A20C0069FEC4E74C4511D1D3692B6073B9DFF8F3
:10A21C0044E00120CDE90212CAF80800CEF8003063
:10A22C00114B1870FFF74EFEDDE902120B68C9697D
:10A23C00C9F81C1011B1086803440B602B689342D9
:10A24C0018BF4FF001084DE76C1E00206D1E00205A
:10A25C00741E0020701E0020641E0020001001409F
:10A26C00541D0020FEFF7F00601E0020611E002098
:10A27C0000E100E010B5FFF72DFE114B00200B2282
:10A28C0018809A700F4B18600F4B18700F4B18708A
:10A29C000F4B4FF48012C021C3F8802183F81413A4
:10A2AC001A6002F18042A2F56F221F24C2F8084501
:10A2BC0083F81113074BD2F804251A6010BD00BFA8
:10A2CC00541D0020741E00206C1E00206D1E0020EA
:10A2DC0000E100E0701E0020074B9B784BB132B1BF
:10A2EC0028B10368187C20B959745A61704707204B
:10A2FC0070470820704700BF541D00202DE9F7431C
:10A30C00DFF8808098F8023005460E461746BBB33E
:10A31C00B0B31D4B4A1F9A4230D8436983B3437C78
:10A32C000024012B0DF107000CBF8946A1468DF8C6
:10A33C00074000F03FF80DF10600FFF785FDD8B19E
:10A34C0001230370114B4560D3F80435C0E9049721
:10A35C00C0E902369DF8063088F801309DF80700F8
:10A36C0000F04CF824B90A4B4FF48012C3F80021CA
:10A37C00204603B0BDE8F0830424EFE70724F7E799
:10A38C000824F5E7541D0020FAFFFF0000100140DF
:10A39C0000E100E0064A92783AB130B1426922B14C
:10A3AC00002202740221FFF765BD0820704700BF30
:10A3BC00541D002070B5EFF3108672B60C4A9468E9
:10A3CC0001239CB993600B4B0B4DD3F880102940A3
:10A3DC001160C3F88050D3F8841051604FF0FF32F5
:10A3EC00C3F88420047006B962B670BD0370FAE736
:10A3FC00781E002000E100E0FC06FFBD084B9A68C7
:10A40C0010B55AB150B9EFF3108172B6054A1C68F9
:10A41C0014605C685460986001B962B610BD00BFEE
:10A42C00781E002000E100E010B5034653E8000F51
:10A43C000A4643E8002494F0000FF7D110BD10B584
:10A44C00034653E8002F42EA010043E8000494F06D
:10A45C00000FF6D110BD10B5034653E8000F00EA0B
:10A46C00010243E8002494F0000FF6D110BD10B5A2
:10A47C00034653E8002F02EB010043E8000494F07C
:10A48C00000FF6D110BD10B5034653E8002FA2EB18
:10A49C00010043E8000494F0000FF6D110BD012137
:10A4AC00FFF7CDBF0021FFF7D6BF10B590B1D0E9B3
:10A4BC00012301689B1ADBB20A60013BDBB2FF2B64
:10A4CC00026802D10020107110BD11684C1C146080
:10A4DC000B70F2E70E20F7E737B5054600240DF1B7
:10A4EC0007008DF80740FFF765FF2A686B68116855
:10A4FC0099420ED9481E106011F8013CEC68298A6B
:10A50C0001FB0344AB6811791B1ADBB2994238BFCB
:10A51C0013719DF80700FFF771FF204603B030BDA3
:10A52C0037B5054600230DF107000C468DF80730B2
:10A53C00FFF740FF2A681368591C1160E968641A18
:10A54C00298AB4FBF1F41C709DF80700FFF756FF45
:10A55C0003B030BD826810B504462AB14369016866
:10A56C00006998470023A36010BD0EB403B503998E
:10A57C0021B104AB01AA019300F076F802B05DF8AA
:10A58C0004EB03B070470A2938B504460D4602D1D6
:10A59C000D21FFF7F8FFA3682268591CA160D55460
:10A5AC00D4E901329A4204D32046BDE83840FFF783
:10A5BC00D1BF38BD2DE9F84F9846DDE90A43154661
:10A5CC0082460F460A464FF00109AA420FD2C145F6
:10A5DC0038BFC14613F0010B01D16CB90024012620
:10A5EC00B8F1010F1BD908F1FF386E43F8E709F1F8
:10A5FC000109B2FBF5F2E8E79B070ED5B8F1000FA5
:10A60C000CBF30262026A145E9D2013C31465046EC
:10A61C00FFF7B9FF002CF6D1E0E72026F3E7B7FBF4
:10A62C00F6F39D42E1D9DFF83C80B7FBF6F35046D8
:10A63C0018F8031006FB1377FFF7A5FF3346AB4260
:10A64C00B6FBF5F6F1D2BBF1000F02D00CB1A1456F
:10A65C0001D3BDE8F88F20215046013CFFF793FF52
:10A66C00F4E700BF162202002DE9F74F0546174606
:10A67C008846002900F03E8118F8011B49B92B7B54
:10A68C00002B00F03781284603B0BDE8F04FFFF7F0
:10A69C0061BF252940F0B780002698F800302D2B9B
:10A6AC00424608F1010823D0302B24D02B2B25D087
:10A6BC0000242A2B02F1010123D13B681A1D1B68CF
:10A6CC003A601C440A4613782E2B26D101324FF0E7
:10A6DC00000A104610F8011BA1F1300CBCF1090F57
:10A6EC001DD80A2303FB0A13A3F1300A0246F0E734
:10A6FC0046F00106D1E746F00206CEE746F0040626
:10A70C00CBE711F8013CA3F130000928DBD80A2271
:10A71C0002FB0434303C0A46CBE74FF0000A12F837
:10A72C00011B01F0FB0068289046F8D0782909D865
:10A73C006F290CD8632962D022D8252963D05829D7
:10A74C0000F0888098F80030002B95D197E770398D
:10A75C000829F7D801A353F821F000BFDBA80100AA
:10A76C0051A7010051A7010071A8010051A70100D8
:10A77C004FA8010051A7010051A7010061A80100D9
:10A78C00642901D06929DDD13A68D2F80090111DF5
:10A79C0089EAE9723960A2EBE9724FF0010B092AE0
:10A7AC0035DCD34538BFD3462CB1B9F1000F01DBF2
:10A7BC00720700D5013CB30702D5BAF1000F03D0E4
:10A7CC00F00701D44CBB0024B9F1000F2DDAC9F10C
:10A7DC0000092D212846FFF7D6FE06F00302022AB7
:10A7EC0004D1BAF1000F01D11CBB0024CDE9004605
:10A7FC0053460A2249462846FFF7DCFEA2E73B688F
:10A80C001A1D19783A602846FFF7BDFE9AE70A230D
:10A81C000BF1010BB2FBF3F2C1E7A345D4D220211B
:10A82C002846013CFFF7AFFECCE77107D5D52B21AD
:10A83C00D0E7A345DAD230212846013CFFF7A3FE2E
:10A84C00D2E73968CDE900460A1D3A6053460A2220
:10A85C000968D0E739680A1D3A60CDE900465346CD
:10A86C001022F5E73B681A1D3A6016F00106D3F882
:10A87C00009024D1B9F1000F03D0484605F01CFF1D
:10A88C000646B4421DD809F1FF3919F8011F0029F9
:10A89C003FF458AF2846FFF776FEF6E72846013618
:10A8AC00FFF771FE19F806100029F7D1A642BFF484
:10A8BC0049AF20212846013CFFF765FEF6E700264C
:10A8CC00F0E720212846013CFFF75DFED9E73B6805
:10A8DC001A1D3A60302128461C68FFF754FE782177
:10A8EC002846FFF750FE00220823CDE9003221460E
:10A8FC00102280E703B0BDE8F08F00BF2DE9F84FC0
:10A90C00B0F806A04579D2F800B09DF828900AFB63
:10A91C0005F5043D88460BEB0301A94203F1040441
:10A92C0088BFA5EB030BB4FBFAF607460AFB1644EB
:10A93C00C2F800B04EB9AAEB04055D4528BF5D46D0
:10A94C00BBF1000F04D1BDE8F88F3F68013EF1E781
:10A95C00043408EB06003C442A46B9F1000F0DD034
:10A96C002146ABEB050B05F029FEDA452E443F687A
:10A97C0055464FF0000428BF5D46E1E701462046EE
:10A98C00EFE7FFF792BDF8B546790146721E054612
:10A99C00002393422D6803D30024A64202D8F8BDAD
:10A9AC000133F6E70F682846FFF7BAFD0134394644
:10A9BC00F3E72DE9F843068ACD1C0746FFF78CFD1B
:10A9CC00043E35440446B5FBF6F5F0B14FF4807304
:10A9DC00EDB28380C680013D076081464FF00008D0
:10A9EC00A84512D23846FFF777FD064648B1637981
:10A9FC000133637108F10108C9F800000760814652
:10AA0C00EEE72046FFF7BFFF34462046BDE8F8834B
:10AA1C0001210430FFF72BBD10B501210446043091
:10AA2C00FFF731FDC0B220B92046BDE81040FFF75A
:10AA3C00AABF10BD1FB503920022009203AAFFF714
:10AA4C005DFF05B05DF804FB1FB503920122009277
:10AA5C0003AAFFF753FF05B05DF804FB41DF704715
:10AA6C00064B10B500241C70054B1C60BFF35F8FA8
:10AA7C000449054800F01FF8204610BD8C1E00202C
:10AA8C00901E002030220200841E002008B502F027
:10AA9C0077FC18B1BDE80840FFF7E0BF20BF40BF0E
:10AAAC0020BF08BD836800225A60C3E904229A6063
:10AABC00DA601A6070470B684A684360934208BFBB
:10AACC000023016008BF43607047436843B10268CC
:10AADC00916852680B449342436004BF0023436067
:10AAEC007047000010B50D49A1F59472914201D840
:10AAFC0000200FE08C1AE30F03EBE4035B1002EB76
:10AB0C00C30452F83330834205D802D204F1080250
:10AB1C00ECE7606810BD2146E8E700BF342702006F
:10AB2C0008B5FFF7DFFF024B002808BF184608BD29
:10AB3C00F62502000648074A03780749D35C012230
:10AB4C0013B1043001F0C4B90C3000F0F7BE00BFF3
:10AB5C0018120020DC1E0020BC1E00200648074AEC
:10AB6C0003780749D35C012213B1043001F062B9B8
:10AB7C000C3000F093BE00BF18120020DC1E002029
:10AB8C00BD1E002037B50578012D0DD0022D30D01B
:10AB9C0075B91F491F4800F022F9002834D103B0C1
:10ABAC00BDE83040FFF7DABF037A1BB9FFF7C2FFED
:10ABBC0003B030BD4368184C1978204600F0FDF8FE
:10ABCC0080B18DF800500190144B68461B68984773
:10ABDC00A168E368A2885B1A9A42E7D2104B012263
:10ABEC001A70E5E7A268E3689A42F1D08DF800008C
:10ABFC00EAE7C3688DF800500193FFF79BFF074B02
:10AC0C0068461B689847D3E703238DF80030F6E7B6
:10AC1C00BD1E0020AC1E0020981E0020941E00209B
:10AC2C00A81E0020F0B51F46234B89B004461A60BD
:10AC3C000D4600293DD08A882048096800F0ACF800
:10AC4C00002834D1AA89A9681D4800F0A5F800286D
:10AC5C002DD11C4E0FCE6D460FC596E80F0085E822
:10AC6C000F0063690693237C174A18488DF81C70F3
:10AC7C00003B18BF01238DF81430637C002B14BFEC
:10AC8C000E2300238DF81530E3680293A368039319
:10AC9C002368019369466368009300F05BFA30B94E
:10ACAC000B4B18702368013301D0FFF743FF09B039
:10ACBC00F0BD0720FBE700BF941E0020981E00206B
:10ACCC00AC1E00203427020091AB010018120020AA
:10ACDC00A81E002008B5054800F092F820B9BDE880
:10ACEC000840034800F08CB808BD00BF981E002037
:10ACFC00AC1E002070B5084D014608482E7800F0B7
:10AD0C006EF8044636B100232B70FFF713FF08B121
:10AD1C00FFF756F8204670BDA81E0020981E002094
:10AD2C0010B501460E4800F048F80446A8B90D4885
:10AD3C000D4A0378D35C63B1043001F06FF860B94D
:10AD4C000A49074800F04BF838B9BDE81040FFF746
:10AD5C0005BF0C3000F096FDF1E7204610BD00BF9A
:10AD6C00AC1E002018120020DC1E0020BD1E00208E
:10AD7C0008B50748074A0378D35C23B1043000F0C8
:10AD8C00BDFF002008BD0C3000F012FDF9E700BF3C
:10AD9C0018120020DC1E002010B5034649B152B138
:10ADAC00541E14EA020006D1986019609C80D86089
:10ADBC0010BD0E20FCE70920FAE710B58468C268C4
:10ADCC008388121B934208D3C26813400268D15483
:10ADDC00C3680133C360002010BD0420FCE7826807
:10ADEC00C3689A420AD08268838813400268D35C95
:10ADFC000B70836801338360002070470520704717
:10AE0C00C3688360002070474FF08053D3F8300143
:10AE1C00A0F10A035842584170470000024AD2F888
:10AE2C000034002BFBD0704700E0014010B5FFF759
:10AE3C00EBFF48B14FF080534FF08042D3F84432CF
:10AE4C00C3F34233C2F83C35FFF7DEFF40B14FF09D
:10AE5C0080430022C3F80C21C3F81021C3F8382515
:10AE6C00FFF7D2FF002846D04FF08052494BD2F862
:10AE7C000414C3F82015D2F80814C3F82415D2F81A
:10AE8C000C14C3F82815D2F81014C3F82C15D2F8EA
:10AE9C001414C3F83015D2F81814C3F83415D2F8BA
:10AEAC001C14C3F84015D2F82014C3F84415D2F87A
:10AEBC002414C3F84815D2F82814C3F84C15D2F84A
:10AECC002C14C3F85015D2F83014C3F85415D2F81A
:10AEDC003414C3F86015D2F83814C3F86415D2F8DA
:10AEEC003C14C3F86815D2F84014C3F86C15D2F8AA
:10AEFC004424C3F87025FFF787FF48B14FF0804317
:10AF0C00D3F80024D20744BF6FF00102C3F8002429
:10AF1C004FF08053D3F830210A2A0AD1D3F83431B8
:10AF2C003BB14FF08042D2F8E43E43F00F03C2F83D
:10AF3C00E43E4FF01023D3F80022002A03DBD3F8B1
:10AF4C000432002B22DA144901234FF01020C1F8EF
:10AF5C0004351524FFF762FFC0F80042FFF75EFFCF
:10AF6C00C0F80442FFF75AFF0023C1F80435FFF77D
:10AF7C0055FFBFF34F8F0949094BCA6802F4E062D1
:10AF8C001343CB60BFF34F8F00BFFDE7054B064A61
:10AF9C001A6010BD00C0004000E0014000ED00E070
:10AFAC000400FA052C1200200090D00338B5074C91
:10AFBC00051E04F1080318BF1C4623682BB11A6840
:10AFCC0022605B6828469847F7E738BDC81E00200A
:10AFDC0020B9054B01225A70FFF7E8BF012802D1B6
:10AFEC00014A9070F8E77047C01E002020B9034B4F
:10AFFC0001225A70FFF7DABF704700BFC01E002055
:10B00C0038B50E4C2378B3B90D486360A360236147
:10B01C00E36000F0E7F8054602F0B2F908B900F079
:10B02C00EDF801232370074BD3F800340BB1012347
:10B03C00A370284638BD8525F5E700BFC01E00204B
:10B04C00DDAF01000000014037B50D4C00230DF1C0
:10B05C0007008DF80730FFF7ADF9E368013BE360BB
:10B06C00E36833B9074BD3F8005415B900F0D8F89E
:10B07C00A5709DF80700FFF7C1F903B030BD00BF04
:10B08C00C01E002000000140012813B50CD003287D
:10B09C0020D038B9134B0122C3F88020BFF34F8F57
:10B0AC00BFF36F8F02B010BD0F4C00230DF10700E2
:10B0BC008DF80730FFF77EF923780BB9FFF7A0FF67
:10B0CC00E3689DF807000133E3600123A370FFF7E9
:10B0DC0095F9E7E700F092F802B0BDE81040FFF7F1
:10B0EC00B3BF00BF00E100E0C01E00201FB5037815
:10B0FC008DF800304368019383688DF80830C3687D
:10B10C00054A0393054B684653F8213052F8211039
:10B11C00984705B05DF804FBD41E0020D81E002013
:10B12C001FB503788DF800304368019383688DF860
:10B13C000830C368054A0393054B684653F8213021
:10B14C0052F82110984705B05DF804FBD41E00207E
:10B15C00D81E0020F0B5194B90F800C091F81DE0F6
:10B16C0043F82C20164B16460A6943F82C20154B35
:10B17C0003F80CE00C4607460FCC89B06D460FC5A2
:10B18C0094E80F0085E80F00CDF810C0BEF1000F59
:10B19C0009D0002E0C4A694608BF3246381D00F013
:10B1AC00EBFC09B0F0BD002E084A694608BF3246D8
:10B1BC0007F10C0000F048FAF3E700BFD81E00209E
:10B1CC00D41E0020DC1E0020F9B001002DB10100BE
:10B1DC0000F18040002382B0036003680193019B5F
:10B1EC0002B07047044B0246187918B91A60012254
:10B1FC009A80704785207047E01E0020074B1A6824
:10B20C00D20704D4C02283F8002301221A604FF025
:10B21C0080430122C3F81825704700BF00E100E00D
:10B22C004FF0804208B50223C2F808334FF4827005
:10B23C00FFF7CEFF0123D360D2F81834DB03FBD425
:10B24C0008BD00004FF0804110B5D1F8003163B15A
:10B25C004FF48070FFF7BCFF0D4B58790122C1F8F9
:10B26C00082310B95A711B6898474FF08042D2F8E6
:10B27C00043163B14FF48270FFF7AAFF0223C2F8C6
:10B28C000833034BBDE810401B680120184710BD64
:10B29C00E01E002000F1804000F5C040002382B089
:10B2AC00036003680193019B02B07047800000F1BA
:10B2BC00A040D0F8002722F44032C0F80027D0F884
:10B2CC00003743EA0143C0F8003770472DE9F743D4
:10B2DC0000244A4D01944FF48072012102F1804305
:10B2EC0003F5C04390B21B68012B06D1D5F804338B
:10B2FC000B4202D0FFF7CEFF0C430432B2F5907F25
:10B30C004FEA4101EAD13D4BD3F87C31012B0CD1F2
:10B31C004FF4BE70FFF7BEFF4FF0A04344F0004463
:10B32C00D3F820250192C3F82025E3B2D3B1344FD2
:10B33C0000250126344210D0AB0003F1804303F505
:10B34C00C043D3F81005D3F8101557F8253023B1A6
:10B35C00C1F30141C0F3042098470135082D4FEA91
:10B36C004606E7D1002C1FDADFF894904FF0A04787
:10B37C0099F944305A1C10D0C3F3C20208326A4403
:10B38C00DCB212F8042C03F03F054FF0010803F077
:10B39C00070308FA03F31A4209D1D7F820350193B1
:10B3AC00C7F82035002BE3D103B0BDE8F08305F5D9
:10B3BC00E073284657F82360C6F30146022E0CBFF3
:10B3CC0003210221FFF772FF08FA05F3C7F82035B5
:10B3DC0009EB050393F9243059F82330002BDCD00A
:10B3EC00A109032903D0022E04D10129D5D1284665
:10B3FC009847D2E7032ED0D10229F7E7006000402E
:10B40C00E81E0020014B1B68184700BF341F0020AA
:10B41C000E4B984237B50C4602D0002003B030BD1D
:10B42C0000230DF107008DF80730FEF7C3FF084B22
:10B43C001D7915B901221C601A719DF80700FEF7E1
:10B44C00DDFF002DE9D01120E8E700BF002000400F
:10B45C00341F0020034B984201BF034B00221A609B
:10B46C001A71704700200040341F00200023435005
:10B47C0082B043580193019B02B070470A4610B545
:10B48C004FF48E71FFF7F2FF136A9168C95C136A6F
:10B49C0001331362C0F81C1510BD024608B50068D4
:10B4AC004FF49271FFF7E2FF10684FF48471FFF7CD
:10B4BC00DDFF136801221A6008BD8B690A4610B5BE
:10B4CC004FF4847123B9FFF7D1FFD0F8183510BDB4
:10B4DC00FFF7CCFF536AD168D0F81805C854536AEB
:10B4EC0001335362F3E700001FB501238DF80030E0
:10B4FC00044BCDE90110D3E900126846904705B022
:10B50C005DF804FB3C1F002030B54D4DD5F80433DD
:10B51C009A0585B051D5D5F82431002B4DD04FF478
:10B52C0092712846FFF7A2FF4FF40173C5F8083358
:10B53C00444B93F829200AB901226A60404902223F
:10B54C008DF80020D1F88024C1F8802403929A69E8
:10B55C000292DA6801920022C3E906226846D3E916
:10B56C00001290473648D0F81C315BB1354A51690E
:10B57C00136A99424DD992F82830002B49D11146C3
:10B58C00FFF77CFF2E48D0F84431002B56D04FF4F7
:10B59C00A271FFF76BFF2B4B93F829200AB1012204
:10B5AC0002609A69002A49D0586AD96800229A61C7
:10B5BC0005B0BDE83040FFF797BFD5F804335B0703
:10B5CC00D0D5D5F80831002BCCD01E4C1C482146C8
:10B5DC00FFF773FF636AA2699A42C3D1E369E1681A
:10B5EC004BB1A3612369E3600023606AE36163628A
:10B5FC00FFF77AFFB6E794F829300BB901236B609B
:10B60C000F4B4FF40172C3F808230023606AA36147
:10B61C00EEE70B484FF48E71FFF728FF5369002BB0
:10B62C00B0D051690291002391688DF800300191DE
:10B63C0053616846D2E900139847A3E705B030BDC3
:10B64C00002000403C1F00202DE9F843534D90F89A
:10B65C0004802C2303FB0853064693F82A300C462F
:10B66C009146002B40F096804D490068FFF7D0FEC4
:10B67C000746002840F0908022683068511C0BD09F
:10B68C004FF0A04101239340C1F8083502F5E07357
:10B69C004FF0030C41F823C061684B1C1FBF01F530
:10B6AC00E0734FF0A04C4FF0000E4CF823E0A36970
:10B6BC00C0F8243594F814C0637DBCF1010F4CEA3A
:10B6CC000303C0F86C35C0F81415C0F80C251DD157
:10B6DC00A268531C1FBF02F5E0734FF0A0414FF05E
:10B6EC00000C41F823C0E368591C0BD04FF0A04C60
:10B6FC0001219940CCF8081503F5E0714FF0030EC9
:10B70C004CF821E0C0F80835C0F810252C2202FBBB
:10B71C0008F2AB18C3F804902369AB50B9F1000FD1
:10B72C0020D04FF48E71247FFFF7A0FE4FF4A2714E
:10B73C003068FFF79BFE32681A4BC2F80433130BC8
:10B74C0042F307326101002AC9B21EDB1648841885
:10B75C0084F800130121520903F01F0301FA03F3CB
:10B76C0040F8223033680422C3F800252C2303FB55
:10B77C0008530022C3E9062283F829205A610122CA
:10B78C0083F82A203846BDE8F883084A03F00F03F3
:10B79C00D154E7E70827F5E71127F3E73C1F002012
:10B7AC0015B501008000020000E100E014ED00E09E
:10B7BC00F8B503680579304C0022C3F800252C221B
:10B7CC0002FB05425268A2B12C4AC3F808231A0B9B
:10B7DC0043F30733002B0CDB02F01F015B09012242
:10B7EC008A402033264941F82320BFF34F8FBFF303
:10B7FC006F8F0068D0F80C65D0F81415D0F80835A8
:10B80C00D0F810254FF0FF37BE42C0F8147518BFA2
:10B81C0006F5E076C0F80C75C0F80875C0F8107520
:10B82C001EBF4FF0A0474FF0020C47F826C04E1C2D
:10B83C001FBF4FF0A04601F5E071022746F82170BA
:10B84C00511C1FBF4FF0A04102F5E072022641F8D7
:10B85C0022605A1C1FBF03F5E0734FF0A042022177
:10B86C0042F82310FFF7F6FD2C2303FB05440023BD
:10B87C0084F82A306360F8BD3C1F0020840202006B
:10B88C0000E100E00279044B2C2101FB02335869E2
:10B89C00003818BF012070473C1F00202DE9F84FDD
:10B8AC00064690F8048089469246FFF7EBFF044663
:10B8BC0000283CD1204F2C2508FB057B4FF48E71C2
:10B8CC00CBF814A0CBF80890CBF820008BF828000C
:10B8DC003068FFF7CBFD3068012383605946FFF7D2
:10B8EC00CDFDDBF804305D461BBB3068DBF8144043
:10B8FC002B6A9C4211D83368D3F81C21002AFBD048
:10B90C000122DA6000202C2303FB087700237B61E3
:10B91C00BDE8F88F95F828303BB9D0F81C31002BD6
:10B92C00F8D05946FFF7AAFDE2E70F20EBE711200C
:10B93C00EEE72046ECE700BF3C1F00202DE9F04766
:10B94C003A4D07792C2303FB075306465C6824B158
:10B95C0003684FF40170C3F808032C2303FB07534F
:10B96C00986950B1D869002841D024B133684FF49C
:10B97C000172C3F80423112436E09A61D96058622D
:10B98C00D8612C2303FB075393F829301BB910B94A
:10B99C003046FFF782FD4FF02C0808FB075A306841
:10B9AC00DAF80430002B37D14FF4A271D046FFF7F0
:10B9BC005DFD3068D0F82491D0F80831D0F84441BE
:10B9CC00CBB914B9B9F1000FF3D02C2303FB0755F5
:10B9DC000023AB61B9F1000F24D12CBB95F82910D1
:10B9EC0033680122B1B11A602046BDE8F0871961B5
:10B9FC00DA610120C5E7B9F1000FE6D1002CE4D1E2
:10BA0C004146FFF75AFDDAF82430DAF818209A424A
:10BA1C00CFD8DAE75A60E7E74FF40173C0F8043384
:10BA2C000024E1E70324DFE70F24DDE73C1F0020BF
:10BA3C000023435082B043580193019B02B07047DE
:10BA4C001FB501238DF80030044BCDE90110D3E96B
:10BA5C0000126846904705B05DF804FB681F002093
:10BA6C007FB5434AD2F82461002E60D010464FF4C3
:10BA7C009271FFF7DDFF02238DF80030D2F880348D
:10BA8C00C2F880340393D2F83C350293394BDA6810
:10BA9C0001920022C3E906226846D3E900129047BE
:10BAAC003348D0F8443173B14FF4A271FFF7C0FFA3
:10BABC00304B9A693AB10022C3E90622D968D0F812
:10BACC003C05FFF7BDFF2A48D0F82031ABB14FF44D
:10BADC009071FFF7ADFF0123C360264B5A6962B129
:10BAEC00D0F84C150291002299688DF80020019134
:10BAFC005A616846D3E9001290471D48D0F8583176
:10BB0C009BB14FF4AC71FFF793FF1A4B5A6962B1BA
:10BB1C00D0F84C150291002299688DF80020019103
:10BB2C005A616846D3E90012904704B070BDD2F850
:10BB3C001031002BB4D04FF488711046FFF778FF0A
:10BB4C000C4BD2F83C0599698842A9D1DC69D968BB
:10BB5C0064B1D2F8005225F02005C2F800521A69DF
:10BB6C009C61DA60DE61FFF76BFF99E79C61FAE795
:10BB7C0000200040681F00202DE9F8435A4E90F831
:10BB8C000480242303FB0863044693F820300D46FD
:10BB9C009146002B40F0A38054490068FFF738FC15
:10BBAC000746002840F09D802A682068511C0BD065
:10BBBC004FF0A04101239340C1F8083502F5E07322
:10BBCC004FF0030C41F823C069684B1C1FBF01F5F3
:10BBDC00E0734FF0A04C4FF0000E4CF823E0AB6933
:10BBEC00C0F8243595F814C06B7DBCF1010F4CEAFC
:10BBFC000303C0F86C35C0F80C25C0F814151DD122
:10BC0C00AA68531C1FBF02F5E0734FF0A0414FF020
:10BC1C00000C41F823C0EB68591C0BD04FF0A04C22
:10BC2C0001219940CCF8081503F5E0714FF0030E93
:10BC3C004CF821E0C0F80835C0F81025242202FB8E
:10BC4C0008F2B318C3F804902B69B350B9F1000F84
:10BC5C002FD04FF488712A7FFFF7EAFE20684FF44B
:10BC6C009071FFF7E5FE20684FF49271FFF7E0FE4C
:10BC7C0020684FF4A271FFF7DBFE4FF4AC71206823
:10BC8C00FFF7D6FE23681A49C3F80413190B43F3C4
:10BC9C0007335201002BD2B21CDB1648C51885F8AD
:10BCAC00002301225B0901F01F0102FA01F140F8A7
:10BCBC00231023680822C3F80025242303FB0866FD
:10BCCC000023C6E906337361012386F82030384619
:10BCDC00BDE8F883084B01F00F015A54E9E7082737
:10BCEC00F5E71127F3E700BF681F00206DBA0100CC
:10BCFC001003420000E100E014ED00E0F8B5444C04
:10BD0C000579242303FB054302465B680068ABB14D
:10BD1C00404BC0F8083340F30733002B4FEA103187
:10BD2C000CDB01F01F065B090121B14020333A4EB8
:10BD3C0046F82310BFF34F8FBFF36F8FD0F800324C
:10BD4C0023F02003C0F80032242303FB05439B6936
:10BD5C002BB14FF4A271FFF76BFE012343604FF43C
:10BD6C00AC71FFF765FE0123C360242303FB05437D
:10BD7C00D0F858110029FBD0996919B1D0F84411A9
:10BD8C000029F5D00023C0F800351368D3F80C75E2
:10BD9C00D3F81465D3F80825D3F810154FF0FF3CF1
:10BDAC006745C3F80CC518BF07F5E077C3F814C591
:10BDBC00C3F808C5C3F810C51EBF4FF0A0434FF021
:10BDCC00020C43F827C0771C1FBF4FF0A04306F5A9
:10BDDC00E076022743F826704E1C1FBF01F5E07178
:10BDEC004FF0A043022643F82160531C1FBF4FF0B5
:10BDFC00A04302F5E072022143F82210FFF72AFB60
:10BE0C00242303FB0544002384F820306360F8BD31
:10BE1C00681F00201003420000E100E00279044B8F
:10BE2C00242101FB02335869003818BF01207047E8
:10BE3C00681F002001F06043B3F1005F2DE9F0476B
:10BE4C000646884692463BD190F80490FFF7E6FFF1
:10BE5C000446002836D11D4F3068242505FB097592
:10BE6C004FF49071C5F814A0C5F80880FFF7E0FDF9
:10BE7C004FF4AC713068FFF7DBFD33686A69A96871
:10BE8C00C3F84415C3F8482501229A606A68DAB9E8
:10BE9C00D3F82021D3F858011AB90028F8D00F2074
:10BEAC0007E00028FBD10122DA60D3F85821002AE0
:10BEBC00FBD0242303FB097700237B61BDE8F087CB
:10BECC001020FBE71120F9E72046F7E7681F002058
:10BEDC00F8B501F06043B3F1005F04460F465ED144
:10BEEC000379304D242101FB0351496821B10068CD
:10BEFC004FF40476C0F80863242000FB03539E69BA
:10BF0C0056B1D869002839D021B123684FF4047296
:10BF1C00C3F80423112030E09A61DF60DE612068F1
:10BF2C004FF48871FFF784FD20684FF4A271FFF77E
:10BF3C007FFD2368C3F83475C3F8382516BB01227E
:10BF4C001A602479242202FB045252680ABBD3F8EB
:10BF5C001011D3F84421D3F82401114302D1002845
:10BF6C00F5D00A46242303FB04550023984218BF3E
:10BF7C0003209A42AB6118BF0F20F8BD1F61DA6134
:10BF8C000126CCE7D3F8002242F02002C3F80022AD
:10BF9C00D7E74FF40472C3F804230020EDE7102018
:10BFAC00EBE700BF681F002013B5084CD4F8003134
:10BFBC004BB1074B1B6898470023C4F80031D4F8E9
:10BFCC0000310193019B02B010BD00BF0000014085
:10BFDC00901F002070B5114B1960114B1C78054651
:10BFEC00D4B9104E01221A700378C6F80C3541688A
:10BFFC004FF47A720023C803490C03F00BFDC6F80A
:10C00C0004052B7A084A5B01DBB282F810334FF43B
:10C01C0080331360204670BD0820FCE7901F002081
:10C02C008D1F00200000014000E100E0044B0122C4
:10C03C00C3F804231A60034B02221A70704700BF26
:10C04C00000001408D1F002037B5054600240DF17E
:10C05C0007008DF80740FEF7ADF90C4B1A78072A4C
:10C06C0011D8511C19700A492A70D1F808050123FE
:10C07C0093400343C1F808359DF80700FEF7BEF95D
:10C08C00204603B030BD0424F6E700BF8C1F00200F
:10C09C0000000140034B044A00F5C07043F8202017
:10C0AC00704700BF000001403546526E00F18040E1
:10C0BC0000F5E040002382B0036003680193019B0C
:10C0CC0002B07047F0B5524B524CD3F8043185B0E6
:10C0DC00002B3DD094F82E204FF48270FFF7E6FF32
:10C0EC002AB394F82F3013BB494AD2F80031002BF5
:10C0FC0032D04FF48070FFF7D9FF638B94F82D008A
:10C10C00834250D921891B1A9BB289B26383CB1A03
:10C11C00616801EB4303C2F82C36C2F830064FF4C9
:10C12C008270FFF7C3FF3A4B01225A6014E0636838
:10C13C0002932389ADF80C30E36800218DF80410CC
:10C14C0033BB2374236801A89847002384F82F304D
:10C15C0094F82E30002BC7D12D4BD3F810315BB196
:10C16C004FF48870FFF7A2FF0023237402238DF88D
:10C17C00043001A823689847254BD3F81431EBB150
:10C18C004FF48A70FFF792FF0023237405B0F0BDC3
:10C19C00208B608363602081E160002AD2D11C4B2C
:10C1AC0001221A60CEE7BAD1E368012184F82F107E
:10C1BC0013B100216183AEE76383B0E766694FF08A
:10C1CC0000470125002EE1D0B6FA86F227FA02F3D9
:10C1DC004632920026EA030602F1804303F5E0435F
:10C1EC001B68002BEED01046A2F58C72FFF75EFF99
:10C1FC00D30882F00402C2F380028DF808308DF867
:10C20C00045023688DF8092001A89847DAE700BF8D
:10C21C0000700040941F002038B5204A92F82C3052
:10C22C000446002B37D111601D490078C1F8F00588
:10C23C006078C1F8F4050125E078137482F82D308C
:10C24C00536182F82F306FF0004382F82E0082F891
:10C25C002C504FF48270C1F80833FFF727FF4FF4CE
:10C26C008070FFF723FF4FF48A70FFF71FFFA3784E
:10C27C000C485B01DBB280F8073380230360022398
:10C28C00C1F8043392F82E300BB1C1F80453C1F845
:10C29C000055002038BD0820FCE700BF941F00208B
:10C2AC000070004000E100E070B52A4B1A7C02F0EF
:10C2BC00FF05002A4BD10A79012A9CBF264CC4F8F1
:10C2CC00005500F10C0503EB4504247924B993F8CF
:10C2DC002D40013483F82D4003EB4503CC790D7AC6
:10C2EC008E781C715D714B7836021B0106F4E0668A
:10C2FC0003F0300333430E7806F003063343CE7855
:10C30C00360306F480563343160406F4E026334312
:10C31C004E798979360506F480160906334301F007
:10C32C0080710B430C4901EB0016000100F18040B9
:10C33C0000F5E040012AC6F81835C0F81455C0F8CD
:10C34C00104502D80123C1F80035002000E011206F
:10C35C0070BD00BF941F00200070004070B5324AC1
:10C36C00147C04F0FF03002C5CD1304C0125032617
:10C37C001574C4F80863C4F82C16C4F8305692F837
:10C38C002D40AC420CD91D46190101F1804101F53B
:10C39C00E0410133082BC1F81455C1F81055F3D105
:10C3AC0000F10C03000102EB430300F1804000F5A7
:10C3BC00E04019795B79C0F81435C0F810151B49A9
:10C3CC0001230B604B6042F21073D1F8040108B9E1
:10C3DC00013BFAD14FF48070FFF768FE4FF4827086
:10C3EC00FFF764FE012C11D90F4800210B0103F15A
:10C3FC00804303F5E0430131047F457FC3F81455B6
:10C40C000829C3F8104500F10200EFD192F82E1064
:10C41C00064B29B103210020C3F80413107470BD1E
:10C42C000221F8E71120FAE7941F00200070004069
:10C43C00F0B51C4F8BB207EB001443EA0243C4F86F
:10C44C001C35194B40005C6900F1010C4FF00046A3
:10C45C0011F5006F26FA0CF64FF0800505FA00F581
:10C46C000BBFB44334435C615C610CBFC7F8085329
:10C47C00C7F804534FF0004140245D69844021FA11
:10C48C0000F040F2FF718A42064A0BBF25EA000019
:10C49C002843586158610CBFC2F80843C2F80443E2
:10C4AC00F0BD00BF00700040941F002010B5124B6F
:10C4BC001A7CF2B900F10C0103EB4102127922B1A2
:10C4CC0093F82D20013A83F82D2003EB410300242F
:10C4DC009C80030103F1804303F5E0430749C3F853
:10C4EC00144540F2FF72C3F81045FFF7A1FF204638
:10C4FC0010BD1120FCE700BF941F002000F8FFFFC7
:10C50C0038B5144B6FF00042C3F80823124A80214F
:10C51C00C2F88010BFF34F8FBFF36F8F01229A6068
:10C52C0042F21072D3F8141109B9013AFAD10B4D39
:10C53C000024C3F800452C7405EB44031B7F13B196
:10C54C00E0B2FFF7B3FF0134082CF5D1002385F8D6
:10C55C002C3038BD0070004000E100E0941F00203A
:10C56C000023435082B043580193019B02B07047A3
:10C57C000A7B0346032A29D8DFE802F02125190299
:10C58C008A68500304D5D3F84C250869904207D12A
:10C59C008A6852031AD4D3F84C254969914215D0B4
:10C5AC0000200622C3F80005C3F800257047D3F815
:10C5BC004C2508699042F3D1D3F83C25EDE7D3F82C
:10C5CC004C250969EAE7D3F83C25FAE701207047C6
:10C5DC00F0B5594D594CD5F8243187B0FBB14FF417
:10C5EC0092712846FFF7BCFFD5F80431BBB9A3689C
:10C5FC00C5F808330223A360A368C5F80433D5F843
:10C60C0060311BB1D5F800329F0503D44A4B01228F
:10C61C001A625A61012384F82E3007B0F0BDD5F8A8
:10C62C000431002B50D044484FF48271FFF798FF2F
:10C63C00236A5E0609D494F82E3033B93F49FFF7CC
:10C64C0097FF80F0010084F82E00236A5D0720D448
:10C65C003B4E0FCE01AD0FC5336837482B604FF4FE
:10C66C00B071FFF77DFF4FF4AE71FFF779FF94F8CF
:10C67C00303013B194F82E305BB12F4B0022C3F83D
:10C68C000022A2602F4AC3F808232F4B0822C3F8BC
:10C69C008021294AD2F8C434C2F8C43498073DD555
:10C6AC0001238DF8003094F830300BB984F82F301A
:10C6BC00236A5B0703D594F82E30002BADD0D4E958
:10C6CC00003168469847A8E71B484FF4A471FFF760
:10C6DC0047FF237B83B91A4F0FCF01AE0FC63B68C0
:10C6EC00336094F83030002BD3D1C5F80032A360FE
:10C6FC00144BC5F80833C8E74FF40073C5F8003283
:10C70C0040F20223A36003F1CE73C5F80833A3688B
:10C71C00C5F804330123AB602B627EE7590701D5C2
:10C72C000223BEE7DA0701D50323BAE794F82E30CB
:10C73C00002BB6D00423B4E700300040C41F002007
:10C74C00D01F002002029C0100E100E02DE9F84F0F
:10C75C00384C394B394DDFF8E8A0DFF8E8B02870D9
:10C76C00E41AE4084FF47A78240408FB02F90F4623
:10C77C00164644F0030408FB01F82B78052B01D175
:10C78C00BDE8F88F013B032B4DD8DFE803F0022105
:10C79C00303F2D4B2D491A68204601321A60FDF7A7
:10C7AC0021F99FB101F0FAF801F020F901F0A6F897
:10C7BC004146012000F0B0FF01F0DAF800232449D3
:10C7CC002B703A462046FDF70DF9D6E70223F6E723
:10C7DC0037B1012001F026F801F0D8F801F0FCF88F
:10C7EC000323594620462B70FDF7F8F8C5E732466F
:10C7FC0051462046FDF7F6F836B14946022000F0C6
:10C80C008BFF00232B70B8E70423FBE716B1022043
:10C81C0001F008F80F492046FDF7E0F80EB10323AC
:10C82C00F0E70523EEE702F042FB01F07FF901F09F
:10C83C0053F9A2E7B0200200702002003012002051
:10C84C00F4270200DD2702000420002085270200C7
:10C85C00BD2702000328020008B50B480B4B0C49FE
:10C86C00C01AC008000440F00300FDF7B7F801F04F
:10C87C006BFA4FF0A0434FF40042C3F80C25054B64
:10C88C0000221A701A7008BDB0200200702002003D
:10C89C0011280200C923002070B5114E114D002340
:10C8AC0033704FF0A0434FF40042C3F80825142412
:10C8BC0045F001054FF47A40A847013CFAD101F04C
:10C8CC001BFA3378002BFCD00748084B0849C01AD8
:10C8DC00C0080004BDE8704040F00300FDF77EB8CE
:10C8EC00C9230020B02A0200B020020070200200F0
:10C8FC00392802008FB54FF480610020FCF7D0FE80
:10C90C0008B1FDF75DFAFCF70BFE00F0B3FEFEF785
:10C91C00A7F808B1FDF754FA4FF0A04303224FF4E7
:10C92C008051C3F83027C3F80C154FF40041C3F8FD
:10C93C003C27C3F80C15C3F840274FF48032C3F8DA
:10C94C000C258C4C8C4B8D4A8D498E4DDFF83882E2
:10C95C00E41AE40824044FF0804744F003068B4BA0
:10C96C003046FDF748F8D7F8003489494FF0FF32CC
:10C97C00C7F800243046874A0093874BFDF745F8EB
:10C98C004EF6602001F0B2F84FF47A71002000F0FE
:10C99C00C3FE01F05DFA0023C8F80030C5F8043579
:10C9AC0001233B602B60D5F80031002B77D000239E
:10C9BC00C5F80031D5F80835D5F808257149774DFB
:10C9CC009B0544BF6FEA82526FEA9252002AB8BFAD
:10C9DC00033201239210C8F800204B604FF08041C5
:10C9EC0030464B606E49FCF7FDFF02F05DFA1427F0
:10C9FC0045F001054FF47A40A847013FFAD1694D43
:10CA0C00DFF8A491DFF8A4A102F04FFA284601F058
:10CA1C002BF86B7903932B790293EB780193AB781A
:10CA2C0000936B782A7862496248634D03F06AFA86
:10CA3C0062493046FCF7D2FFB9F800103A460120A3
:10CA4C00FFF784FEFFF728FF02F0EEF801F044FE3A
:10CA5C0095F80080B8F1010F2AD0B8F1020F46D03A
:10CA6C00B8F1000FF6D156493046FCF7B7FF02F08B
:10CA7C0093F940B9534B1A68511C196044F00100EA
:10CA8C005149FCF7AFFF00F0F7FE504B1A88042A0F
:10CA9C0008D805221A80FFF7DFFE012325E001F0FC
:10CAAC0045F880E7B2F5616FF5D94FF46162F1E7B3
:10CABC00DFF81881464FB8F8002046493A80032326
:10CACC0030468AF80030FCF78DFFB8F800304FF490
:10CADC007A715943052000F01FFE3A88B9F800100E
:10CAEC009AF80000FFF732FE02232B70B0E73A4FA2
:10CAFC003A493046FCF772FF3B68052001333B6036
:10CB0C0000F090FE404644F0020800F08BFE4046D8
:10CB1C003349FCF763FF334B3A681B883248934226
:10CB2C0017D200230370002330493B603046FCF7DA
:10CB3C0055FFFFF7B1FE02F02FF90028ABD1214BC6
:10CB4C001A68511C196044F001001F49FCF74AFF98
:10CB5C00A1E7274909888A4294BF4FF0010C4FF096
:10CB6C00000C80F800C0DED8009140462149FCF74B
:10CB7C004CFF92E7B02002007020020067280200F0
:10CB8C007328020000C00040F81F00205E2802003D
:10CB9C00E9280200DB280200CD280200B02A02009E
:10CBAC00272902001D20002032120020FC1F00202B
:10CBBC003929020010200020FE1F002052290200FB
:10CBCC00702902000820002096290200361200204D
:10CBDC0034120020B92902000C200020ED2902009B
:10CBEC000B2A020000200020FD1F00201F2A02003B
:10CBFC0002200020452A02000369C26893429CBFB0
:10CC0C0080681B18013B981A70472DE9F843D0E94E
:10CC1C0002940546A9EB04084068904520440F4651
:10CC2C00144404D903F0CAFCEC60BDE8F883424616
:10CC3C00A4EB090403F0C2FC6868224607EB080168
:10CC4C00F0E72DE9F843C5680646894617464FF0CC
:10CC5C0000083469B3687068A54228BFE418013C29
:10CC6C00621B5C1BBC4228BF3C46944228BF144646
:10CC7C0049462844224603F0A1FCB3682544AB4244
:10CC8C0008BF00253F1BA044A144F560E1D14046FC
:10CC9C00BDE8F88310B5114C114AA2610223C4E916
:10CCAC000433104BE361A2644FF400730E4A0F4936
:10CCBC002362E26400231022E01DA3626362E3623C
:10CCCC00A3656365E365226503F0D4FC084920463F
:10CCDC0003F0D0FC2023A37110BD00BF382000202E
:10CCEC00B62A0200C0200020B0200020BF2A02007B
:10CCFC00C32A020070B5164B182400FB04451D44D2
:10CD0C0004FB00331646DC6A012C0ED0022C18D022
:10CD1C00E4B92846FFF770FF864204D8324628460D
:10CD2C00FFF773FF3446204670BD2846FFF764FFBB
:10CD3C008642344628BF044622462846FFF765FF44
:10CD4C00F1E72846BDE87040FFF77BBF0024EAE717
:10CD5C0038200020FFF79EBF6DDF704779DF7047EA
:10CD6C007DDF704764DF70472DE9F04F85B00025FB
:10CD7C000E9CBDF83CB0B4F800A00191074690465B
:10CD8C001E46A9463A884A450DDC45B12388013B2D
:10CD9C00A3EB0A039BB2FF2B3AD806F80A3000200B
:10CDAC0005B0BDE8F08F7A6852F829000390002294
:10CDBC000DF10B0103A8FFF7D5FF0028F0D19DF86A
:10CDCC000B20424521D12288002D14BF00200220C7
:10CDDC0002EB0801014459451ADC3DB9013292B20B
:10CDEC00019B2280B35422880132228022880DF1CB
:10CDFC000B01324403A8FFF7B5FF0028D0D12188DE
:10CE0C009DF80B200A442280012509F10109B9E79C
:10CE1C000C20C5E72DE9F341089FBDF82480154689
:10CE2C00CDE90078022204461E46FFF79DFF50B95B
:10CE3C003346102229462046CDE9087802B0BDE8D9
:10CE4C00F041FFF791BF02B0BDE8F0812DE9F04F42
:10CE5C0000231788138090F82D3085B006460D46B8
:10CE6C0014465BB3082F01D80C2028E102A8FFF769
:10CE7C0073FF002840F023812388DDF80910082275
:10CE8C00EA54238801339BB21B222380EA54238863
:10CE9C0001339BB2EA182380E950BDF80D30938022
:10CEAC0023889DF8082006339BB212F0FE0218BFAF
:10CEBC0001222380EA54238801332380B378FBB109
:10CECC0023880433BB42CFD802A8FFF747FF0028C2
:10CEDC0040F0F58023880322EA54238801339BB267
:10CEEC0019222380EA542388BDF8082001339BB211
:10CEFC00E9182380EA54120A4A70238802332380EB
:10CF0C00F2789AB12388D91CB942ADD80221E954E0
:10CF1C00238801339BB201212380E95423880B44DD
:10CF2C009BB22380EA5423880B4423807268AAB1F5
:10CF3C002388D91CB94297D8022192F90020E954D0
:10CF4C00238801339BB20A212380E95423880133BF
:10CF5C009BB22380EA542388013323803389002B2E
:10CF6C0040F0A180338A5BB1CDE900472B46072204
:10CF7C00032106F11000FFF74DFF002840F09F80C1
:10CF8C00338B5BB1CDE900472B461522142106F1FA
:10CF9C001800FFF73FFF002840F09180326A002A0A
:10CFAC0040F09080D6F82480B8F1000F30D0B8F85B
:10CFBC0004302188981C8A1C0244BA423FF654AFB4
:10CFCC00FE283FF651AF03336B54238801339BB2D9
:10CFDC00FF222380EA54238801339BB22380B8F8C4
:10CFEC000020EA54E918120A4A702088023080B2F4
:10CFFC002080B8F804205AB1D8F8081000296BD05A
:10D00C00284403F0DBFA2388B8F804201344238067
:10D01C0096F82C30002B40F09880307800284ED0B9
:10D02C003388012B58D0228802F1020CBC453FF604
:10D03C001BAF012805D17378023313449F42FFF4D0
:10D04C0013AF023FBF1ABFB202A905EB0C00ADF83B
:10D05C000870FFF785FE90BB3178BDF808300229C7
:10D06C0000F0B98072789A4202D39F4280F0B1806E
:10D07C00012940F0B280974293B2C0F0AE80ADF877
:10D08C0008300821BDF80830FE2B3FF6EDAE2288A3
:10D09C000133AB542288013292B22280A9542288E7
:10D0AC00134423800BE0CDE900472B4606220221D6
:10D0BC0006F10800FFF7AEFE00283FF453AF05B0B1
:10D0CC00BDE8F08FB4F800C00CF10603BB423FF68C
:10D0DC00CBAE1188052901D80720F0E76FF4486E14
:10D0EC0001EB0E039BB24FF27D3E7345F4D953888E
:10D0FC00052BF1D96FF44860181880B27045EBD944
:10D10C004FF6FF70814201D09942E5D8052305F80E
:10D11C000C30238801339BB212212380E9542388DD
:10D12C0001339BB223801188E954E818090A417035
:10D13C00238802339BB223805288EA54E918120ADE
:10D14C004A702388023323802CE7B36A002BC3D0A8
:10D15C004FF000084FF00C0A4FF0160BB16A5FFA53
:10D16C0088F20AFB02F201EB0209B9F80430981CB0
:10D17C00FE283FF679AE208803332B5423880133E5
:10D18C009BB2238005F803B0238801339BB2238024
:10D19C008A5AEA54E918120A4A702088023080B27E
:10D1AC002080B9F804205AB1D9F80810002993D07E
:10D1BC00284403F003FA2388B9F80420134423808D
:10D1CC0096F82C2008F101085FFA88F39A42C5D82A
:10D1DC0023E7092156E79F42FBD2ADF8087050E7D0
:10D1EC0010DF704711DF704713B5044609496846D4
:10D1FC00FDF761FC019808B902B010BDD0E900310F
:10D20C002046984718B16846FDF75FFCF2E71120FD
:10D21C00F2E700BFD82A020013B504460749684656
:10D22C00FDF749FC019B0BB902B010BD2046D3E9B8
:10D23C00002190476846FDF748FCF3E7F02A02000E
:10D24C00084B9A6822B11A6822F480021A6070475F
:10D25C00054B4FF48002C3F88020BFF34F8FBFF310
:10D26C006F8F7047781E002000E100E00B4991F8A9
:10D27C0016335A09EC231341DB0706D5084B9A6881
:10D28C003AB94FF480030B60704742F20200FCF78E
:10D29C0097BD1A6842F480021A60704700E100E002
:10D2AC00781E0020F7B5194F3C7864BB184E012549
:10D2BC0020463570FFF798FF112821D02046FFF744
:10D2CC00ABFF144B8DF80340186801900DF103006F
:10D2DC00FDF770F8104901A8FFF782FF0446B0FA79
:10D2EC0080F0400938709DF80300FDF787F83CB9D1
:10D2FC000A4B34701C70FFF7B9FF2846FFF78CFF00
:10D30C00204603B0F0BD0824FAE700BFC12200207C
:10D31C00C0220020D22A0200E99D0100C222002076
:10D32C00F7B5154F3B781BB3144E01203070FFF747
:10D33C005BFF11284FF000051CD00220FFF76CFF9B
:10D34C000DF107008DF80750FDF734F8FFF74AFF91
:10D35C0004469DF807003D70FDF750F82CB90320EA
:10D36C003470FFF76DFFFFF757FF204603B0F0BD99
:10D37C000824FAE72C46F8E7C1220020C02200203E
:10D38C00014B1878704700BFC122002007B508492F
:10D39C006846FDF790FB019B13B903B05DF804FBE5
:10D3AC00D3E9002090476846FDF78FFBF3E700BFF9
:10D3BC00E42A0200FFF7EABF60DF704769DF7047BD
:10D3CC0061DF704730B5134B1B7891B0FBB1124D38
:10D3DC0034240DF1020103A8ADF80240FFF7F0FF71
:10D3EC0070B9294601A8FDF766FB029B002BF0D013
:10D3FC0003A8D3E90021904701A8FDF766FBF4E7E9
:10D40C00052804D011B0BDE83040FCF7D9BC11B0F0
:10D41C0030BD00BFC3220020342D020030B50C46B5
:10D42C0085B0002900F082800023CDE90133404A09
:10D43C00039301230A608DF804008DF8063001A9CE
:10D44C0006232020ADF80830FFF7B8FF60B1FDF7D8
:10D45C0067FB384B3849024638481B1ADB081B045B
:10D46C0043F00100FCF7BEFA00232268039301A9E4
:10D47C004020CDE90133FFF7A1FF60B1FDF750FB70
:10D48C002C4B2F4902462D481B1ADB081B0443F07A
:10D49C000100FCF7A7FA00232268039301A90120DD
:10D4AC00CDE90133FFF78AFF60B1FDF739FB214B62
:10D4BC002449024621481B1ADB081B0443F00100D7
:10D4CC00FCF790FA0023CDE902332268F82301A976
:10D4DC00A1200193FFF772FF60B1FDF721FB154B03
:10D4EC001949024615481B1ADB081B0443F00100BE
:10D4FC00FCF778FA00252268039501A9A020CDE954
:10D50C000155FFF75BFF034668B1FDF709FB094BBB
:10D51C000E49024609481B1ADB081B0443F00100A4
:10D52C00FCF760FA2B46184605B030BD0E23FAE71F
:10D53C0010120020C8200200FC2A020070200200F9
:10D54C00422B02008E2B0200DA2B02002B2C020045
:10D55C00F8B506460768FFF72FFF3368BB42054650
:10D56C001DD91948194C1A49241AE408240444F00A
:10D57C0002042046FCF732FA336816493A46204634
:10D58C00FCF739FA4FF080533268D3F80C3112495A
:10D59C009B0203F100539A1A2046FCF723FA25B993
:10D5AC000E4B01221A702846F8BD2846FDF7B8FA32
:10D5BC00064B0B49024604481B1ADB081B0443F0BC
:10D5CC000100FCF70FFAEEE770200200C820020001
:10D5DC007E2C0200AD2C0200DE2C0200C3220020A7
:10D5EC00082D02004BDF70471FB50E4C01A8FFF74A
:10D5FC00F9FF70B9214602A8FDF75DFA039B002BD9
:10D60C00F4D00198D3E90021904702A8FDF75DFA08
:10D61C00F4E7052804D004B0BDE81040FCF7D0BBFB
:10D62C0004B010BD4C2D0200024A13680133136084
:10D63C00704700BFC8220020014B02221A707047AD
:10D64C0030120020014B04221A7070473012002057
:10D65C00014B01221A707047C4220020014B012299
:10D66C001A707047C5220020014B05221A707047B2
:10D67C003012002008B5FCF7FDFD08B1FCF7A0FB4B
:10D68C00194A1A480121FCF727FE08B1FCF798FB50
:10D69C00174A18480121FCF71FFE08B1FCF790FB54
:10D6AC00154A16480121FCF717FE08B1FCF788FB58
:10D6BC00134A14480121FCF70FFE08B1FCF780FB5C
:10D6CC00114A12480121FCF707FE08B1FCF778FB60
:10D6DC000F4A10480121FCF7FFFD18B1BDE80840C6
:10D6EC00FCF76EBB08BD00BF35D601008C2D0200C7
:10D6FC0045D60100882D020051D601009C2D020058
:10D70C005DD60100942D020069D60100982D02000F
:10D71C0075D60100902D020070B50C46052817D85F
:10D72C00DFE800F0031D2E3F506100254FF400464A
:10D73C004FF47A5029464FF4FA420023E4FB0601D9
:10D74C0002F068F9014631482A46FCF7D7FD03463A
:10D75C00002B59D0BDE870401846FCF731BB0025B2
:10D76C004FF400464FF47A5029464FF4FA42002306
:10D77C00E4FB060102F04EF92A4601462448E4E790
:10D78C0000254FF400464FF47A5029464FF4FA42E4
:10D79C000023E4FB060102F03DF92A4601461D4830
:10D7AC00D3E700254FF400464FF47A5029464FF446
:10D7BC00FA420023E4FB060102F02CF92A4601464A
:10D7CC001548C2E700254FF400464FF47A5029461D
:10D7DC004FF4FA420023E4FB060102F01BF92A463F
:10D7EC0001460E48B1E700254FF400464FF47A503D
:10D7FC0029464FF4FA420023E4FB060102F00AF931
:10D80C002A4601460648A0E770BD00BFEC22002066
:10D81C00CC2200206C2300202C2300204C23002041
:10D82C000C23002008B5052808D8DFE800F0030D0C
:10D83C000F1113150A48FCF7ADFD034673B11846DA
:10D84C00BDE80840FCF7BCBA0648F4E70648F2E726
:10D85C000648F0E70648EEE70648ECE708BD00BFCF
:10D86C00EC220020CC2200206C2300202C23002052
:10D87C004C2300200C23002030B5104D104C2B688D
:10D88C0087B005A8059302F08FFE0E49641A016853
:10D89C00D0E9043203914168029181680191E40856
:10D8AC00C1680091240444F003000749013302F2DB
:10D8BC006C72FCF7C4F8286807B030BDC822002091
:10D8CC00B020020070200200582D020010B58AB062
:10D8DC00064C01A801F0E4F8002301A8236002F033
:10D8EC00B7FD2368034423600AB010BDC822002092
:10D8FC0072DF704773DF704774DF704700B593B009
:10D90C005923ADF80030164B02933C22172300210B
:10D91C0003A8ADF8043002F07AFE04238DF80F3022
:10D92C00104BCDF830D018220021184602F06FFEB3
:10D93C0005220270A02282600B4A03A852F8041B35
:10D94C00FFF784FA08B1FCF73BFA064A0649074888
:10D95C00FFF7CEFF08B1FCF733FA13B05DF804FB08
:10D96C004D120020902300203C1200204C1200206D
:10D97C0008B5054B01211878FFF7BCFF18B1BDE8BD
:10D98C000840FCF71DBA08BD4C12002008B5024B2C
:10D99C001878FFF7B1FF08BD4C12002013B50D4CE1
:10D9AC002378ABB9FFF77EFC08B1FCF709FA00232A
:10D9BC0001A901200193FFF731FD08B1FCF700FA32
:10D9CC0001A8FFF7C5FD08B1FCF7FAF90123237094
:10D9DC0002B010BD8C23002008B5FFF7A1FC024B50
:10D9EC0000221A7008BD00BF8C23002010B5174C04
:10D9FC000023A3755223237058236370144BA21C6D
:10DA0C0003F1140153F8040B42F8040B8B42F9D1C7
:10DA1C0000F01EFA0F4901F003FC01F0E5FEA075C1
:10DA2C000D480E4C0E49241AE408240444F0030457
:10DA3C002046FBF7D3FF204604491722FCF712F8C7
:10DA4C0020460849BDE81040FBF7C8BF4D12002026
:10DA5C00232000200000204170200200B020020092
:10DA6C00A02D0200CB2D0200F0B54FF08055174FC2
:10DA7C00D5F8A820C2F3072242F0C0020270D5F8F4
:10DA8C00A8304370D5F8A460360E8670D5F8A41073
:10DA9C00090CC170D5F8A440240A0471D5F8A4501F
:10DAAC0045710B48C01B85B0C008EDB2E4B2C9B2D9
:10DABC000004CDE90061039506490294DBB240F005
:10DACC000300FBF7BCFF05B0F0BD00BF70200200E7
:10DADC00B0200200F62D020008B5FBF733FE18B992
:10DAEC00BDE80840FCF7D2BF08BD70471FB50C4A13
:10DAFC00044607CA01AB83E807000A49029418469A
:10DB0C00FEF768FA08B1FCF75BF90748FEF79CFAD8
:10DB1C0008B1FCF755F9FEF789FA04B010BD00BF47
:10DB2C00282E0200F7DA0100C7230020014B1878D9
:10DB3C00FEF7B0BAC723002037B500238DF80730A5
:10DB4C000378012B00F0A880022B00F0A58023BBEA
:10DB5C000DF10700FDF7CEF851499DF807300C7810
:10DB6C001CB90A2B19D00D2B17D00A2B4D4D4E4A30
:10DB7C0015D00D2B13D0601C2B5508700024117878
:10DB8C00002900F08480002348494648137002F0B5
:10DB9C0005FA58B1464B03221A7003B030BD002071
:10DBAC000870012128551170A4B2E8E741493D489D
:10DBBC0002F0F4F918B13B493F48224612E03F49C4
:10DBCC00384802F0EBF910B1394B0422E4E73C4938
:10DBDC00344802F0E3F950B1354B3249394805224B
:10DBEC001A70224603B0BDE8304002F0E7BC36495B
:10DBFC002C4802F0D3F90028EED13449294802F020
:10DC0C00CDF920B93249274802F0C8F930B1314B6F
:10DC1C001B78012BDAB201D12F4BBDE72F492148DC
:10DC2C0002F0BCF908B10C2CC5D82D491D4802F0E6
:10DC3C00B5F90028BFD12B491A4802F0AFF918B139
:10DC4C001B4B06221A70B6E72749164802F0A6F9B4
:10DC5C0010B1264B01229FE72549124802F09EF98C
:10DC6C0038B122460F49144802F0A8FC104B072289
:10DC7C0092E720490B4802F091F900288DD02246FA
:10DC8C0008490D4802F09AFC094B082284E73E2B08
:10DC9C0083D1074B09227FE74068FCF791F87CE7BA
:10DCAC00CA270020CA230020CB270020342E0200D4
:10DCBC00D43A0020372E0200D4330020F82E020074
:10DCCC003D2E0200D4370020412E02004F2E0200C0
:10DCDC005A2E020072170020C8230020652E020065
:10DCEC00702E0200762E0200802E0200C923002026
:10DCFC008A2E0200912E020030B50F4D0FCD8BB045
:10DD0C0004AC0FC40D4B009395E803004FF48063F3
:10DD1C0001930B4B02934FF4006384E803000393CD
:10DD2C00084A0723694604A8FCF77CFF08B1FCF7F6
:10DD3C0047F80BB030BD00BF9C2E0200CC27002052
:10DD4C00CC2B002045DB010008B5FCF7C3FFFDF729
:10DD5C000FF8054B8422C3F8082301225A60DA60BD
:10DD6C000022C3F8002508BD0020004070B50A4D04
:10DD7C00441E022614F8012F22B913B9064B0122B6
:10DD8C001A7070BD2078FCF7CBFF03460028F1D049
:10DD9C001128F7D02E70EDE7D43A002038B5054D98
:10DDAC00322445F001054FF47A40A847013CFAD1E2
:10DDBC0038BD00BFE02E02001FB50C4A1068516838
:10DDCC00127A01AB03C30A481A700021FEF724FA39
:10DDDC0008B1FBF7F5FF01A90620FEF765FA08B1BB
:10DDEC00FBF7EEFF05B05DF804FB00BFCF2E020081
:10DDFC00D82E0200F0B585B0002401948DF80840AF
:10DE0C00FFF7DAFF4FF0A0434FF48032C3F8082538
:10DE1C00FFF7C4FF01AD052629460620FEF79EFA42
:10DE2C00FFF7BCFF2B88013E1C4405F1020524B210
:10DE3C00F2D14FF0A0434FF48032C3F80C25FFF71A
:10DE4C00ADFFFEF75DFB052094FBF0F005B0F0BDD7
:10DE5C002DE9F743FFF7CEFF254B264C188001F038
:10DE6C00D3FC2549254E01F0DBF94FF06A5101F046
:10DE7C00D7F9234901F0D4F9224901F0D1F9224B09
:10DE8C003060E41AE40824040021054644F003043D
:10DE9C0001F078FC30B31D49284601F05BFC08B357
:10DEAC00DFF86C80284601F085FC074601F0ACFCDD
:10DEBC0000218146284601F04DFCB0B14946284668
:10DECC0001F0A6F9134901F0ABF901F073FC12490A
:10DEDC0000903B4620464246FBF797FD306803B066
:10DEEC00BDE8F083DFF83480DCE729464846E7E7F5
:10DEFC00D0330020B02002009A99193FCC33002077
:10DF0C00713DEA3F0000C04070200200000080BF5D
:10DF1C00B42E02000000C842B62E020021310200CD
:10DF2C0038B5054D044645F001054FF47A40A84735
:10DF3C00013CFAD138BD00BFE039020010B50446EF
:10DF4C0002F0BAFB2346211800208B4200D110BDF1
:10DF5C0013F8012BA2F13004092C03D802EB0010AA
:10DF6C003038F2E7A2F16104052C03D802EB001063
:10DF7C005738EAE7A2F14104052C03D802EB001054
:10DF8C003738E2E70020E2E72DE9F8432C4FDFF8C1
:10DF9C00B4902D4C00258046032016463D7089F820
:10DFAC0000502570FFF7B8FBFCF794FE27484FF4A0
:10DFBC008062294602F02BFB4046FFF7D7FE3B78E8
:10DFCC00013B082B34D8DFE803F0050B1C21281E7D
:10DFDC001E331E003D7099F80030002BEFD00CE082
:10DFEC001B481C4B1C49C01AC008000440F001001F
:10DFFC00FBF7F4FC0320FFF715FC2078C0B2BDE85A
:10E00C00F883002EE7D101232370F3E71048114B5E
:10E01C001249C01AC0080004E8E70E4B0C4810491E
:10E02C00C01AC008000440F00300FBF7D7FCEAE775
:10E03C0000F03DFFFFF77AFDFFF74EFDCBE700BF89
:10E04C00D43A0020C4220020D2330020D433002044
:10E05C00B020020070200200E62E0200F22E020018
:10E06C00FE2E020038B54FF4806200214648474C22
:10E07C0002F0CDFA4648002242F21071FFF784FFFD
:10E08C00444BE41AE408240468B9434A434944F075
:10E09C000100FBF7A7FCFFF7DBFE414C2062FFF70A
:10E0AC00EBFBE06138BD44F00305374A3D49284697
:10E0BC00FBF798FCFBF746FB0028FBD13A493248AA
:10E0CC0001F06CFF50B1394A394901F031FF012898
:10E0DC0004D1364A37492846FBF784FC36492A488E
:10E0EC0001F05CFF50B1354A354901F021FF0128A0
:10E0FC0004D1324A33492846FBF774FC3249224892
:10E10C0001F04CFF50B1314A314901F011FF0128A7
:10E11C0004D12E4A2F492846FBF764FC2E491A4895
:10E12C0001F03CFF50B12D4A2D4901F001FF0128AF
:10E13C0004D12A4A2B492846FBF754FC4FF4806241
:10E14C000021114802F063FA2748002242F21071B4
:10E15C00FFF71AFF10B9104A244998E711490A4AE7
:10E16C002846FBF73FFC2249074801F017FF00281F
:10E17C0091D00B4C1F4904F1280201F0D9FEA26A80
:10E18C001D49284685E700BFD4330020B02002008B
:10E19C000E2F020070200200643902001C2F0200B6
:10E1AC00783B0020482F0200562F0200A63B00208F
:10E1BC005A2F0200612F0200812F0200AA3B00207F
:10E1CC00852F02008C2F0200AC2F0200AE3B0020EA
:10E1DC00B12F0200B92F0200962E0200B43B002092
:10E1EC00D92F0200E12F0200013002000930020099
:10E1FC00283002002F30020039300200F0B50646FC
:10E20C0000251046771C013A8D4200D3F0BD735D9A
:10E21C00392B86BF43F02003A3F15704A3F130043C
:10E22C007B5D392B86BF43F02003573B303B43EAE1
:10E23C00041302F8013F0235E6E7000030B55B49F4
:10E24C005B4C85B001F0C8FE10B101F055FF208089
:10E25C005649002001F0C0FE10B101F04DFF608066
:10E26C005249002001F0B8FE10B101F045FFA0802A
:10E27C004E49002001F0B0FE10B101F03DFFE080EE
:10E28C004A49002001F0A8FE10B101F035FF2081B1
:10E29C004649002001F0A0FE10B101F02DFF608175
:10E2AC004249002001F098FE10B101F025FFA08139
:10E2BC003E49002001F090FE48B103AA0421FFF76B
:10E2CC009DFF9DF80C30A3739DF80D30E373374917
:10E2DC00002001F081FE48B103AA0421FFF78EFF54
:10E2EC009DF80C3023749DF80D3063742F49002079
:10E2FC0001F072FE10B101F0FFFEA0822B4900204C
:10E30C0001F06AFE10B101F0F7FE6082274900208F
:10E31C0001F062FE10B101F0EFFEA0752349002060
:10E32C0001F05AFE10B101F0E7FEE0751F49002024
:10E33C0001F052FE10B101F0DFFE20831B490020DA
:10E34C0001F04AFE10B101F0D7FE6083174900209E
:10E35C0001F042FE30B101F0CFFE431E584258414D
:10E36C00144B18701149002001F036FE10B101F069
:10E37C00C3FEA083104B22881A80104BE1881A80B0
:10E38C000F4B10481980638803800F48A4890480C0
:10E39C000E4D0F48401BC0080004CDE9001440F09E
:10E3AC0003000C49FBF73DFB05B030BD56320200B3
:10E3BC00543C0020D33300203812002036120020A9
:10E3CC0000200020022000203212002070200200C9
:10E3DC00B0200200593002002DE9F04F9D4B9E4EAB
:10E3EC00F61AF6083604DDB046F003050746002899
:10E3FC0031D101464FF40072984802F008F9984B5D
:10E40C00984A00934FF40071974B944801F064FDC7
:10E41C00924A9649964C2846FBF7E4FA4FF48072E0
:10E42C000021204602F0F3F88C48012247F23051CB
:10E43C00FFF7AAFD00287DD146F00100874B8D4ADD
:10E44C008D49FBF7D8FA8D49224628465DB0BDE8C8
:10E45C00F04FFBF7C7BADFF828B28A4CFFF702FE81
:10E46C00DBF8002088492846FBF7BCFA4FF4007211
:10E47C0000217A4802F0CBF841F29043A384834BFD
:10E48C002365A06A01F0C0F904F13E09E064484636
:10E49C00FFF754FD7E49024680462846FBF7A2FA58
:10E4AC00E369206A1A9301F0EFF9A26A1B92CDE995
:10E4BC001401E06CB4F824A0DBF800B001F0E4F92E
:10E4CC00CDE91601206D01F0DFF9CDE9180104F159
:10E4DC003601084601F010FEDDE91812CDE90E12E6
:10E4EC00DDE91612CDE90C121B9A139004F13203DC
:10E4FC0004F13601CDE90831CDE905A21293DDE92D
:10E50C00142304F12E00CDE902230C341A9B614A2A
:10E51C000790CDE9109001934FF40071524B4F4886
:10E52C00CDF82880CDF810B0009401F0D5FC4B4A02
:10E53C0059496FE7224651492846FBF753FA2046C2
:10E54C0002F0BAF8554A5649009403462846FBF7A0
:10E55C005CFA20465349544C01F020FD04F10809A3
:10E56C00804628B34D4A51492846FBF73BFA4FF0F9
:10E57C00FF338822002120461C9302F048F84C49B6
:10E58C00404601F00BFD231D002844D0009349495F
:10E59C0023461CAA404601F0CBFC474A1C9BD2F8F0
:10E5AC0084209A4204D03D4A44492846FBF723FA7A
:10E5BC00012F226806D1C82A0CBF314940490B688B
:10E5CC0001330B60CDF8009063683E492846FBF799
:10E5DC001CFA6368002B1BDD1E334FF48072002184
:10E5EC002348636002F013F84FF4807200211CA8DA
:10E5FC0002F00DF8344800224FF47A71FFF7C4FC96
:10E60C0090B9164B1B4A1C4946F00100FBF7F3F975
:10E61C005DB0BDE8F08FCDE900932C4923461CAAD0
:10E62C00404601F085FCB8E762682949033A1CA80A
:10E63C0001F0C4FF27491CAA2846FBF7D3F9FBF7C6
:10E64C0081F80028FBD1002FE2D11CA8FFF7F6FDC2
:10E65C00DEE700BF70200200B0200200D43800209A
:10E66C00843B0020ED300200E23002002231020037
:10E67C00D4370020B43902001532020048340200AD
:10E68C00743C0020783B00203F310200CDCC8C3F05
:10E69C00553102006531020000320200A33902003C
:10E6AC002B32020047320200CC3B00203B320200EE
:10E6BC005432020058320200D83A00209132020043
:10E6CC0008200020B0320200F9320200723202003F
:10E6DC00D73700200D330200F0B5AF4CAF4E85B0EC
:10E6EC00A0220021204601F092FFAD4AAD4953799A
:10E6FC00039313790293D37801939378009353780F
:10E70C00A948127801F0FEFBA84BA74AA849F61AB3
:10E71C00F608360446F003052846FBF763F9A549CD
:10E72C00204601F0A7FF002740F2BB13C4E92037B5
:10E73C0002220123C4E92523C4E922339E49C4F8EB
:10E74C009030224613232846C4F89C30FBF74AF934
:10E75C00D4F8802099492846FBF744F9D4F8842052
:10E76C0097492846FBF73EF9D4F888209549284666
:10E77C00FBF738F9944BD4F88C10944A2846B942DC
:10E78C0008BF1A469249FBF72DF9D4F8902091490D
:10E79C002846FBF727F9D4F894208F492846FBF735
:10E7AC0021F9D4F898208D492846FBF71BF9D4F8A9
:10E7BC009C208B492846FBF715F98A4A8A4928463A
:10E7CC00FBF710F9894B8A491A682846FBF70AF9B6
:10E7DC00D4F88C3083B1D4F89030D3B9854A8649BB
:10E7EC002846FBF7FFF8D4F88C30002B79D1834AFC
:10E7FC0083492846FBF7F6F82846824A8249FBF7FC
:10E80C00F1F8824A8249284605B0BDE8F040FBF792
:10E81C00E9B84FF4007239467E4801F0F8FE7E4AA2
:10E82C00D4F89C307B484FF4007101F055FB7948CB
:10E83C003A4642F21071FFF7A7FB38B9D4F89C3076
:10E84C006C4A764946F00100FBF7D5F84FF400729C
:10E85C000021704801F0DBFE714801F02DFF714A78
:10E86C0000904FF40071D4F89C306A4801F034FBEE
:10E87C006848002242F21071FFF786FBA8B9D4F861
:10E88C009C305C4A684946F00100FBF7B4F85D4ADD
:10E89C00664946F00100FBF7A5F8654946F0010012
:10E8AC0005B0BDE8F040FBF799B85D4A61492846D0
:10E8BC00FBF798F85A4801F0FFFE5F4902462846DC
:10E8CC00FBF790F85648002242F21071FFF75CFB00
:10E8DC0020B9D4F89C30474A5849D4E7454A58499E
:10E8EC007EE74FF4007200214A4801F090FE04F1DB
:10E8FC0090010EC9B9B900924648524A4FF40071C2
:10E90C0001F0EAFA4348002242F21071FFF73CFB97
:10E91C00A8B93A4A4C493F4B46F00100FBF76BF85B
:10E92C00384A4A49B5E7D4F89C000092CDE9011069
:10E93C00474A38484FF4007101F0CEFAE2E74FF441
:10E94C0000720021334801F062FED4E92221D4F890
:10E95C008030B1B1D4F898100093CDE901210E4B61
:10E96C003C4A2C484FF4007101F0B6FA29480022B9
:10E97C0042F21071FFF708FB0028CAD01F4A364933
:10E98C0037E7CDE900324FF40071034B334A21488D
:10E99C0001F0A2FAEAE700BFD83A0020B02002004A
:10E9AC001D20002039290200843B00207020020029
:10E9BC00233302003A330200543302006B3302005B
:10E9CC008233020099330200B0330200B9330200E3
:10E9DC00C1330200D8330200EF33020006340200C8
:10E9EC001D340200E230020034340200743C00207A
:10E9FC004B3402003139020063340200C139020089
:10EA0C00C135020045390200CC36020055390200EE
:10EA1C00F3360200D438002090340200AF340200E8
:10EA2C0064120020D9340200FA340200A23502002C
:10EA3C0021370200293502003C3502005335020013
:10EA4C0078350200E935020015320200A3360200C7
:10EA5C00013602001D360200743602004A360200EE
:10EA6C0010B50120FFF7B8FC0C4C236843B94FF4E8
:10EA7C00FA70FFF755FABDE810400020FFF7ACBC68
:10EA8C004FF4FA70FFF74CFA0120FFF7A5FC23684E
:10EA9C00013B2360002BE8D1E9E700BF08200020F0
:10EAAC002DE9F04F93B006AF0022064642F21071EA
:10EABC005048ADF81820504CADF810208DF81220AD
:10EACC00ADF814208DF81620BA70ADF81C208DF816
