:020000021000EC
:1090000000600020A59301005D9301005F930100C3
:10901000619301006393010065930100000000006B
:109020000000000000000000000000006793010045
:1090300069930100000000006B9301006D93010033
:1090400001B201006F930100C1B30100CDC4010062
:109050006F9301000000000089B20100C1BF010050
:109060006F9301006F9301006F9301006F930100F4
:109070006F9301006F9301006F9301006F930100E4
:1090800065BF01005D9E01006F9301006F930100B9
:10909000F99E01006F93010009D001006F93010058
:1090A0006F9301006F9301000000000000000000BA
:1090B0006F9301006F9301000000000000000000AA
:1090C00000000000000000000000000000000000A0
:1090D0000000000000000000000000000000000090
:1090E0000000000000000000000000000000000080
:1090F0000000000000000000000000000000000070
:10910000000000000000000000000000000000005F
:10911000000000000000000000000000000000004F
:10912000000000000000000000000000000000003F
:10913000000000000000000000000000000000002F
:10914000000000000000000000000000000000001F
:10915000000000000000000000000000000000000F
:1091600000000000000000000000000000000000FF
:1091700000000000000000000000000000000000EF
:1091800000000000000000000000000000000000DF
:1091900000000000000000000000000000000000CF
:1091A00000000000000000000000000000000000BF
:1091B00000000000000000000000000000000000AF
:1091C000000000000000000000000000000000009F
:1091D000000000000000000000000000000000008F
:1091E000000000000000000000000000000000007F
:1091F000000000000000000000000000000000006F
:10920000354936480A1A02D0072291438D4634491F
:1092100034480A1A06D00722914381F309880222B2
:1092200082F3148830483149314A00F044F831481B
:109230003149324A00F03FF831483249324A00F0B1
:109240003AF832483249334A00F035F83248334967
:10925000334A00F030F833483349344A00F02BF8F1
:1092600033483449344A00F026F83448344900225F
:1092700000F02CF833483449002200F027F8334836
:109280003349091A082902DB002202604160314A91
:1092900090471F481F49884205D00268043003B434
:1092A000904703BCF7E700208646EC4600200021EB
:1092B000294A9047FEE7884207D0521A05D0037822
:1092C00001300B700131013AF9D17047884202D068
:1092D00002700130FAE7704700600020005800205B
:1092E0000060002000600020C03202001012002048
:1092F00080170020EC930100EC930100B4180200E9
:10930000C032020010120020101200206819020062
:109310006819020068190200681902006819020041
:10932000681902006819020068190200C0320200C0
:10933000303802008017002080170020801700209E
:109340004C3C00204C3C0020543C0020543C00206D
:1093500054440020BB9301005DC60100FEE7FEE718
:10936000FEE7FEE7FEE7FEE7FEE7FEE7FEE7FEE7D5
:1093700009480068094909680A280AD1002908D162
:10938000074802686FF070031A404FF040031A4319
:10939000026000F009B80000300100103401001034
:1093A000E40E0040FFF7E4BF0B484FF0070188438D
:1093B00085460A488047FFF723BF094809490A4AFA
:1093C000884207D0521A05D0037801300B70013162
:1093D000013AF9D1704700000060002069AD01003A
:0C93E0006819020010120020101200207A
:1093EC0000487047443C00207047000007B5044B10
:1093FC000093044A402300F032F803B05DF804FBFC
:10940C0015940100811700202DE9F8438846144675
:10941C00B2B10F4B0F4E0325002743F00109224632
:10942C0008EB0701002003F089FA0744241A48B915
:10943C0033782BB14FF47A40C847013D02D13570D7
:10944C00BDE8F88301233370002CE8D1F8E700BFA6
:10945C007019020080170020704703F09FBAF0B516
:10946C0095B008460C4616461D4601F069FA1A9A44
:10947C000D920023082205A920460A938DF82C3062
:10948C000C93CDE9086501F077FA079B0293069BD4
:10949C00039301238DF811309DF8143003F003026F
:1094AC00012A1DD1BDF81420059DC3F3C203C2F3DC
:1094BC0083168DF81030B20008230EA9204601F057
:1094CC005BFAC5F3952508AB0093324602AB0EA9A7
:1094DC00284600F049FB204601F036FA15B0F0BDE5
:1094EC00022AF8D1BDF81650C3F3C203C5F389158F
:1094FC008DF810300827082D2E4628BF08263B462D
:10950C0032460EA9204601F037FAAD1B08AB02AA71
:10951C0031460EA8374400F08BFB002DEBD1DAE777
:10952C0008B5FFF79AFF0448042100F08DFA034BAD
:10953C0001225A7108BD00BF5819020010120020F8
:10954C000378024613F0040006D003F00300012850
:10955C0003D0022809D0012070470B68128802330F
:10956C00C2F3831213440B6070470B6852880233AA
:10957C0003EB92130B60EEE72DE9F04FDFF81CA123
:10958C0087B00F4600230446861C0DF107001546D4
:10959C008DF8073000F0A6FEDAF804203A60DAF80D
:1095AC00083003F580739B1A0AF21C470AF583698D
:1095BC000AF21448B3421AD30020002D69D004F0EB
:1095CC000F039B0143F0050363F30F00DAF804303B
:1095DC00DAB2033233444AF822009DF80700CAF885
:1095EC00043000F0A3FE012007B0BDE8F08F01218C
:1095FC00384600F0D4FE484600F0E9FE404600F044
:10960C00E6FEDAF808000290C0B203300AEB8000E4
:10961C0002A9FFF795FF029B30BBDAB20AEB82027C
:10962C00D16803919A1C0133DBB20AEB83030292DB
:10963C00D3F80CB001F00303012B22D0022B15D070
:10964C008346404600F0C6FE10B1029BCAF80830B3
:10965C005946384600F0A3FEDAF80830DAF8042050
:10966C0003F580739B1AA5E7D8B2CEE7BDF80E3090
:10967C00C3F3891303334FEA1B4B02EB930302939F
:10968C00DFE7BDF80C30C3F383134FEA1B4B1344D5
:10969C00F5E7A40544F0060098E700BF94180020F5
:1096AC00064B074810B500221A7001F002F9044667
:1096BC0010B9044801F08EF9204610BD9418002012
:1096CC00D4180200AC19020030B50A4C71B10A4A28
:1096DC000A49121BD20800239A4201D1002030BD46
:1096EC0031F82350854202D00133F5E7034654F894
:1096FC003300F4E7E8180200581902001012002099
:10970C00094B013903EBC000032909D8DFE801F04C
:10971C000A020406042070470079704740797047AC
:10972C000020704702207047E818020070470000C4
:10973C00034BD3E90130C31A58425841704700BF5C
:10974C00941800202DE9F04186B0FFF7F1FF054693
:10975C00002840F0ED80774CC4F81804BFF34F8F0D
:10976C00A3680293DBB2033304EB830002A9FFF777
:10977C00E7FE029B18B1D4F81824002A5AD0DAB2AA
:10978C00991C013304EB8202DBB204EB8303D26835
:10979C00DB68049302F00303022B0392029154D171
:1097AC00BDF80E306448C3F38917502F3E4628BFCE
:1097BC00502606F1080166F38F13C1F30901ADF8C9
:1097CC000E3001F08EF80546002800F09C8001F068
:1097DC00B7F80023082203A9284601F0C3F8029920
:1097EC00CB43DBB20133C9B20331B6EB830F4FEA83
:1097FC00830204EB810125D95FFA82F80823A6EBDA
:10980C000806284601F0AEF8F6B208F108034B49F9
:10981C0003F0FC033246284601F0A4F8029B033700
:10982C0003EB97070297D4F81834002B43D1D4F8E4
:10983C00106453E062689A4294D8A260284606B03D
:10984C00BDE8F08108233246E5E7012B5BD1BDF87A
:10985C000C303948C3F38311062928BF062161F364
:10986C008913023101F00F018900ADF80C3001F0C1
:10987C0038F80546002846D001F062F8002308228B
:10988C0003A9284601F06EF80026BDF80C20C2F39F
:10989C008312B300964203F10803C4D202994A1C06
:1098AC00C9B20331029204EB81010422284601F073
:1098BC0059F80136E9E7284601F046F8FFF738FF7A
:1098CC0080F00105EDB2B9E7F3685B7923B1336839
:1098DC0029461B6830469847F3681E68002EF3D162
:1098EC00284601F031F80DF107008DF8076000F003
:1098FC00F9FCD4F818340BB9029BA3609DF807004F
:10990C0000F014FDDAE7D4F8104454B90C4B0D48B0
:10991C000D49C01AC008000440F0020000F05EF8C7
:10992C00CCE7236820469B689847E3681C68ECE703
:10993C00002583E794180020D4180200A0180020FA
:10994C00E818020028190200941902002DE9F347C7
:10995C0004460E46924601A9012218469946FFF785
:10996C000BFE1C4F10B3019D4FF00008AA1CC845FC
:10997C0008EB020125D11848002100F0EDFC80F322
:10998C001000000440EA1440E4006B1C04F038049E
:10999C00DBB2EDB244F0010407EB8303033544EA78
:1099AC00881444EA8624D86047F825403B781BB1DC
:1099BC00FFF7C8FE0028FBD1FFF7B8FE02B0BDE8E8
:1099CC00F087C9B207EB81015AF82830CB6008F157
:1099DC000108CCE794180020B01C002000231A4684
:1099EC00FFF7B4BF07B50123019201AAFFF7AEFF41
:1099FC0003B05DF804FB07B5CDE9002302236A46EA
:109A0C00FFF7A4FF03B05DF804FB1FB5CDE90123FC
:109A1C00069B039301AA0323FFF798FF05B05DF89B
:109A2C0004FB7FB5CDE90023089B0293099B0393AC
:109A3C000A9B04930B9B05936A460623FFF786FF4C
:109A4C0007B05DF804FB000030B50F4CD4F81024BF
:109A5C0003460020114631B9D96808714AB9C4F8D7
:109A6C0010340A6030BDC9680D79854206D009688A
:109A7C00F1E7D26814680C601360F3E701300A2830
:109A8C00E8D14FF0FF30EDE79418002038B5084BC3
:109A9C000125D3F810441D7004B938BDE3685D711D
:109AAC00236820465B689847E3681C68F4E700BFAE
:109ABC0094180020C38873B504460D4633B1144A7C
:109ACC0000921449144A284600F0E7FC217A052933
:109ADC001CD0637A4BB1A088FFF712FE0F4B1049D4
:109AEC0053F82020284600F0D8FC227A0D4BA08891
:109AFC0053F822600021FFF7E7FD0B49034632467D
:109B0C00284602B0BDE8704000F0C7BC02B070BD82
:109B1C00812A0200C0190200B81902003C1A020086
:109B2C0015280200601A0200D819020010B5037A39
:109B3C00052B0C460FD0437A23B1084A084920461E
:109B4C0000F0ABFC0749204600F0A7FC2046BDE81E
:109B5C00104000F097BC002AF8D0F3E7812A0200ED
:109B6C0015280200D51902002DE9F04385B01F46D7
:109B7C000C9D002395F80C902B7306460C469046D2
:109B8C0029463846FFF796FFB8F1060F09D8DFE8EB
:109B9C0008F00412181F283340003146284600F004
:109BAC007CFC002229463846FFF7C0FF85F80C9054
:109BBC0005B0BDE8F08322683146284600F06DFC04
:109BCC00EFE7D4E900233146284600F066FCE8E7CD
:109BDC00A36800933146D4E90023284600F05DFCCD
:109BEC00DFE7E3680193A36800933146D4E90023CF
:109BFC00284600F052FCD4E723690293E3680193F2
:109C0C00A36800933146D4E90023284600F045FCB4
:109C1C00C7E76369039323690293E3680193A3681D
:109C2C0000933146D4E90023284600F036FCB8E70F
:109C3C0008292DE9F74F80460E4617461C463DD89D
:109C4C0000251B7B2573214610460193FFF732FF3D
:109C5C00DFF888A0DFF888B0AE4232D918F80520BA
:109C6C005946204600F019FC0135082DF4D11D4948
:109C7C00DFF874A0DFF874B0204600F00EFC4FF053
:109C8C0000094E4524D918F809507E2D1ED82846B7
:109C9C0005F0C2FC002814BF2A462E225946204645
:109CAC0000F0FBFB09F10109B9F1080FE9D1012220
:109CBC0021463846FFF73AFF019B237303B0BDE8FA
:109CCC00F08F5146204600F0E8FBCDE72E22E5E769
:109CDC005146204600F0E1FBE4E700BFE819020022
:109CEC00E2190200EC190200EA190200EE19020056
:109CFC001FB50021039001AA44F20100CDE9011126
:109D0C0000F004F805B05DF804FB000038B572B63D
:109D1C00FFF7BCFEFFF716FD0028FBD1104B114CD2
:109D2C00114D1249E41AE408240444F00100FFF731
:109D3C0055FED5F8F030DB0700D500BE0C4944F0D9
:109D4C000200FFF74BFEBFF34F8FEA68094B02F49A
:109D5C00E0621343EB60BFF34F8F00BFFDE700BF22
:109D6C00E81802002819020000ED00E0741A020045
:109D7C00801A02000400FA05094B5A7899780132CE
:109D8C00D2B2914208BF0022197891421FBF0270D3
:109D9C005878182202FB003014BF043000207047A2
:109DAC004C1D002073B5054600240DF107000E462E
:109DBC008DF8074000F096FA0DF10600FFF7DCFF76
:109DCC0090B10670094B9DF8062045605A709DF8BD
:109DDC00070000F0ABFA24B9054B4FF48012C3F81E
:109DEC000021204602B070BD0424F0E74C1D002079
:109DFC0000E100E0024B4FF43C6043F001031847D4
:109E0C00901A020038B50E4B4FF40032C3F8802084
:109E1C00BFF34F8FBFF36F8F0A4C4FF48033012584
:109E2C00C4F84833C4F808336560FFF7E3FF064B0A
:109E3C00A56000241C60FFF7DDFF044B1C7038BDCF
:109E4C0000E100E000100140681E0020591E0020B7
:109E5C00F8B51F4B1F491B680025C1F84051C1F8CC
:109E6C004451C1F84851C1F84C51C1F80051C1F8E6
:109E7C0004514BB3D1F8044517490968641A24F00E
:109E8C007F442F461A68A24209D8A41A15441A7C9A
:109E9C00DE691AB1D3E905201F749047AEB90F4A99
:109EAC000F4B11781B788B4205D10133DBB2022B9F
:109EBC0008BF0023137012780A4B43F822500A4B48
:109ECC004FF48012C3F80021F8BD3346DAE700BF27
:109EDC006C1E002000100140681E0020651E002032
:109EEC00641E00205C1E002000E100E02DE9F04F14
:109EFC00A14AA24913780978A14D994285B03CD06A
:109F0C000133DBB2022B08BF002313709D4912787A
:109F1C009D4B0F6853F822003B1823F07F4300221F
:109F2C000B602B6816461446944613B942B12B604D
:109F3C0006E0196881420ED902B12B60091A19602A
:109F4C0001272B68DFF844A201934FF00008BEB93B
:109F5C00DFF83CB260E0401A0C44D968D3F81CE03E
:109F6C00C3F800C031B13A1922F07F42C3E9012194
:109F7C00DE611E4673460122D7E700263746E0E72E
:109F8C003446F6697F4B60681B68DFF808C2A1682D
:109F9C00C21A22F07F42624500F2A6800A44226077
:109FAC00012222742A680023C4E90133E361002AE8
:109FBC0040F0A3802C60CAE79BF802105A1CD2B266
:109FCC0091428BF8002004BF00228BF8002018224D
:109FDC0002FB03B32A6819799C68022975D00329FE
:109FEC007FD0012918D1207CB0B9D3E90312A2602B
:109FFC005A69E2609A69684BA2611A78002A18BF04
:10A00C0001466160BEE78C4200F094808946C969C4
:10A01C000029F8D1002323749BF800309BF8012011
:10A02C009A42C9D12B68B8F1000F04D1019A9A4217
:10A03C0001D1002F43D0002B79D0D3F800A0534D81
:10A04C00504BD5F804751C68DFF850813E1B98F80E
:10A05C00003026F07F4603369BB94FF48033C5F8A9
:10A06C004433C5F804334E4B4FF40032C3F880210F
:10A07C001A604FF00109C5F80090FFF7BBFE88F895
:10A08C000090B2452CBF5444A41924F07F44C5F869
:10A09C004045D5F80435DB1B23F07F43E41B033329
:10A0AC0024F07F44A3420AD9D5F80435C5F84035CD
:10A0BC00FFF7A0FE3A4B4FF40032C3F80021364BA9
:10A0CC0000221A7005B0BDE8F08F114691469FE74B
:10A0DC001174D2690123002AFAD1002B9CD02A607A
:10A0EC009AE700231946F6E71B1A23F07F438B42AD
:10A0FC0034BFCB1A0023236052E7216813689942BE
:10A10C0013D85B1A1360E26154E7091AD8691A462E
:10A11C0038B1034618688842F7D3401A18601846BD
:10A12C0013462160E061DC6111E71346F2E7FFF7AB
:10A13C0069FEC4E74C4511D1D3692B6073B9DFF8C4
:10A14C0044E00120CDE90212CAF80800CEF8003034
:10A15C00114B1870FFF74EFEDDE902120B68C9694E
:10A16C00C9F81C1011B1086803440B602B689342AA
:10A17C0018BF4FF001084DE7641E0020651E00203B
:10A18C006C1E0020681E00205C1E00200010014088
:10A19C004C1D0020FEFF7F00581E0020591E002081
:10A1AC0000E100E010B5FFF72DFE114B00200B2253
:10A1BC0018809A700F4B18600F4B18700F4B18705B
:10A1CC000F4B4FF48012C021C3F8802183F8141375
:10A1DC001A6002F18042A2F56F221F24C2F80845D2
:10A1EC0083F81113074BD2F804251A6010BD00BF79
:10A1FC004C1D00206C1E0020641E0020651E0020DB
:10A20C0000E100E0681E0020074B9B784BB132B197
:10A21C0028B10368187C20B959745A61704707201B
:10A22C0070470820704700BF4C1D00202DE9F743F4
:10A23C00DFF8808098F8023005460E461746BBB30F
:10A24C00B0B31D4B4A1F9A4230D8436983B3437C49
:10A25C000024012B0DF107000CBF8946A1468DF897
:10A26C00074000F03FF80DF10600FFF785FDD8B16F
:10A27C0001230370114B4560D3F80435C0E90497F2
:10A28C00C0E902369DF8063088F801309DF80700C9
:10A29C0000F04CF824B90A4B4FF48012C3F800219B
:10A2AC00204603B0BDE8F0830424EFE70724F7E76A
:10A2BC000824F5E74C1D0020FAFFFF0000100140B8
:10A2CC0000E100E0064A92783AB130B1426922B11D
:10A2DC00002202740221FFF765BD0820704700BF01
:10A2EC004C1D002070B5EFF3108672B60C4A9468C2
:10A2FC0001239CB993600B4B0B4DD3F88010294074
:10A30C001160C3F88050D3F8841051604FF0FF32C5
:10A31C00C3F88420047006B962B670BD0370FAE706
:10A32C00701E002000E100E0FC06FFBD084B9A689F
:10A33C0010B55AB150B9EFF3108172B6054A1C68CA
:10A34C0014605C685460986001B962B610BD00BFBF
:10A35C00701E002000E100E010B5034653E8000F2A
:10A36C000A4643E8002494F0000FF7D110BD10B555
:10A37C00034653E8002F42EA010043E8000494F03E
:10A38C00000FF6D110BD10B5034653E8000F00EADC
:10A39C00010243E8002494F0000FF6D110BD10B573
:10A3AC00034653E8002F02EB010043E8000494F04D
:10A3BC00000FF6D110BD10B5034653E8002FA2EBE9
:10A3CC00010043E8000494F0000FF6D110BD012108
:10A3DC00FFF7CDBF0021FFF7D6BF10B590B1D0E984
:10A3EC00012301689B1ADBB20A60013BDBB2FF2B35
:10A3FC00026802D10020107110BD11684C1C146051
:10A40C000B70F2E70E20F7E737B5054600240DF187
:10A41C0007008DF80740FFF765FF2A686B68116825
:10A42C0099420ED9481E106011F8013CEC68298A3B
:10A43C0001FB0344AB6811791B1ADBB2994238BF9C
:10A44C0013719DF80700FFF771FF204603B030BD74
:10A45C0037B5054600230DF107000C468DF8073083
:10A46C00FFF740FF2A681368591C1160E968641AE9
:10A47C00298AB4FBF1F41C709DF80700FFF756FF16
:10A48C0003B030BD826810B504462AB14369016837
:10A49C00006998470023A36010BD0EB403B503995F
:10A4AC0021B104AB01AA019300F076F802B05DF87B
:10A4BC0004EB03B070470A2938B504460D4602D1A7
:10A4CC000D21FFF7F8FFA3682268591CA160D55431
:10A4DC00D4E901329A4204D32046BDE83840FFF754
:10A4EC00D1BF38BD2DE9F84F9846DDE90A43154632
:10A4FC0082460F460A464FF00109AA420FD2C145C7
:10A50C0038BFC14613F0010B01D16CB900240126F0
:10A51C00B8F1010F1BD908F1FF386E43F8E709F1C8
:10A52C000109B2FBF5F2E8E79B070ED5B8F1000F75
:10A53C000CBF30262026A145E9D2013C31465046BD
:10A54C00FFF7B9FF002CF6D1E0E72026F3E7B7FBC5
:10A55C00F6F39D42E1D9DFF83C80B7FBF6F35046A9
:10A56C0018F8031006FB1377FFF7A5FF3346AB4231
:10A57C00B6FBF5F6F1D2BBF1000F02D00CB1A14540
:10A58C0001D3BDE8F88F20215046013CFFF793FF23
:10A59C00F4E700BF961A02002DE9F74F054617465F
:10A5AC008846002900F03E8118F8011B49B92B7B25
:10A5BC00002B00F03781284603B0BDE8F04FFFF7C1
:10A5CC0061BF252940F0B780002698F800302D2B6C
:10A5DC00424608F1010823D0302B24D02B2B25D058
:10A5EC0000242A2B02F1010123D13B681A1D1B68A0
:10A5FC003A601C440A4613782E2B26D101324FF0B8
:10A60C00000A104610F8011BA1F1300CBCF1090F27
:10A61C001DD80A2303FB0A13A3F1300A0246F0E704
:10A62C0046F00106D1E746F00206CEE746F00406F6
:10A63C00CBE711F8013CA3F130000928DBD80A2242
:10A64C0002FB0434303C0A46CBE74FF0000A12F808
:10A65C00011B01F0FB0068289046F8D0782909D836
:10A66C006F290CD8632962D022D8252963D05829A8
:10A67C0000F0888098F80030002B95D197E770395E
:10A68C000829F7D801A353F821F000BF0BA801004B
:10A69C0081A6010081A60100A1A7010081A60100ED
:10A6AC007FA7010081A6010081A6010091A70100EE
:10A6BC00642901D06929DDD13A68D2F80090111DC6
:10A6CC0089EAE9723960A2EBE9724FF0010B092AB1
:10A6DC0035DCD34538BFD3462CB1B9F1000F01DBC3
:10A6EC00720700D5013CB30702D5BAF1000F03D0B5
:10A6FC00F00701D44CBB0024B9F1000F2DDAC9F1DD
:10A70C0000092D212846FFF7D6FE06F00302022A87
:10A71C0004D1BAF1000F01D11CBB0024CDE90046D5
:10A72C0053460A2249462846FFF7DCFEA2E73B685F
:10A73C001A1D19783A602846FFF7BDFE9AE70A23DE
:10A74C000BF1010BB2FBF3F2C1E7A345D4D22021EC
:10A75C002846013CFFF7AFFECCE77107D5D52B217E
:10A76C00D0E7A345DAD230212846013CFFF7A3FEFF
:10A77C00D2E73968CDE900460A1D3A6053460A22F1
:10A78C000968D0E739680A1D3A60CDE9004653469E
:10A79C001022F5E73B681A1D3A6016F00106D3F853
:10A7AC00009024D1B9F1000F03D0484605F0C0FB4E
:10A7BC000646B4421DD809F1FF3919F8011F0029CA
:10A7CC003FF458AF2846FFF776FEF6E728460136E9
:10A7DC00FFF771FE19F806100029F7D1A642BFF455
:10A7EC0049AF20212846013CFFF765FEF6E700261D
:10A7FC00F0E720212846013CFFF75DFED9E73B68D6
:10A80C001A1D3A60302128461C68FFF754FE782147
:10A81C002846FFF750FE00220823CDE900322146DE
:10A82C00102280E703B0BDE8F08F00BF2DE9F84F90
:10A83C00B0F806A04579D2F800B09DF828900AFB34
:10A84C0005F5043D88460BEB0301A94203F1040412
:10A85C0088BFA5EB030BB4FBFAF607460AFB1644BC
:10A86C00C2F800B04EB9AAEB04055D4528BF5D46A1
:10A87C00BBF1000F04D1BDE8F88F3F68013EF1E752
:10A88C00043408EB06003C442A46B9F1000F0DD005
:10A89C002146ABEB050B05F0CDFADA452E443F68AB
:10A8AC0055464FF0000428BF5D46E1E701462046BF
:10A8BC00EFE7FFF792BDF8B546790146721E0546E3
:10A8CC00002393422D6803D30024A64202D8F8BD7E
:10A8DC000133F6E70F682846FFF7BAFD0134394615
:10A8EC00F3E72DE9F843068ACD1C0746FFF78CFDEC
:10A8FC00043E35440446B5FBF6F5F0B14FF48073D5
:10A90C00EDB28380C680013D076081464FF00008A0
:10A91C00A84512D23846FFF777FD064648B1637951
:10A92C000133637108F10108C9F800000760814622
:10A93C00EEE72046FFF7BFFF34462046BDE8F8831C
:10A94C0001210430FFF72BBD10B501210446043062
:10A95C00FFF731FDC0B220B92046BDE81040FFF72B
:10A96C00AABF10BD1FB503920022009203AAFFF7E5
:10A97C005DFF05B05DF804FB1FB503920122009248
:10A98C0003AAFFF753FF05B05DF804FB41DF7047E6
:10A99C00064B10B500241C70054B1C60BFF35F8F79
:10A9AC000449054800F01FF8204610BD841E002005
:10A9BC00881E0020B01A02007C1E002008B502F090
:10A9CC0003FB18B1BDE80840FFF7E0BF20BF40BF54
:10A9DC0020BF08BD836800225A60C3E904229A6034
:10A9EC00DA601A6070470B684A684360934208BF8C
:10A9FC000023016008BF43607047436843B102689D
:10AA0C00916852680B449342436004BF0023436037
:10AA1C007047000010B50D49A1F59472914201D810
:10AA2C0000200FE08C1AE30F03EBE4035B1002EB46
:10AA3C00C30452F83330834205D802D204F1080221
:10AA4C00ECE7606810BD2146E8E700BFB41F0200C8
:10AA5C0008B5FFF7DFFF024B002808BF184608BDFA
:10AA6C00761E02000648074A03780749D35C012288
:10AA7C0013B1043001F004BA0C3000F037BF00BF42
:10AA8C0018120020D41E0020B41E00200648074ACD
:10AA9C0003780749D35C012213B1043001F0A2B949
:10AAAC000C3000F0D3BE00BF18120020D41E0020C2
:10AABC00B51E002037B50578012D0DD0022D30D0F4
:10AACC0075B91F491F4800F022F9002834D103B092
:10AADC00BDE83040FFF7DABF037A1BB9FFF7C2FFBE
:10AAEC0003B030BD4368184C1978204600F0FDF8CF
:10AAFC0080B18DF800500190144B68461B68984744
:10AB0C00A168E368A2885B1A9A42E7D2104B012233
:10AB1C001A70E5E7A268E3689A42F1D08DF800005C
:10AB2C00EAE7C3688DF800500193FFF79BFF074BD2
:10AB3C0068461B689847D3E703238DF80030F6E787
:10AB4C00B51E0020A41E0020901E00208C1E00208C
:10AB5C00A01E0020F0B51F46234B89B004461A6096
:10AB6C000D4600293DD08A882048096800F0ACF8D1
:10AB7C00002834D1AA89A9681D4800F0A5F800283E
:10AB8C002DD11C4E0FCE6D460FC596E80F0085E8F3
:10AB9C000F0063690693237C174A18488DF81C70C4
:10ABAC00003B18BF01238DF81430637C002B14BFBD
:10ABBC000E2300238DF81530E3680293A3680393EA
:10ABCC002368019369466368009300F08FFA30B9EB
:10ABDC000B4B18702368013301D0FFF743FF09B00A
:10ABEC00F0BD0720FBE700BF8C1E0020901E00204C
:10ABFC00A41E0020B41F0200C1AA010018120020DC
:10AC0C00A01E002008B5054800F092F820B9BDE858
:10AC1C000840034800F08CB808BD00BF901E00200F
:10AC2C00A41E002070B5084D014608482E7800F08F
:10AC3C006EF8044636B100232B70FFF713FF08B1F2
:10AC4C00FFF756F8204670BDA01E0020901E002075
:10AC5C0010B501460E4800F048F80446A8B90D4856
:10AC6C000D4A0378D35C63B1043001F0AFF860B9DE
:10AC7C000A49074800F04BF838B9BDE81040FFF717
:10AC8C0005BF0C3000F0D6FDF1E7204610BD00BF2B
:10AC9C00A41E002018120020D41E0020B51E002077
:10ACAC0008B50748074A0378D35C23B1043000F099
:10ACBC00FDFF002008BD0C3000F052FDF9E700BF8D
:10ACCC0018120020D41E002010B5034649B152B111
:10ACDC00541E14EA020006D1986019609C80D8605A
:10ACEC0010BD0E20FCE70920FAE710B58468C26895
:10ACFC008388121B934208D3C26813400268D15454
:10AD0C00C3680133C360002010BD0420FCE78268D7
:10AD1C00C3689A420AD08268838813400268D35C65
:10AD2C000B708368013383600020704705207047E7
:10AD3C00C3688360002070474FF08053D3F8300114
:10AD4C00A0F10A035842584170470000024AD2F859
:10AD5C000034002BFBD0704700E0014010B5FFF72A
:10AD6C00EBFF48B14FF080534FF08042D3F84432A0
:10AD7C00C3F34233C2F83C35FFF7DEFF40B14FF06E
:10AD8C0080430022C3F80C21C3F81021C3F83825E6
:10AD9C00FFF7D2FF002846D04FF08052494BD2F833
:10ADAC000414C3F82015D2F80814C3F82415D2F8EB
:10ADBC000C14C3F82815D2F81014C3F82C15D2F8BB
:10ADCC001414C3F83015D2F81814C3F83415D2F88B
:10ADDC001C14C3F84015D2F82014C3F84415D2F84B
:10ADEC002414C3F84815D2F82814C3F84C15D2F81B
:10ADFC002C14C3F85015D2F83014C3F85415D2F8EB
:10AE0C003414C3F86015D2F83814C3F86415D2F8AA
:10AE1C003C14C3F86815D2F84014C3F86C15D2F87A
:10AE2C004424C3F87025FFF787FF48B14FF08043E7
:10AE3C00D3F80024D20744BF6FF00102C3F80024FA
:10AE4C004FF08053D3F830210A2A0AD1D3F8343189
:10AE5C003BB14FF08042D2F8E43E43F00F03C2F80E
:10AE6C00E43E4FF01023D3F80022002A03DBD3F882
:10AE7C000432002B22DA144901234FF01020C1F8C0
:10AE8C0004351524FFF762FFC0F80042FFF75EFFA0
:10AE9C00C0F80442FFF75AFF0023C1F80435FFF74E
:10AEAC0055FFBFF34F8F0949094BCA6802F4E062A2
:10AEBC001343CB60BFF34F8F00BFFDE7054B064A32
:10AECC001A6010BD00C0004000E0014000ED00E041
:10AEDC000400FA052C1200200090D00338B5074C62
:10AEEC00051E04F1080318BF1C4623682BB11A6811
:10AEFC0022605B6828469847F7E738BDC01E0020E3
:10AF0C0020B9054B01225A70FFF7E8BF012802D186
:10AF1C00014A9070F8E77047B81E002020B9034B27
:10AF2C0001225A70FFF7DABF704700BFB81E00202D
:10AF3C0038B50E4C2378B3B90D486360A360236118
:10AF4C00E36000F01BF9054602F03EF808B900F08A
:10AF5C0021F901232370074BD3F800340BB10123E3
:10AF6C00A370284638BD8525F5E700BFB81E002024
:10AF7C000DAF01000000014037B5184CA378054611
:10AF8C0003F0FF029BB110B14368012098470023E6
:10AF9C000DF107008DF80730FFF7A4F9E3689DF871
:10AFAC0007000133E360FFF7C1F903B030BD0DF1C9
:10AFBC0007008DF80720FFF795F925B12269134694
:10AFCC003BB92A602561E368002BE7D100F0F4F867
:10AFDC00E4E79D42F7D01B68F2E700BFB81E0020E3
:10AFEC0037B50D4C00230DF107008DF80730FFF736
:10AFFC0079F9E368013BE360E36833B9074BD3F8B5
:10B00C00005415B900F0E5F8A5709DF80700FFF79E
:10B01C008DF903B030BD00BFB81E00200000014008
:10B02C00012813B50CD0032820D038B9134B0122BA
:10B03C00C3F88020BFF34F8FBFF36F8F02B010BDEA
:10B04C000F4C00230DF107008DF80730FFF74AF97C
:10B05C0023780BB9FFF76CFFE3689DF80700013309
:10B06C00E3600123A370FFF761F9E7E700F092F8C2
:10B07C0002B0BDE81040FFF7B3BF00BF00E100E035
:10B08C00B81E00201FB503788DF80030436801937B
:10B09C0083688DF80830C368054A0393054B6846EE
:10B0AC0053F8213052F82110984705B05DF804FB95
:10B0BC00CC1E0020D01E00201FB503788DF8003068
:10B0CC004368019383688DF80830C368054A03937D
:10B0DC00054B684653F8213052F82110984705B0BB
:10B0EC005DF804FBCC1E0020D01E0020F0B5194BDF
:10B0FC0090F800C091F81DE043F82C20164B164632
:10B10C000A6943F82C20154B03F80CE00C46074653
:10B11C000FCC89B06D460FC594E80F0085E80F0081
:10B12C00CDF810C0BEF1000F09D0002E0C4A6946B4
:10B13C0008BF3246381D00F0F7FC09B0F0BD002EF8
:10B14C00084A694608BF324607F10C0000F054FA71
:10B15C00F3E700BFD01E0020CC1E0020D41E002020
:10B16C0091B00100C5B0010000F18040002382B015
:10B17C00036003680193019B02B07047044B0246C5
:10B18C00187918B91A6001229A8070478520704787
:10B19C00D81E0020074B1A68D20704D4C02283F8AB
:10B1AC00002301221A604FF080430122C3F81825B6
:10B1BC00704700BF00E100E008B54FF48270FFF764
:10B1CC00D3FF4FF080430222C3F8042301229A607C
:10B1DC0008BD4FF0804208B50223C2F808334FF483
:10B1EC008270FFF7C1FF0123D360D2F81834DB0360
:10B1FC00FBD408BD4FF0804110B5D1F8003163B1DC
:10B20C004FF48070FFF7B0FF0D4B58790122C1F855
:10B21C00082310B95A711B6898474FF08042D2F836
:10B22C00043163B14FF48270FFF79EFF0223C2F822
:10B23C000833034BBDE810401B680120184710BDB4
:10B24C00D81E002000F1804000F5C040002382B0E1
:10B25C00036003680193019B02B07047800000F10A
:10B26C00A040D0F8002722F44032C0F80027D0F8D4
:10B27C00003743EA0143C0F8003770472DE9F74324
:10B28C0000244A4D01944FF48072012102F1804355
:10B29C0003F5C04390B21B68012B06D1D5F80433DB
:10B2AC000B4202D0FFF7CEFF0C430432B2F5907F75
:10B2BC004FEA4101EAD13D4BD3F87C31012B0CD143
:10B2CC004FF4BE70FFF7BEFF4FF0A04344F00044B4
:10B2DC00D3F820250192C3F82025E3B2D3B1344F23
:10B2EC0000250126344210D0AB0003F1804303F556
:10B2FC00C043D3F81005D3F8101557F8253023B1F7
:10B30C00C1F30141C0F3042098470135082D4FEAE1
:10B31C004606E7D1002C1FDADFF894904FF0A047D7
:10B32C0099F944305A1C10D0C3F3C20208326A4453
:10B33C00DCB212F8042C03F03F054FF0010803F0C7
:10B34C00070308FA03F31A4209D1D7F82035019301
:10B35C00C7F82035002BE3D103B0BDE8F08305F529
:10B36C00E073284657F82360C6F30146022E0CBF43
:10B37C0003210221FFF772FF08FA05F3C7F8203505
:10B38C0009EB050393F9243059F82330002BDCD05A
:10B39C00A109032903D0022E04D10129D5D12846B5
:10B3AC009847D2E7032ED0D10229F7E7006000407E
:10B3BC00E01E0020014B1B68184700BF2C1F00200B
:10B3CC000E4B984237B50C4602D0002003B030BD6E
:10B3DC0000230DF107008DF80730FEF783FF084BB3
:10B3EC001D7915B901221C601A719DF80700FEF732
:10B3FC009DFF002DE9D01120E8E700BF00200040A0
:10B40C002C1F0020034B984201BF034B00221A60F3
:10B41C001A717047002000402C1F0020002343505D
:10B42C0082B043580193019B02B070470A4610B595
:10B43C004FF48E71FFF7F2FF136A9168C95C136ABF
:10B44C0001331362C0F81C1510BD024608B5006824
:10B45C004FF49271FFF7E2FF10684FF48471FFF71D
:10B46C00DDFF136801221A6008BD8B690A4610B50E
:10B47C004FF4847123B9FFF7D1FFD0F8183510BD04
:10B48C00FFF7CCFF536AD168D0F81805C854536A3B
:10B49C0001335362F3E700001FB501238DF8003030
:10B4AC00044BCDE90110D3E900126846904705B072
:10B4BC005DF804FB341F002030B54D4DD5F8043336
:10B4CC009A0585B051D5D5F82431002B4DD04FF4C9
:10B4DC0092712846FFF7A2FF4FF40173C5F80833A9
:10B4EC00444B93F829200AB901226A604049022290
:10B4FC008DF80020D1F88024C1F8802403929A6939
:10B50C000292DA6801920022C3E906226846D3E966
:10B51C00001290473648D0F81C315BB1354A51695E
:10B52C00136A99424DD992F82830002B49D1114613
:10B53C00FFF77CFF2E48D0F84431002B56D04FF447
:10B54C00A271FFF76BFF2B4B93F829200AB1012254
:10B55C0002609A69002A49D0586AD96800229A6117
:10B56C0005B0BDE83040FFF797BFD5F804335B0753
:10B57C00D0D5D5F80831002BCCD01E4C1C48214618
:10B58C00FFF773FF636AA2699A42C3D1E369E1686A
:10B59C004BB1A3612369E3600023606AE3616362DA
:10B5AC00FFF77AFFB6E794F829300BB901236B60EB
:10B5BC000F4B4FF40172C3F808230023606AA36198
:10B5CC00EEE70B484FF48E71FFF728FF5369002B01
:10B5DC00B0D051690291002391688DF8003001912F
:10B5EC0053616846D2E900139847A3E705B030BD14
:10B5FC0000200040341F00202DE9F843534D90F8F3
:10B60C0004802C2303FB0853064693F82A300C467F
:10B61C009146002B40F096804D490068FFF7D0FE14
:10B62C000746002840F0908022683068511C0BD0EF
:10B63C004FF0A04101239340C1F8083502F5E073A7
:10B64C004FF0030C41F823C061684B1C1FBF01F580
:10B65C00E0734FF0A04C4FF0000E4CF823E0A369C0
:10B66C00C0F8243594F814C0637DBCF1010F4CEA8A
:10B67C000303C0F86C35C0F81415C0F80C251DD1A7
:10B68C00A268531C1FBF02F5E0734FF0A0414FF0AE
:10B69C00000C41F823C0E368591C0BD04FF0A04CB0
:10B6AC0001219940CCF8081503F5E0714FF0030E19
:10B6BC004CF821E0C0F80835C0F810252C2202FB0C
:10B6CC0008F2AB18C3F804902369AB50B9F1000F22
:10B6DC0020D04FF48E71247FFFF7A0FE4FF4A2719F
:10B6EC003068FFF79BFE32681A4BC2F80433130B19
:10B6FC0042F307326101002AC9B21EDB16488418D6
:10B70C0084F800130121520903F01F0301FA03F31B
:10B71C0040F8223033680422C3F800252C2303FBA5
:10B72C0008530022C3E9062283F829205A6101221A
:10B73C0083F82A203846BDE8F883084A03F00F0343
:10B74C00D154E7E70827F5E71127F3E7341F00206A
:10B75C00C5B401008000020000E100E014ED00E03F
:10B76C00F8B503680579304C0022C3F800252C226B
:10B77C0002FB05425268A2B12C4AC3F808231A0BEB
:10B78C0043F30733002B0CDB02F01F015B09012292
:10B79C008A402033264941F82320BFF34F8FBFF353
:10B7AC006F8F0068D0F80C65D0F81415D0F80835F8
:10B7BC00D0F810254FF0FF37BE42C0F8147518BFF3
:10B7CC0006F5E076C0F80C75C0F80875C0F8107571
:10B7DC001EBF4FF0A0474FF0020C47F826C04E1C7E
:10B7EC001FBF4FF0A04601F5E071022746F821700B
:10B7FC00511C1FBF4FF0A04102F5E072022641F828
:10B80C0022605A1C1FBF03F5E0734FF0A0420221C7
:10B81C0042F82310FFF7F6FD2C2303FB054400230D
:10B82C0084F82A306360F8BD341F002084020200C3
:10B83C0000E100E00279044B2C2101FB0233586932
:10B84C00003818BF01207047341F00202DE9F84F35
:10B85C00064690F8048089469246FFF7EBFF0446B3
:10B86C0000283CD1204F2C2508FB057B4FF48E7112
:10B87C00CBF814A0CBF80890CBF820008BF828005C
:10B88C003068FFF7CBFD3068012383605946FFF722
:10B89C00CDFDDBF804305D461BBB3068DBF8144093
:10B8AC002B6A9C4211D83368D3F81C21002AFBD098
:10B8BC000122DA6000202C2303FB087700237B6134
:10B8CC00BDE8F88F95F828303BB9D0F81C31002B27
:10B8DC00F8D05946FFF7AAFDE2E70F20EBE711205D
:10B8EC00EEE72046ECE700BF341F00202DE9F047BF
:10B8FC003A4D07792C2303FB075306465C6824B1A9
:10B90C0003684FF40170C3F808032C2303FB07539F
:10B91C00986950B1D869002841D024B133684FF4EC
:10B92C000172C3F80423112436E09A61D96058627D
:10B93C00D8612C2303FB075393F829301BB910B99A
:10B94C003046FFF782FD4FF02C0808FB075A306891
:10B95C00DAF80430002B37D14FF4A271D046FFF740
:10B96C005DFD3068D0F82491D0F80831D0F844410E
:10B97C00CBB914B9B9F1000FF3D02C2303FB075545
:10B98C000023AB61B9F1000F24D12CBB95F8291021
:10B99C0033680122B1B11A602046BDE8F087196105
:10B9AC00DA610120C5E7B9F1000FE6D1002CE4D132
:10B9BC004146FFF75AFDDAF82430DAF818209A429B
:10B9CC00CFD8DAE75A60E7E74FF40173C0F80433D5
:10B9DC000024E1E70324DFE70F24DDE7341F002018
:10B9EC000023435082B043580193019B02B070472F
:10B9FC001FB501238DF80030044BCDE90110D3E9BC
:10BA0C0000126846904705B05DF804FB601F0020EB
:10BA1C007FB5434AD2F82461002E60D010464FF413
:10BA2C009271FFF7DDFF02238DF80030D2F88034DD
:10BA3C00C2F880340393D2F83C350293394BDA6860
:10BA4C0001920022C3E906226846D3E9001290470E
:10BA5C003348D0F8443173B14FF4A271FFF7C0FFF3
:10BA6C00304B9A693AB10022C3E90622D968D0F862
:10BA7C003C05FFF7BDFF2A48D0F82031ABB14FF49D
:10BA8C009071FFF7ADFF0123C360264B5A6962B179
:10BA9C00D0F84C150291002299688DF80020019184
:10BAAC005A616846D3E9001290471D48D0F85831C6
:10BABC009BB14FF4AC71FFF793FF1A4B5A6962B10B
:10BACC00D0F84C150291002299688DF80020019154
:10BADC005A616846D3E90012904704B070BDD2F8A1
:10BAEC001031002BB4D04FF488711046FFF778FF5B
:10BAFC000C4BD2F83C0599698842A9D1DC69D9680C
:10BB0C0064B1D2F8005225F02005C2F800521A692F
:10BB1C009C61DA60DE61FFF76BFF99E79C61FAE7E5
:10BB2C0000200040601F00202DE9F8435A4E90F889
:10BB3C000480242303FB0863044693F820300D464D
:10BB4C009146002B40F0A38054490068FFF738FC65
:10BB5C000746002840F09D802A682068511C0BD0B5
:10BB6C004FF0A04101239340C1F8083502F5E07372
:10BB7C004FF0030C41F823C069684B1C1FBF01F543
:10BB8C00E0734FF0A04C4FF0000E4CF823E0AB6983
:10BB9C00C0F8243595F814C06B7DBCF1010F4CEA4C
:10BBAC000303C0F86C35C0F80C25C0F814151DD172
:10BBBC00AA68531C1FBF02F5E0734FF0A0414FF071
:10BBCC00000C41F823C0EB68591C0BD04FF0A04C73
:10BBDC0001219940CCF8081503F5E0714FF0030EE4
:10BBEC004CF821E0C0F80835C0F81025242202FBDF
:10BBFC0008F2B318C3F804902B69B350B9F1000FD5
:10BC0C002FD04FF488712A7FFFF7EAFE20684FF49B
:10BC1C009071FFF7E5FE20684FF49271FFF7E0FE9C
:10BC2C0020684FF4A271FFF7DBFE4FF4AC71206873
:10BC3C00FFF7D6FE23681A49C3F80413190B43F314
:10BC4C0007335201002BD2B21CDB1648C51885F8FD
:10BC5C00002301225B0901F01F0102FA01F140F8F7
:10BC6C00231023680822C3F80025242303FB08664D
:10BC7C000023C6E906337361012386F82030384669
:10BC8C00BDE8F883084B01F00F015A54E9E7082787
:10BC9C00F5E71127F3E700BF601F00201DBA010074
:10BCAC001003420000E100E014ED00E0F8B5444C54
:10BCBC000579242303FB054302465B680068ABB19E
:10BCCC00404BC0F8083340F30733002B4FEA1031D8
:10BCDC000CDB01F01F065B090121B14020333A4E09
:10BCEC0046F82310BFF34F8FBFF36F8FD0F800329D
:10BCFC0023F02003C0F80032242303FB05439B6987
:10BD0C002BB14FF4A271FFF76BFE012343604FF48C
:10BD1C00AC71FFF765FE0123C360242303FB0543CD
:10BD2C00D0F858110029FBD0996919B1D0F84411F9
:10BD3C000029F5D00023C0F800351368D3F80C7532
:10BD4C00D3F81465D3F80825D3F810154FF0FF3C41
:10BD5C006745C3F80CC518BF07F5E077C3F814C5E1
:10BD6C00C3F808C5C3F810C51EBF4FF0A0434FF071
:10BD7C00020C43F827C0771C1FBF4FF0A04306F5F9
:10BD8C00E076022743F826704E1C1FBF01F5E071C8
:10BD9C004FF0A043022643F82160531C1FBF4FF005
:10BDAC00A04302F5E072022143F82210FFF72AFBB0
:10BDBC00242303FB0544002384F820306360F8BD82
:10BDCC00601F00201003420000E100E00279044BE8
:10BDDC00242101FB02335869003818BF0120704739
:10BDEC00601F002001F06043B3F1005F2DE9F047C4
:10BDFC000646884692463BD190F80490FFF7E6FF42
:10BE0C000446002836D11D4F3068242505FB0975E2
:10BE1C004FF49071C5F814A0C5F80880FFF7E0FD49
:10BE2C004FF4AC713068FFF7DBFD33686A69A968C1
:10BE3C00C3F84415C3F8482501229A606A68DAB938
:10BE4C00D3F82021D3F858011AB90028F8D00F20C4
:10BE5C0007E00028FBD10122DA60D3F85821002A30
:10BE6C00FBD0242303FB097700237B61BDE8F0871B
:10BE7C001020FBE71120F9E72046F7E7601F0020B0
:10BE8C00F8B501F06043B3F1005F04460F465ED194
:10BE9C000379304D242101FB0351496821B100681D
:10BEAC004FF40476C0F80863242000FB03539E690A
:10BEBC0056B1D869002839D021B123684FF40472E7
:10BECC00C3F80423112030E09A61DF60DE61206842
:10BEDC004FF48871FFF784FD20684FF4A271FFF7CF
:10BEEC007FFD2368C3F83475C3F8382516BB0122CF
:10BEFC001A602479242202FB045252680ABBD3F83C
:10BF0C001011D3F84421D3F82401114302D1002895
:10BF1C00F5D00A46242303FB04550023984218BF8E
:10BF2C0003209A42AB6118BF0F20F8BD1F61DA6184
:10BF3C000126CCE7D3F8002242F02002C3F80022FD
:10BF4C00D7E74FF40472C3F804230020EDE7102068
:10BF5C00EBE700BF601F002013B5084CD4F800318C
:10BF6C004BB1074B1B6898470023C4F80031D4F839
:10BF7C0000310193019B02B010BD00BF00000140D5
:10BF8C00841F0020034B044A00F5C07043F82020A6
:10BF9C00704700BF000001403546526E00F18040F2
:10BFAC0000F5E040002382B0036003680193019B1D
:10BFBC0002B07047F0B5524B524CD3F8043185B0F7
:10BFCC00002B3DD094F82E204FF48270FFF7E6FF43
:10BFDC002AB394F82F3013BB494AD2F80031002B06
:10BFEC0032D04FF48070FFF7D9FF638B94F82D009B
:10BFFC00834250D921891B1A9BB289B26383CB1A15
:10C00C00616801EB4303C2F82C36C2F830064FF4DA
:10C01C008270FFF7C3FF3A4B01225A6014E0636849
:10C02C0002932389ADF80C30E36800218DF80410DD
:10C03C0033BB2374236801A89847002384F82F305E
:10C04C0094F82E30002BC7D12D4BD3F810315BB1A7
:10C05C004FF48870FFF7A2FF0023237402238DF89E
:10C06C00043001A823689847254BD3F81431EBB161
:10C07C004FF48A70FFF792FF0023237405B0F0BDD4
:10C08C00208B608363602081E160002AD2D11C4B3D
:10C09C0001221A60CEE7BAD1E368012184F82F108F
:10C0AC0013B100216183AEE76383B0E766694FF09B
:10C0BC0000470125002EE1D0B6FA86F227FA02F3EA
:10C0CC004632920026EA030602F1804303F5E04370
:10C0DC001B68002BEED01046A2F58C72FFF75EFFAA
:10C0EC00D30882F00402C2F380028DF808308DF878
:10C0FC00045023688DF8092001A89847DAE700BF9F
:10C10C0000700040881F002038B5204A92F82C306F
:10C11C000446002B37D111601D490078C1F8F00599
:10C12C006078C1F8F4050125E078137482F82D309D
:10C13C00536182F82F306FF0004382F82E0082F8A2
:10C14C002C504FF48270C1F80833FFF727FF4FF4DF
:10C15C008070FFF723FF4FF48A70FFF71FFFA3785F
:10C16C000C485B01DBB280F80733802303600223A9
:10C17C00C1F8043392F82E300BB1C1F80453C1F856
:10C18C000055002038BD0820FCE700BF881F0020A8
:10C19C000070004000E100E070B52A4B1A7C02F000
:10C1AC00FF05002A4BD10A79012A9CBF264CC4F802
:10C1BC00005500F10C0503EB4504247924B993F8E0
:10C1CC002D40013483F82D4003EB4503CC790D7AD7
:10C1DC008E781C715D714B7836021B0106F4E0669B
:10C1EC0003F0300333430E7806F003063343CE7866
:10C1FC00360306F480563343160406F4E026334324
:10C20C004E798979360506F480160906334301F018
:10C21C0080710B430C4901EB0016000100F18040CA
:10C22C0000F5E040012AC6F81835C0F81455C0F8DE
:10C23C00104502D80123C1F80035002000E0112080
:10C24C0070BD00BF881F00200070004070B5324ADE
:10C25C00147C04F0FF03002C5CD1304C0125032628
:10C26C001574C4F80863C4F82C16C4F8305692F848
:10C27C002D40AC420CD91D46190101F1804101F54C
:10C28C00E0410133082BC1F81455C1F81055F3D116
:10C29C0000F10C03000102EB430300F1804000F5B8
:10C2AC00E04019795B79C0F81435C0F810151B49BA
:10C2BC0001230B604B6042F21073D1F8040108B9F2
:10C2CC00013BFAD14FF48070FFF768FE4FF4827097
:10C2DC00FFF764FE012C11D90F4800210B0103F16B
:10C2EC00804303F5E0430131047F457FC3F81455C7
:10C2FC000829C3F8104500F10200EFD192F82E1076
:10C30C00064B29B103210020C3F80413107470BD2F
:10C31C000221F8E71120FAE7881F00200070004086
:10C32C00F0B51C4F8BB207EB001443EA0243C4F880
:10C33C001C35194B40005C6900F1010C4FF00046B4
:10C34C0011F5006F26FA0CF64FF0800505FA00F592
:10C35C000BBFB44334435C615C610CBFC7F808533A
:10C36C00C7F804534FF0004140245D69844021FA22
:10C37C0000F040F2FF718A42064A0BBF25EA00002A
:10C38C002843586158610CBFC2F80843C2F80443F3
:10C39C00F0BD00BF00700040881F002010B5124B8C
:10C3AC001A7CF2B900F10C0103EB4102127922B1B3
:10C3BC0093F82D20013A83F82D2003EB4103002440
:10C3CC009C80030103F1804303F5E0430749C3F864
:10C3DC00144540F2FF72C3F81045FFF7A1FF204649
:10C3EC0010BD1120FCE700BF881F002000F8FFFFE4
:10C3FC0038B5144B6FF00042C3F80823124A802161
:10C40C00C2F88010BFF34F8FBFF36F8F01229A6079
:10C41C0042F21072D3F8141109B9013AFAD10B4D4A
:10C42C000024C3F800452C7405EB44031B7F13B1A7
:10C43C00E0B2FFF7B3FF0134082CF5D1002385F8E7
:10C44C002C3038BD0070004000E100E0881F002057
:10C45C000023435082B043580193019B02B07047B4
:10C46C000A7B0346032A29D8DFE802F021251902AA
:10C47C008A68500304D5D3F84C250869904207D13B
:10C48C008A6852031AD4D3F84C254969914215D0C5
:10C49C0000200622C3F80005C3F800257047D3F826
:10C4AC004C2508699042F3D1D3F83C25EDE7D3F83D
:10C4BC004C250969EAE7D3F83C25FAE701207047D7
:10C4CC00F0B5594D594CD5F8243187B0FBB14FF428
:10C4DC0092712846FFF7BCFFD5F80431BBB9A368AD
:10C4EC00C5F808330223A360A368C5F80433D5F854
:10C4FC0060311BB1D5F800329F0503D44A4B0122A1
:10C50C001A625A61012384F82E3007B0F0BDD5F8B9
:10C51C000431002B50D044484FF48271FFF798FF40
:10C52C00236A5E0609D494F82E3033B93F49FFF7DD
:10C53C0097FF80F0010084F82E00236A5D0720D459
:10C54C003B4E0FCE01AD0FC5336837482B604FF40F
:10C55C00B071FFF77DFF4FF4AE71FFF779FF94F8E0
:10C56C00303013B194F82E305BB12F4B0022C3F84E
:10C57C000022A2602F4AC3F808232F4B0822C3F8CD
:10C58C008021294AD2F8C434C2F8C43498073DD566
:10C59C0001238DF8003094F830300BB984F82F302B
:10C5AC00236A5B0703D594F82E30002BADD0D4E969
:10C5BC00003168469847A8E71B484FF4A471FFF771
:10C5CC0047FF237B83B91A4F0FCF01AE0FC63B68D1
:10C5DC00336094F83030002BD3D1C5F80032A3600F
:10C5EC00144BC5F80833C8E74FF40073C5F8003294
:10C5FC0040F20223A36003F1CE73C5F80833A3689D
:10C60C00C5F804330123AB602B627EE7590701D5D3
:10C61C000223BEE7DA0701D50323BAE794F82E30DC
:10C62C00002BB6D00423B4E700300040B81F002024
:10C63C00C41F002002029C0100E100E008B5FEF7D7
:10C64C00A7F918B1BDE80840FDF752BB08BD0000C2
:10C65C008FB54FF480610020FDF722F808B1FDF78B
:10C66C0047FBFCF75DFF00F029FEFFF7E7FF4FF0FB
:10C67C00A04303224FF48051C3F83027C3F80C15A4
:10C68C004FF40041C3F83C27C3F80C15C3F84027FE
:10C69C004FF48032C3F80C25574C584B584D594920
:10C6AC00594EE41AE408240444F003042046FDF730
:10C6BC0095F900234FF080423360C5F8043501230F
:10C6CC0013602B60D5F80031002B00F08E80002316
:10C6DC00C5F80031D5F80835D5F808254B4D4C492F
:10C6EC004C4F9B0544BF6FEA82526FEA9252002A6C
:10C6FC00B8BF03329210424B326001265E604FF09D
:10C70C00804320465E60FDF76DF9284600F0ACFFD3
:10C71C006B7903932B790293EB780193AB780093AD
:10C72C006B782A783C493D4803F028F800F05AFF12
:10C73C0000F082FF00F006FF39492046FDF74EF964
:10C74C0000F03AFF47F2305130463E7000F008FEE0
:10C75C003B78022B4CD1012000F088FE314D324940
:10C76C002046FDF73BF900F035FF00F059FF0023A0
:10C77C002B704FF0A0434FF40042C3F808252B4B0D
:10C78C00142643F001084FF47A40C047013EFAD119
:10C79C0001F092F82B78002BFCD025492046FDF7B0
:10C7AC001DF901F081FE01F0FBFA01F033FF01F0FD
:10C7BC00ABF84FF0A0434FF40042C3F80C251D49D1
:10C7CC00002320462B702B70FDF708F91A492046E0
:10C7DC00FDF704F919492046FDF700F9FFF72EFF84
:10C7EC0003233B7000F078FFFCE700F07FFF69E764
:10C7FC0000F072FFACE700BF28190200E818020035
:10C80C0000C0004005200200EC1F00200120002089
:10C81C002B200200301200203D200200F41F0020CB
:10C82C0056200200992300206F20020020210200D4
:10C83C0086200200A4200200C32002000E21020068
:10C84C000369C26893429CBF80681B18013B981A0D
:10C85C0070472DE9F843D0E902940546A9EB04088A
:10C86C004068904520440F46144404D903F0E2FA82
:10C87C00EC60BDE8F8834246A4EB090403F0DAFA55
:10C88C006868224607EB0801F0E72DE9F843C56814
:10C89C000646894617464FF000083469B36870683D
:10C8AC00A54228BFE418013C621B5C1BBC4228BF9C
:10C8BC003C46944228BF144649462844224603F07D
:10C8CC00B9FAB3682544AB4208BF00253F1BA0440E
:10C8DC00A144F560E1D14046BDE8F88310B5114C98
:10C8EC00114AA2610223C4E90433104BE361A26430
:10C8FC004FF400730E4A0F492362E26400231022A6
:10C90C00E01DA3626362E362A3656365E365226570
:10C91C0003F0ECFA0849204603F0E8FA2023A3714F
:10C92C0010BD00BF0820002026210200902000200E
:10C93C00802000202F2102003321020070B5164BFD
:10C94C00182400FB04451D4404FB00331646DC6A26
:10C95C00012C0ED0022C18D0E4B92846FFF770FF3A
:10C96C00864204D832462846FFF773FF34462046E9
:10C97C0070BD2846FFF764FF8642344628BF044644
:10C98C0022462846FFF765FFF1E72846BDE87040D0
:10C99C00FFF77BBF0024EAE708200020FFF79EBFCB
:10C9AC006DDF704779DF70477DDF704764DF70475C
:10C9BC002DE9F04F85B000250E9CBDF83CB0B4F8C5
:10C9CC0000A00191074690461E46A9463A884A4562
:10C9DC000DDC45B12388013BA3EB0A039BB2FF2B73
:10C9EC003AD806F80A30002005B0BDE8F08F7A6816
:10C9FC0052F82900039000220DF10B0103A8FFF758
:10CA0C00D5FF0028F0D19DF80B20424521D122887A
:10CA1C00002D14BF0020022002EB080101445945EF
:10CA2C001ADC3DB9013292B2019B2280B3542288A8
:10CA3C000132228022880DF10B01324403A8FFF74A
:10CA4C00B5FF0028D0D121889DF80B200A44228004
:10CA5C00012509F10109B9E70C20C5E72DE9F341DE
:10CA6C00089FBDF824801546CDE9007802220446C3
:10CA7C001E46FFF79DFF50B933461022294620462B
:10CA8C00CDE9087802B0BDE8F041FFF791BF02B0E4
:10CA9C00BDE8F0812DE9F04F00231788138090F842
:10CAAC002D3085B006460D4614465BB3082F01D8D1
:10CABC000C2028E102A8FFF773FF002840F0238127
:10CACC002388DDF809100822EA54238801339BB22D
:10CADC001B222380EA54238801339BB2EA1823805B
:10CAEC00E950BDF80D30938023889DF8082006335B
:10CAFC009BB212F0FE0218BF01222380EA54238855
:10CB0C0001332380B378FBB123880433BB42CFD8E5
:10CB1C0002A8FFF747FF002840F0F5802388032286
:10CB2C00EA54238801339BB219222380EA542388C8
:10CB3C00BDF8082001339BB2E9182380EA54120A8D
:10CB4C004A70238802332380F2789AB12388D91C47
:10CB5C00B942ADD80221E954238801339BB201219B
:10CB6C002380E95423880B449BB22380EA54238806
:10CB7C000B4423807268AAB12388D91CB94297D878
:10CB8C00022192F90020E954238801339BB20A2137
:10CB9C002380E954238801339BB22380EA542388F1
:10CBAC00013323803389002B40F0A180338A5BB1A1
:10CBBC00CDE900472B460722032106F11000FFF7B1
:10CBCC004DFF002840F09F80338B5BB1CDE90047CF
:10CBDC002B461522142106F11800FFF73FFF002801
:10CBEC0040F09180326A002A40F09080D6F8248080
:10CBFC00B8F1000F30D0B8F804302188981C8A1C8A
:10CC0C000244BA423FF654AFFE283FF651AF03330D
:10CC1C006B54238801339BB2FF222380EA54238870
:10CC2C0001339BB22380B8F80020EA54E918120AA9
:10CC3C004A702088023080B22080B8F804205AB1A3
:10CC4C00D8F8081000296BD0284403F0F3F8238897
:10CC5C00B8F804201344238096F82C30002B40F0B5
:10CC6C009880307800284ED03388012B58D02288F9
:10CC7C0002F1020CBC453FF61BAF012805D17378BD
:10CC8C00023313449F42FFF413AF023FBF1ABFB2EB
:10CC9C0002A905EB0C00ADF80870FFF785FE90BB00
:10CCAC003178BDF80830022900F0B98072789A42C8
:10CCBC0002D39F4280F0B180012940F0B2809742AC
:10CCCC0093B2C0F0AE80ADF808300821BDF8083042
:10CCDC00FE2B3FF6EDAE22880133AB542288013295
:10CCEC0092B22280A9542288134423800BE0CDE910
:10CCFC0000472B460622022106F10800FFF7AEFE84
:10CD0C0000283FF453AF05B0BDE8F08FB4F800C075
:10CD1C000CF10603BB423FF6CBAE1188052901D8B6
:10CD2C000720F0E76FF4486E01EB0E039BB24FF255
:10CD3C007D3E7345F4D95388052BF1D96FF44860C7
:10CD4C00181880B27045EBD94FF6FF70814201D0B4
:10CD5C009942E5D8052305F80C30238801339BB2A2
:10CD6C0012212380E954238801339BB2238011883C
:10CD7C00E954E818090A4170238802339BB22380D6
:10CD8C005288EA54E918120A4A7023880233238025
:10CD9C002CE7B36A002BC3D04FF000084FF00C0AFD
:10CDAC004FF0160BB16A5FFA88F20AFB02F201EB44
:10CDBC000209B9F80430981CFE283FF679AE208899
:10CDCC0003332B54238801339BB2238005F803B023
:10CDDC00238801339BB223808A5AEA54E918120A39
:10CDEC004A702088023080B22080B9F804205AB1F1
:10CDFC00D9F80810002993D0284403F01BF8238895
:10CE0C00B9F804201344238096F82C2008F101086B
:10CE1C005FFA88F39A42C5D823E7092156E79F4267
:10CE2C00FBD2ADF8087050E710DF704711DF704788
:10CE3C0013B5044609496846FDF7D5FD019808B9B4
:10CE4C0002B010BDD0E900312046984718B16846B1
:10CE5C00FDF7D3FDF2E71120F2E700BF48210200F5
:10CE6C0013B5044607496846FDF7BDFD019B0BB998
:10CE7C0002B010BD2046D3E9002190476846FDF76B
:10CE8C00BCFDF3E760210200084B9A6822B11A68D6
:10CE9C0022F480021A607047054B4FF48002C3F8ED
:10CEAC008020BFF34F8FBFF36F8F7047701E002031
:10CEBC0000E100E00B4991F816335A09EC231341B9
:10CECC00DB0706D5084B9A683AB94FF480030B6020
:10CEDC00704742F20200FCF70BBF1A6842F4800262
:10CEEC001A60704700E100E0701E0020F7B5194F82
:10CEFC003C7864BB184E012520463570FFF798FF2F
:10CF0C00112821D02046FFF7ABFF144B8DF80340BE
:10CF1C00186801900DF10300FDF7E4F9104901A820
:10CF2C00FFF782FF0446B0FA80F0400938709DF894
:10CF3C000300FDF7FBF93CB90A4B34701C70FFF78A
:10CF4C00B9FF2846FFF78CFF204603B0F0BD08243C
:10CF5C00FAE700BF9122002090220020422102001B
:10CF6C00199D010092220020F7B5154F3B781BB399
:10CF7C00144E01203070FFF75BFF11284FF00005B5
:10CF8C001CD00220FFF76CFF0DF107008DF8075045
:10CF9C00FDF7A8F9FFF74AFF04469DF807003D701E
:10CFAC00FDF7C4F92CB903203470FFF76DFFFFF7C0
:10CFBC0057FF204603B0F0BD0824FAE72C46F8E7EB
:10CFCC009122002090220020014B1878704700BF5E
:10CFDC009122002007B508496846FDF704FD019B26
:10CFEC0013B903B05DF804FBD3E900209047684601
:10CFFC00FDF703FDF3E700BF54210200FFF7EABF82
:10D00C0060DF704769DF704761DF704730B5134BE5
:10D01C001B7891B0FBB1124D34240DF1020103A821
:10D02C00ADF80240FFF7F0FF70B9294601A8FDF7F3
:10D03C00DAFC029B002BF0D003A8D3E90021904727
:10D04C0001A8FDF7DAFCF4E7052804D011B0BDE81F
:10D05C003040FCF74DBE11B030BD00BF9322002014
:10D06C00A423020030B50C4685B0002900F0828064
:10D07C000023CDE90133404A039301230A608DF864
:10D08C0004008DF8063001A906232020ADF80830E5
:10D09C00FFF7B8FF60B1FDF7DBFC384B38490246AF
:10D0AC0038481B1ADB081B0443F00100FCF79AFC00
:10D0BC0000232268039301A94020CDE90133FFF737
:10D0CC00A1FF60B1FDF7C4FC2C4B2F4902462D4843
:10D0DC001B1ADB081B0443F00100FCF783FC002344
:10D0EC002268039301A90120CDE90133FFF78AFFE0
:10D0FC0060B1FDF7ADFC214B2449024621481B1AB7
:10D10C00DB081B0443F00100FCF76CFC0023CDE9A9
:10D11C0002332268F82301A9A1200193FFF772FFC3
:10D12C0060B1FDF795FC154B1949024615481B1AC1
:10D13C00DB081B0443F00100FCF754FC00252268BB
:10D14C00039501A9A020CDE90155FFF75BFF03462C
:10D15C0068B1FDF77DFC094B0E49024609481B1AC4
:10D16C00DB081B0443F00100FCF73CFC2B46184683
:10D17C0005B030BD0E23FAE7101200204019020052
:10D18C006C210200E8180200B2210200FE2102000C
:10D19C004A2202009B220200F8B506460768FFF7F8
:10D1AC002FFF3368BB4205461DD91948194C1A4943
:10D1BC00241AE408240444F002042046FCF70EFC74
:10D1CC00336816493A462046FCF715FC4FF080535D
:10D1DC003268D3F80C3112499B0203F100539A1AAE
:10D1EC002046FCF7FFFB25B90E4B01221A7028468E
:10D1FC00F8BD2846FDF72CFC064B0B4902460448AB
:10D20C001B1ADB081B0443F00100FCF7EBFBEEE7F9
:10D21C00E818020040190200EE2202001D23020051
:10D22C004E23020093220020782302004BDF70472C
:10D23C001FB50E4C01A8FFF7F9FF70B9214602A8E3
:10D24C00FDF7D1FB039B002BF4D00198D3E900210F
:10D25C00904702A8FDF7D1FBF4E7052804D004B0F1
:10D26C00BDE81040FCF744BD04B010BDBC23020067
:10D27C00024A136801331360704700BF98220020E4
:10D28C00014B02221A70704730120020014B04220D
:10D29C001A70704730120020014B01221A7070472F
:10D2AC0094220020014B01221A7070479522002015
:10D2BC00014B05221A7070473012002008B5FCF79C
:10D2CC0071FF08B1FCF714FD194A1A480121FCF74B
:10D2DC009BFF08B1FCF70CFD174A18480121FCF71D
:10D2EC0093FF08B1FCF704FD154A16480121FCF721
:10D2FC008BFF08B1FCF7FCFC134A14480121FCF726
:10D30C0083FF08B1FCF7F4FC114A12480121FCF729
:10D31C007BFF08B1FCF7ECFC0F4A10480121FCF72D
:10D32C0073FF18B1BDE80840FCF7E2BC08BD00BFB4
:10D33C007DD20100FC2302008DD20100F8230200F3
:10D34C0099D201000C240200A5D201000424020091
:10D35C00B1D2010008240200BDD201000024020059
:10D36C0070B50C46052817D8DFE800F0031D2E3FDA
:10D37C00506100254FF400464FF47A5029464FF483
:10D38C00FA420023E4FB060101F080FF014631481C
:10D39C002A46FCF74BFF0346002B59D0BDE87040E2
:10D3AC001846FCF7A5BC00254FF400464FF47A5004
:10D3BC0029464FF4FA420023E4FB060101F066FF14
:10D3CC002A4601462448E4E700254FF400464FF472
:10D3DC007A5029464FF4FA420023E4FB060101F08F
:10D3EC0055FF2A4601461D48D3E700254FF4004659
:10D3FC004FF47A5029464FF4FA420023E4FB06011D
:10D40C0001F044FF2A4601461548C2E700254FF4B7
:10D41C0000464FF47A5029464FF4FA420023E4FBBD
:10D42C00060101F033FF2A4601460E48B1E70025FC
:10D43C004FF400464FF47A5029464FF4FA42002339
:10D44C00E4FB060101F022FF2A4601460648A0E74C
:10D45C0070BD00BFBC2200209C2200203C23002079
:10D46C00FC2200201C230020DC22002008B505280B
:10D47C0008D8DFE800F0030D0F1113150A48FCF76C
:10D48C0021FF034673B11846BDE80840FCF730BCD9
:10D49C000648F4E70648F2E70648F0E70648EEE7E8
:10D4AC000648ECE708BD00BFBC2200209C220020EF
:10D4BC003C230020FC2200201C230020DC22002026
:10D4CC0030B5104D104C2B6887B005A8059302F0B1
:10D4DC00A7FC0E49641A0168D0E904320391416833
:10D4EC00029181680191E408C1680091240444F020
:10D4FC0003000749013302F26C72FCF792FA2868B8
:10D50C0007B030BD9822002028190200E81802004C
:10D51C00C823020010B58AB0064C01A800F0FEFE2C
:10D52C00002301A8236002F0CFFB2368034423608F
:10D53C000AB010BD9822002072DF704773DF70476D
:10D54C0074DF704700B593B05923ADF80030164B1B
:10D55C0002933C221723002103A8ADF8043002F0FB
:10D56C0092FC04238DF80F30104BCDF830D01822DC
:10D57C000021184602F087FC05220270A02282606E
:10D58C000B4A03A852F8041BFFF784FA08B1FCF706
:10D59C00AFFB064A06490748FFF7CEFF08B1FCF778
:10D5AC00A7FB13B05DF804FB45120020602300209C
:10D5BC00341200204412002008B5054B01211878C4
:10D5CC00FFF7BCFF18B1BDE80840FCF791BB08BDE4
:10D5DC004412002008B5024B1878FFF7B1FF08BDC4
:10D5EC004412002013B50D4C2378ABB9FFF77EFC29
:10D5FC0008B1FCF77DFB002301A901200193FFF783
:10D60C0031FD08B1FCF774FB01A8FFF7C5FD08B1AB
:10D61C00FCF76EFB0123237002B010BD5C230020CD
:10D62C0008B5044B00201870FDF7A6FCBDE80840B7
:10D63C00FFF79ABC5C23002010B5094C172200217F
:10D64C00204602F020FC522323705823637000F014
:10D65C00DFF9044901F020FA01F002FDA07510BDBC
:10D66C004512002000002041F0B54FF08055174FB7
:10D67C00D5F8A820C2F3072242F0C0020270D5F8F8
:10D68C00A8304370D5F8A460360E8670D5F8A41077
:10D69C00090CC170D5F8A440240A0471D5F8A45023
:10D6AC0045710B48C01B85B0C008EDB2E4B2C9B2DD
:10D6BC000004CDE90061039506490294DBB240F009
:10D6CC000300FCF7AEF905B0F0BD00BFE81802008E
:10D6DC00281902001024020008B5FCF733F818B919
:10D6EC00BDE80840FDF76AB908BD0000014B187889
:10D6FC00FEF748BC9723002037B500238DF8073080
:10D70C000378012B00F0A880022B00F0A58023BB2E
:10D71C000DF10700FDF786FA51499DF807300C789A
:10D72C001CB90A2B19D00D2B17D00A2B4D4D4E4A74
:10D73C0015D00D2B13D0601C2B55087000241178BC
:10D74C00002900F08480002348494648137002F0F9
:10D75C0061F858B1464B03221A7003B030BD00205B
:10D76C000870012128551170A4B2E8E741493D48E1
:10D77C0002F050F818B13B493F48224612E03F49AD
:10D78C00384802F047F810B1394B0422E4E73C4921
:10D79C00344802F03FF850B1354B32493948052234
:10D7AC001A70224603B0BDE8304002F043BB364944
:10D7BC002C4802F02FF80028EED13449294802F009
:10D7CC0029F820B93249274802F024F830B1314BFE
:10D7DC001B78012BDAB201D12F4BBDE72F49214821
:10D7EC0002F018F808B10C2CC5D82D491D4802F0D0
:10D7FC0011F80028BFD12B491A4802F00BF818B1C8
:10D80C001B4B06221A70B6E72749164802F002F89D
:10D81C0010B1264B01229FE72549124801F0FAFF6F
:10D82C0038B122460F49144802F004FB104B072272
:10D83C0092E720490B4801F0EDFF00288DD02246DD
:10D84C0008490D4802F0F6FA094B082284E73E2BF2
:10D85C0083D1074B09227FE74068FCF749FA7CE744
:10D86C009A2700209A2300209B27002041240200A5
:10D87C00A33A002044240200A33300200825020010
:10D88C004A240200A33700204E2402005C2402002C
:10D89C00672402006A1700209823002072240200DB
:10D8AC007D240200832402008D2402009923002091
:10D8BC00972402009E24020030B50F4D0FCD8BB083
:10D8CC0004AC0FC40D4B009395E803004FF4806338
:10D8DC0001930B4B02934FF4006384E80300039312
:10D8EC00084A0723694604A8FDF734F908B1FCF788
:10D8FC00FFF90BB030BD00BFA82402009C2700200C
:10D90C009C2B002005D7010008B5FDF77BF9FDF72E
:10D91C00C7F9054B8422C3F8082301225A60DA6048
:10D92C000022C3F8002508BD0020004070B50A4D48
:10D93C00441E022614F8012F22B913B9064B0122FA
:10D94C001A7070BD2078FDF783F903460028F1D0DA
:10D95C001128F7D02E70EDE7A33A002038B5054D0D
:10D96C00322445F001054FF47A40A847013CFAD126
:10D97C0038BD00BFF02402001FB50C4A1068516876
:10D98C00127A01AB03C30A481A700021FEF7BCFBE4
:10D99C0008B1FCF7ADF901A90620FEF7FDFB08B1B3
:10D9AC00FCF7A6F905B05DF804FB00BFDB24020010
:10D9BC00E4240200F0B585B0002401948DF80840F1
:10D9CC00FFF7DAFF4FF0A0434FF48032C3F808257D
:10D9DC00FFF7C4FF01AD052629460620FEF736FCED
:10D9EC00FFF7BCFF2B88013E1C4405F1020524B255
:10D9FC00F2D14FF0A0434FF48032C3F80C25FFF75F
:10DA0C00ADFFFEF7F5FC052094FBF0F005B0F0BD82
:10DA1C002DE9F743FFF7CEFF254B264C188001F07C
:10DA2C002FFB2549254E01F037F84FF06A5101F0D4
:10DA3C0033F8234901F030F8224901F02DF8224B3C
:10DA4C003060E41AE40824040021054644F0030481
:10DA5C0001F0D4FA30B31D49284601F0B7FA08B3E7
:10DA6C00DFF86C80284601F0E1FA074601F008FB6C
:10DA7C0000218146284601F0A9FAB0B14946284652
:10DA8C0001F002F8134901F007F801F0CFFA12493E
:10DA9C0000903B4620464246FBF7B7FF306803B088
:10DAAC00BDE8F083DFF83480DCE729464846E7E739
:10DABC00A0330020281902009A99193F9C330020AA
:10DACC00713DEA3F0000C040E8180200000080BF32
:10DADC00C02402000000C842C2240200D719020070
:10DAEC0038B5054D044645F001054FF47A40A8477A
:10DAFC00013CFAD138BD00BF002F020010B504461E
:10DB0C0002F016FA2346211800208B4200D110BDDA
:10DB1C0013F8012BA2F13004092C03D802EB0010EE
:10DB2C003038F2E7A2F16104052C03D802EB0010A7
:10DB3C005738EAE7A2F14104052C03D802EB001098
:10DB4C003738E2E70020E2E72DE9F843264FDFF80B
:10DB5C009C90274C00258046032016463D7089F882
:10DB6C0000502570FFF7FCFBFDF74CF821484FF4F3
:10DB7C008062294602F087F94046FFF7D7FE3B78D2
:10DB8C00013B082B29D8DFE803F0050B1C211E1ED6
:10DB9C001E281E003D7099F80030002BEFD00CE0D1
:10DBAC001548164B1649C01AC008000440F0010075
:10DBBC00FBF714FF0320FFF759FC2078C0B2BDE837
:10DBCC00F883002EE7D101232370F3E70A480B4BAF
:10DBDC000C49C01AC0080004E8E700F0A3FDFFF7E9
:10DBEC0085FDFFF779FDD6E7A33A002094220020AB
:10DBFC00A2330020A333002028190200E8180200E9
:10DC0C00F62402000225020038B54FF48062002190
:10DC1C004548464C02F037F9454946480022FFF783
:10DC2C0093FF454BE41AE408240468B9434A444979
:10DC3C0044F00100FBF7D6FEFFF7EAFE414C2062F0
:10DC4C00FFF73EFCE06138BD44F00305364A3E491F
:10DC5C002846FBF7C7FEFBF775FD0028FBD13B49B7
:10DC6C00314801F0D7FD50B1394A3A4901F09CFDD9
:10DC7C00012804D1364A38492846FBF7B3FE374908
:10DC8C00294801F0C7FD50B1354A364901F08CFDE9
:10DC9C00012804D1324A34492846FBF7A3FE334904
:10DCAC00214801F0B7FD50B1314A324901F07CFDF9
:10DCBC00012804D12E4A30492846FBF793FE2F4900
:10DCCC00194801F0A7FD50B12D4A2E4901F06CFD09
:10DCDC00012804D12A4A2C492846FBF783FE4FF42D
:10DCEC0080620021104802F0CEF81149274800222A
:10DCFC00FFF72AFF10B9114A254999E712490A4A38
:10DD0C002846FBF76FFE2349074801F083FD0028E6
:10DD1C0092D00C4C204904F1280201F045FDA26A76
:10DD2C001E49284686E700BFA333002028190200AD
:10DD3C0080A903000E250200E8180200832E0200C1
:10DD4C001C250200443B00204825020056250200F9
:10DD5C00723B00205A250200612502008125020039
:10DD6C00763B0020852502008C250200AC250200A4
:10DD7C007A3B0020B1250200B9250200A324020041
:10DD8C00803B0020D9250200E1250200012602007B
:10DD9C0009260200282602002F260200392602003E
:10DDAC00F0B5AC4CAC4E85B0A0220021204602F060
:10DDBC006AF8AA4AAA495379039313790293D37840
:10DDCC000193937800935378A648127801F0D6FC0F
:10DDDC00A54BA44AA549F61AF608360446F00305E5
:10DDEC002846FBF7FFFDA249204602F07FF80027EA
:10DDFC0040F2BB13C4E9203702220123C4E92523D6
:10DE0C00C4E922339B49C4F8903022461323284698
:10DE1C00C4F89C30FBF7E6FDD4F8802096492846E0
:10DE2C00FBF7E0FDD4F8842094492846FBF7DAFD93
:10DE3C00D4F8882092492846FBF7D4FD914BD4F8AE
:10DE4C008C10914A2846B94208BF1A468F49FBF7F5
:10DE5C00C9FDD4F890208E492846FBF7C3FDD4F8B1
:10DE6C0094208C492846FBF7BDFDD4F898208A49AC
:10DE7C002846FBF7B7FDD4F89C2088492846FBF7C9
:10DE8C00B1FD874A87492846FBF7ACFD864B87498D
:10DE9C001A682846FBF7A6FDD4F88C3083B1D4F869
:10DEAC009030D3B9824A83492846FBF79BFDD4F8BE
:10DEBC008C30002B76D1804A80492846FBF792FDA6
:10DECC0028467F4A7F49FBF78DFD7F4A7F492846CC
:10DEDC0005B0BDE8F040FBF785BD4FF40072394644
:10DEEC007B4801F0D0FF7B4AD4F89C3078484FF443
:10DEFC00007101F02DFC784975483A46FFF724FE75
:10DF0C0038B9D4F89C306A4A744946F00100FBF7E2
:10DF1C0072FD4FF4007200216D4801F0B4FF70489F
:10DF2C0002F006F86F4A00904FF40071D4F89C3060
:10DF3C00674801F00DFC684965480022FFF704FEB4
:10DF4C00A8B9D4F89C305A4A674946F00100FBF74F
:10DF5C0052FD5B4A654946F00100FBF743FD6449FD
:10DF6C0046F0010005B0BDE8F040FBF737BD5C4A58
:10DF7C0060492846FBF736FD594801F0D9FF5E4948
:10DF8C0002462846FBF72EFD534955480022FFF761
:10DF9C00DBFD20B9D4F89C30454A5849D5E7444AB2
:10DFAC00574981E74FF400720021494801F06BFF9B
:10DFBC0004F190010EC9B1B900924548514A4FF491
:10DFCC00007101F0C5FB444941480022FFF7BCFD3C
:10DFDC00A8B9394A4C493E4B46F00100FBF70BFD02
:10DFEC00374A4A49B7E7D4F89C000092CDE90110B2
:10DFFC00474A37484FF4007101F0AAFBE3E74FF4AE
:10E00C0000720021324801F03EFFD4E92221D4F8FD
:10E01C008030A9B1D4F898100093CDE901210D4BB3
:10E02C003C4A2B484FF4007101F092FB2A492848D6
:10E03C000022FFF789FD0028CBD01F4A36493CE768
:10E04C00CDE900324FF40071024B344A204801F004
:10E05C007FFBEBE7A43A00202819020001200020E6
:10E06C003D200200503B0020E8180200E22602008E
:10E07C00F9260200172702002E270200452702006E
:10E08C005C270200732702007C2702008427020011
:10E09C009B270200B2270200C9270200E0270200DA
:10E0AC00F727020001280200203C0020182802005B
:10E0BC00502E020030280200E02E02008E290200B1
:10E0CC00642E0200AF2A0200742E0200D62A02002F
:10E0DC00A33800205D28020080A903007C280200E0
:10E0EC005C120020A6280200C72802006F2902003B
:10E0FC00042B0200F6280200092902002029020044
:10E10C0045290200B6290200EA290200862A0200EB
:10E11C00CE290200002A0200572A02002D2A0200F2
:10E12C00000000002DE9F04F664C674E9BB0FFF7E6
:10E13C006BFD00214FF40072644801F0A4FED4F88A
:10E14C002890634B236541F29048A4F824804846FC
:10E15C0000F096FF04F13E02E06405461046FFF71E
:10E16C00CDFCE36916930746206A00F0C9FF3368BB
:10E17C00179304F13603CDE91401184601F0F8FBAE
:10E18C0013904EA1D1E9000104F13E0204F1320BCF
:10E19C0004F12E0ACDE90E0128461092CDF848B0B4
:10E1AC00CDF844A000F0ACFF04F13603CDE908B380
:10E1BC00179B0493DDE914230C34CDE90223169B41
:10E1CC00444A0A97CDE90C0101930094424B3F4815
:10E1DC00CDF814804FF40071CDE9069A01F0B8FA2D
:10E1EC004FF4807200213D483D4C01F04CFE374805
:10E1FC00012247F23051FFF7A7FC3A4BE41AE4082E
:10E20C00240444F0030770B944F001002F4B364A44
:10E21C003649FBF7F0FB314A354938461BB0BDE8AF
:10E22C00F04FFBF7DFBB33492C48334C01F0F2FACB
:10E23C0004F108080546F8B14FF0FF33882200219D
:10E24C002046199301F01FFE2C49284601F0E2FAF2
:10E25C00231D38B300932A49234619AA284601F0F6
:10E26C00A3FA284A199BD2F884209A4204D0264A51
:10E27C0026493846FBF7BFFB2268C82A17BF24493A
:10E28C0033680B68013314BF0B600133CDF8008089
:10E29C0008BF33601F4963683846FBF7B6FB1BB0F9
:10E2AC00BDE8F08FCDE900831B49234619AA284607
:10E2BC0001F07AFAD5E700BFAFF30080000000A0B0
:10E2CC009999F13F443B0020203C0020A3380020CA
:10E2DC00CDCC8C3F2A2B0200F7270200A33700205D
:10E2EC0028190200E8180200D32E0200EA290200C5
:10E2FC0015280200C52B0200983B0020D22B0200EF
:10E30C00D62B0200A43A0020C22E02000F2C0200D1
:10E31C00F01F00202E2C0200F02B02002DE9F04FF4
:10E32C0093B006AF00225249ADF81820064651486A
:10E33C00514CADF810208DF81220ADF814208DF84A
:10E34C001620BA70ADF81C208DF81E20ADF82020D8
:10E35C008DF82220ADF824208DF82620FFF7F4FB51
:10E36C00464BE41AE4082404804648B9444A45491B
:10E37C0044F00100FBF736FB404613B0BDE8F08FCC
:10E38C0041490AA844F0030401F0B0FD3F490AAA30
:10E39C002046FBF727FBFBF7D5F905460028FAD1F9
:10E3AC003B490AA801F054FA00285ED039492846A6
:10E3BC0001F04EFA0DF11C090146484601F096FD9C
:10E3CC003449284601F044FA0DF1200A0146504622
:10E3DC0001F08CFD3049284601F03AFA0DF1240B7E
:10E3EC000146584601F082FD2C49284601F030FACE
:10E3FC00014604A801F07AFD2849284601F028FAC4
:10E40C00014605A801F072FD2549284601F020FAC5
:10E41C000146384601F06AFDCDE902A9CDE9007B41
:10E42C00204905AB04AA2046FBF7FBFAFBF78AF957
:10E43C000028FBD1584601F09BFAF060504601F0E1
:10E44C0097FA01383061484601F092FA64307061F5
:10E45C0004A801F08DFAB06005A801F089FA70608B
:10E46C00384601F085FA306086E7804684E700BFC5
:10E47C0080A903006C2C020028190200E818020085
:10E48C00B32E0200762C0200A3330020952C020040
:10E49C00A82C0200FF270200D42B0200AF2502009B
:10E4AC00C0240200AA2C020038B51C491C481D4C83
:10E4BC000022FFF749FB1C4BE41AE408240428B99A
:10E4CC001A4A1B4944F00100FBF78CFA134919480E
:10E4DC000022FFF739FB054638B9174A174944F0B3
:10E4EC000100FBF77FFA284638BD4FF47A70FFF72E
:10E4FC00F7FA0A4912480022FFF726FB054610B925
:10E50C000D4A1049EBE7104A104944F00300FBF7A1
:10E51C0069FAFBF717F90028FBD1E4E780A903009F
:10E52C00D72C020028190200E8180200962E0200CF
:10E53C00E12C0200FD2C0200A72E0200082D020087
:10E54C002F2D02003B2D0200A33300205A2D020078
:10E55C0073B563234FF48062002123488DF8063095
:10E56C008DF8073001F08FFC20492148214C002206
:10E57C00FFF7EAFA204BE41AE4082404054640B9F4
:10E58C001E4A1F4944F00100FBF72CFA284602B042
:10E59C0070BD44F00306144A1A493046FBF722FAC0
:10E5AC00FBF7D0F80028FBD117490F480DF10703F2
:10E5BC000DF1060201F0F8F80228E7D19DF80620CB
:10E5CC00632A0BD052001149C2F171023046FBF79D
:10E5DC0009FAFBF7B7F80028FBD1D7E70C4944F050
:10E5EC000100FBF7FBF9F4E7A333002080A903003B
:10E5FC000126020028190200E8180200452E02002C
:10E60C00672D020048250200852D0200912D020085
:10E61C00AD2D02002DE9F84F364E374D374CDFF853
:10E62C00E090DFF8E0B0DFF8E0A0002333702B704F
:10E63C00364BE41AE408240444F0030844F00104C3
:10E64C002B78042B01D1012047E02B78032B17D812
:10E65C00DFE803F002243C4500272D4889F80070C0
:10E66C003A465146FFF770FA88B12A494046FBF703
:10E67C00B5F9514604203770FEF772FE01232B705A
:10E68C0000F050F8FFF732F8FFF726F8D8E7224AE7
:10E69C0022492046FBF7A6F90223F0E733781BB199
:10E6AC000420FEF7E3FEF7E73378002BE8D199F866
:10E6BC000030002BE4D00420FEF7D8FE594640462B
:10E6CC00FBF78CF9FFF744FF0323D8E714492046E6
:10E6DC00FBF784F9FFF73CFF0020BDE8F88F4FF4FF
:10E6EC007A70FFF7FDF9FEF715FFFFF71BFD04230A
:10E6FC00C5E700BF952200206A17002028190200E8
:10E70C0098230020062E020080A90300E8180200BE
:10E71C00D42D0200DF2D0200392E0200082D02003C
:10E72C001D2E0200704700004FF07F4C90EA010F45
:10E73C003ED4431A3CBFC01AC918BCEB400F78D961
:10E74C001CEA410F2BD0C20DB2EBD153182BC8BF12
:10E75C0070474FF0004C4CEA00204CEA0121C3F109
:10E76C00200C01FA0CFC31FA03F1401832BF013ACB
:10E77C005FEA300040F001005CEA406C04BF10F42A
:10E78C00807F20F08000000A40EBC2504FF0807177
:10E79C0011EB400F38BF7047C00DC00570471CEA25
:10E7AC00400F08BF00F00040704700F00040704779
:10E7BC0081F00041431A3EBF83F00043C01AC918D0
:10E7CC00BCEB400F32D91CEA410F28D0C20DA2EB92
:10E7DC00D1534FF0004C4CEA01214CEA0020C3F11C
:10E7EC00200C11FA0CFC21FA03F118BF41F00101C5
:10E7FC00401A09D417D0130AD2B2B0FA80F188406B
:10E80C00521A11DD02EB0322C0F31621400641EB34
:10E81C00C25038BF704708BF20F0010070471CEA97
:10E82C00400F08BF00207047D8077047BCEB410F62
:10E83C0003D0BCEB400F08BF70474FF0FE4040F4D4
:10E84C004000704730B591EA030F00F18480841AC0
:10E85C0071EB030C05D2121953EB0C03001B71EB7B
:10E86C000C0140F2000CCFF6E07C1CEA430F54D0B4
:10E87C00BCEB410F61D90C0DA4EB135E31EA0C011A
:10E88C0041F4801133EA0C0343F48013DEF1200CC5
:10E89C002AD303FA0CF5401941F1000122FA0EF5C6
:10E8AC00401923FA0EF5694112FA0CF2CD0208D385
:10E8BC0049085FEA30005FEA320228BF42F00102E9
:10E8CC000134013C5FEA500C72F1004250F100003F
:10E8DC0051EB04514FF4001313EB410F38BF30BD13
:10E8EC00090D0905002030BDBEF1200EBEF1200F30
:10E8FC001ED223FA0EF5401941F10001CEF1200C85
:10E90C00124218BF012203FA0CF52A43CEE711EA92
:10E91C005C0F04BF0020002130BD1CEA410F04BF76
:10E92C0001F00041002030BD01F00041002030BD5D
:10E93C0021F4801101EB045130BD004218BF41F0AD
:10E94C000101BCEB410F08BF30BD4FF0FE4141F45B
:10E95C007801002030BD83F00043841A71EB030E64
:10E96C0007D28EF0004E001B71EB0E01121953EB07
:10E97C000E0340F2000CCFF6E07C1CEA430FC6D02D
:10E98C00BCEB410F72D90C0DA4EB135EC90241EA2A
:10E99C005051C00241F00041DB0243EA5253D20213
:10E9AC0043F00043DEF1200C41D312FA0CF522FAAD
:10E9BC000EF203FA0CF542EA050218BF42F001020E
:10E9CC0023FA0EF3801A9941E30AC4F30A0411F0F6
:10E9DC00404F03D418D0013C40004941013C23D4A2
:10E9EC004205C00A40EA4150C90A51EAC3715FEAC4
:10E9FC00500C72F1004250F1000051EB045130BD4B
:10EA0C0001002FD00020203C0029F9D0B1FA81FC64
:10EA1C00DCF1200E11FA0CF130FA0EF510FA0CF0B4
:10EA2C002943A4EB0C04D9E70020D90730BDAEF183
:10EA3C00200EBEF1200F0DD2CEF1200C03FA0CF5F6
:10EA4C0033FA0EF32A4318BF43F00103C01A61F1E5
:10EA5C000001B9E721F00041C00A40EA4150C90A5F
:10EA6C0001EB045130BD0020002130BD004218BF25
:10EA7C0041F00101BCEB410F7FF467AFBCEB430FDE
:10EA8C003FF463AF30BD00BF81F00041FFF74CBED7
:10EA9C0083F00043FFF7D6BE4FF0FF0C1CEAD052B8
:10EAAC001EBF1CEAD153FF2AFF2B28D01A444FF06B
:10EABC00004C90EA010313EA0C034CEA01214CEAE6
:10EACC000020A0FB01C1B1F1004F62F17F0238BF01
