:020000021000EC
:1090000000600020A59301005D9301005F930100C3
:10901000619301006393010065930100000000006B
:109020000000000000000000000000006793010045
:1090300069930100000000006B9301006D93010033
:1090400095B101006F93010055B3010055C20100B5
:109050006F930100000000001DB2010049BD010036
:109060006F9301006F9301006F9301006F930100F4
:109070006F9301006F9301006F9301006F930100E4
:10908000EDBC0100119F01006F9301006F9301007F
:10909000AD9F01006F93010015CE01006F93010099
:1090A0006F9301006F9301000000000000000000BA
:1090B0006F9301006F9301000000000000000000AA
:1090C00000000000000000000000000000000000A0
:1090D0000000000000000000000000000000000090
:1090E0000000000000000000000000000000000080
:1090F0000000000000000000000000000000000070
:10910000000000000000000000000000000000005F
:10911000000000000000000000000000000000004F
:10912000000000000000000000000000000000003F
:10913000000000000000000000000000000000002F
:10914000000000000000000000000000000000001F
:10915000000000000000000000000000000000000F
:1091600000000000000000000000000000000000FF
:1091700000000000000000000000000000000000EF
:1091800000000000000000000000000000000000DF
:1091900000000000000000000000000000000000CF
:1091A00000000000000000000000000000000000BF
:1091B00000000000000000000000000000000000AF
:1091C000000000000000000000000000000000009F
:1091D000000000000000000000000000000000008F
:1091E000000000000000000000000000000000007F
:1091F000000000000000000000000000000000006F
:10920000354936480A1A02D0072291438D4634491F
:1092100034480A1A06D00722914381F309880222B2
:1092200082F3148830483149314A00F044F831481B
:109230003149324A00F03FF831483249324A00F0B1
:109240003AF832483249334A00F035F83248334967
:10925000334A00F030F833483349344A00F02BF8F1
:1092600033483449344A00F026F83448344900225F
:1092700000F02CF833483449002200F027F8334836
:109280003349091A082902DB002202604160314A91
:1092900090471F481F49884205D00268043003B434
:1092A000904703BCF7E700208646EC4600200021EB
:1092B000294A9047FEE7884207D0521A05D0037822
:1092C00001300B700131013AF9D17047884202D068
:1092D00002700130FAE7704700600020005800205B
:1092E00000600020006000206803020010120020CF
:1092F00074120020EC930100EC930100E0F20100F5
:1093000068030200101200201012002094F30100E4
:1093100094F3010094F3010094F3010094F301002D
:1093200094F3010094F3010094F301006803020038
:10933000CC0302007412002074120020741200206A
:10934000B0330020B0330020B4330020B433002009
:10935000B43B0020BB930100D1C30100FEE7FEE750
:10936000FEE7FEE7FEE7FEE7FEE7FEE7FEE7FEE7D5
:1093700009480068094909680A280AD1002908D162
:10938000074802686FF070031A404FF040031A4319
:10939000026000F009B80000300100103401001034
:1093A000E40E0040FFF7E4BF0B484FF0070188438D
:1093B00085460A488047FFF723BF094809490A4AFA
:1093C000884207D0521A05D0037801300B70013162
:1093D000013AF9D170470000006000207DAD010026
:0C93E00094F30100101200201012002075
:1093EC0000487047A83300207047000007B5044BB5
:1093FC000093044A402300F032F803B05DF804FBFC
:10940C0015940100751200202DE9F8438846144686
:10941C00B2B10F4B0F4E0325002743F00109224632
:10942C0008EB0701002003F08FF90744241A48B910
:10943C0033782BB14FF47A40C847013D02D13570D7
:10944C00BDE8F88301233370002CE8D1F8E700BFA6
:10945C00A0F3010074120020704703F0A5B9F0B519
:10946C0095B008460C4616461D4601F0C3FA1A9AEA
:10947C000D920023082205A920460A938DF82C3062
:10948C000C93CDE9086501F0D1FA079B0293069B7A
:10949C00039301238DF811309DF8143003F003026F
:1094AC00012A1DD1BDF81420059DC3F3C203C2F3DC
:1094BC0083168DF81030B20008230EA9204601F057
:1094CC00B5FAC5F3952508AB0093324602AB0EA94D
:1094DC00284600F0A3FB204601F090FA15B0F0BD31
:1094EC00022AF8D1BDF81650C3F3C203C5F389158F
:1094FC008DF810300827082D2E4628BF08263B462D
:10950C0032460EA9204601F091FAAD1B08AB02AA17
:10951C0031460EA8374400F0E5FB002DEBD1DAE71D
:10952C0008B5FFF79AFF0448042100F0E7FA034B53
:10953C0001225A7108BD00BF84F3010010120020F3
:10954C000378024613F0040006D003F00300012850
:10955C0003D0022809D0012070470B68128802330F
:10956C00C2F3831213440B6070470B6852880233AA
:10957C0003EB92130B60EEE72DE9F04FDFF81CA123
:10958C0087B00F4600230446861C0DF107001546D4
:10959C008DF8073000F000FFDAF804203A60DAF8B2
:1095AC00083003F580739B1A0AF21C470AF583698D
:1095BC000AF21448B3421AD30020002D69D004F0EB
:1095CC000F039B0143F0050363F30F00DAF804303B
:1095DC00DAB2033233444AF822009DF80700CAF885
:1095EC00043000F0FDFE012007B0BDE8F08F012132
:1095FC00384600F02EFF484600F043FF404600F08E
:10960C0040FFDAF808000290C0B203300AEB800089
:10961C0002A9FFF795FF029B30BBDAB20AEB82027C
:10962C00D16803919A1C0133DBB20AEB83030292DB
:10963C00D3F80CB001F00303012B22D0022B15D070
:10964C008346404600F020FF10B1029BCAF8083058
:10965C005946384600F0FDFEDAF80830DAF80420F6
:10966C0003F580739B1AA5E7D8B2CEE7BDF80E3090
:10967C00C3F3891303334FEA1B4B02EB930302939F
:10968C00DFE7BDF80C30C3F383134FEA1B4B1344D5
:10969C00F5E7A40544F0060098E700BF8813002006
:1096AC00064B074810B500221A7001F05CF904460D
:1096BC0010B9044801F0E8F9204610BD88130020C9
:1096CC0000F30100DCF3010030B50A4C71B10A4A19
:1096DC000A49121BD20800239A4201D1002030BD46
:1096EC0031F82350854202D00133F5E7034654F894
:1096FC003300F4E714F3010084F30100101200208E
:10970C00094B013903EBC000032909D8DFE801F04C
:10971C000A020406042070470079704740797047AC
:10972C00002070470220704714F3010070470000BE
:10973C00034BD3E90130C31A58425841704700BF5C
:10974C00881300202DE9F04186B0FFF7F1FF0546A4
:10975C00002840F0ED80774CC4F81804BFF34F8F0D
:10976C00A3680293DBB2033304EB830002A9FFF777
:10977C00E7FE029B18B1D4F81824002A5AD0DAB2AA
:10978C00991C013304EB8202DBB204EB8303D26835
:10979C00DB68049302F00303022B0392029154D171
:1097AC00BDF80E306448C3F38917502F3E4628BFCE
:1097BC00502606F1080166F38F13C1F30901ADF8C9
:1097CC000E3001F0E8F80546002800F09C8001F00E
:1097DC0011F90023082203A9284601F01DF902996A
:1097EC00CB43DBB20133C9B20331B6EB830F4FEA83
:1097FC00830204EB810125D95FFA82F80823A6EBDA
:10980C000806284601F008F9F6B208F108034B499E
:10981C0003F0FC033246284601F0FEF8029B0337A6
:10982C0003EB97070297D4F81834002B43D1D4F8E4
:10983C00106453E062689A4294D8A260284606B03D
:10984C00BDE8F08108233246E5E7012B5BD1BDF87A
:10985C000C303948C3F38311062928BF062161F364
:10986C008913023101F00F018900ADF80C3001F0C1
:10987C0092F80546002846D001F0BCF800230822D7
:10988C0003A9284601F0C8F80026BDF80C20C2F345
:10989C008312B300964203F10803C4D202994A1C06
:1098AC00C9B20331029204EB81010422284601F073
:1098BC00B3F80136E9E7284601F0A0F8FFF738FFC6
:1098CC0080F00105EDB2B9E7F3685B7923B1336839
:1098DC0029461B6830469847F3681E68002EF3D162
:1098EC00284601F08BF80DF107008DF8076000F0A9
:1098FC0053FDD4F818340BB9029BA3609DF80700F4
:10990C0000F06EFDDAE7D4F8104454B90C4B0D4856
:10991C000D49C01AC008000440F0020000F05EF8C7
:10992C00CCE7236820469B689847E3681C68ECE703
:10993C00002583E78813002000F301009413002016
:10994C0014F3010054F30100C4F301002DE9F347B3
:10995C0004460E46924601A9012218469946FFF785
:10996C000BFE1C4F10B3019D4FF00008AA1CC845FC
:10997C0008EB020125D11848002100F047FD80F3C7
:10998C001000000440EA1440E4006B1C04F038049E
:10999C00DBB2EDB244F0010407EB8303033544EA78
:1099AC00881444EA8624D86047F825403B781BB1DC
:1099BC00FFF7C8FE0028FBD1FFF7B8FE02B0BDE8E8
:1099CC00F087C9B207EB81015AF82830CB6008F157
:1099DC000108CCE788130020A417002000231A46A6
:1099EC00FFF7B4BF07B50123019201AAFFF7AEFF41
:1099FC0003B05DF804FB07B5CDE9002302236A46EA
:109A0C00FFF7A4FF03B05DF804FB1FB5CDE90123FC
:109A1C00069B039301AA0323FFF798FF05B05DF89B
:109A2C0004FB7FB5CDE90023089B0293099B0393AC
:109A3C000A9B04930B9B05936A460623FFF786FF4C
:109A4C0007B05DF804FB00002DE9F7430446D01C79
:109A5C008846164601A900228008FFF78DFD254D8A
:109A6C0080B3019FB81C0190C0B2C0F58073B6EBF7
:109A7C00830F00F103004FEA830905EB800028D81F
:109A8C003246414604F072FB1B48002100F0BEFC3C
:109A9C0080F310027B1CDBB2FFB205EB8303200CBE
:109AAC00033740EA0240E400D86004F0380455F86B
:109ABC00273044F0020444EA865203F47C131A4320
:109ACC0045F827202B787BB9FFF730FE03B0BDE8B3
:109ADC00F0834A46414604F049FBA6EB090208EB29
:109AEC00090105F10C00CDE7FFF72CFE0028FBD196
:109AFC00EAE700BF88130020A417002030B50F4CF4
:109B0C00D4F8102403460020114631B9D9680871E5
:109B1C004AB9C4F810340A6030BDC9680D79854261
:109B2C0006D00968F1E7D26814680C601360F3E79B
:109B3C0001300A28E8D14FF0FF30EDE78813002000
:109B4C0038B5084B0125D3F810441D7004B938BD45
:109B5C00E3685D71236820465B689847E3681C687E
:109B6C00F4E700BF88130020C38873B504460D4684
:109B7C0033B1144A00921449144A284600F0E7FC09
:109B8C00217A05291CD0637A4BB1A088FFF7B8FD68
:109B9C000F4B104953F82020284600F0D8FC227AAD
:109BAC000D4BA08853F822600021FFF78DFD0B4967
:109BBC0003463246284602B0BDE8704000F0C7BCF0
:109BCC0002B070BD21FF0100F0F30100E8F30100C9
:109BDC0070F4010008F4010094F401000BF401008E
:109BEC0010B5037A052B0C460FD0437A23B1084AE3
:109BFC000849204600F0ABFC0749204600F0A7FCC2
:109C0C002046BDE8104000F097BC002AF8D0F3E7DE
:109C1C0021FF010008F4010005F401002DE9F043D7
:109C2C0085B01F460C9D002395F80C902B730646AF
:109C3C000C46904629463846FFF796FFB8F1060FBA
:109C4C0009D8DFE808F00412181F28334000314609
:109C5C00284600F07CFC002229463846FFF7C0FF5E
:109C6C0085F80C9005B0BDE8F08322683146284693
:109C7C0000F06DFCEFE7D4E900233146284600F0F4
:109C8C0066FCE8E7A36800933146D4E90023284634
:109C9C0000F05DFCDFE7E3680193A36800933146B5
:109CAC00D4E90023284600F052FCD4E72369029340
:109CBC00E3680193A36800933146D4E90023284656
:109CCC0000F045FCC7E76369039323690293E368DB
:109CDC000193A36800933146D4E90023284600F091
:109CEC0036FCB8E708292DE9F74F80460E46174693
:109CFC001C463DD800251B7B25732146104601933D
:109D0C00FFF732FFDFF888A0DFF888B0AE4232D917
:109D1C0018F805205946204600F019FC0135082D8D
:109D2C00F4D11D49DFF874A0DFF874B0204600F0C0
:109D3C000EFC4FF000094E4524D918F809507E2D21
:109D4C001ED8284604F0B8F9002814BF2A462E2243
:109D5C005946204600F0FBFB09F10109B9F1080F47
:109D6C00E9D1012221463846FFF73AFF019B2373C4
:109D7C0003B0BDE8F08F5146204600F0E8FBCDE77C
:109D8C002E22E5E75146204600F0E1FBE4E700BF58
:109D9C001BF4010015F401001FF401001DF4010077
:109DAC0021F401001FB50021039001AA44F2010027
:109DBC00CDE9011100F004F805B05DF804FB0000DA
:109DCC0038B572B6FFF7BCFEFFF7BCFC0028FBD120
:109DDC00104B114C114D1249E41AE408240444F0C0
:109DEC000100FFF7FBFDD5F8F030DB0700D500BE16
:109DFC000C4944F00200FFF7F1FDBFF34F8FEA6806
:109E0C00094B02F4E0621343EB60BFF34F8F00BFCA
:109E1C00FDE700BF14F3010054F3010000ED00E076
:109E2C00A8F40100B4F401000400FA05094B5A78B7
:109E3C0099780132D2B2914208BF0022197891422E
:109E4C001FBF02705878182202FB003014BF043078
:109E5C00002070474018002073B5054600240DF112
:109E6C0007000E468DF8074000F096FA0DF106003B
:109E7C00FFF7DCFF90B10670094B9DF8062045609A
:109E8C005A709DF8070000F0ABFA24B9054B4FF45B
:109E9C008012C3F80021204602B070BD0424F0E704
:109EAC004018002000E100E0024B4FF43C6043F00E
:109EBC0001031847D0F4010038B50E4B4FF40032B3
:109ECC00C3F88020BFF34F8FBFF36F8F0A4C4FF452
:109EDC0080330125C4F84833C4F808336560FFF7B4
:109EEC00E3FF064BA56000241C60FFF7DDFF044B6D
:109EFC001C7038BD00E100E0001001405C1900202E
:109F0C004D190020F8B51F4B1F491B680025C1F8DF
:109F1C004051C1F84451C1F84851C1F84C51C1F8F5
:109F2C000051C1F804514BB3D1F8044517490968E5
:109F3C00641A24F07F442F461A68A24209D8A41A46
:109F4C0015441A7CDE691AB1D3E905201F749047B9
:109F5C00AEB90F4A0F4B11781B788B4205D10133E8
:109F6C00DBB2022B08BF0023137012780A4B43F8A4
:109F7C0022500A4B4FF48012C3F80021F8BD33462F
:109F8C00DAE700BF60190020001001405C190020C6
:109F9C0059190020581900205019002000E100E048
:109FAC002DE9F04FA14AA24913780978A14D9942A5
:109FBC0085B03CD00133DBB2022B08BF00231370F9
:109FCC009D4912789D4B0F6853F822003B1823F0E3
:109FDC007F4300220B602B6816461446944613B937
:109FEC0042B12B6006E0196881420ED902B12B6098
:109FFC00091A196001272B68DFF844A201934FF06E
:10A00C000008BEB9DFF83CB260E0401A0C44D968D5
:10A01C00D3F81CE0C3F800C031B13A1922F07F42EA
:10A02C00C3E90121DE611E4673460122D7E70026F3
:10A03C003746E0E73446F6697F4B60681B68DFF80B
:10A04C0008C2A168C21A22F07F42624500F2A680C3
:10A05C000A442260012222742A680023C4E90133D5
:10A06C00E361002A40F0A3802C60CAE79BF8021041
:10A07C005A1CD2B291428BF8002004BF00228BF8FC
:10A08C000020182202FB03B32A6819799C68022964
:10A09C0075D003297FD0012918D1207CB0B9D3E920
:10A0AC000312A2605A69E2609A69684BA2611A783D
:10A0BC00002A18BF01466160BEE78C4200F0948014
:10A0CC008946C9690029F8D1002323749BF8003014
:10A0DC009BF801209A42C9D12B68B8F1000F04D12A
:10A0EC00019A9A4201D1002F43D0002B79D0D3F89A
:10A0FC0000A0534D504BD5F804751C68DFF8508107
:10A10C003E1B98F8003026F07F4603369BB94FF47F
:10A11C008033C5F84433C5F804334E4B4FF400324A
:10A12C00C3F880211A604FF00109C5F80090FFF7C1
:10A13C00BBFE88F80090B2452CBF5444A41924F0FF
:10A14C007F44C5F84045D5F80435DB1B23F07F432D
:10A15C00E41B033324F07F44A3420AD9D5F8043519
:10A16C00C5F84035FFF7A0FE3A4B4FF40032C3F868
:10A17C000021364B00221A7005B0BDE8F08F114655
:10A18C0091469FE71174D2690123002AFAD1002B62
:10A19C009CD02A609AE700231946F6E71B1A23F095
:10A1AC007F438B4234BFCB1A0023236052E72168D4
:10A1BC001368994213D85B1A1360E26154E7091AC9
:10A1CC00D8691A4638B1034618688842F7D3401A42
:10A1DC001860184613462160E061DC6111E71346F4
:10A1EC00F2E7FFF769FEC4E74C4511D1D3692B6048
:10A1FC0073B9DFF844E00120CDE90212CAF8080077
:10A20C00CEF80030114B1870FFF74EFEDDE902124C
:10A21C000B68C969C9F81C1011B1086803440B60BC
:10A22C002B68934218BF4FF001084DE758190020D6
:10A23C0059190020601900205C19002050190020C9
:10A24C000010014040180020FEFF7F004C19002038
:10A25C004D19002000E100E010B5FFF72DFE114B69
:10A26C0000200B2218809A700F4B18600F4B18703F
:10A27C000F4B18700F4B4FF48012C021C3F8802184
:10A28C0083F814131A6002F18042A2F56F221F2486
:10A29C00C2F8084583F81113074BD2F804251A604D
:10A2AC0010BD00BF40180020601900205819002074
:10A2BC005919002000E100E05C190020074B9B7845
:10A2CC004BB132B128B10368187C20B959745A616A
:10A2DC007047072070470820704700BF40180020C7
:10A2EC002DE9F743DFF8808098F8023005460E46DA
:10A2FC001746BBB3B0B31D4B4A1F9A4230D84369C3
:10A30C0083B3437C0024012B0DF107000CBF89465D
:10A31C00A1468DF8074000F03FF80DF10600FFF75D
:10A32C0085FDD8B101230370114B4560D3F804357A
:10A33C00C0E90497C0E902369DF8063088F8013070
:10A34C009DF8070000F04CF824B90A4B4FF480122A
:10A35C00C3F80021204603B0BDE8F0830424EFE7E6
:10A36C000724F7E70824F5E740180020FAFFFF0060
:10A37C000010014000E100E0064A92783AB130B199
:10A38C00426922B1002202740221FFF765BD082048
:10A39C00704700BF4018002070B5EFF3108672B6FE
:10A3AC000C4A946801239CB993600B4B0B4DD3F86A
:10A3BC00801029401160C3F88050D3F8841051608C
:10A3CC004FF0FF32C3F88420047006B962B670BD3A
:10A3DC000370FAE76419002000E100E0FC06FFBD01
:10A3EC00084B9A6810B55AB150B9EFF3108172B698
:10A3FC00054A1C6814605C685460986001B962B6C8
:10A40C0010BD00BF6419002000E100E010B5034648
:10A41C0053E8000F0A4643E8002494F0000FF7D1EC
:10A42C0010BD10B5034653E8002F42EA010043E883
:10A43C00000494F0000FF6D110BD10B5034653E89C
:10A44C00000F00EA010243E8002494F0000FF6D15B
:10A45C0010BD10B5034653E8002F02EB010043E892
:10A46C00000494F0000FF6D110BD10B5034653E86C
:10A47C00002FA2EB010043E8000494F0000FF6D18A
:10A48C0010BD0121FFF7CDBF0021FFF7D6BF10B5DE
:10A49C0090B1D0E9012301689B1ADBB20A60013B41
:10A4AC00DBB2FF2B026802D10020107110BD1168C5
:10A4BC004C1C14600B70F2E70E20F7E737B505461D
:10A4CC0000240DF107008DF80740FFF765FF2A689F
:10A4DC006B68116899420ED9481E106011F8013C46
:10A4EC00EC68298A01FB0344AB6811791B1ADBB2B7
:10A4FC00994238BF13719DF80700FFF771FF204692
:10A50C0003B030BD37B5054600230DF107000C46EE
:10A51C008DF80730FFF740FF2A681368591C11604B
:10A52C00E968641A298AB4FBF1F41C709DF80700E1
:10A53C00FFF756FF03B030BD826810B504462AB150
:10A54C0043690168006998470023A36010BD0EB4ED
:10A55C0003B5039921B104AB01AA019300F076F87D
:10A56C0002B05DF804EB03B070470A2938B5044615
:10A57C000D4602D10D21FFF7F8FFA3682268591C84
:10A58C00A160D554D4E901329A4204D32046BDE8E7
:10A59C003840FFF7D1BF38BD2DE9F84F9846DDE9BB
:10A5AC000A43154682460F460A464FF00109AA4255
:10A5BC000FD2C14538BFC14613F0010B01D16CB9A4
:10A5CC0000240126B8F1010F1BD908F1FF386E43A6
:10A5DC00F8E709F10109B2FBF5F2E8E79B070ED5A4
:10A5EC00B8F1000F0CBF30262026A145E9D2013C62
:10A5FC0031465046FFF7B9FF002CF6D1E0E7202694
:10A60C00F3E7B7FBF6F39D42E1D9DFF83C80B7FBEB
:10A61C00F6F3504618F8031006FB1377FFF7A5FF67
:10A62C003346AB42B6FBF5F6F1D2BBF1000F02D0CC
:10A63C000CB1A14501D3BDE8F88F20215046013C57
:10A64C00FFF793FFF4E700BFD6F401002DE9F74FB5
:10A65C00054617468846002900F03E8118F8011B74
:10A66C0049B92B7B002B00F03781284603B0BDE89D
:10A67C00F04FFFF761BF252940F0B780002698F80E
:10A68C0000302D2B424608F1010823D0302B24D06A
:10A69C002B2B25D000242A2B02F1010123D13B685E
:10A6AC001A1D1B683A601C440A4613782E2B26D1BF
:10A6BC0001324FF0000A104610F8011BA1F1300CCA
:10A6CC00BCF1090F1DD80A2303FB0A13A3F1300AAE
:10A6DC000246F0E746F00106D1E746F00206CEE767
:10A6EC0046F00406CBE711F8013CA3F13000092831
:10A6FC00DBD80A2202FB0434303C0A46CBE74FF08D
:10A70C00000A12F8011B01F0FB0068289046F8D0F3
:10A71C00782909D86F290CD8632962D022D8252929
:10A72C0063D0582900F0888098F80030002B95D120
:10A73C0097E770390829F7D801A353F821F000BF27
:10A74C00BFA8010035A7010035A7010055A80100DD
:10A75C0035A7010033A8010035A7010035A701007A
:10A76C0045A80100642901D06929DDD13A68D2F8E5
:10A77C000090111D89EAE9723960A2EBE9724FF081
:10A78C00010B092A35DCD34538BFD3462CB1B9F1BE
:10A79C00000F01DB720700D5013CB30702D5BAF1FB
:10A7AC00000F03D0F00701D44CBB0024B9F1000F0B
:10A7BC002DDAC9F100092D212846FFF7D6FE06F047
:10A7CC000302022A04D1BAF1000F01D11CBB0024F0
:10A7DC00CDE9004653460A2249462846FFF7DCFEDF
:10A7EC00A2E73B681A1D19783A602846FFF7BDFEB0
:10A7FC009AE70A230BF1010BB2FBF3F2C1E7A34575
:10A80C00D4D220212846013CFFF7AFFECCE77107DC
:10A81C00D5D52B21D0E7A345DAD230212846013CEF
:10A82C00FFF7A3FED2E73968CDE900460A1D3A606E
:10A83C0053460A220968D0E739680A1D3A60CDE907
:10A84C00004653461022F5E73B681A1D3A6016F095
:10A85C000106D3F8009024D1B9F1000F03D048467B
:10A86C0003F002FD0646B4421DD809F1FF3919F870
:10A87C00011F00293FF458AF2846FFF776FEF6E794
:10A88C0028460136FFF771FE19F806100029F7D19A
:10A89C00A642BFF449AF20212846013CFFF765FED4
:10A8AC00F6E70026F0E720212846013CFFF75DFE85
:10A8BC00D9E73B681A1D3A60302128461C68FFF71F
:10A8CC0054FE78212846FFF750FE00220823CDE9DC
:10A8DC0000322146102280E703B0BDE8F08F00BFA4
:10A8EC002DE9F84FB0F806A04579D2F800B09DF8E4
:10A8FC0028900AFB05F5043D88460BEB0301A942A1
:10A90C0003F1040488BFA5EB030BB4FBFAF607466E
:10A91C000AFB1644C2F800B04EB9AAEB04055D451B
:10A92C0028BF5D46BBF1000F04D1BDE8F88F3F682E
:10A93C00013EF1E7043408EB06003C442A46B9F129
:10A94C00000F0DD02146ABEB050B03F00FFCDA45E5
:10A95C002E443F6855464FF0000428BF5D46E1E7A2
:10A96C0001462046EFE7FFF792BDF8B54679014660
:10A97C00721E0546002393422D6803D30024A64281
:10A98C0002D8F8BD0133F6E70F682846FFF7BAFD89
:10A99C0001343946F3E72DE9F843068ACD1C074606
:10A9AC00FFF78CFD043E35440446B5FBF6F5F0B1DB
:10A9BC004FF48073EDB28380C680013D0760814601
:10A9CC004FF00008A84512D23846FFF777FD06462F
:10A9DC0048B163790133637108F10108C9F80000CB
:10A9EC0007608146EEE72046FFF7BFFF344620465E
:10A9FC00BDE8F88301210430FFF72BBD10B5012110
:10AA0C0004460430FFF731FDC0B220B92046BDE842
:10AA1C001040FFF7AABF10BD1FB503920022009291
:10AA2C0003AAFFF75DFF05B05DF804FB1FB50392A9
:10AA3C000122009203AAFFF753FF05B05DF804FB57
:10AA4C0041DF7047064B10B500241C70054B1C6091
:10AA5C00BFF35F8F0449054800F01FF8204610BD76
:10AA6C00781900207C190020F0F4010070190020E6
:10AA7C0008B502F0AFF918B1BDE80840FFF7E0BF28
:10AA8C0020BF40BF20BF08BD836800225A60C3E9C5
:10AA9C0004229A60DA601A6070470B684A68436057
:10AAAC00934208BF0023016008BF436070474368AE
:10AABC0043B10268916852680B449342436004BFEF
:10AACC00002343607047000010B50D49A1F5947246
:10AADC00914201D800200FE08C1AE30F03EBE40342
:10AAEC005B1002EBC30452F83330834205D802D218
:10AAFC0004F10802ECE7606810BD2146E8E700BFEE
:10AB0C00F4F9010008B5FFF7DFFF024B002808BF7E
:10AB1C00184608BDB6F801000648074A03780749ED
:10AB2C00D35C012213B1043001F06EB80C3000F08C
:10AB3C0031BE00BF18120020C8190020A81900202F
:10AB4C000648074A03780749D35C012213B1043045
:10AB5C0001F00CB80C3000F0CDBD00BF1812002075
:10AB6C00C8190020A919002037B50578012D0DD082
:10AB7C00022D30D075B91F491F4800F0D6F80028B7
:10AB8C0034D103B0BDE83040FFF7DABF037A1BB90C
:10AB9C00FFF7C2FF03B030BD4368184C197820464C
:10ABAC0000F0B1F880B18DF800500190144B68465C
:10ABBC001B689847A168E368A2885B1A9A42E7D29F
:10ABCC00104B01221A70E5E7A268E3689A42F1D0B3
:10ABDC008DF80000EAE7C3688DF800500193FFF789
:10ABEC009BFF074B68461B689847D3E703238DF8F8
:10ABFC000030F6E7A91900209819002084190020CC
:10AC0C008019002094190020F0B51F46234B89B001
:10AC1C0004461A600D4600293DD08A8820480968F0
:10AC2C0000F060F8002834D1AA89A9681D4800F00A
:10AC3C0059F800282DD11C4E0FCE6D460FC596E845
:10AC4C000F0085E80F0063690693237C174A1848A8
:10AC5C008DF81C70003B18BF01238DF81430637CF9
:10AC6C00002B14BF0E2300238DF81530E3680293DC
:10AC7C00A36803932368019369466368009300F00B
:10AC8C000BFA30B90B4B18702368013301D0FFF766
:10AC9C0043FF09B0F0BD0720FBE700BF801900207F
:10ACAC008419002098190020F4F9010075AB0100FB
:10ACBC00181200209419002070B5084D0146084860
:10ACCC002E7800F032F8044636B100232B70FFF7D3
:10ACDC0023FF08B1FFF766F8204670BD94190020D9
:10ACEC008419002010B5034649B152B1541E14EA20
:10ACFC00020006D1986019609C80D86010BD0E20AF
:10AD0C00FCE70920FAE710B58468C2688388121B37
:10AD1C00934208D3C26813400268D154C36801330C
:10AD2C00C360002010BD0420FCE78268C3689A420F
:10AD3C000AD08268838813400268D35C0B708368E6
:10AD4C000133836000207047052070474FF080531B
:10AD5C00D3F83001A0F10A03584258417047000063
:10AD6C00024AD2F80034002BFBD0704700E00140BF
:10AD7C0010B5FFF7EBFF48B14FF080534FF0804216
:10AD8C00D3F84432C3F34233C2F83C35FFF7DEFF4D
:10AD9C0040B14FF080430022C3F80C21C3F81021BE
:10ADAC00C3F83825FFF7D2FF002846D04FF0805269
:10ADBC00494BD2F80414C3F82015D2F80814C3F880
:10ADCC002415D2F80C14C3F82815D2F81014C3F8B3
:10ADDC002C15D2F81414C3F83015D2F81814C3F883
:10ADEC003415D2F81C14C3F84015D2F82014C3F84B
:10ADFC004415D2F82414C3F84815D2F82814C3F813
:10AE0C004C15D2F82C14C3F85015D2F83014C3F8E2
:10AE1C005415D2F83414C3F86015D2F83814C3F8AA
:10AE2C006415D2F83C14C3F86815D2F84014C3F872
:10AE3C006C15D2F84424C3F87025FFF787FF48B18E
:10AE4C004FF08043D3F80024D20744BF6FF00102C7
:10AE5C00C3F800244FF08053D3F830210A2A0AD1CA
:10AE6C00D3F834313BB14FF08042D2F8E43E43F09A
:10AE7C000F03C2F8E43E4FF01023D3F80022002A4F
:10AE8C0003DBD3F80432002B22DA144901234FF0F0
:10AE9C001020C1F804351524FFF762FFC0F80042FA
:10AEAC00FFF75EFFC0F80442FFF75AFF0023C1F81A
:10AEBC000435FFF755FFBFF34F8F0949094BCA689B
:10AECC0002F4E0621343CB60BFF34F8F00BFFDE78A
:10AEDC00054B064A1A6010BD00C0004000E001405E
:10AEEC0000ED00E00400FA052C1200200090D003C5
:10AEFC0038B5074C051E04F1080318BF1C4623681F
:10AF0C002BB11A6822605B6828469847F7E738BD72
:10AF1C00B419002020B9054B01225A70FFF7E8BF85
:10AF2C00012802D1014A9070F8E77047AC19002053
:10AF3C0020B9034B01225A70FFF7DABF704700BFEC
:10AF4C00AC19002038B50E4C2378B3B90D486360AA
:10AF5C00A3602361E36000F0E7F8054601F03AFFD7
:10AF6C0008B900F0EDF801232370074BD3F8003437
:10AF7C000BB10123A370284638BD8525F5E700BF2A
:10AF8C00AC19002021AF01000000014037B50D4C79
:10AF9C0000230DF107008DF80730FFF7FDF9E3688A
:10AFAC00013BE360E36833B9074BD3F8005415B9A0
:10AFBC0000F0D8F8A5709DF80700FFF711FA03B060
:10AFCC0030BD00BFAC19002000000140012813B5B2
:10AFDC000CD0032820D038B9134B0122C3F88020A1
:10AFEC00BFF34F8FBFF36F8F02B010BD0F4C002318
:10AFFC000DF107008DF80730FFF7CEF923780BB968
:10B00C00FFF7A0FFE3689DF807000133E36001231D
:10B01C00A370FFF7E5F9E7E700F092F802B0BDE89E
:10B02C001040FFF7B3BF00BF00E100E0AC190020F7
:10B03C001FB503788DF800304368019383688DF851
:10B04C000830C368054A0393054B684653F8213012
:10B05C0052F82110984705B05DF804FBC019002088
:10B06C00C41900201FB503788DF800304368019394
:10B07C0083688DF80830C368054A0393054B68460E
:10B08C0053F8213052F82110984705B05DF804FBB5
:10B09C00C0190020C4190020F0B5194B90F800C05D
:10B0AC0091F81DE043F82C20164B16460A6943F81C
:10B0BC002C20154B03F80CE00C4607460FCC89B03E
:10B0CC006D460FC594E80F0085E80F00CDF810C051
:10B0DC00BEF1000F09D0002E0C4A694608BF32465B
:10B0EC00381D00F075FC09B0F0BD002E084A694609
:10B0FC0008BF324607F10C0000F03CFAF3E700BF42
:10B10C00C4190020C0190020C81900203DB001004E
:10B11C0071B0010000F18040002382B0036003682D
:10B12C000193019B02B07047044B0246187918B981
:10B13C001A6001229A80704785207047CC19002034
:10B14C00074B1A68D20704D4C02283F800230122CB
:10B15C001A604FF080430122C3F81825704700BFD6
:10B16C0000E100E04FF0804208B50223C2F808333A
:10B17C004FF48270FFF7CEFF0123D360D2F818345E
:10B18C00DB03FBD408BD00004FF0804110B5D1F8B3
:10B19C00003163B14FF48070FFF7BCFF0D4B587951
:10B1AC000122C1F8082310B95A711B6898474FF057
:10B1BC008042D2F8043163B14FF48270FFF7AAFFDA
:10B1CC000223C2F80833034BBDE810401B68012072
:10B1DC00184710BDCC19002000F1804000F5C0408C
:10B1EC00002382B0036003680193019B02B0704797
:10B1FC00800000F1A040D0F8002722F44032C0F8C3
:10B20C000027D0F8003743EA0143C0F800377047F5
:10B21C002DE9F74300244A4D01944FF4807201212B
:10B22C0002F1804303F5C04390B21B68012B06D199
:10B23C00D5F804330B4202D0FFF7CEFF0C43043297
:10B24C00B2F5907F4FEA4101EAD13D4BD3F87C3106
:10B25C00012B0CD14FF4BE70FFF7BEFF4FF0A04393
:10B26C0044F00044D3F820250192C3F82025E3B222
:10B27C00D3B1344F00250126344210D0AB0003F17A
:10B28C00804303F5C043D3F81005D3F8101557F8D5
:10B29C00253023B1C1F30141C0F304209847013597
:10B2AC00082D4FEA4606E7D1002C1FDADFF8949000
:10B2BC004FF0A04799F944305A1C10D0C3F3C20286
:10B2CC0008326A44DCB212F8042C03F03F054FF04C
:10B2DC00010803F0070308FA03F31A4209D1D7F85F
:10B2EC0020350193C7F82035002BE3D103B0BDE81E
:10B2FC00F08305F5E073284657F82360C6F3014642
:10B30C00022E0CBF03210221FFF772FF08FA05F38E
:10B31C00C7F8203509EB050393F9243059F823308D
:10B32C00002BDCD0A109032903D0022E04D1012962
:10B33C00D5D128469847D2E7032ED0D10229F7E77A
:10B34C0000600040D4190020014B1B68184700BF57
:10B35C00201A00200E4B984237B50C4602D0002024
:10B36C0003B030BD00230DF107008DF80730FFF757
:10B37C0013F8084B1D7915B901221C601A719DF840
:10B38C000700FFF72DF8002DE9D01120E8E700BFEA
:10B39C0000200040201A00200023435082B0435864
:10B3AC000193019B02B070470A4610B54FF48E71A1
:10B3BC00FFF7F2FF136A9168C95C136A01331362D9
:10B3CC00C0F81C1510BD024608B500684FF4927108
:10B3DC00FFF7E2FF10684FF48471FFF7DDFF13688D
:10B3EC0001221A6008BD8B690A4610B54FF48471AE
:10B3FC0023B9FFF7D1FFD0F8183510BDFFF7CCFFFC
:10B40C00536AD168D0F81805C854536A0133536293
:10B41C00F3E700001FB501238DF80030044BCDE994
:10B42C000110D3E900126846904705B05DF804FBA3
:10B43C00281A002030B54D4DD5F804339A0585B047
:10B44C0051D5D5F82431002B4DD04FF492712846AC
:10B45C00FFF7A2FF4FF40173C5F80833444B93F880
:10B46C0029200AB901226A60404902228DF8002085
:10B47C00D1F88024C1F8802403929A690292DA6888
:10B48C0001920022C3E906226846D3E900129047D4
:10B49C003648D0F81C315BB1354A5169136A994270
:10B4AC004DD992F82830002B49D11146FFF77CFF7B
:10B4BC002E48D0F84431002B56D04FF4A271FFF730
:10B4CC006BFF2B4B93F829200AB1012202609A6979
:10B4DC00002A49D0586AD96800229A6105B0BDE8A3
:10B4EC003040FFF797BFD5F804335B07D0D5D5F8BC
:10B4FC000831002BCCD01E4C1C482146FFF773FFA3
:10B50C00636AA2699A42C3D1E369E1684BB1A36152
:10B51C002369E3600023606AE3616362FFF77AFFEB
:10B52C00B6E794F829300BB901236B600F4B4FF43D
:10B53C000172C3F808230023606AA361EEE70B488D
:10B54C004FF48E71FFF728FF5369002BB0D051696F
:10B55C000291002391688DF8003001915361684687
:10B56C00D2E900139847A3E705B030BD0020004096
:10B57C00281A00202DE9F843534D90F804802C2311
:10B58C0003FB0853064693F82A300C469146002BD1
:10B59C0040F096804D490068FFF7DCFE0746002816
:10B5AC0040F0908022683068511C0BD04FF0A041C5
:10B5BC0001239340C1F8083502F5E0734FF0030CFA
:10B5CC0041F823C061684B1C1FBF01F5E0734FF0BD
:10B5DC00A04C4FF0000E4CF823E0A369C0F82435C2
:10B5EC0094F814C0637DBCF1010F4CEA0303C0F85E
:10B5FC006C35C0F81415C0F80C251DD1A268531C6D
:10B60C001FBF02F5E0734FF0A0414FF0000C41F862
:10B61C0023C0E368591C0BD04FF0A04C012199407A
:10B62C00CCF8081503F5E0714FF0030E4CF821E04F
:10B63C00C0F80835C0F810252C2202FB08F2AB1814
:10B64C00C3F804902369AB50B9F1000F20D04FF42C
:10B65C008E71247FFFF7A0FE4FF4A2713068FFF7C4
:10B66C009BFE32681A4BC2F80433130B42F30732B9
:10B67C006101002AC9B21EDB1648841884F8001335
:10B68C000121520903F01F0301FA03F340F82230A1
:10B69C0033680422C3F800252C2303FB0853002233
:10B6AC00C3E9062283F829205A61012283F82A2053
:10B6BC003846BDE8F883084A03F00F03D154E7E796
:10B6CC000827F5E71127F3E7281A002041B40100F9
:10B6DC008000020000E100E014ED00E00279044B70
:10B6EC002C2101FB02335869003818BF0120704728
:10B6FC00281A00202DE9F84F064690F80480894658
:10B70C009246FFF7EBFF044600283CD1204F2C2536
:10B71C0008FB057B4FF48E71CBF814A0CBF8089086
:10B72C00CBF820008BF828003068FFF735FE306826
:10B73C00012383605946FFF737FEDBF804305D4682
:10B74C001BBB3068DBF814402B6A9C4211D8336861
:10B75C00D3F81C21002AFBD00122DA6000202C2314
:10B76C0003FB087700237B61BDE8F88F95F8283040
:10B77C003BB9D0F81C31002BF8D05946FFF714FE1A
:10B78C00E2E70F20EBE71120EEE72046ECE700BFE5
:10B79C00281A00202DE9F0473A4D07792C2303FB9A
:10B7AC00075306465C6824B103684FF40170C3F874
:10B7BC0008032C2303FB0753986950B1D869002860
:10B7CC0041D024B133684FF40172C3F8042311241F
:10B7DC0036E09A61D9605862D8612C2303FB075379
:10B7EC0093F829301BB910B93046FFF7ECFD4FF038
:10B7FC002C0808FB075A3068DAF80430002B37D1D4
:10B80C004FF4A271D046FFF7C7FD3068D0F82491F1
:10B81C00D0F80831D0F84441CBB914B9B9F1000FC4
:10B82C00F3D02C2303FB07550023AB61B9F1000FB8
:10B83C0024D12CBB95F8291033680122B1B11A60C0
:10B84C002046BDE8F0871961DA610120C5E7B9F13E
:10B85C00000FE6D1002CE4D14146FFF7C4FDDAF825
:10B86C002430DAF818209A42CFD8DAE75A60E7E7A2
:10B87C004FF40173C0F804330024E1E70324DFE73D
:10B88C000F24DDE7281A00200023435082B04358D0
:10B89C000193019B02B070471FB501238DF8003056
:10B8AC00044BCDE90110D3E900126846904705B06E
:10B8BC005DF804FB541A00207FB5434AD2F824618A
:10B8CC00002E60D010464FF49271FFF7DDFF02237B
:10B8DC008DF80030D2F88034C2F880340393D2F85B
:10B8EC003C350293394BDA6801920022C3E90622F7
:10B8FC006846D3E9001290473348D0F8443173B10D
:10B90C004FF4A271FFF7C0FF304B9A693AB1002295
:10B91C00C3E90622D968D0F83C05FFF7BDFF2A48D9
:10B92C00D0F82031ABB14FF49071FFF7ADFF01238C
:10B93C00C360264B5A6962B1D0F84C1502910022B3
:10B94C0099688DF8002001915A616846D3E900127C
:10B95C0090471D48D0F858319BB14FF4AC71FFF7AC
:10B96C0093FF1A4B5A6962B1D0F84C150291002220
:10B97C0099688DF8002001915A616846D3E900124C
:10B98C00904704B070BDD2F81031002BB4D04FF4F6
:10B99C0088711046FFF778FF0C4BD2F83C0599697B
:10B9AC008842A9D1DC69D96864B1D2F8005225F07B
:10B9BC002005C2F800521A699C61DA60DE61FFF75B
:10B9CC006BFF99E79C61FAE700200040541A0020B5
:10B9DC002DE9F8435A4E90F80480242303FB0863A6
:10B9EC00044693F820300D469146002B40F0A3807E
:10B9FC0054490068FFF7AEFC0746002840F09D80D4
:10BA0C002A682068511C0BD04FF0A04101239340B1
:10BA1C00C1F8083502F5E0734FF0030C41F823C070
:10BA2C0069684B1C1FBF01F5E0734FF0A04C4FF041
:10BA3C00000E4CF823E0AB69C0F8243595F814C01F
:10BA4C006B7DBCF1010F4CEA0303C0F86C35C0F8F8
:10BA5C000C25C0F814151DD1AA68531C1FBF02F584
:10BA6C00E0734FF0A0414FF0000C41F823C0EB689D
:10BA7C00591C0BD04FF0A04C01219940CCF8081563
:10BA8C0003F5E0714FF0030E4CF821E0C0F80835D7
:10BA9C00C0F81025242202FB08F2B318C3F8049056
:10BAAC002B69B350B9F1000F2FD04FF488712A7F56
:10BABC00FFF7EAFE20684FF49071FFF7E5FE20686F
:10BACC004FF49271FFF7E0FE20684FF4A271FFF77C
:10BADC00DBFE4FF4AC712068FFF7D6FE23681A49E1
:10BAEC00C3F80413190B43F307335201002BD2B2E2
:10BAFC001CDB1648C51885F8002301225B0901F0F0
:10BB0C001F0102FA01F140F8231023680822C3F840
:10BB1C000025242303FB08660023C6E90633736162
:10BB2C00012386F820303846BDE8F883084B01F035
:10BB3C000F015A54E9E70827F5E71127F3E700BF8F
:10BB4C00541A0020C5B801001003420000E100E0C7
:10BB5C0014ED00E00279044B242101FB02335869F7
:10BB6C00003818BF01207047541A002001F06043C0
:10BB7C00B3F1005F2DE9F0470646884692463BD16B
:10BB8C0090F80490FFF7E6FF0446002836D11D4FCD
:10BB9C003068242505FB09754FF49071C5F814A085
:10BBAC00C5F80880FFF770FE4FF4AC713068FFF7F2
:10BBBC006BFE33686A69A968C3F84415C3F8482555
:10BBCC0001229A606A68DAB9D3F82021D3F85801B7
:10BBDC001AB90028F8D00F2007E00028FBD1012269
:10BBEC00DA60D3F85821002AFBD0242303FB097711
:10BBFC0000237B61BDE8F0871020FBE71120F9E7FB
:10BC0C002046F7E7541A0020F8B501F06043B3F171
:10BC1C00005F04460F465ED10379304D242101FBB1
:10BC2C000351496821B100684FF40476C0F80863E9
:10BC3C00242000FB03539E6956B1D869002839D0E3
:10BC4C0021B123684FF40472C3F80423112030E0AF
:10BC5C009A61DF60DE6120684FF48871FFF714FE93
:10BC6C0020684FF4A271FFF70FFE2368C3F83475F8
:10BC7C00C3F8382516BB01221A602479242202FB52
:10BC8C00045252680ABBD3F81011D3F84421D3F8EC
:10BC9C002401114302D10028F5D00A46242303FBCA
:10BCAC0004550023984218BF03209A42AB6118BF79
:10BCBC000F20F8BD1F61DA610126CCE7D3F8002212
:10BCCC0042F02002C3F80022D7E74FF40472C3F805
:10BCDC0004230020EDE71020EBE700BF541A0020EE
:10BCEC0013B5084CD4F800314BB1074B1B6898477F
:10BCFC000023C4F80031D4F800310193019B02B049
:10BD0C0010BD00BF00000140781A0020034B044A0C
:10BD1C0000F5C07043F82020704700BF00000140C0
:10BD2C003546526E00F1804000F5E040002382B0B1
:10BD3C00036003680193019B02B07047F0B5524B4E
:10BD4C00524CD3F8043185B0002B3DD094F82E2002
:10BD5C004FF48270FFF7E6FF2AB394F82F3013BB31
:10BD6C00494AD2F80031002B32D04FF48070FFF7E3
:10BD7C00D9FF638B94F82D00834250D921891B1A6B
:10BD8C009BB289B26383CB1A616801EB4303C2F89F
:10BD9C002C36C2F830064FF48270FFF7C3FF3A4BD3
:10BDAC0001225A6014E0636802932389ADF80C30C9
:10BDBC00E36800218DF8041033BB2374236801A8B9
:10BDCC009847002384F82F3094F82E30002BC7D1DD
:10BDDC002D4BD3F810315BB14FF48870FFF7A2FFF5
:10BDEC000023237402238DF8043001A8236898479C
:10BDFC00254BD3F81431EBB14FF48A70FFF792FF57
:10BE0C000023237405B0F0BD208B60836360208118
:10BE1C00E160002AD2D11C4B01221A60CEE7BAD1C4
:10BE2C00E368012184F82F1013B100216183AEE780
:10BE3C006383B0E766694FF000470125002EE1D01F
:10BE4C00B6FA86F227FA02F34632920026EA030685
:10BE5C0002F1804303F5E0431B68002BEED0104643
:10BE6C00A2F58C72FFF75EFFD30882F00402C2F3D6
:10BE7C0080028DF808308DF8045023688DF8092065
:10BE8C0001A89847DAE700BF007000407C1A002038
:10BE9C0038B5204A92F82C300446002B37D111606B
:10BEAC001D490078C1F8F0056078C1F8F40501254A
:10BEBC00E078137482F82D30536182F82F306FF0D4
:10BECC00004382F82E0082F82C504FF48270C1F897
:10BEDC000833FFF727FF4FF48070FFF723FF4FF471
:10BEEC008A70FFF71FFFA3780C485B01DBB280F868
:10BEFC000733802303600223C1F8043392F82E30F9
:10BF0C000BB1C1F80453C1F80055002038BD08200E
:10BF1C00FCE700BF7C1A00200070004000E100E04C
:10BF2C0070B52A4B1A7C02F0FF05002A4BD10A7916
:10BF3C00012A9CBF264CC4F8005500F10C0503EBFC
:10BF4C004504247924B993F82D40013483F82D400D
:10BF5C0003EB4503CC790D7A8E781C715D714B78AF
:10BF6C0036021B0106F4E06603F0300333430E780F
:10BF7C0006F003063343CE78360306F4805633437B
:10BF8C00160406F4E02633434E798979360506F417
:10BF9C0080160906334301F080710B430C4901EB09
:10BFAC000016000100F1804000F5E040012AC6F8BF
:10BFBC001835C0F81455C0F8104502D80123C1F843
:10BFCC000035002000E0112070BD00BF7C1A00205D
:10BFDC000070004070B5324A147C04F0FF03002C52
:10BFEC005CD1304C012503261574C4F80863C4F8E1
:10BFFC002C16C4F8305692F82D40AC420CD91D4684
:10C00C00190101F1804101F5E0410133082BC1F820
:10C01C001455C1F81055F3D100F10C03000102EBDB
:10C02C00430300F1804000F5E04019795B79C0F8DA
:10C03C001435C0F810151B4901230B604B6042F2FC
:10C04C001073D1F8040108B9013BFAD14FF4807098
:10C05C00FFF768FE4FF48270FFF764FE012C11D9D4
:10C06C000F4800210B0103F1804303F5E04301313C
:10C07C00047F457FC3F814550829C3F8104500F117
:10C08C000200EFD192F82E10064B29B103210020AB
:10C09C00C3F80413107470BD0221F8E71120FAE7FD
:10C0AC007C1A002000700040F0B51C4F8BB207EBDF
:10C0BC00001443EA0243C4F81C35194B40005C6978
:10C0CC0000F1010C4FF0004611F5006F26FA0CF64A
:10C0DC004FF0800505FA00F50BBFB44334435C61A7
:10C0EC005C610CBFC7F80853C7F804534FF000410C
:10C0FC0040245D69844021FA00F040F2FF718A42CD
:10C10C00064A0BBF25EA00002843586158610CBF52
:10C11C00C2F80843C2F80443F0BD00BF00700040F1
:10C12C007C1A002010B5124B1A7CF2B900F10C01EC
:10C13C0003EB4102127922B193F82D20013A83F8D6
:10C14C002D2003EB410300249C80030103F1804369
:10C15C0003F5E0430749C3F8144540F2FF72C3F8F6
:10C16C001045FFF7A1FF204610BD1120FCE700BFD2
:10C17C007C1A002000F8FFFF38B5144B6FF000421A
:10C18C00C3F80823124A8021C2F88010BFF34F8FE6
:10C19C00BFF36F8F01229A6042F21072D3F8141120
:10C1AC0009B9013AFAD10B4D0024C3F800452C749F
:10C1BC0005EB44031B7F13B1E0B2FFF7B3FF01346F
:10C1CC00082CF5D1002385F82C3038BD00700040C8
:10C1DC0000E100E07C1A00200023435082B0435859
:10C1EC000193019B02B070470A7B0346032A29D8AE
:10C1FC00DFE802F0212519028A68500304D5D3F830
:10C20C004C250869904207D18A6852031AD4D3F896
:10C21C004C254969914215D000200622C3F800052F
:10C22C00C3F800257047D3F84C2508699042F3D128
:10C23C00D3F83C25EDE7D3F84C250969EAE7D3F8A8
:10C24C003C25FAE701207047F0B5594D594CD5F80B
:10C25C00243187B0FBB14FF492712846FFF7BCFF35
:10C26C00D5F80431BBB9A368C5F808330223A36021
:10C27C00A368C5F80433D5F860311BB1D5F800328A
:10C28C009F0503D44A4B01221A625A61012384F898
:10C29C002E3007B0F0BDD5F80431002B50D04448F7
:10C2AC004FF48271FFF798FF236A5E0609D494F865
:10C2BC002E3033B93F49FFF797FF80F0010084F827
:10C2CC002E00236A5D0720D43B4E0FCE01AD0FC567
:10C2DC00336837482B604FF4B071FFF77DFF4FF494
:10C2EC00AE71FFF779FF94F8303013B194F82E301B
:10C2FC005BB12F4B0022C3F80022A2602F4AC3F877
:10C30C0008232F4B0822C3F88021294AD2F8C434C1
:10C31C00C2F8C43498073DD501238DF8003094F849
:10C32C0030300BB984F82F30236A5B0703D594F8AF
:10C33C002E30002BADD0D4E9003168469847A8E7E1
:10C34C001B484FF4A471FFF747FF237B83B91A4FA7
:10C35C000FCF01AE0FC63B68336094F83030002B22
:10C36C00D3D1C5F80032A360144BC5F80833C8E725
:10C37C004FF40073C5F8003240F20223A36003F1BE
:10C38C00CE73C5F80833A368C5F804330123AB603A
:10C39C002B627EE7590701D50223BEE7DA0701D5E8
:10C3AC000323BAE794F82E30002BB6D00423B4E75D
:10C3BC0000300040AC1A0020B81A002002029C0188
:10C3CC0000E100E02DE99F484FF480610020FDF76B
:10C3DC0067F908B1FDF7E6FCFDF7A2F800F074FE72
:10C3EC00FEF730FB08B1FDF7DDFC4FF0A043032254
:10C3FC004FF48051C3F83027C3F80C154FF40041AB
:10C40C00C3F83C27C3F80C15C3F840274FF480320F
:10C41C00C3F80C25734C744B744A7549754D764FA3
:10C42C00E41AE40824044FF0804644F00304734BF0
:10C43C002046FDF7E0FAD6F8003471494FF0FF3290
:10C44C00C6F8002420466F4A00936F4BFDF7DDFAC7
:10C45C004FF47A71002000F089FE01F09DF9002361
:10C46C003B60C5F80435012333602B60D5F80031EF
:10C47C00002B69D00023C5F80031D5F80835D5F864
:10C48C0008255C49614E9B0544BF6FEA82526FEAF6
:10C49C009252002AB8BF0332012392103A604B60CB
:10C4AC004FF0804120464B605949FDF79BFA01F053
:10C4BC00DBF9142546F001064FF47A40B047013DF4
:10C4CC00FAD1544DDFF85091DFF850A1DFF850B19C
:10C4DC0001F0CBF9284600F0B5FF6B7903932B796B
:10C4EC000293EB780193AB7800936B782A784D49E3
:10C4FC004D484E4D01F0F2FD4D492046FDF76EFAC8
:10C50C004C4B1F884FF47A7801232B7008FB07F8EB
:10C51C002B78052B1BD1484F00233B704FF0A043C9
:10C52C004FF40042C3F8082514254FF47A40B04765
:10C53C00013DFAD101F0AEF83B78002BFCD03F491D
:10C54C002046FDF74BFAFEE700F0BEFF8EE7013BFD
:10C55C00032B3FD8DFE803F002213038384B394940
:10C56C001A68204601321A60FDF73CFA9FB100F0C0
:10C57C0003FF00F029FF00F0AFFE4146012000F060
:10C58C00F5FD00F0E3FE00232F492B703A462046C0
:10C59C00FDF728FABCE70223F6E737B1012000F0DB
:10C5AC006BFE00F0E1FE00F005FF03235946204628
:10C5BC002B70FDF713FAABE7002251462046FDF72E
:10C5CC0011FA04232B70A3E749462046FDF706FA1F
:10C5DC000523F7E701F04BF900F076FF00F06AFF56
:10C5EC0096E700BF54F3010014F301004EFA01006A
:10C5FC005AFA010000C00040E01A002045FA010080
:10C60C00D0FA0100C2FA0100B4FA010010FC0100DA
:10C61C000EFB0100F51A0020D5FB0100C6FB010042
:10C62C00AFFB010020FB0100E81A002030120020B3
:10C63C0039FB010032120020A11E0020E3FB010097
:10C64C00E41A002057FB01008FFB01000369C2684C
:10C65C0093429CBF80681B18013B981A70472DE9C8
:10C66C00F843D0E902940546A9EB040840689045CC
:10C67C0020440F46144404D901F078FDEC60BDE869
:10C68C00F8834246A4EB090401F070FD6868224669
:10C69C0007EB0801F0E72DE9F843C5680646894623
:10C6AC0017464FF000083469B3687068A54228BF7C
:10C6BC00E418013C621B5C1BBC4228BF3C46944204
:10C6CC0028BF144649462844224601F04FFDB36862
:10C6DC002544AB4208BF00253F1BA044A144F56094
:10C6EC00E1D14046BDE8F88310B5114C114AA26166
:10C6FC000223C4E90433104BE361A2644FF40073CA
:10C70C000E4A0F492362E26400231022E01DA3624B
:10C71C006362E362A3656365E365226501F082FDF4
:10C72C000849204601F07EFD2023A37110BD00BFF7
:10C73C00101B002016FC0100981B0020881B0020F9
:10C74C001FFC010023FC010070B5164B182400FBE4
:10C75C0004451D4404FB00331646DC6A012C0ED044
:10C76C00022C18D0E4B92846FFF770FF864204D893
:10C77C0032462846FFF773FF3446204670BD2846E4
:10C78C00FFF764FF8642344628BF044622462846FB
:10C79C00FFF765FFF1E72846BDE87040FFF77BBF68
:10C7AC000024EAE7101B0020FFF79EBF6DDF7047E7
:10C7BC0079DF70477DDF704764DF70472DE9F04FFC
:10C7CC0085B000250E9CBDF83CB0B4F800A00191DA
:10C7DC00074690461E46A9463A884A450DDC45B1A7
:10C7EC002388013BA3EB0A039BB2FF2B3AD806F834
:10C7FC000A30002005B0BDE8F08F7A6852F82900A5
:10C80C00039000220DF10B0103A8FFF7D5FF0028C0
:10C81C00F0D19DF80B20424521D12288002D14BF68
:10C82C000020022002EB0801014459451ADC3DB9F5
:10C83C00013292B2019B2280B354228801322280B1
:10C84C0022880DF10B01324403A8FFF7B5FF002835
:10C85C00D0D121889DF80B200A442280012509F1B2
:10C86C000109B9E70C20C5E72DE9F341089FBDF894
:10C87C0024801546CDE90078022204461E46FFF7B7
:10C88C009DFF50B93346102229462046CDE9087841
:10C89C0002B0BDE8F041FFF791BF02B0BDE8F081F6
:10C8AC002DE9F04F00231788138090F82D3085B0B8
:10C8BC0006460D4614465BB3082F01D80C2028E120
:10C8CC0002A8FFF773FF002840F023812388DDF8CE
:10C8DC0009100822EA54238801339BB21B222380BF
:10C8EC00EA54238801339BB2EA182380E950BDF83F
:10C8FC000D30938023889DF8082006339BB212F0EC
:10C90C00FE0218BF01222380EA54238801332380BE
:10C91C00B378FBB123880433BB42CFD802A8FFF70E
:10C92C0047FF002840F0F58023880322EA5423882F
:10C93C0001339BB219222380EA542388BDF80820C6
:10C94C0001339BB2E9182380EA54120A4A702388F7
:10C95C0002332380F2789AB12388D91CB942ADD81E
:10C96C000221E954238801339BB201212380E9542D
:10C97C0023880B449BB22380EA5423880B442380E6
:10C98C007268AAB12388D91CB94297D8022192F9AE
:10C99C000020E954238801339BB20A212380E954F7
:10C9AC00238801339BB22380EA54238801332380EC
:10C9BC003389002B40F0A180338A5BB1CDE900476D
:10C9CC002B460722032106F11000FFF74DFF00282C
:10C9DC0040F09F80338B5BB1CDE900472B4615228D
:10C9EC00142106F11800FFF73FFF002840F091805A
:10C9FC00326A002A40F09080D6F82480B8F1000FFB
:10CA0C0030D0B8F804302188981C8A1C0244BA42F1
:10CA1C003FF654AFFE283FF651AF03336B542388D7
:10CA2C0001339BB2FF222380EA54238801339BB24B
:10CA3C002380B8F80020EA54E918120A4A702088BA
:10CA4C00023080B22080B8F804205AB1D8F808100F
:10CA5C0000296BD0284401F089FB2388B8F8042006
:10CA6C001344238096F82C30002B40F098803078BB
:10CA7C0000284ED03388012B58D0228802F1020CAA
:10CA8C00BC453FF61BAF012805D173780233134424
:10CA9C009F42FFF413AF023FBF1ABFB202A905EBCE
:10CAAC000C00ADF80870FFF785FE90BB3178BDF82F
:10CABC000830022900F0B98072789A4202D39F4262
:10CACC0080F0B180012940F0B280974293B2C0F05F
:10CADC00AE80ADF808300821BDF80830FE2B3FF6CB
:10CAEC00EDAE22880133AB542288013292B22280FF
:10CAFC00A9542288134423800BE0CDE900472B4630
:10CB0C000622022106F10800FFF7AEFE00283FF4D2
:10CB1C0053AF05B0BDE8F08FB4F800C00CF10603BC
:10CB2C00BB423FF6CBAE1188052901D80720F0E7B0
:10CB3C006FF4486E01EB0E039BB24FF27D3E7345D2
:10CB4C00F4D95388052BF1D96FF44860181880B2CA
:10CB5C007045EBD94FF6FF70814201D09942E5D870
:10CB6C00052305F80C30238801339BB21221238056
:10CB7C00E954238801339BB223801188E954E818C7
:10CB8C00090A4170238802339BB223805288EA54ED
:10CB9C00E918120A4A702388023323802CE7B36AFF
:10CBAC00002BC3D04FF000084FF00C0A4FF0160BBF
:10CBBC00B16A5FFA88F20AFB02F201EB0209B9F8DA
:10CBCC000430981CFE283FF679AE208803332B5492
:10CBDC00238801339BB2238005F803B023880133EB
:10CBEC009BB223808A5AEA54E918120A4A702088A8
:10CBFC00023080B22080B9F804205AB1D9F808105C
:10CC0C00002993D0284401F0B1FA2388B9F8042004
:10CC1C001344238096F82C2008F101085FFA88F35E
:10CC2C009A42C5D823E7092156E79F42FBD2ADF8BB
:10CC3C00087050E710DF704711DF704713B50446DA
:10CC4C0009496846FDF729FF019808B902B010BDE3
:10CC5C00D0E900312046984718B16846FDF727FF08
:10CC6C00F2E71120F2E700BF38FC010013B50446CF
:10CC7C0007496846FDF711FF019B0BB902B010BDC7
:10CC8C002046D3E9002190476846FDF710FFF3E7F3
:10CC9C0050FC0100084B9A6822B11A6822F48002F9
:10CCAC001A607047054B4FF48002C3F88020BFF325
:10CCBC004F8FBFF36F8F70476419002000E100E0C5
:10CCCC000B4991F816335A09EC231341DB0706D5AF
:10CCDC00084B9A683AB94FF480030B60704742F2E4
:10CCEC000200FDF75FB81A6842F480021A607047C0
:10CCFC0000E100E064190020F7B5194F3C7864BBE3
:10CD0C00184E012520463570FFF798FF112821D0C9
:10CD1C002046FFF7ABFF144B8DF8034018680190C9
:10CD2C000DF10300FDF738FB104901A8FFF782FF56
:10CD3C000446B0FA80F0400938709DF80300FDF706
:10CD4C004FFB3CB90A4B34701C70FFF7B9FF2846F7
:10CD5C00FFF78CFF204603B0F0BD0824FAE700BFB4
:10CD6C00991D0020981D002032FC0100CD9D010072
:10CD7C009A1D0020F7B5154F3B781BB3144E0120BC
:10CD8C003070FFF75BFF11284FF000051CD002201C
:10CD9C00FFF76CFF0DF107008DF80750FDF7FCFA5B
:10CDAC00FFF74AFF04469DF807003D70FDF718FB9E
:10CDBC002CB903203470FFF76DFFFFF757FF2046A7
:10CDCC0003B0F0BD0824FAE72C46F8E7991D0020C3
:10CDDC00981D0020014B1878704700BF991D00204A
:10CDEC0007B508496846FDF758FE019B13B903B017
:10CDFC005DF804FBD3E9002090476846FDF757FE29
:10CE0C00F3E700BF44FC0100FFF7EABF60DF7047A7
:10CE1C0069DF704761DF704730B5134B1B7891B0F9
:10CE2C00FBB1124D34240DF1020103A8ADF8024000
:10CE3C00FFF7F0FF70B9294601A8FDF72EFE029B03
:10CE4C00002BF0D003A8D3E90021904701A8FDF7EF
:10CE5C002EFEF4E7052804D011B0BDE83040FCF7F5
:10CE6C00A1BF11B030BD00BF9B1D002094FE01007E
:10CE7C0030B50C4685B0002900F082800023CDE946
:10CE8C000133404A039301230A608DF804008DF8A6
:10CE9C00063001A906232020ADF80830FFF7B8FFB3
:10CEAC0060B1FDF72FFE384B3849024638481B1A43
:10CEBC00DB081B0443F00100FCF794FD00232268FF
:10CECC00039301A94020CDE90133FFF7A1FF60B125
:10CEDC00FDF718FE2C4B2F4902462D481B1ADB0878
:10CEEC001B0443F00100FCF77DFD00232268039333
:10CEFC0001A90120CDE90133FFF78AFF60B1FDF7ED
:10CF0C0001FE214B2449024621481B1ADB081B0455
:10CF1C0043F00100FCF766FD0023CDE902332268E3
:10CF2C00F82301A9A1200193FFF772FF60B1FDF76F
:10CF3C00E9FD154B1949024615481B1ADB081B0461
:10CF4C0043F00100FCF74EFD00252268039501A972
:10CF5C00A020CDE90155FFF75BFF034668B1FDF753
:10CF6C00D1FD094B0E49024609481B1ADB081B046C
:10CF7C0043F00100FCF736FD2B46184605B030BDDA
:10CF8C000E23FAE7101200206CF301005CFC010088
:10CF9C0014F30100A2FC0100EEFC01003AFD0100BB
:10CFAC008BFD0100F8B506460768FFF72FFF3368C5
:10CFBC00BB4205461DD91948194C1A49241AE408D4
:10CFCC00240444F002042046FCF708FD336816499B
:10CFDC003A462046FCF70FFD4FF080533268D3F8E9
:10CFEC000C3112499B0203F100539A1A2046FCF7AC
:10CFFC00F9FC25B90E4B01221A702846F8BD2846BB
:10D00C00FDF780FD064B0B49024604481B1ADB0852
:10D01C001B0443F00100FCF7E5FCEEE714F3010000
:10D02C006CF30100DEFD01000DFE01003EFE01006F
:10D03C009B1D002068FE01004BDF70471FB50E4C96
:10D04C0001A8FFF7F9FF70B9214602A8FDF725FDED
:10D05C00039B002BF4D00198D3E90021904702A840
:10D06C00FDF725FDF4E7052804D004B0BDE8104019
:10D07C00FCF798BE04B010BDACFE0100024A136868
:10D08C0001331360704700BFA01D0020014B02222A
:10D09C001A70704730120020014B04221A7070472E
:10D0AC0030120020014B01221A7070479C1D002089
:10D0BC00014B01221A7070479D1D0020014B052267
:10D0CC001A7070473012002008B5FDF7C5F808B18A
:10D0DC00FCF768FE194A1A480121FDF7EFF808B170
:10D0EC00FCF760FE174A18480121FDF7E7F808B174
:10D0FC00FCF758FE154A16480121FDF7DFF808B178
:10D10C00FCF750FE134A14480121FDF7D7F808B17B
:10D11C00FCF748FE114A12480121FDF7CFF808B17F
:10D12C00FCF740FE0F4A10480121FDF7C7F818B173
:10D13C00BDE80840FCF736BE08BD00BF89D0010031
:10D14C00BCFE010099D00100B8FE0100A5D0010081
:10D15C00CCFE0100B1D00100C4FE0100BDD0010025
:10D16C00C8FE0100C9D00100C0FE010070B50C461C
:10D17C00052817D8DFE800F0031D2E3F506100256D
:10D18C004FF400464FF47A5029464FF4FA420023EC
:10D19C00E4FB060100F040FE014631482A46FDF74B
:10D1AC009FF80346002B59D0BDE870401846FCF799
:10D1BC00F9BD00254FF400464FF47A5029464FF440
:10D1CC00FA420023E4FB060100F026FE2A46014643
:10D1DC002448E4E700254FF400464FF47A502946E2
:10D1EC004FF4FA420023E4FB060100F015FE2A4638
:10D1FC0001461D48D3E700254FF400464FF47A5002
:10D20C0029464FF4FA420023E4FB060100F004FE29
:10D21C002A4601461548C2E700254FF400464FF454
:10D22C007A5029464FF4FA420023E4FB060100F041
:10D23C00F3FD2A4601460E48B1E700254FF400469F
:10D24C004FF47A5029464FF4FA420023E4FB0601CE
:10D25C0000F0E2FD2A4601460648A0E770BD00BF7B
:10D26C00C41D0020A41D0020441E0020041E00200C
:10D27C00241E0020E41D002008B5052808D8DFE88E
:10D28C0000F0030D0F1113150A48FDF775F803464E
:10D29C0073B11846BDE80840FCF784BD0648F4E7B6
:10D2AC000648F2E70648F0E70648EEE70648ECE7E2
:10D2BC0008BD00BFC41D0020A41D0020441E00207A
:10D2CC00041E0020241E0020E41D002072DF704785
:10D2DC0073DF704774DF704700B593B05923ADF816
:10D2EC000030164B02933C221723002103A8ADF803
:10D2FC00043000F064FF04238DF80F30104BCDF890
:10D30C0030D018220021184600F059FF0522027077
:10D31C00A02282600B4A03A852F8041BFFF7C0FA44
:10D32C0008B1FCF73FFD064A06490748FFF7CEFF58
:10D33C0008B1FCF737FD13B05DF804FB4512002073
:10D34C00681E0020341200204412002008B5054B42
:10D35C0001211878FFF7BCFF18B1BDE80840FCF7B5
:10D36C0021BD08BD4412002008B5024B1878FFF708
:10D37C00B1FF08BD4412002013B50D4C2378ABB996
:10D38C00FFF7BAFC08B1FCF70DFD002301A9012041
:10D39C000193FFF76DFD08B1FCF704FD01A8FFF741
:10D3AC0001FE08B1FCF7FEFC0123237002B010BD96
:10D3BC00641E002008B5FFF7DDFC024B00221A703A
:10D3CC0008BD00BF641E002010B5174C0023A375C8
:10D3DC005223237058236370144BA21C03F11401C5
:10D3EC0053F8040B42F8040B8B42F9D100F0D4F93A
:10D3FC000F4900F0CFFA00F02FFCA0750D480E4C31
:10D40C000E49241AE408240444F003042046FCF7D3
:10D41C00E5FA204604491722FCF716FB204608497A
:10D42C00BDE81040FCF7DABA45120020FB1A0020C8
:10D43C000000204114F3010054F30100D0FE010060
:10D44C00FBFE0100F0B54FF08055174FD5F8A82022
:10D45C00C2F3072242F0C0020270D5F8A830437024
:10D46C00D5F8A460360E8670D5F8A410090CC170DE
:10D47C00D5F8A440240A0471D5F8A45045710B4882
:10D48C00C01B85B0C008EDB2E4B2C9B20004CDE94E
:10D49C000061039506490294DBB240F00300FCF7EF
:10D4AC00C0FA05B0F0BD00BF14F3010054F3010045
:10D4BC0026FF010008B5FCF745F918B9BDE808408E
:10D4CC00FDF7D6BA08BD0000014B1878FEF71EBC5C
:10D4DC009F1E002037B500238DF807300378012BF1
:10D4EC0000F0A880022B00F0A58023BB0DF10700F3
:10D4FC00FDF7E2FB51499DF807300C781CB90A2B5B
:10D50C0019D00D2B17D00A2B4D4D4E4A15D00D2B83
:10D51C0013D0601C2B55087000241178002900F0E2
:10D52C008480002348494648137000F001FE58B12E
:10D53C00464B03221A7003B030BD00200870012145
:10D54C0028551170A4B2E8E741493D4800F0F0FDC0
:10D55C0018B13B493F48224612E03F49384800F099
:10D56C00E7FD10B1394B0422E4E73C49344800F0A4
:10D57C00DFFD50B1354B3249394805221A7022462D
:10D58C0003B0BDE8304000F0F1BD36492C4800F046
:10D59C00CFFD0028EED13449294800F0C9FD20B94F
:10D5AC003249274800F0C4FD30B1314B1B78012BB8
:10D5BC00DAB201D12F4BBDE72F49214800F0B8FD5D
:10D5CC0008B10C2CC5D82D491D4800F0B1FD002820
:10D5DC00BFD12B491A4800F0ABFD18B11B4B0622EA
:10D5EC001A70B6E72749164800F0A2FD10B1264B79
:10D5FC0001229FE72549124800F09AFD38B12246D6
:10D60C000F49144800F0B2FD104B072292E7204955
:10D61C000B4800F08DFD00288DD0224608490D489E
:10D62C0000F0A4FD094B082284E73E2B83D1074B65
:10D63C0009227FE74068FCF7B5FB7CE7A2220020BB
:10D64C00A21E0020A322002055FF0100AA330020B7
:10D65C0058FF0100AA2E00205EFF010064FF0100AC
:10D66C00AA32002068FF010076FF010081FF010053
:10D67C005C120020A01E00208CFF010097FF01000F
:10D68C009DFF0100A7FF0100A11E0020B1FF0100BA
:10D69C00B8FF010030B50F4D0FCD8BB004AC0FC4EB
:10D6AC000D4B009395E803004FF4806301930B4BF3
:10D6BC0002934FF4006384E803000393084A0723A2
:10D6CC00694604A8FDF7A0FA08B1FCF76BFB0BB098
:10D6DC0030BD00BFC4FF0100A4220020A4260020FE
:10D6EC00E1D4010038B5054D322445F001054FF465
:10D6FC007A40A847013CFAD138BD00BF10000200A7
:10D70C001FB50C4A10685168127A01AB03C30A4862
:10D71C001A700021FEF7BCFB08B1FCF743FB01A912
:10D72C000620FEF7FDFB08B1FCF73CFB05B05DF8ED
:10D73C0004FB00BFF7FF010000000200F0B585B04C
:10D74C00002401948DF80840FFF7DAFF4FF0A04356
:10D75C004FF48032C3F80825FFF7C4FF01AD05264E
:10D76C0029460620FEF736FCFFF7BCFF2B88013E4E
:10D77C001C4405F1020524B2F2D14FF0A0434FF442
:10D78C008032C3F80C25FFF7ADFFFEF7F5FC052042
:10D79C0094FBF0F005B0F0BD2DE9F743FFF7CEFF99
:10D7AC00254B264C188000F067FA2549254E00F0D1
:10D7BC00F1F84FF06A5100F0EDF8234900F0EAF867
:10D7CC00224900F0E7F8224B3060E41AE408240404
:10D7DC000021054644F0030400F00CFA30B31D4957
:10D7EC00284600F0EFF908B3DFF86C80284600F00B
:10D7FC0019FA074600F040FA00218146284600F04D
:10D80C00E1F9B0B14946284600F0C0F8134900F0E0
:10D81C00C1F800F007FA124900903B4620464246F8
:10D82C00FCF7F3F8306803B0BDE8F083DFF8348020
:10D83C00DCE729464846E7E7A82E002054F3010010
:10D84C009A99193FA42E0020713DEA3F0000C04078
:10D85C0014F30100000080BFDCFF01000000C8428F
:10D86C00DEFF010007F4010070470020704770478D
:10D87C004FF07F4C90EA010F3ED4431A3CBFC01AC4
:10D88C00C918BCEB400F78D91CEA410F2BD0C20D44
:10D89C00B2EBD153182BC8BF70474FF0004C4CEA79
:10D8AC0000204CEA0121C3F1200C01FA0CFC31FAE6
:10D8BC0003F1401832BF013A5FEA300040F001003A
:10D8CC005CEA406C04BF10F4807F20F08000000AFA
:10D8DC0040EBC2504FF0807111EB400F38BF7047D6
:10D8EC00C00DC00570471CEA400F08BF00F0004097
:10D8FC00704700F00040704781F00041431A3EBF72
:10D90C0083F00043C01AC918BCEB400F32D91CEA93
:10D91C00410F28D0C20DA2EBD1534FF0004C4CEA72
:10D92C0001214CEA0020C3F1200C11FA0CFC21FA65
:10D93C0003F118BF41F00101401A09D417D0130AA2
:10D94C00D2B2B0FA80F18840521A11DD02EB0322F8
:10D95C00C0F31621400641EBC25038BF704708BFD8
:10D96C0020F0010070471CEA400F08BF00207047F0
:10D97C00D8077047BCEB410F03D0BCEB400F08BF7E
:10D98C0070474FF0FE4040F44000704781F000417A
:10D99C00FFF76EBF4FF0FF0C1CEAD0521EBF1CEA03
:10D9AC00D153FF2AFF2B28D01A444FF0004C90EA99
:10D9BC00010313EA0C034CEA01214CEA0020A0FB02
:10D9CC0001C1B1F1004F62F17F0238BF49004CEA4E
:10D9DC00416CFE2A09D253EA11204CEAC07C28BFC4
:10D9EC00BCF1010340EBC2507047124244BF1846D1
:10D9FC007047FF2043EAC050704710EACC5F08BF65
:10DA0C0000F0004011EACC5F08BF01F000410CEAC5
:10DA1C00D153FF2A18BFFF2B03D0484000F0004021
:10DA2C00704700281EBFB0F1004F0029B1F1004F24
:10DA3C0011D0FF2A02D15FEA402C0CD1FF2B02D16E
:10DA4C005FEA412C07D1484000F0004040F0FE4016
:10DA5C0040F4000070474FF0FE4040F44000704727
:10DA6C00FF2313EAD0521EBF13EAD153FF2AFF2B18
:10DA7C0036D0D21A7F3281EA000C0CF0004C4FF0F9
:10DA8C00004343EA002043EA012130B4431A3CBF6F
:10DA9C0001EB4303013A090AB3FBF1F505FB113322
:10DAAC001B02B3FBF1F001FB103300EB05201B0252
:10DABC00B3FBF1F505EB00205CEA500050EBC250D3
:10DACC0030BC002A09DDFF2A38BF70474FF07F4079
:10DADC000CF0004C4CEA500070470CF000407047C2
:10DAEC0003EAD15393F0FF0F08D192F0FF0F1BD034
:10DAFC005FEA412C14D04FF440001DE092F0FF0F70
:10DB0C0005D14FF07F43B3EB400F10D00CD193F005
:10DB1C00000F08BF92F0000F06D093F0000F06D054
:10DB2C00484000F0004070474FF4400004E048408B
:10DB3C0000F0004040F4000040F0FE40704700BF91
:10DB4C0042004B0012F1807F94BF13F1807F0CE0F8
:10DB5C0050EA010252000AD003D2814280410130C6
:10DB6C007047884280410130704700207047012087
:10DB7C00704700BF50EA0102520007D0884203D11F
:10DB8C00400010F1807F01D90020704701207047C0
:10DB9C0042004B0012F1807F94BF13F1807F0CE0A8
:10DBAC0050EA010252000AD003D28842804101306F
:10DBBC00704781428041013070470020704701203E
:10DBCC00704700BF42004B0012F1807F94BF13F1ED
:10DBDC00807F0CE050EA0102520008D003D281424F
:10DBEC00804140427047884280414042704700204B
:10DBFC00704700BF42004B0012F1807F94BF13F1BD
:10DC0C00807F0CE050EA0102520008D003D2884217
:10DC1C008041404270478142804140427047002021
:10DC2C00704700BFC0F3C751D1F19E0108D950F421
:10DC3C0000004FEA002020FA01F048BF4042704734
:10DC4C004200B2F17F4F88BF20F0004010F000403E
:10DC5C0058BF6FF000407047C10DD1F19E0105DB3C
:10DC6C00000240F0004020FA01F0704740004040B4
:10DC7C0038BF0138704700BF10F0004118BF404258
:10DC8C00B0FA80F210FA02F30DD0D2F19D0241EA03
:10DC9C00C25101EB13205A0638BF704700F1010046
:10DCAC0008BF20F001007047B0FA80F110FA01F3C0
:10DCBC000DD0D1F19D01C90501EB13205B0638BFD6
:10DCCC00704700F1010018BF704720F00100704749
:10DCDC0001F000428B1AA3F16051B1F5801F0ADBF1
:10DCEC00B1F17F6F09D242EAC102C10071F100416A
:10DCFC0042EB507070471046704701285B4113F59A
:10DD0C00001F04D842F0FE4040F400007047C900E8
:10DD1C0041EA507040EA020040F4800040F080403C
:10DD2C00704700BF4FEA4000B0F17F4F0CBF01209D
:10DD3C000020704741000020B1F17F4F18BF50EB1D
:10DD4C000000704700F00040704700BF20F000401A
:10DD5C00704700BF4FF07F43B3EB400F22D9410017
:10DD6C0008BF704703EA4002120E7F3A14DB172AF1
:10DD7C00A8BF70474FF6FF73C0F27F03D340184221
:10DD8C0020EA030018BF10F0004F08BF70474FF493
:10DD9C000001D1404018704710F0004F0CBF00201C
:10DDAC000248704718BF024870470000000080BF4F
:10DDBC000000C07F4FF07F43B3EB400F98BF70471C
:10DDCC0013EA400207D0120E7E3A0A6020EA530092
:10DDDC0040F07C5070470A6000F00040704700BF74
:10DDEC004FF07F43B3EB400F98BF704713EA4002EC
:10DDFC0004BF00F00040704711EB1262DCBF00F072
:10DE0C0000407047FF2A3CBF00EBC15070474000F8
:10DE1C004FEA3300704700BF53EA020C61D02DE982
:10DE2C00F04BB3FA83F51E0007BFB2FA82F502FA83
:10DE3C0005F403FA05F41646C5F120051EBF22FAB7
:10DE4C0005F73C43203556EA044C4FEA144418BFFE
:10DE5C000134A3464FF00009C846904271EB030C05
:10DE6C0039D3094207BFB0FA80F700FA07F6B1FAC6
:10DE7C0081F701FA07F6C7F120071EBF20FA07FC4D
:10DE8C0046EA0C062037B6FBFBFC7F1B103F07F065
:10DE9C001F04C4F120060CFA04F42CFA06F644BF55
:10DEAC0034460026202FA4BF2646002454EA060C34
:10DEBC0008BF012418EB040849EB0609A4FB027CFB
:10DECC00C01B06FB02CC04FB03CC71EB0C01904293
:10DEDC0071EB030CC5D20B46024649464046BDE8E1
:10DEEC00F08BB2FBF3F200007F2805D8034A044BF9
:10DEFC00105C5B5C184070470020704724000200E7
:10DF0C00A4000200A0F16103192B98BF20387047C0
:10DF1C00A0F14103192B98BF203070477F299ABF7D
:10DF2C00017001206FF02E00704700BF5AB10A78C3
:10DF3C007F2A0AD800B102600021501AC3E90011EF
:10DF4C0018BF01207047104670476FF02E007047C5
:10DF5C00A0F16103192B98BF20387047A0F1410341
:10DF6C00192B98BF203070477F2805D8034A044BE3
:10DF7C00105C5B5C18407047002070472400020066
:10DF8C00A400020070B5041E17DB08BF4FF07E50D2
:10DF9C0012D000260A4D4FF07E50E30702D52968B7
:10DFAC00FFF7F8FC641005F10405F6D126B1014623
:10DFBC004FF07E50FFF754FD70BD64420126E9E737
:10DFCC007C02020038B585680446084645B12268D3
:10DFDC006168531C8B4208BF00208A420AD2A854A5
:10DFEC00E26823682AB161688B4202D221469047CD
:10DFFC0023680133236038BD70B54D1E22D41368DD
:10E00C001446C6B20EE0D0542368E2682AB16168A7
:10E01C00994202D9214690472368013D01336A1C7D
:10E02C0023600FD0A26872B1616803F1010C8C45BA
:10E03C0014BF304600209942E5D8013D63466A1C66
:10E04C002360EFD170BD3046DFE700BFC3062BD491
:10E05C0010F4007F70B514BF302620264D1E22D43C
:10E06C0013681446F6B20EE0D0542368E2682AB165
:10E07C006168994202D9214690472368013D0133DA
:10E08C006A1C23600FD0A2687AB1616803F1010C9D
:10E09C008C4514BF304600209942E5D8013D6346BB
:10E0AC006A1C2360EFD170BD70473046DEE700BFBD
:10E0BC000028B8BF40427047024B5B689B6809213F
:10E0CC001B6818476012002000B5FBF789F9024B5A
:10E0DC0018445DF804FB00BF080000000EB410B536
:10E0EC0087B009AA0024CDE9040452F8041B01925C
:10E0FC006FF0004302A8039300F0E6F807B0BDE808
:10E10C00104003B0704700BF027862B169B100EBF8
:10E11C00010C034601E0634503D013F8011F0029ED
:10E12C00F9D1181A7047104670470846704700BF5F
:10E13C0010B50C787CB10378B3B101F1010EF44643
:10E14C00014622469A420BD111F8013F23B11CF82B
:10E15C00012B002AF6D110BD9CF80030002BFAD010
:10E16C0010F8013F002BEAD1184610BD844640EA56
:10E17C00010313F0030F18D18446202A0BD32DE989
:10E18C00F007B1E8F807A0E8F807A2F12002202A6E
:10E19C00F7D2BDE8F007042A07D351F8043B40F846
:10E1AC00043BA2F10402042AF7D2002A05D011F88C
:10E1BC00013B00F8013B013AF9D1604670478446B7
:10E1CC00002A2DD010F0030F04D000F8011B013AE7
:10E1DC0026D0F7E7C9B241EA012141EA0141202AE0
:10E1EC0012D3A2F120022DE9F0030B460C460D468A
:10E1FC000E460F4688468946A0E8FA03203AFBD221
:10E20C00BDE8F00320320BD0042A05D340F8041BE0
:10E21C00043A05D0042AF9D200F8011B013AFBD1CB
:10E22C0060467047024610F0030F16D111F0030F31
:10E23C0013D12DE9F0004FF001374FF0803351F836
:10E24C00044BA4EB070525EA04051D4002D142F856
:10E25C00044BF4E7A1F10401F0BC11F8013B02F806
:10E26C00013B002BF9D1704700F1010110F0030FB5
:10E27C0011D010F8012B002A23D010F0030F0AD074
:10E28C0010F8012B002A1CD010F0030F03D010F84B
:10E29C00012B002A15D02DE970004FF001324FF000
:10E2AC00803350F8044BA4EB020525EA04051D400D
:10E2BC0000D1F6E7A0F1040070BC10F8012B002A85
:10E2CC00FBD1A0EB010070472DE9F04F00230C4669
:10E2DC0003608FB014F8011B09928346002900F0EB
:10E2EC00DC86254607E05846FFF76CFE15F8011B47
:10E2FC00002900F007812529F5D12B46002613F8BB
:10E30C00010B30283AD81F280ED9A0F12002102A70
:10E31C000AD8DFE802F04A09094609090942090945
:10E32C00093E093A09092B002A2840F0C380099AB2
:10E33C00187817680432002F0992BCBF7F4246F050
:10E34C001006AB1C2E2800F0CB804FF00008742870
:10E35C002FD07A282DD06C2800F0E4804C2800F0C7
:10E36C00FC80682800F00A811D4625E046F4007602
:10E37C001D462B4613F8010B3028C4D95E2840F0FB
:10E38C00998046F480561D46F3E746F010061D466C
:10E39C00EFE746F020061D46EBE746F400461D4627
:10E3AC00E7E746F080061D46E3E746F040061D46CB
:10E3BC00DFE71D4615F8010B782800F2D180DFE865
:10E3CC0010F07106CF00CF00CF00CF00CF00CF00F0
:10E3DC00CF00CF00CF00CF00CF00CF00CF00CF00B9
:10E3EC00CF00CF00CF00CF00CF00CF00CF00CF00A9
:10E3FC00CF00CF00CF00CF00CF00CF00CF00CF0099
:10E40C00CF00CF00CF00CF00CF00CF00A203CF00B2
:10E41C00CF00CF00CF00CF00CF00CF00CF00CF0078
:10E42C00CF00CF00CF00CF00CF00CF00CF00CF0068
:10E43C00CF00CF00CF00CF00CF00CF00CF00CF0058
:10E44C00CF00CF00CF00CF00CF00CF00F802F302F7
:10E45C00A101CF00CF00CF00CF00CF00CF00CF0065
:10E46C00CF00CF00CF00CF00CF00CF00CF00CF0028
:10E47C00CF00A503CF00CF00CF00CF00CF00CF003F
:10E48C00CF00CF00CF00CF003F03E500FA02F5022A
:10E49C00A301CF00E500CF00CF00CF00CF005B037E
:10E4AC0093036603CF00CF00FD02CF002503CF00FE
:10E4BC00CF006F06A0F13002D1B209294FF000074E
:10E4CC003FF640AF13F8010B07EB870702EB47074A
:10E4DC00A0F13002D1B20929F4D92E287FF435AF3E
:10E4EC0018782A2824D1099A5878D2F800809D1CD3
:10E4FC000432B8F1000F09922B46FFF628AF46F410
:10E50C00807624E7DBF80000DBF808303BB1DBF861
:10E51C000420824203D900221A54DBF800000FB009
:10E52C00BDE8F08F1D4646F0010615F8010B43E7D8
:10E53C00A0F13002D1B2092903F101034FF0000818
:10E54C00DDD813F8010B08EB880802EB4808A0F1A2
:10E55C003002D1B20929F4D9D1E746F001061D46A3
:10E56C00664B1C68002C3FF4C1AE09A90191CDF893
:10E57C0000803B4632465946A047B7E618786828D3
:10E58C0000F05D845D1C46F0040615E706F480710E
:10E59C004FF0000946F48046099B740703F104020E
:10E5AC0009921A6840F1EF8212B2002A80F2EF82CF
:10E5BC0052424FF02D09002900F03F8226F40076DC
:10E5CC005838202822D8DFE810F0710221002100F1
:10E5DC002100210021002100210021002100210027
:10E5EC0021005900210021002100210059002100A7
:10E5FC002100210021002100840071022100210052
:10E60C002100210059002100210071024FF0FF343C
:10E61C00002328EAE878A7EB0807B9F1FF0FA7EB6E
:10E62C00030740F2AA82C9F307215846023FFFF7BD
:10E63C00C9FC5FFA89F15846FFF7C4FC30465A46CC
:10E64C003946FFF703FD5A4641463020FFF7D4FC0C
:10E65C00631C0AD001340DF12C08444414F8011D3C
:10E66C005846FFF7AFFCA045F8D1F4067FF53EAE57
:10E67C0039465A462020FFF7BFFC37E61146002AE0
:10E68C0000F0C284DFF878C006F4004000234FF09D
:10E69C002C0E03F0030208B1032A13D01C46ACFB6A
:10E6AC000132D20802EB820304F1380AA1EB4303D6
:10E6BC00EA44303309290AF80C3C04F1010319D956
:10E6CC001146E6E703F138026A445C1C02F80CECD4
:10E6DC00E5E71146002A00F097840BA8002302F00E
:10E6EC0007023032C90800F8012B1C460A460133D8
:10E6FC000029F4D1A8EB03088BE700BFAC33002052
:10E70C00CDCCCCCC46F4005646F4406A099B07337A
:10E71C0023F0070303F10802D3E900010992FFF784
:10E72C00D7FA1AF4807F044600F00782B8F1000F84
:10E73C0007D10AF44068A8F54068B8FA88F84FEA9F
:10E74C0058182046FFF7EEFA002840F0FE812046CC
:10E75C00FFF7F0FA0490002840F01E842046FFF7E3
:10E76C00F1FA18B104F100444AF0600A0AA92046F3
:10E77C00FFF720FB0A9BBA4A03EB430382FB0329F6
:10E78C00DB17C3EBA90900212046CDF82890FFF731
:10E79C00F1F9002800F021820AF44066B6F5806F8A
:10E7AC0009D0B6F5406F40F03482C84503DD19F14D
:10E7BC00040F80F22E82C9F10000FFF7E3FB214623
:10E7CC00FFF7E8F800210446FFF7D4F9002833D10D
:10E7DC002046FFF7A7FA002840F0B781A149204650
:10E7EC00FFF7D6F980B10A9B03F101099D49204638
:10E7FC00FFF736F99B490446FFF7CAF94B4609F176
:10E80C0001090028F2D10A934FF07E512046FFF700
:10E81C00F1F988B10A9B03F1FF3992492046FFF7C1
:10E82C00B9F84FF07E510446FFF7E4F94B4609F175
:10E83C00FF390028F1D10A93B8F1000F00F0B28132
:10E84C00B6F5406F00F0E582C8F10000FFF79AFBC7
:10E85C004FF07C51FFF79EF82146FFF709F88149EC
:10E86C000390FFF795F9039A58B10A9B7D4910461E
:10E87C0001330A93FFF7F4F80246B8F1000F00F0E9
:10E88C00AD820AF40863B3F5006F00F06C8208F1F6
:10E89C000503FF1A0A9C2AF400630393013F1AF440
:10E8AC00805300F02183704B83FB0413A3EBE473C0
:10E8BC0003EB4303E31A00F0D483022B104600F061
:10E8CC00C483013300F0C1836649FFF763F8013C50
:10E8DC00013F02460A940A2600234FF0020928EA57
:10E8EC00E8781AF0600F204618BF07F1FF37CDE922
:10E8FC000523FFF7DDFBDDE9052363281046C8BFC0
:10E90C0007F1FF3707930592FFF7A6F90446FFF7C7
:10E91C00CBF9059A01461046FFF738F8534B039A8A
:10E92C000593039B089003F4806312F4047F069311
:10E93C0027EAE77A079B00F0E081039A900640F102
:10E94C00EE8112F0400F14BF2D212B215846079356
:10E95C00FFF738FB079B039AD20640F1EE8109F1D1
:10E96C0000520599424F0795023A01EBC2025D46EF
:10E97C004FF000099346B44279EB03024FF030019B
:10E98C0007D3A41BB44201F1010179EB0302C9B214
:10E99C00F7D22846FFF716FB5F4500F05682DBE9FD
:10E9AC000063ABF1080BE6E746F4005646F4006A48
:10E9BC00ACE646F4005646F4806AA7E6099B1A1D9D
:10E9CC0009921868002840F0D6832A4C06F480730C
:10E9DC00204626F40076002B00F0CB804146FFF752
:10E9EC0093FB8046A7EB08075A4639463046FFF79B
:10E9FC002DFBB8F1000F3FF438AEA04414F8011B06
:10EA0C005846FFF7DFFAA045F8D12EE616F48071D0
:10EA1C0006F480424FF0000918BF26F40076002A55
:10EA2C007FF4BAAD099B1A1D09921A68730740F15D
:10EA3C00B48092B200297FF4C1AD4FF00108BFE55C
:10EA4C00099B013F191D1C780991304639465A46DD
:10EA5C00FFF7FCFA21465846FFF7B4FA05E600BF6B
:10EA6C00676666660000204156555555C80202007F
:10EA7C00C002020094020200099BDBF80020191D61
:10EA8C0009911B6836074CBF1A701A602EE4099B5B
:10EA9C001A1D099216F0800F1A6846F480760CBF86
:10EAAC004FF000094FF023094FF008081146002AD7
:10EABC0000F0AA82DFF8E8E2DFF8E8C206F40050C2
:10EACC000BAA002409E01CF80A3002F8013B0909E2
