:020000022000DC
:10600000000001205D630200BD630200BF63020067
:10601000C1630200C3630200C56302000000000008
:10602000000000000000000000000000C763020044
:10603000C963020000000000CB630200CD630200D0
:1060400021E30200CF630200DDE00200CF63020023
:1060500095CF0200CF6302000DEB02009DE302002A
:1060600045E80200CF630200CF630200CF63020065
:10607000CF63020005F30200CF630200CF6302008A
:1060800001EF02006D9C0200CF630200CF630200AB
:10609000099D0200CF63020081CD0200CF630200A0
:1060A000CF630200CF630200CF630200CF63020020
:1060B000CF630200CF630200000000000000000078
:1060C000CF630200CF630200CF6302007DEC0200C9
:1060D000F1EF0200CF630200CF6302000000000076
:1060E00000000000000000000000000000000000B0
:1060F00000000000000000000000000000000000A0
:10610000000000000000000000000000000000008F
:10611000000000000000000000000000000000007F
:10612000000000000000000000000000000000006F
:10613000000000000000000000000000000000005F
:10614000000000000000000000000000000000004F
:10615000000000000000000000000000000000003F
:10616000000000000000000000000000000000002F
:10617000000000000000000000000000000000001F
:10618000000000000000000000000000000000000F
:1061900000000000000000000000000000000000FF
:1061A00000000000000000000000000000000000EF
:1061B00000000000000000000000000000000000DF
:1061C00000000000000000000000000000000000CF
:1061D00000000000000000000000000000000000BF
:1061E00000000000000000000000000000000000AF
:1061F000000000000000000000000000000000009F
:10620000354936480A1A02D0072291438D4634494F
:1062100034480A1A06D00722914381F309880222E2
:1062200082F3148830483149314A00F044F831484B
:106230003149324A00F03FF831483249324A00F0E1
:106240003AF832483249334A00F035F83248334997
:10625000334A00F030F833483349344A00F02BF821
:1062600033483449344A00F026F83448344900228F
:1062700000F02CF833483449002200F027F8334866
:106280003349091A082902DB002202604160314AC1
:1062900090471F481F49884205D00268043003B464
:1062A000904703BCF7E700208646EC46002000211B
:1062B000294A9047FEE7884207D0521A05D0037852
:1062C00001300B700131013AF9D17047884202D098
:1062D00002700130FAE770470000012000E0002062
:1062E0000000012000000120D8B00300141A002093
:1062F0004C1C0020D4630200D4630200A48103007C
:10630000D8B00300141A0020141A00202C830300B4
:106310002C830300308303002C8303002C830300B1
:106320002C8303003083030030830300D8B00300C4
:1063300010B303004C1C00204C1C00204C1C0020FF
:10634000DC9C0020DC9C0020E49C0020E49C0020DD
:10635000E4BC002085630200718A02001048804777
:1063600010484FF00701884385460F4880470F4883
:10637000016841F470010160BFF34F8FBFF36F8F6D
:10638000FFF73EBF0A480B490B4A884207D0521A12
:1063900005D0037801300B700131013AF9D1704713
:1063A000D16302000000012085C4020088ED00E0F6
:1063B00018830300001A0020141A0020FEE7FEE7ED
:1063C000FEE7FEE7FEE7FEE7FEE7FEE7FEE7FEE7A5
:0463D000704700BF53
:1063D40000487047D49C0020BFF34F8F0549064BFB
:1063E400CA6802F4E0621343CB60BFF34F8F00BF6F
:1063F400FDE700BF00ED00E00400FA0572DF70471E
:1064040073DF704774DF70478ADF70478BDF704734
:1064140070470000052830B50ED1094BD3E90001BF
:1064240010F1807441F10005C3E90045D3E900454A
:1064340000212046C3E90001024B01221A7030BD3D
:10644400785A0020805A00207047000008B503786D
:10645400012B05D0022B07D0044B01221A7008BD72
:10646400034809F07DFAF7E70248FAE74E490020AD
:10647400308303004083030038B50D4C0D4D0E48A6
:1064840009F06EFA226829680C4809F069FA0C4B85
:106494002868002119600B4B01221A60236883428B
:1064A400A5BF094B216001331A70B8BF236038BD02
:1064B400CC1C0020D01C0020508303005E8303000A
:1064C40070480020A05A00208548002008B50348E1
:1064D40009F046FA024B01221A6008BD73830300D7
:1064E4009C5A002008B5034809F03AFA024B0122ED
:1064F4001A6008BD81830300985A002010B5014634
:1065040004462C4809F02CFA072C52D8DFE804F092
:106514000410171E2D343B4A2748284B2849C01A1B
:10652400C0080004BDE8104040F0030009F01EB9A3
:106534002148224B2349C01AC0080004F2E71E4830
:106544001E4B2149C01AC0080004EBE71B4B1A4834
:106554001E49C01AC008000440F0030009F006F9FF
:10656400BDE810400020FFF74DBF1348134B1849F6
:10657400C01AC0080004D5E70F48104B1549C01ACB
:10658400C0080004CEE70D4B0B481349C01AC008DD
:10659400000440F0030009F0E9F8BDE810400320CE
:1065A40003F0E2B80448054B0C49C01AC0080004C3
:1065B400B8E710BD8F8303002C820300C48103005D
:1065C400A4830300C0830300E08303000284030068
:1065D4001A840300368403004D8403006784030097
:1065E40010B5134809F0BCF9124B134901221A7073
:1065F400124A0C6813680133136014B1012C0DD0D6
:1066040010BD042BFCDD0E48146009F0A9F94FF00D
:106614008043B122C3F81C25FFF7DEFE042BEFDD17
:1066240000230848136009F09BF9074B1C70E7E747
:106634007F8403007C4800207848002070480020B4
:106644008F8403009C8403007448002010B5044622
:1066540010F0F8FA0346820802EB42002344A342F6
:1066640005D013F8012D3D2A01D10138F7E710BDFB
:1066740038B5054D044645F001054FF47A40A84766
:10668400013CFAD138BD00BF508F03001FB50D483F
:1066940006F0C2FD08230722CDE900234FF0CC7297
:1066A4000292ADF80C30084A06480023694606F009
:1066B40015FD08B102F0A8FC024806F081FD05B002
:1066C4005DF804FB108F03005164020008B5094B08
:1066D400D3F80405084BD3E90023104319460FF0FF
:1066E4003FFC0FF069FC054B00220FF059FA0FF044
:1066F40011FC08BD00400240785A00200040EF3FE2
:1067040013B50D4B00930D4A0D48002369468DF8CF
:10671400043008F00DFC10B10A4809F021F9084CC6
:10672400204608F047FC236801219960204608F0C0
:106734004DFC02B010BD00BF1F000F001964020021
:10674400CC1B0020AC840300000000002DE9F047BE
:106754000FF29009D9E900892DED048BDFED1F8A32
:106764009FED1F9AA0F1020A00F108050024F1EE42
:10677400089A3AF9023F03B307EE903AB8EEE78A73
:1067840028EE098A38EE088A28EE298A18EE100ABB
:106794000FF012FC0FA3D3E9002306460F460FF0B7
:1067A40081FB50B142464B46304639460FF096FBCA
:1067B40018B1013478EE888AE4B2AA45D9D107EE3B
:1067C400904AB8EEE70A88EE800ABDEC048BBDE877
:1067D400F08700BF9A9999999999054000000000A3
:1067E40017D90E3A9A9999999999114070B592B01E
:1067F400174C59230025ADF800301826154B029389
:106804003C22002103A8ADF8046010F09FF9042392
:106814003246294620468DF80C508DF80F30CDF8BD
:1068240030D010F093F965602575A5810A4D0523D4
:10683400296823702A1D4FF4486303A8A36005F058
:10684400DDFF224629460548FFF7D8FD12B070BD8A
:10685400603400202D1A00201C1A00202C1A00205D
:10686400024B01211878FFF7CBBD00BF2C1A002082
:10687400014B1878FFF7C6BD2C1A002007B500237A
:10688400019306F0E3F90146084809F069F801A903
:10689400012006F0A3FA0199054809F061F801A85E
:1068A40006F0F4FA03B05DF804FB00BFBE840300F5
:1068B400C8840300F0B51D4C1D4D85B0204602F080
:1068C40053FC0146284609F04BF81A490B894F8AB4
:1068D4000E8AC8894A898989A060A1F26C7C013A30
:1068E4000090A1F5FA61CDE901671348E3602261E4
:1068F400C4F814C02760666009F032F8204602F03C
:1069040033FC0146284609F02BF8204602F02CFC03
:106914000A4B18600A4B1B6801229A60094B00203D
:106924000021C3E9000105B0F0BD00BFA45A002056
:10693400978C030094490020DB840300C85A00208C
:10694400CC1B0020785A00207FB54FF08051134EA5
:10695400D1F8A820D1F8A830D1F8A400D1F8A440E7
:10696400D1F8A450D1F8A410C5F30725C9B2C4F3D3
:106974000744000EC2F307220391009008490295D0
:106984000194DBB242F0C00230460FF04AFF0548E2
:10699400314604B0BDE8704008F0E2BF4F49002022
:1069A400FA840300859A03003220FFF761BE0000D9
:1069B40008B507F0EFFB002007F032FC02F098FE68
:1069C40010B10D4808F0CCFF0C4808F0C9FF07F0DF
:1069D4008BFF70B10A4808F0C3FF6420FFF748FE3C
:1069E4004FF0A0430322C3F80C270822C3F808255C
:1069F40008BD0448EFE700BF1385030026850300A4
:106A0400468503006385030008B5FFF737FFFFF7EA
:106A1400EDFEBDE80840FFF723BF000007B50323E0
:106A2400084AADF8043001A9112007F095FF10B110
:106A3400054808F095FF0121112007F0FFFF03B07E
:106A44005DF804FBE565020078850300142008F076
:106A540039B807B540F20123ADF80030ADF80200B3
:106A6400031400168DF80500062168468DF80430DD
:106A74000BF088FB03B05DF804FB07B50423012188
:106A84000DF107008DF807300BF07CFB03B05DF8C7
:106A940004FB000008B50A4A4021182005F078F8E4
:106AA40008B102F0B1FA01200AF058FB054809F0D8
:106AB400D5FE18B1BDE8084002F0A6BA08BD00BF73
:106AC400383500200165020008B1FFF7BFBD7047EB
:106AD400A0F13003092B0DD920F02003413B192BE1
:106AE40008D900F0FB032B2B04D0A0F13D0358423E
:106AF4005841704701207047F8B5154604460F46C3
:106B040010F0A0F806462046FFF7DEFFA84238D86A
:106B1400B30736D1A11922468A4238D122483946D0
:106B24002246131B9E423DD91378577895782B3B08
:106B34002B3F3D2D50F823C050F8273018BF2B3D74
:106B440043EA8C1318BF50F825504FEA831318BF3B
:106B54002B43D5783D2D18BF2B3D4FEA83131CBF23
:106B640050F825502B431D140D7095783D2D1CBFF6
:106B74001D124D70D5783D2D18BF8B700432033132
:106B8400CFE70A4808F0ECFE00252846F8BD12F8C5
:106B9400010BFFF79DFF05460028BDD1044808F00E
:106BA400DFFEF2E70125F0E7641A0020A685030062
:106BB400AD8503001FB50C4A1068516801AB03C3CF
:106BC400117AD2F8090000901970684640F2011356
:106BD4000021ADF8003007F08FFC01A9022007F076
:106BE400CFFC05B05DF804FBF58E0300094B0122D0
:106BF400C003C3F80C25C3F80405D3F808151143E2
:106C0400C3F8081504494FF480300860C3F804231E
:106C14001A6070470000014000E100E008B5034835
:106C240003F05AFA024B00221A6008BD983400207F
:106C3400945A002038B50446FFF7F0FF0C4A0D487B
:106C4400002103F0EFF94FF400454FF47A5000218E
:106C540000234FF4FA42E5FB04010FF06BFB002222
:106C64000146054803F0F0F9044B00221A6038BDD0
:106C7400856C0200388F030098340020945A002059
:106C8400F8B5134808F06CFE124B01221A60124B3F
:106C94001C68944209D1114D114F2A68114E002AE3
:106CA40004DC00223C601A603470F8BD0E4B1B6893
:106CB4004FF47A705843FFF7BDFF29680B483C60D6
:106CC4000139296008F04CFE00233370EDE700BF62
:106CD400BB850300945A0020845A002034550020B8
:106CE400905A0020815A0020F01B0020C885030020
:106CF40038B5FFF75FFF4FF0A0434FF48022C3F88D
:106D040008254FF4FA70354DFFF794FF2C462B6895
:106D140013B902F003FDFAE73149042007F08AFCB5
:106D240010B1304808F01CFE3220FFF783FF2368BF
:106D340013B902F0F3FCFAE72B49042007F07AFCBC
:106D440010B12A4808F00CFE3220FFF773FF2368C5
:106D540013B902F0E3FCFAE72549042007F06AFCC2
:106D640010B1244808F0FCFD3220FFF763FF2368CC
:106D740013B902F0D3FCFAE71F49042007F05AFCC8
:106D840010B11E4808F0ECFD3220FFF753FF2368D2
:106D940013B902F0C3FCFAE71949042007F04AFCCE
:106DA40010B1184808F0DCFD4FF4FA70FFF742FF09
:106DB400236813B902F0B2FCFAE74FF0A0434FF492
:106DC4008022C3F80C2507F009FD0F4B0222C3F8FB
:106DD40008230E4B8022C3F8802138BD945A00202A
:106DE4005E3D0020DC850300603D0020E985030052
:106DF400623D0020F6850300643D00200386030005
:106E0400663D0020108603000070004000E100E0B1
:106E140008B5034803F060F9024B00221A6008BD6C
:106E2400B8340020985A002038B50446FFF7F0FF24
:106E34000C4A0D48002103F0F5F84FF400454FF4D7
:106E44007A50002100234FF4FA42E5FB04010FF0CD
:106E540071FA00220146054803F0F6F8044B0022BB
:106E64001A6038BDE9640200048F0300B8340020BE
:106E7400985A002008B5034803F02EF9024B00226B
:106E84001A6008BDD83400209C5A002038B5044646
:106E9400FFF7F0FF0C4A0D48002103F0C3F84FF44C
:106EA40000454FF47A50002100234FF4FA42E5FBE9
:106EB40004010FF03FFA00220146054803F0C4F82C
:106EC400044B00221A6038BDD1640200088F03000D
:106ED400D83400209C5A002010B5FFF7D7FF044C8B
:106EE400236813B902F01AFCFAE70023236010BDEB
:106EF4009C5A0020F8B5054600244FF0A0464FF4F4
:106F04008047AC420DDC4FF42F70C6F80875FFF7CC
:106F1400E3FFC6F80C754FF42F70FFF7DDFF013463
:106F2400EFE7F8BD08B5034803F0D6F8024B00229A
:106F34001A6008BDF8340020A05A002038B5044671
:106F4400FFF7F0FF0C4A0D48012103F06BF84FF4F2
:106F540000454FF47A50002100234FF4FA42E5FB38
:106F640004010FF0E7F900220146054803F06CF82C
:106F7400044B00221A6038BD7D6402000C8F0300AC
:106F8400F8340020A05A00204FF47A70FFF770BB49
:106F940070B52B4808F0E4FC2A480F22102104F0B5
:106FA4004BF9294B1B7813B1284808F0D9FC284821
:106FB400244E08F0D5FC234804F0B6F9214804F027
:106FC400A5FA204804F0C8F9C1B2224808F0C8FC68
:106FD400002425464FF47A70FFF74AFB304604F04C
:106FE400BBF9C1B2032907D0A942C8BF00240134A8
:106FF4005A2C1BD00D46EDE7174808F0B1FC174892
:1070040008F0AEFC002342F2107215490D4804F05A
:107014001BF90C49134808F0A3FC134808F0A0FC22
:107024004FF47A70FFF724FB012070BD0F4808F07D
:1070340097FC044804F05CF9FFF7A6FF0020F4E78E
:107044001D860300A44A0020D81B002028860300C4
:10705400348603004C8603005B86030075860300B8
:1070640086860300908603009C860300AE86030098
:1070740073B50546624808F073FC6420FFF7F8FA1C
:10708400FFF7C2FCFFF784FF002800F0B3805D48DF
:1070940004F0BCF95C495B4804F0F0F94FF4FA7071
:1070A400FFF7E6FA584A5949564804F00DFA0446DF
:1070B40018B90024204602B070BD554A55495148BC
:1070C4002B4604F03DFD6420FFF7D2FA2B465249CB
:1070D4004C48012204F00EFD4FF4806200214F4819
:1070E4000FF034FD4D4B4E4A4E49464804F092FA97
:1070F4000128DED14C4949480FF058FC0028D8D06B
:107104000FF0DDFC48498DF8000000200FF04EFC24
:107114000028CED00FF0D3FC43498DF801000020A5
:107124000FF044FC0028C4D00FF0C9FC3E498DF890
:10713400020000200FF03AFC0028BAD00FF0BFFC88
:1071440039498DF8030000200FF030FC0028B0D03E
:107154000FF0B5FC34498DF8040000200FF026FC34
:107164000028A6D00FF0ABFC06218DF80500684678
:107174000BF008F84FF0FF332C492248002204F0AA
:10718400B9FC4FF48062002124480FF0DFFC234B4C
:10719400234A24491B4804F03DFA012889D11F4899
:1071A400234DFFF753FA461C32461C482946FFF785
:1071B400A3FC18B91F4808F0D3FB7BE70024AC55A7
:1071C4001D4E21464FF4FA7230460FF0BFFC0823DF
:1071D40033702146013115F8013B7354C829F9D1A4
:1071E40015488E210AF0CEFF144808F0B9FB64203C
:1071F400FFF73EFA124808F0B3FB01245AE700BF38
:10720400C4860300A44A0020DB860300E086030052
:107214004F490020ED860300008703008C3D0020C9
:10722400098703000C8703001087030012870300FB
:107234003A550020208703008C410020308703004A
:107244004687030038B505464E480C4603F0D8F986
:107254003220FFF70DFA4B4803F012F9002800F032
:107264008A80494808F07CFB464803F0E1F9454828
:1072740003F03BFA4348012103F021FA414800217D
:1072840003F094F900223F480F2103F077F9072116
:107294003C4803F0DBF93B4803F0A4F94FF4CD700C
:1072A400FFF7C8FC4FF0A043D3F81035DA024CBF07
:1072B4003648374808F054FB364B00221A70364BD8
:1072C4001B687BBB354B1B78012B2BD00220FFF7AF
:1072D400CFF94FF0A043D3F81035DB024DD5294840
:1072E40003F000FA01462E4808F03AFB254803F063
:1072F4000BF910EE100A85ED000A0EF05DFE024651
:107304000B46284808F02CFB1E4803F01FF910EE2A
:10731400100A84ED000A0EF04FFE02460B46224886
:1073240008F01EFB00232B601648236003F0ECF8E2
:1073340085ED000A10EE100A0EF03EFE02460B46E2
:10734400184808F00DFB0F4803F000F984ED000A1B
:1073540010EE100A0EF030FE0B460246124808F0FA
:10736400FFFA0848002103F071F9FFF757FCBDE864
:107374003840FFF76BBB0D4874E70D4808F0F0FA8E
:10738400D0E700BF804800205C8703008B870300A0
:10739400A087030084480020945A00208D470020D1
:1073A400B6870300C9870300E987030074870300D5
:1073B400108803002DE9F04F2DED048B68496948CE
:1073C400A1B004F09DFA6849664804F019FB6749C6
:1073D400644804F0C7F966490023A1F10F0011F8CD
:1073E400012B0D2A04D0222AF9D0C2540133F6E726
:1073F4005E4C604E00256420E554FFF739F904F132
:107404000F015D485D4C08F0ABFA6420FFF730F9DA
:10741400FFF750FA5A4808F0A3FAFFF769FC5948F5
:1074240008F09EFA5848FFF791F9B4EE400AF1EEDD
:1074340010FAFFEE007A14BF17EE900A10EE100A4D
:107444000EF0BAFDCDE9100102460B464F4808F094
:1074540087FA1BAB1AAA19A918A8FFF7F3FE20682C
:107464004FF4947707FB006008F0F3FA01464848AC
:1074740008F076FA206807FB006008F0EAFA07EEE5
:10748400900AB8EEE70AF3EE0E7A80EE270A0EF0C1
:10749400F5FD4048A046FDEEC08A18EE903A012B57
:1074A400B8BF012319460F9308F05AFA14953A4BC2
:1074B40021681A682F4D9FED399A914200F0BC82E1
:1074C4003748DFF8F0A0DFF8F890364F08F048FAB4
:1074D4002168354808F044FA4FF4806200213348AB
:1074E4000FF034FB1E22002150460FF02FFB2068C2
:1074F4004FF4947606FB0050514608F0B0FA2C4B3A
:10750400206893F800B0BFEE008A06FB0050BBF180
:10751400000F00F0878108F096FAB4EE480AF1EE05
:1075240010FA4FD1D8F800304FF4947000FB035098
:1075340008F083FA99F8003006930F9B0593002313
:107544009DED107B04933B688DED007BCDE9020338
:10755400184B194A194915480FF063F96FE000BF39
:1075640094490020A44A0020884900208045002036
:107574008F450020EC1C002030880300AC4900201B
:107584003F8803005C8803005E3D00206D88030093
:10759400868803009B880300A8490020000000009F
:1075A400B3880300E01B0020978C03008C3D00206F
:1075B400D81B0020CC5A00204F490020FD8803002E
:1075C400A04A0020206806FB005008F03CFAB5EE03
:1075D400400AF1EE10FAA5D0206806FB005008F02E
:1075E40032FA206806FB005010EE10BA08F02EFAAA
:1075F40020688DED120A06FB005008F01EFA99F877
:1076040000200C920F9B0B9300220A923A68129B63
:10761400CDF810A09DED107BCDE9080218468DED44
:10762400067B0EF0C9FCCDE9020158460EF0C4FCFD
:10763400B84ACDE90001B849B8480FF0F2F8B84D9E
:10764400B8481E2200210FF081FA6A88B649B5486D
:107654000FF0E7F8B349B1480FF00BF9B149B3485B
:1076640008F07EF91E220021AE480FF06FFA2A8836
:10767400AF49AC480FF0D5F8AA49A8480FF0F9F87B
:10768400A849AA4808F06CF91E220021A5480FF069
:107694005DFA2A89A749A3480FF0C3F8A1499F4876
:1076A4000FF0E7F89F49A14808F05AF91E2200217B
:1076B4009C480FF04BFA6A689F499A480FF0B1F85A
:1076C400984996480FF0D5F896499C4808F048F92F
:1076D4001E22002193480FF039FA18980EF06CFC22
:1076E40002460B461998CDE912230EF065FCDDE93C
:1076F4001223CDE9000192498A480FF092F8894992
:1077040086480FF0B6F887498C4808F029F91E22FC
:10771400002184480FF01AFA8A4982480FF081F850
:1077240080497E480FF0A5F818EE903A012B40F3FB
:10773400D9801E258448DFF8EC91294608F010F919
:1077440007EE905AB8EEE78A4FF0000A38EE098A3D
:1077540007EE90AAF8EEE77AF4EEC87AF1EE10FAA2
:1077640040F1FA801E22002148460FF0EFF906226C
:1077740000211EA80FF0EAF92068744DCAEB0A161E
:107784004FF4947707FB00601CA9284408F00FF914
:1077940006221EA91CA80FF011F8002800F0DC80B6
:1077A400206807FB00600521284408F006F91790BB
:1077B400206807FB00600421284408F0FEF81690B6
:1077C400206807FB00600321284408F0F6F81290B3
:1077D400206807FB00600221284408F0EEF81590A9
:1077E400206807FB00600121284408F0E6F883467E
:1077F400206807FB00600021284408F0DEF8159B90
:107804000193129B52490093CDE902B0DDE916328F
:1078140048460FF006F8414849460FF02AF80AF1A5
:10782400010A95E708F00FF9B4EE480AF1EE10FAF0
:107834003BD0206806FB005008F005F9B5EE400A7D
:10784400F1EE10FA31D0206806FB005008F0FBF886
:1078540020688DED160A06FB005008F0F7F83D4845
:107864008DED150AFEF772FF20688DED120A06FBF6
:10787400005008F0E2F80F9B99F800500C95CDE900
:107884000AB312993D68CDE9080508460EF094FB49
:10789400159ACDF810A0CDE9060110460EF08CFB28
:1078A400169BCDE902011846C0E62A48FEF74EFFB2
:1078B400D8F800304FF4947000FB035010EE106AB7
:1078C40008F0BBF899F8003006930F9B059300234A
:1078D40004933B68CDE9020330460EF06DFBCDE91D
:1078E400000135E6D8F80000184D4FF4947606FBF5
:1078F400005008F0AEF800283FF41BAFD8F80000A1
:1079040006FB005008F0A5F81E2590FBF5F101FBDD
:1079140015050FE74F490020338903008C3D0020F3
:1079240088490020CC5A00207D8903008589030002
:107934008A890300928903009A890300859A0300C7
:10794400A2890300B589030090880300EC1C002081
:10795400FA8403005E3D002046480FF073F90146A7
:10796400454807F0FDFF4FF48062002143480FF0C3
:10797400EDF8434A434941480EF053FF3F493D481F
:107984000EF077FF149B7BB93F4803F03FFD3F495E
:107994003D4803F073FD4FF4FA70FEF769FE3B4A6D
:1079A4003B49394803F090FD32480FF04BF901464A
:1079B400384807F0D5FF384A2E49334803F0BEFD56
:1079C4004FF4806200212B480FF0C0F8294B334A52
:1079D40033492D4803F0E6FD2649324807F0C0FF3D
:1079E400314924480EF0C1FF60B1FFF717F923684D
:1079F4001421013393FBF1F201FB123323600123C1
:107A0400149354E529491B480EF0AFFF054600289E
:107A1400EBD11D4803F030FD4FF47A70FEF728FED9
:107A2400194803F065FC224807F09AFF284621B064
:107A3400BDEC048BBDE8F08F1E4807F091FF1E4893
:107A440007F08EFF6420FEF713FE23684FF4947052
:107A540000FB035007F0B7FF184B194883ED009A59
:107A6400184B83ED009A07F07BFF6420FEF700FEBD
:107A74000120DCE78C3D0020C08903003A5500203A
:107A840081450020D7890300A44A00203C8F0300CD
:107A9400288F0300E6890300F689030009870300A1
:107AA400FB890300FF8903000B8A0300178A030084
:107AB4001E8A03004D8A03009A840300844900202F
:107AC4005B8A0300B049002038B5454802F070FBDA
:107AD400444807F045FF424802F0ECFB01464248A7
:107AE40007F03EFF3E4802F0F6FB01463F4807F030
:107AF40037FF00213A4802F0FFFB3D4802F080FDC9
:107B04003220FEF7B5FD3A4802F0BAFC002836D020
:107B1400384807F025FF364802F08AFD344802F061
:107B2400E4FD3348012102F0CAFD3148002102F08E
:107B34003DFD2F480F21002202F020FD2C4800219A
:107B440002F084FD4FF0A0432B4CD3F810352B4D9D
:107B5400DA024CBF2A482B4807F002FF00232448CE
:107B6400237002F03FFD3220FFF764F82B6853B90D
:107B74002378012B07D00220FEF77AFDF6E722488E
:107B840007F0EEFEDEE74FF0A043D3F81035DB023A
:107B940022D5174802F0A6FD01461C4807F0E0FE76
:107BA400134802F0B1FC10EE100A0EF005FA02467A
:107BB4000B46174807F0D4FE0D4802F0C7FC10EE40
:107BC400100A0EF0F9F902460B46124807F0C8FEF7
:107BD400BDE83840FFF722B80F4807F0C1FEF7E7C9
:107BE400981C0020918A0300AA8A0300D28A030009
:107BF400804800205C8703008D470020945A0020B1
:107C0400E88A0300F48A030074870300B68703003C
:107C1400C9870300E9870300108803000A4B002189
:107C240019601A6801221A60A3F580531960186854
:107C34001A6003F50033196019681A60034B402277
:107C4400C3F88021704700BFFC4F004000E100E012
:107C540030B50023934205DAC55CCC5CA54203D160
:107C64000133F7E7012030BD0020FCE77FB5104D5C
:107C74004FF49473064603FB015500240F220021A0
:107C840068460EF063FF6946284607F090FE062218
:107C940069463046FFF7DCFF30B901340F2C05F19B
:107CA4000F05EBD14FF0FF34204604B070BD00BF88
:107CB400EC1C00202DE9F04303881D2B85B00446FD
:107CC40040F08280444A236A1360444AA18C1180A4
:107CD400434A94F91B101268424E0B3091423060B3
:107CE40044DB414A5D7911788D423FD199795278CC
:107CF40091423BD13D49DA790D7895423FD11D7AC5
:107D040049788D423BD13A4D2968FFF7AFFF0130E6
:107D14002CD1306894F91B4083784278017803941D
:107D24004479029404790194C07800903148324F28
:107D3400DFF8EC8007F014FE05244FF494792868EA
:107D44003978336809FB00F20F2010FB012040440E
:107D5400195D224607F033FE013CF0D23A782968D7
:107D6400264807F0FDFD3B7801333B70FEF74EFBE0
:107D74002349244805B0BDE8F043FEF745BB182A63
:107D840011D11B7A3A2BF1D11F4807F0E9FD1F4AA4
:107D94001368072B4FF0010308BF13601C4A1370CC
:107DA4001C4A1370E2E78A2AE0D11B7A3A2BDDD110
:107DB400194807F0D5FD154A1368072B4FF0010346
:107DC40008BF1360124AECE71B2B02BF134B0122BE
:107DD4001A6005B0BDE8F0836C3D0020703D0020C2
:107DE400C81B0020683D0020141A0020161A002029
:107DF400A8490020018B03003B5900202A8B030073
:107E0400481A0020501A0020368B03008C5A002098
:107E14003A590020723D00203D8B0300783D00203C
:107E2400EC1C002073B505462548264C07F098FD48
:107E3400254A002323701370019304F007FF10B147
:107E4400224807F08DFD01A9012004F0C7FF01A815
:107E540005F01CF801991E481E4E07F081FDFEF73F
:107E6400D5FA1D491D48FEF7CFFA2846FEF7E2FE73
:107E740042F21070FEF7D8FF194D217832680E29AE
:107E840005D82B68134302D101F048FCF5E7154BE4
:107E94001960154B1A68154B4FF4947000FB0230AF
:107EA40007F0DAFDFEF7B2FA00232B6004F00CFFB2
:107EB400FEF7B4FE0E4807F053FD02B070BD00BFDC
:107EC400448B03003B5900203A590020548B030093
:107ED400C8840300945A0020481A0020501A002035
:107EE400783D002078490020A8490020EC1C00209F
:107EF400628B030010B504460D4807F031FDFEF710
:107F040083FD2046FEF796FE0A4C236813B901F060
:107F140005FCFAE7FEF7ACFC04F0D6FEFEF77EFEA5
:107F2400054807F01DFDBDE810403220FEF7A0BB58
:107F3400718B0300945A0020808B030008B54FF026
:107F4400A0430822C3F808256420FEF7C5FF642077
:107F5400FEF78EFB0B4B00221A60FEF789FC04F03F
:107F6400B3FEFEF793FB084B084AC3F800266420CF
:107F7400FEF77EFBFEF752FEBDE80840044807F01A
:107F8400EFBC00BF845A0020000001403546526E09
:107F94008E8B030010B5254807F0E2FC244B1A78B9
:107FA40012B9244A126882B100221A70224B1A7044
:107FB400224B1B68012B02D10A20FEF759FB2048F3
:107FC40007F0CEFC1F4B09221A601F4805F024F964
:107FD4001E4B1F4800241C7006F07AFEFFF71EFE9D
:107FE400FEF712FD1B4B1C601B4C2368002BC6BF05
:107FF4004FF47A7058430520FEF71CFE174B0122FC
:108004001A602368002B04DC0520BDE81040FEF74D
:1080140095BFB3F5616FA9BF4FF461634FF47A70F4
:108024000F482360B8BF5843EFE700BF978B0300A6
:10803400854800209C5A0020A04A00206C4800205B
:10804400A28B03008C5A0020108F0300815A002059
:108054001C8F0300905A0020F01B0020845A00203B
:1080640080EE360010B5104C1E22002120460EF082
:108074006DFDFEF72BFB0D4B0D494FF47A72B0FBEF
:10808400F2F01A68024420460EF0CBFB094801F0D6
:108094006BF80146084807F063FC21460748BDE831
:1080A400104007F05DBC00BFCC5A0020C85A002025
:1080B400B88B0300A45A0020BC8B0300CD8B0300B3
:1080C400F8B50F4C0F4D20680F4E29884FF4947764
:1080D40007FB006007F0B4FCFFF7C4FF20680B49FE
:1080E40007FB006007F0C2FC23681421013393FBF3
:1080F400F1F201FB123323602B6801332B60F8BDCE
:10810400A849002090470020EC1C0020CC5A0020F5
:1081140070B50025461CB1EB450F16D910F8153083
:10812400392B86BF43F02003A3F15704A3F1300495
:1081340016F81530392B86BF43F02003573B303BEC
:1081440043EA041353550135E5E7104670BD0000BA
:108154002DE9F347FEF78CFB04F0B6FDAB480EF0B7
:1081640071FD002800F09F81A849A94807F0F8FB99
:10817400A849A6480EF01AFC002800F099810EF0D8
:108184009EFCC82840F09481A249A34D00200EF023
:108194000DFC002800F08F810EF091FC9F4B2860AD
:1081A400186000249B499E4E00200EF0FFFB00281F
:1081B40000F0838124B90EF082FC9A4B3060186081
:1081C400944900200EF0F2FB002800F078811CB9DD
:1081D4000EF075FC944B18608E4900200EF0E6FBFF
:1081E400002800F06E811CB90EF069FC8F4B1860FA
:1081F400884900200EF0DAFB002800F0648134B9CD
:108204000EF05DFC4FF47A735843894B1860814932
:1082140000200EF0CBFB002800F0578134B90EF09B
:108224004EFC4FF47A735843824B1860794900200E
:108234000EF0BCFB002800F04A8134B90EF03FFC7C
:108244004FF47A7358437C4B1860724900200EF047
:10825400ADFB002800F03D8154B901AA0421FFF7C9
:1082640057FF764B9DF804201A709DF805205A702C
:10827400684900200EF09AFB002800F02C8154B9C4
:1082840001AA0421FFF744FF6D4B9DF804201A70E6
:108294009DF805205A705F4900200EF087FB0028E6
:1082A40000F01B812CB90EF00AFC664B1860664B7B
:1082B4001860584900200EF079FB002800F00F8167
:1082C4002CB90EF0FCFB614B1860614B18605149EE
:1082D400604FDFF8B88100200EF068FB814600286B
:1082E40000F00A8154B90EF0EAFBB0F5807FDFF8A4
:1082F400A0A140F0F68001238AF80030454900200F
:108304000EF054FB002800F0F9801CB90EF0D7FBE6
:10831400514B18703F4900200EF048FB002800F034
:10832400EF801CB90EF0CBFB4C4B18603949002090
:108334000EF03CFB002800F0E58034B90EF0BFFBE2
:108344004FF47A735843464B18603249DFF844912E
:1083540000200EF02BFB002800F0D6802CB90EF084
:10836400AEFB012801D189F8000099F800301BB157
:1083740014B93C4B04221A60264900200EF016FB67
:10838400002800F0C3802CB90EF099FB012801D815
:10839400354B18602968354807F0E2FA98F8002050
:1083A4003978334807F0DCFA3168324807F0D8FAF4
:1083B400314B18680DF000FE02460B462F4807F0BB
:1083C400CFFA2F4B18680DF0F7FD02460B462D48E7
:1083D40007F0C6FA2C4B2A680E491A6000200EF0EA
:1083E400E5FA00285FD0002C5DD10A4920460EF042
:1083F400DDFA002857D0074920460EF0D7FA0028A6
:1084040051D0044920460EF0D1FA45E080430020C3
:10841400E68B030010870300E41B00208049002042
:10842400345500207C490020C81B0020D01C0020AB
:10843400BC1B0020A81B0020A41B0020161A00202F
:108444002D1A0020C01B0020B41B0020C41B0020D8
:10845400EC1B00205D3D00205C3D0020583D0020C9
:10846400B01B00208C5A00206C480020F78B0300BE
:108474000C8C0300338C030084470020458C0300DC
:10848400884700205E8C0300F01B0020B81B0020EE
:108494008C4700203855002028B10EF010FB01282D
:1084A40004BF1B4B18701B4B1B48196807F058FA84
:1084B40002B0BDE8F087012474E6012480E60124BB
:1084C4008AE6012494E60124A1E60124AEE601240F
:1084D400BBE60124CCE60124DDE60124E9E601241F
:1084E400F5E648460EF0EBFAC0B23870800188F821
:1084F40000008AF8004001E70124FFE6012409E7AF
:10850400012413E7012420E701242EE7012441E795
:1085140039550020F01B0020778C030007B5324842
:1085240007F01EFA4FF48062002130480EF00EFB73
:108534004FF4007200212E480EF008FB2D4A2E49FC
:108544002A480EF06EF92D4A28492D4802F0F6FF0C
:10855400274B2C4A2C492A4803F024F824492B4859
:1085640007F0FEF94EF66020FEF75EFC284B1B6810
:108574003BBB284B01221A70FEF74AFC264807F041
:10858400EFF9264B1A49186800901B798DF80430CE
:1085940068460EF030FB08B1FFF7DAFD204807F01B
:1085A400DFF9174802F068FFC820FEF761F81448A5
:1085B40002F09EFE1B4807F0D3F9012003B05DF8DA
:1085C40004FB0F4802F058FF0D4802F091FEFEF73D
:1085D400DBFC154B1A68154B1A60154B1A68154BC2
:1085E40000201A60EAE700BF9B8C03008C3D00204A
:1085F400804300204F490020BC8C0300C48C03003E
:10860400A44A002009870300FB890300FF890300B3
:10861400945A002080470020DA8C03006B8D0300FD
:10862400138D03003D8D030080490020E41B0020CE
:108634007C490020345500202DE9F74F0090642038
:10864400FEF716F8009B82498248834D834FDFF87A
:108654002492002203F04EFA4FF4806200218048F5
:108664000EF074FA7E4B7F4A7F497A4802F0D2FFBB
:108674007B480EF024FA044601467C4807F070F962
:10868400A4F58053019301234FF4FA580093019BFE
:1086940013F58056A8F5FA547AD24FF48050FEF7B9
:1086A400D8F9DFF8B0B1DFF8B8A16C4EC8220021C8
:1086B40038460EF04BFA6420FDF7DAFF2246C83440
:1086C40023464946584603F015FA4FF480620021C8
:1086D40050460EF03BFA5346624A6549584602F04A
:1086E40099FF3A46C8215046FFF712FD4FF4FA723B
:1086F400002128460EF02AFA08232B703246002364
:10870400013312F8011BE954642BF9D16521284681
:1087140009F038FD4445C8D1C822002138460EF07E
:1087240015FA009B4B485B034246494603F0E2F9C5
:108734004FF4806200214A480EF008FA484B494A37
:108744004949444802F0C0FF3A46C0214448FFF773
:10875400DFFC4FF4FA72002128460EF0F7F90823E3
:108764002B700023013316F8012BEA54602BF9D146
:108774006121284609F006FDFEF77FF9009B0133CD
:108784000093019BA3F58053019308F500587EE7FD
:108794003046FEF75EF9DFF8BCA0642EA3464FF026
:1087A400C8024FF00001384629DDC8340EF0CEF976
:1087B40023465A464946504603F09CF94FF48062DA
:1087C400002127480EF0C2F9254B264A2649504677
:1087D40002F07AFF3A462248C821FFF799FC0823A1
:1087E4001E4A2B700023013312F8011BE954642B39
:1087F400F9D16521284609F0C5FC643ECDE70EF0A9
:10880400A5F904EB460322464946124803F072F9DF
:108814004FF48062002112480EF098F94FEA460A9C
:108824000F4B104A10490B4802F04EFF3A460C48D1
:108834005146FFF76DFC0823084A2B7000230133CF
:1088440012F8011BE954B342F9DB711CC9B290E779
:10885400718D0300A44A00208C410020864800202A
:108864008C3D0020098703000C870300818D0300E1
:10887400A38D0300988D030007B5CC20FEF7F8FB09
:1088840010B9084807F06CF86420FDF7F1FE0423E2
:108894000DF1070001218DF8073009F073FCCC209D
:1088A400FFF7CAFEA78D0300F8B51E4C1E4F012327
:1088B40023704FF0A0434FF0005200253D704FF459
:1088C400FA60C3F80825FDF7D3FEFEF761FB2646E0
:1088D40098B1FEF76FFD044678B1144B1D70144B2C
:1088E4001D60FFF71BFE48B14FF47A70FDF7C0FE20
:1088F400104B1B7813B1FFF7BFFF00244FF0A043C8
:1089040000254FF000523D70C3F80C250A4B1A683D
:108914000A4B4FF4947000FB023007F054F83570A2
:108924002046F8BDB4490020B5490020A04A0020E3
:10893400CC1C002039550020A8490020EC1C002044
:1089440008B5FDF7C3FE044B1B68C01A4FF47A73D5
:10895400B0FBF3F008BD00BF9C4A0020F0B51A4CF0
:108964001A4D85B01822002120460EF0EFF852234C
:10897400237058236370164B1B782BB9154B18685A
:10898400FFF7DEFFA5F8420095F840602675B5F8BC
:10899400425011482F12EDB26775A575FDF7D6FE4A
:1089A400F2EE047A20EE270A3A46FCEEC07A31460B
:1089B400CDED037A9DF80C30E375009307482B4600
:1089C40006F0CEFF05B0F0BD2D1A0020EC5A0020B1
:1089D400AC1B0020E81B00205E3D0020C48D03007A
:1089E4000F4B10B51868FFF71DFAFDF74FFEFEF7A1
:1089F4007FF90C4801F090FEFFF7B0FF0A4B1868AE
:108A0400FFF778FA094B1868002807DDFEF712F91A
:108A1400074C236813B900F081FEFAE710BD00BFCC
:108A2400D41B00200C340020601A0020DC1B002022
:108A3400945A0020F8B5054619B9BDE8F840FEF788
:108A440059BA00244FF0A0464FF48047AC420BDCE7
:108A54006420C6F80875FEF73FFAC6F80C75642062
:108A6400FEF73AFA0134F1E7F8BD00002DE9F84FBA
:108A74002DED028BFDF79CFFFDF742FEFDF706FE90
:108A8400FDF762FF01F09CFA4FF47A70FEF724FAC6
:108A9400BF48C04D06F064FF4FF0A0430322C3F863
:108AA40038270220C3F87427C3F84827FEF722FAB0
:108AB4004FF47A70FEF710FA00242846013406F0C9
:108AC40082FF142C05F59475F7D1FDF7E3FFB24B43
:108AD400B24DB34EB34FB44C0A221A70B34B0222B8
:108AE4001A704FF4FA632B60B14B40F6B8321A6037
:108AF4004FF4E163336001233B60AE4B49221A70AB
:108B04004FF4E15054225A70FEF770F8FDF786FFD7
:108B1400FEF7DAFFFEF7ECF8A748FDF717FE4FF46F
:108B2400FA7084ED000AFDF7A3FD20680DF044FA05
:108B340002460B46A14806F013FF94ED007ADFEDE0
:108B4400A07AB4EEE77AF1EE10FABB4606D84FF0FD
:108B540080439C48D3F8001406F002FF4FF0804392
:108B6400D3F80024012A1A4652D0D3F8001400295D
:108B74004ED04FF0FF32C3F800242868924CFFF720
:108B840051F9FFF79DFA4FF47A70FEF7A5F9FFF754
:108B94008BFE8E48FEF7D2F94FF47A70FEF79CF9FB
:108BA4008B4B00221A702368002B3AD0FFF7F2F99E
:108BB4004FF0A043D3F810359B0347D48548864F24
:108BC400DFF84C92DFF8248206F0CAFE0420FEF798
:108BD40091F9FDF74DFE04F077F844F62060FEF7B6
:108BE400ADF9012379483B60FEF750F9DFF824A280
:108BF4009AF80030C3B900F091FDD9F80030002B89
:108C0400F6D07248FEF742F9744BC3F80086EDE7DC
:108C1400B123C2F81C354FF0FF33C2F80034FDF71E
:108C2400DBFB09232360C1E701210520FFF702FFD5
:108C340043F69820FEF750F900233B6033684FF465
:108C44007A705843FEF77AF9FDF7DEFE644801F0C6
:108C540063FD2368013B092BFDD801A252F823F0E0
:108C6400458E02005B8C02005B8C0200A38E020026
:108C74005B8C02005B8C02005B8C0200B58E0200F0
:108C84003F8D02008D8C02005648DFF880A106F06B
:108C940067FEFFF77FF94FF0A0430822C3F80C25C5
:108CA400514F3B78002B3BD000F038FDDAF8003010
:108CB400002BF6D0494B4D4A4FF000094FF0A04825
:108CC400CAF80090C3F800260823C8F80835FDF751
:108CD400DDFC0A20FDF7CCFCFEF70AF83648FDF768
:108CE40035FD10EE100AB0EE408A0DF065F902462B
:108CF4000B463F4806F034FEF0EE0C7AB4EEE78AF9
:108D0400F1EE10FA02DB87F80090C9E73B78002BFC
:108D1400C6D0334801F000FD0823C8F80C35BFE77E
:108D2400344A354801211170344A137000F0D5F9E2
:108D3400FDF73AFE092323608BE73148DFF8B4805E
:108D440006F00EFE31682F4806F00AFEDBF800102C
:108D54002D4806F005FEDFF8A490DFF88CA099F802
:108D64000030002B58D198F80020002A54D19AF8EA
:108D74000070002F50D100F0D1FC244B1A68002A57
:108D8400EDD0164A1949C2F800161F60E3E700BF88
:108D9400F98D0300EC1C00205D3D0020A81B002081
:108DA400F01B0020D01C0020743D00205C3D0020FE
:108DB400B01B0020161A00205E3D00206D880300C1
:108DC4009A995940038E03008C5A002080EE360095
:108DD400D81B0020138E03007848002000000140B7
:108DE4000C340020348E0300733D00203546526E4F
:108DF400528E030085480020D81C0020A04A002081
:108E04005E8E0300778E03008C8E0300A05A002030
:108E14009C5A002074480020304A0021116013B984
:108E24002F4A12784AB10122226033B12D4B1B68BC
:108E34004FF47A705843FEF729F8FEF773F808E701
:108E4400294806F08DFD00F069FC284B1B683BB9EE
:108E5400274B1B7823B9224B1B78002B3FF4F9AE28
:108E6400FFF76CF82B6823B9052322482B6006F022
:108E740077FD2868FEF7D6FFFFF722F91E4B1B7813
:108E840043B91E4B1B782BB1154B1B7813B9184BE8
:108E94001B780BB1FFF708FDFFF77CF8D9E64FF01C
:108EA4008043B122C3F81C256420FDF7E1FBB6E63C
:108EB400134B00271F60CBF80070FFF791FD114B97
:108EC4001B68002B3FF4C5AE012323600E4B4FF407
:108ED4007A701F70FDF7AEFEBBE600BFCC1C00200D
:108EE40085480020EC1B0020A68E0300905A002029
:108EF400A04A0020BE8E0300815A0020B91B002026
:108F040034550020985A0020EC5A002010B504462D
:108F14000DF0CAFE204610BD264A2748128838B5EF
:108F2400264B274D5A80274A12889A80264A12884F
:108F3400DA8000F06BFC0024281904F5947406F020
:108F44006CFDB4F5B95FF7D12049214801F0DBFB92
:108F5400204800F0C3F9204803F0C4FF1F4800F084
:108F6400A3F81F4801F0DBF91E4A1F491C480DF005
:108F740015FB41211D4801F080FA00211C4801F035
:108F840079FF184A1B491A480DF008FB28224FF0B4
:108F9400FF31194801F09EFC124A184916480DF099
:108FA400FDFA174801F0A8F8BDE83840154802F06A
:108FB400EDBD00BF181A002094470020501A00206D
:108FC400EC1C00201A1A0020D41C0020108F03006F
:108FD4000C340020705A00203C590020D81C00207A
:108FE400501C0020D09C002073A402008048002064
:108FF400B8490020156402007C3D00204D64020045
:10900400981C0020604900201FB50021039001AA8C
:1090140044F20100CDE9011100F004F805B05DF857
:1090240004FB000072B6094B1B68DB0700D500BEC9
:10903400BFF34F8F0649074BCA6802F4E06213433B
:10904400CB60BFF34F8F00BFFDE700BFF0ED00E042
:1090540000ED00E00400FA0510B50D49A1F5947285
:10906400914201D800200FE08C1AE30F03EBE403D4
:109074005B1002EBC30452F83330834205D802D2AA
:1090840004F10802ECE7606810BD2146E8E700BF80
:109094009094030008B5FFF7DFFF024B002808BFD8
:1090A400184608BD52930300704738B504460D4670
:1090B4000179006801F05DFB2946206801F093FB0B
:1090C400206801F08BFB21792068012201F04EFB1E
:1090D400206801F098FBC0B238BD38B501210546BF
:1090E400FFF7E3FF002104462846FFF7DEFF40EACE
:1090F400042080B238BD0000F0B50F4B85B00646A1
:109104000A466C4603F1080718685968254603C5E2
:109114000833BB422C46F7D118681B792860022A11
:109124002B7101D1B30705D004AB1A4412F8100C0B
:1091340005B0F0BD1D20FBE7909403002DE9F0413C
:1091440088460746154601210024414508D2384681
:109154004E1CFFF7D1FFF6B223189CB23146F4E758
:10916400601980B2BDE8F0812DE9F74F044600682C
:1091740062683C2190FBF1F31A4401FB1303002BBA
:109184006260BCBF02F1FF3262606068A268ACBF7B
:1091940023603C334FF03C01B8BF236090FBF1F3F4
:1091A4001A4401FB1303002BA260BCBF02F1FF327F
:1091B400A260A068E268ACBF63603C334FF0180162
:1091C400B8BF636090FBF1F31A4401FB1303002B57
:1091D400B6BF1833A360A3602369E260BCBF02F189
:1091E400FF32E2600B2B71D8E368002B6EDD0B2796
:1091F4004FF000086569D4F8109005F26C76B6B2A9
:1092040009F1010A5FFA8AF130460191FFF774FF10
:10921400D4F80CB0019983450DDDABEB0000BAF135
:109224000C0FE06004D10135C4F810806561E1E7FA
:10923400C4F810A0DEE7BBF1000F15DC09F1FF3321
:10924400B9F1000F0CD0236121696069013100F28A
:109254006C70C9B280B2FFF74FFF5844E060C9E7B1
:10926400013D27616561EFE75FFA8BF23046FFF756
:1092740065FF463D1749184BEAB2514302F0030219
:10928400032AC5F3850508BF1A4603FB051518BF55
:1092940000220138154403FB0055E061A0684FF437
:1092A400616202FB005560683C2202FB00502568A5
:1092B4000722284490FBF3F30433B3FBF2F2C2EB2E
:1092C400C2029B1AA36103B0BDE8F08F4FF0FF30D8
:1092D400F9E700BF8033E10180510100512202709F
:1092E40000224270704700000648074A0378074985
:1092F400D35C012213B1043004F010BE0C3004F02E
:1093040097BB00BFF41B0020CC600020185B00203A
:109314000648074A03780749D35C012213B1043095
:1093240004F0AEBD0C3004F031BB00BFF41B0020D0
:10933400CC600020195B002037B50578012D0BD0D7
:10934400022D2CD0F5B91D491D4800F0B9FA0028AA
:1093540030D1FFF7DDFF15E043681A4C1978204639
:1093640000F09CFA80B18DF800500190164B6846CD
:109374001B689847A168E368A2885B1A9A420AD3DB
:10938400FFF7B2FF03B030BDA268E3689A42F1D0A0
:109394008DF80000EAE70D4B01221A70F2E7C3686A
:1093A4008DF800500193FFF79FFF074B68461B6839
:1093B4009847E7E703238DF80030F6E7195B0020B0
:1093C400085B0020F45A0020F05A0020045B0020BF
:1093D400024B9A68D868801A704700BFF45A00207C
:1093E400F0B51F46234B89B004461A600D46002988
:1093F4003DD08A882048096800F041FA002834D119
:10940400AA89A9681D4800F03AFA00282DD11C4EFB
:109414000FCE6D460FC596E80F0085E80F0063690F
:109424000693237C174A18488DF81C70003B18BF1C
:1094340001238DF81430637C002B14BF0E2300230A
:109444008DF81530E3680293A368039323680193AE
:1094540069466368009304F001FE30B90B4B187041
:109464002368013301D0FFF73FFF09B0F0BD0720A7
:10947400FBE700BFF05A0020F45A0020085B0020EC
:10948400BC9403003D930200F41B0020045B002005
:1094940008B5054800F025FA20B9BDE8084003489E
:1094A40000F01FBA08BD00BFF45A0020085B00207A
:1094B40070B5084D014608482E7800F001FA0446BC
:1094C40036B100232B70FFF70FFF08B1FFF79CFDA7
:1094D400204670BD045B0020F45A002010B50146FC
:1094E4000E4800F0DBF90446A8B90D480D4A03788C
:1094F400D35C63B1043004F005FD60B90A49074840
:1095040000F0DEF938B9BDE81040FFF701BF0C30B8
:1095140004F082FAF1E7204610BD00BF085B00208A
:10952400F41B0020CC600020195B002008B507481C
:10953400074A0378D35C23B1043004F03FFC0020D5
:1095440008BD0C3004F0C0F9F9E700BFF41B00209B
:10955400CC60002010B5034653E8000F0A4643E8E8
:10956400002494F0000FF7D110BD10B5034653E862
:10957400000F40EA010243E8002494F0000FF6D102
:1095840010BD10B5034653E8002F42EA010043E83A
:10959400000494F0000FF6D110BD10B5034653E853
:1095A400000F00EA010243E8002494F0000FF6D112
:1095B40010BD10B5034653E8002F02EA010043E84A
:1095C400000494F0000FF6D110BD10B5034653E823
:1095D400002F02EB010043E8000494F0000FF6D1E1
:1095E40010BD10B5034653E8002FA2EB010043E879
:1095F400000494F0000FF6D110BD0121FFF7B5BFB0
:109604000121FFF7BEBF0021FFF7C7BF0021FFF70D
:10961400D0BF10B590B1D0E9012301689B1ADBB229
:109624000A60013BDBB2FF2B026802D100201071FB
:1096340010BD11684C1C14600B70F2E70E20F7E7A4
:1096440037B5054600240DF107008DF8074001F0F9
:10965400E5F82A686B68116899420ED9481E1060B3
:1096640011F8014CEB68298A01FB0434AB681179C9
:109674001B1ADBB2994238BF13719DF8070001F041
:10968400F1F8204603B030BD37B5054600230DF18F
:1096940007000C468DF8073001F0C0F82A681368FB
:1096A400591C1160E968641A298AB4FBF1F41C702E
:1096B4009DF8070001F0D6F803B030BD0B684A6886
:1096C4004360934208BF0023016008BF43607047B2
:1096D400436843B10268916852680B449342436003
:1096E40004BF00234360704733DF704741DF704796
:1096F400064B10B500241C70054B1C60BFF35F8F34
:1097040004490548FFF7DAFF204610BD255B002019
:10971400285B0020E89403001C5B002007B50023AD
:109724000DF107008DF8073001F078F8F1EE103AEA
:1097340023F09F03E1EE103ABFF35F8F094B402201
:10974400C3F884219DF8070001F08CF803F0FCFABB
:1097540020B1FFF7CBFF03B05DF804FB20BF40BF8F
:1097640020BFF8E700E100E070B5224D0446012176
:109774002846FFF7EFFEBFF35F8F2E4638B9042C5F
:109784000AD01D4B1A781AB1BFF35F8F286070BDE1
:109794001A4A147001221A70194C184D63682878FB
:1097A4007BB90238012813D8BFF34F8F1549164BE4
:1097B400CA6802F4E0621343CB60BFF34F8F00BF6B
:1097C400FDE71B68984788B12046FFF781FFE5E76E
:1097D40003F0BAFA08B1FFF787FF4FF08043012284
:1097E400C3F80025BFF34F8F20BFFDE7BFF35F8FA2
:1097F4003060CCE7285B0020255B0020245B002040
:109804001C5B002000ED00E00400FA0500220221A8
:10981400C0E9302202808280826002730282426147
:1098240002768283026280F824200285C26280F874
:1098340030200287C263A0F84820C264A0F85820F0
:109844000266A0F868200267A0F87820C0F880209B
:10985400A0F88820C0F89020A0F89820C0F8A02094
:1098640080F8B910A0F8BA2080F8BC20C0E93222F0
:10987400C0E93422A0F8A82080F8AA20704749B192
:1098840052B1531E1A4007D1826001608380C260C6
:10989400104670470E2070470920704710B5846841
:1098A400C2688388121B934208D3C26813400268BB
:1098B400D154C3680133C360002010BD0420FCE709
:1098C4008268C3689A420AD0826883881340026817
:1098D400D35C0B70836801338360002070470520DC
:1098E4007047C368836000207047000013B50B46BF
:1098F400114680B9104B1148114AC01A0E23C008F2
:109904000093104B0004104940F0010005F045FF9E
:109914000E2002B010BD4BB9074B08480B4AC01AC1
:10992400C0080E2300930004064BECE703601B6899
:1099340002B0BDE810401847C481030074820300DC
:10994400F49403008A960300F99403002895030015
:109954002DE9F34188B93D4B3D483E4AC01AC00841
:109964000E243D4B009400043C4940F0010005F0F6
:1099740014FF204602B0BDE8F0814AB9334B3448A5
:10998400374AC01AC0080E24334B00940004EBE796
:10999400D0F800E0BEF1000F09D12C4B2C48314A1D
:1099A400C01AC00808242C4B00940004DCE74BB90F
:1099B400264B27482C4AC01AC0080924264B009479
:1099C4000004D1E74568D5F80480B3FBF8F508FB3B
:1099D40015354DB11D4B1E48244AC01AC008092430
:1099E4001D4B00940004BFE78D0709D0174B18489E
:1099F4001F4AC01AC0081024174B00940004B3E790
:109A040012F0030F09D0114B11481A4AC01AC008AA
:109A14001024114B00940004A6E7C568A9420BD397
:109A24004D1EEC180569AC4206D8DEF80C40A4467D
:109A340002B0BDE8F0416047044B05480E4AC01A25
:109A4400C0081024044B009400048DE7C481030073
:109A540074820300F49403009C960300F9940300B9
:109A64007695030022950300359503007C95030049
:109A7400A6950300BE950300E1950300F7B580B9F0
:109A84002A4B2B482B4AC01AC0080E242A4B009498
:109A940000042A4940F0010005F07FFE204603B08F
:109AA400F0BDD0F800C0BCF1000F09D11F4B204815
:109AB400234AC01AC00808241F4B00940004E8E796
:109AC4004AB91A4B1A481F4AC01AC00809241A4B2B
:109AD40000940004DDE74768D7F800E00EF1FF3793
:109AE4000F4209D0114B1248174AC01AC00810245B
:109AF400114B00940004CCE7C768B9420CD3046945
:109B04004D1E0EFB0255A54206D8DCF81040A446B3
:109B140003B0BDE8F0406047044B05480B4AC01A47
:109B2400C0081024044B00940004B2E7C48103006D
:109B340074820300F4940300AF960300F9940300C5
:109B44002295030035950300089603002E96030022
:109B540070B550B90E4D0F4C0026641B1423B4FB92
:109B6400F3F4B44208D1002010E00368002BF1D0D4
:109B7400BDE87040DB6918472B6813B9013614350A
:109B8400EFE7DB69284698470028F7D070BD00BF8F
:109B9400001A0020141A0020094A537891780133DE
:109BA400DBB2994208BF0023117899421FBF0370AA
:109BB4005078182303FB002014BF043000207047A2
:109BC4002C5B002073B5054600240DF107000E46FA
:109BD4008DF8074000F022FE0DF10600FFF7DCFFD0
:109BE40090B10670094B9DF8062045605A709DF8A7
:109BF400070000F037FE24B9054B4FF48012C3F878
:109C04000021204602B070BD0424F0E72C5B002044
:109C140000E100E0024B4FF43C6043F001031847BD
:109C2400D096030038B50C4B0C4C4FF40032C3F8FB
:109C3400802001254FF48033C4F84833C4F8083336
:109C44006560FFF7E7FF064BA56000241C60FFF783
:109C5400E1FF044B1C7038BD00E100E0001001403E
:109C6400485C0020395C0020F8B51F4B1F491B6875
:109C74000025C1F84051C1F84451C1F84851C1F818
:109C84004C51C1F80051C1F804514BB3D1F804450B
:109C940017490968641A24F07F442F461A68A242BF
:109CA40009D8A41A15441A7CDE691AB1D3E905202F
:109CB4001F749047AEB90F4A0F4B11781B788B4233
:109CC40005D10133DBB2022B08BF002313701278D5
:109CD4000A4B43F822500A4B4FF48012C3F8002178
:109CE400F8BD3346DAE700BF4C5C002000100140A9
:109CF400485C0020455C0020445C00203C5C002063
:109D040000E100E02DE9F04FA24AA3491378097855
:109D1400A24D994285B03CD00133DBB2022B08BF7F
:109D2400002313709E4912789E4B0F6853F822004B
:109D34003B1823F07F4300220B602B681646144621
:109D4400944613B942B12B6006E0196881420ED9DA
:109D540002B12B60091A196001272B68DFF84CA2A5
:109D640001934FF00008BEB9DFF848B262E0401A30
:109D74000C44D968D3F81CE0C3F800C031B13A19D7
:109D840022F07F42C3E90121DE611E4673460122AF
:109D9400D7E700263746E0E73446F669804A636829
:109DA4001268DFF814C2A068991A21F07F41614556
:109DB40000F2A88001442160012222742A68002351
:109DC400C4E90133E361002A40F0A5802C60CAE7AE
:109DD4009BF802105A1CD2B291428BF8002004BFA7
:109DE40000228BF80020182202FB03B32A68197999
:109DF4009C68022977D0032900F08180012919D1B8
:109E0400207CB8B9D3E90312A2605A69E2609A6966
:109E1400654BA2611B78002B0CBF0B4603466360A5
:109E2400BCE78C4200F094808946C9690029F8D1C6
:109E3400002323749BF800309BF801209A42C7D179
:109E44002B68B8F1000F04D1019A9A4201D1002F76
:109E540043D0002B79D0D3F800A0544D504BD5F803
:109E640004751C68DFF854813E1B98F8003026F016
:109E74007F4603369BB94FF48033C5F84433C5F8A5
:109E840004334B4B4FF400324FF00109C3F88021E7
:109E94001A60C5F80090FFF7BDFE88F80090B2453F
:109EA4002CBF5444A41924F07F44C5F84045D5F888
:109EB4000435DB1B23F07F43E41B033324F07F448E
:109EC400A3420AD9D5F80435C5F84035FFF7A2FEF8
:109ED400374B4FF40032C3F80021334B00221A7081
:109EE40005B0BDE8F08F114691469FE71174D26921
:109EF4000123002AFAD1002B9CD02A609AE7002380
:109F04001946F6E7D31A23F07F43834234BFC31ABA
:109F14000023236050E721681368994213D8591A23
:109F24001160E26152E7091AD8691A4638B103464A
:109F340018688842F7D3401A1860184613462160FF
:109F4400E061DC610FE71346F2E7FFF76BFEC4E75D
:109F54004C4511D1D3692B6073B9DFF844E001207B
:109F6400CDE90212CAF80800CEF800300E4B187082
:109F7400FFF750FEDDE902120B68C969C9F81C102D
:109F840011B1086803440B602B68934218BF4FF06B
:109F940001084DE7445C0020455C00204C5C002037
:109FA400485C00203C5C0020385C0020001001402C
:109FB40000E100E02C5B0020FEFF7F00395C002004
:109FC40010B5FFF72FFE114B00200B2218809A705A
:109FD4000F4B18600F4B18700F4B18700F4B4FF44A
:109FE4008012E021C3F8802183F814131A6002F16F
:109FF4008042A2F56F221F24C2F8084583F811138A
:10A00400074BD2F804251A6010BD00BF2C5B00205A
:10A014004C5C0020445C0020455C002000E100E032
:10A02400485C0020074B9B784BB132B128B10368E0
:10A03400187C20B959745A6170470720704708206A
:10A04400704700BF2C5B00202DE9F743DFF88480C4
:10A0540098F8023005460E461746ABB3A0B3042960
:10A0640030D9436983B3437C0024012B0DF10700ED
:10A074000CBF8946A1468DF8074000F0CFFB0DF1D7
:10A084000600FFF789FDD8B1012303700F4B45602B
:10A09400D3F80435C0E90497C0E902369DF80630C8
:10A0A40088F801309DF8070000F0DCFB24B9084B68
:10A0B4004FF48012C3F80021204603B0BDE8F083BA
:10A0C4000424EFE70724F7E70824F5E7001001402C
:10A0D40000E100E02C5B0020064A92783AB130B1EE
:10A0E400426922B1002202740221FFF76BBD0820ED
:10A0F400704700BF2C5B00204FF480314FF4805236
:10A10400C0E901124FF4807C1022C0E903C20B4A5B
:10A1140042610B4A82610B4AC2614FF47A714FF477
:10A124007A62C0E909124FF47A5C4FF47A42C0E9CA
:10A134000BC240F201120280704700BF0000D242FD
:10A144000000D04085EBD13E70B50C4C164620463D
:10A154000D4600F00EFB3146204600F044FB002182
:10A16400204600F01BFB01222946204600F0FEFA9F
:10A17400204600F048FBC0B270BD00BF0C34002084
:10A1840070B50A4C164620461D4600F0F2FA3146D8
:10A19400204600F028FB2946204600F024FB2046F8
:10A1A4000121BDE8704000F0F9BA00BF0C34002072
:10A1B40010B50F2244210446FFF7C6FFC0F3C203C3
:10A1C400052B18D100F07F030F2244212046FFF70E
:10A1D400D7FF00231A4644212046FFF7D1FF6278B7
:10A1E400237843EA82032046DBB201224421FFF7AD
:10A1F400C7FF002010BDFF20FCE7000010B5114888
:10A20400442100F0B6FA02210E4800F0ECFA0021D5
:10A214000C4800F0C3FA0B480222442100F0A6FACD
:10A22400084800F0DEFA0128FADD064800F0EBFAEF
:10A234000446044800F0E7FAE4B244EA002080B29D
:10A2440010BD00BF0C34002038B504460B46002274
:10A254004421FFF795FF637804EB8303D3ED057A7C
:10A26400B7EE007AF4EEC77AF1EE10FA4BBF9FED29
:10A274000F7AB7EE087A67EE877A77EE877AFCEE84
:10A28400E77A17EE900A20B1094A800142F00103EF
:10A2940098472046FFF7B2FF002305461A4620469A
:10A2A4004421FFF76DFF284638BD00BF00007A4403
:10A2B400E096030010B504462021FFF7C5FF22787D
:10A2C40004EB8202536A5843637804EB83046368A3
:10A2D400B0FBF3F010BD10B504464021FFF7B4FF06
:10A2E400227804EB8202536A5843637804EB8304B4
:10A2F4006368B0FBF3F010BD70B500220D46442135
:10A304000446FFF721FF40F01F02D2B242EA0503E0
:10A3140020460022BDE870404421FFF731BF0123ED
:10A324004370704738B504460D4690F84010C06B32
:10A3340000F01FFA2946E06B00F055FA0021E06BAB
:10A3440000F02CFA012394F84010E06B1A4600F058
:10A35400EDF920B1E06B00F056FA00B238BD4FF0D1
:10A36400FF30FBE7F8B505460F4690F84010C06B88
:10A3740016461C4600F0FDF93946E86B00F033FA46
:10A38400E86B314600F02FFAE86B00F027FA48B189
:10A394005CB139462846FFF7C5FF801B18BF4FF054
:10A3A400FF30F8BD4FF0FF30FBE72046F9E700230C
:10A3B400FFF7D8BF38B501F00704E31E012B0546AB
:10A3C40002D84FF0FF3038BD22460821FFF7EFFFD7
:10A3D4000028F6D12C70F6E72DE9F74398469DF84E
:10A3E4002C309DF828900E461146CDE900230746EF
:10A3F400FFF798FF051E0FDB6CB206FA09F56540FE
:10A4040005EA08067440019B0099E2B2384603B09D
:10A41400BDE8F043FFF7A6BF03B0BDE8F08313B572
:10A42400002401949DF810400094FFF7D5FF02B07A
:10A4340010BD73B541780446B1B9FFF7BBFF0646BA
:10A4440080B9012500950223092229462046FFF7F9
:10A45400E6FF002806DB0095022309223146204648
:10A46400FFF7DDFF02B070BD6FF00100FAE710B531
:10A474000446FFF7DEFF204610BD01607047000070
:10A4840038B50A4C0546204600F043F929782046A1
:10A4940000F06FF90021204600F0A5F9204600F0F5
:10A4A4009DF9003818BF012038BD00BF0C340020CE
:10A4B40038B5074C0D460178204600F05AF9294674
:10A4C400204600F090F92046BDE8384000F086B9F7
:10A4D4000C34002038B50546FFF7EAFF297809480F
:10A4E400012200F043F9074800F078F9054800F02C
:10A4F40078F90024A04203DD024800F084F9C4B2D4
:10A50400204638BD0C34002038B500210546FFF73D
:10A51400E1FF012104462846FFF7DCFF44EA00205E
:10A5240083B207EE903A9FED067A9FED060AF8EEA5
:10A53400677A67EE877A9FED047AA7EE870A38BDBB
:10A5440000002543000020C20000803738B50221F6
:10A554000546FFF7BFFF032104462846FFF7BAFF6D
:10A5640044EA002083B200EE103ADFED037ABBEE3A
:10A57400C80A20EE270A38BD0000C84270B50A4C4C
:10A584000E4601782046154600F0F3F83146204681
:10A5940000F029F92946204600F025F92046BDE8B7
:10A5A400704000F01BB900BF0C34002038B50C46D5
:10A5B4000F210546FFF78EFF012C06D0022C0ED189
:10A5C40000F0FD0242F0040203E000F0FC0242F05D
:10A5D400020228460F21BDE83840FFF7CFBF00F044
:10A5E400F902F6E710B50F210446FFF773FF40F0B8
:10A5F4000100C2B20F212046BDE81040FFF7BEBFE4
:10A6040038B50E210446FFF765FF60F07F00C2B243
:10A614000E212046054DFFF7B1FF322445F0010518
:10A624004FF47A40A847013CFAD138BDF0960300B4
:10A6340010B50E210446FFF74DFF40F00400C2B2EE
:10A644000E212046BDE81040FFF798BF38B50D46EF
:10A654000E210446FFF73EFF691E06292CD8DFE8C9
:10A6640001F0040E13181D22270000F09F0242F08F
:10A67400100220460E21BDE83840FFF77FBF00F0EE
:10A68400AF0242F02002F4E700F0BF0242F03002D1
:10A69400EFE700F0CF0242F04002EAE700F0DF0209
:10A6A40042F05002E5E700F0EF0242F06002E0E71A
:10A6B40040F07002D2B2DCE700F08F02D9E738B57F
:10A6C4000D460E210446FFF705FF012D0ABF40F099
:10A6D400020200F0FD02D2B220460E21BDE838404D
:10A6E400FFF74CBF0421FFF7F5BE10B50721044660
:10A6F400FFF7F0FE60F07F00C2B207212046BDE8FC
:10A704001040FFF73BBF002201604272C2728271A7
:10A71400704701230371704710B50446006802F0C6
:10A724005FFD2068BDE8104002F076BD002370B5DF
:10A73400044683724372154672B10A4E337013464F
:10A7440000F10C02006802F000FF014630B93378D2
:10A75400002BFCD0A572A57A284670BD024805F0EE
:10A76400FFF8F8E74E490020F69603000123FFF7AF
:10A77400DDBF38B5002504460172C572457220223A
:10A7840029462C300CF0E2F92022294604F10C0071
:10A794000CF0DCF90123A37138BD000073B5002669
:10A7A40086710C4D0096017AC37A2E7000F12C024A
:10A7B4000446006802F0AEFE014630B1064805F0DA
:10A7C400CFF8E672E07A02B070BD2B78002BFCD093
:10A7D400F8E700BF4E490020FF9603000021FFF771
:10A7E400DDBF807A70470246807910B550B1D47AC3
:10A7F4001F2C9FBF631CD8B2D07212198CBF0020CB
:10A8040082F82C1010BD437A827A9A421FBF5A1CD8
:10A814004272C018007B08BF0020704770B5EFF388
:10A82400108672B60C4A946801239CB993600B4B52
:10A834000B4DD3F8801029401160C3F88050D3F831
:10A84400841051604FF0FF32C3F88420047006B9BD
:10A8540062B670BD0370FAE7505C002000E100E0CE
:10A86400FC06FFBD084B9A6810B55AB150B9EFF316
:10A87400108172B6054A1C6814605C685460986064
:10A8840001B962B610BD00BF505C002000E100E0D9
:10A894007047000038B50C460546282200212046A2
:10A8A4000CF054F90B22094920460CF035F800232A
:10A8B4000122E372E260AA68636200232261A36159
:10A8C4000322E361024B6261236238BD08970300EF
:10A8D4000AD7233C10B5024C04608160427110BD5C
:10A8E40018970300F8B506460F4641790E481D46F1
:10A8F4001446FFF73EFF39460B48FFF774FF0A483A
:10A90400FFF76CFF71790848074E2A46FFF72EFFC0
:10A914002544AC4205D03046FFF775FF04F8010B1F
:10A92400F7E70120F8BD00BF0C340020F7B50E4650
:10A9340015460021182204460CF008F906220021CD
:10A9440068460CF003F9062330466A462946FFF7A9
:10A95400C9FF9DF801309DF800009DF802709DF834
:10A96400046040EA03209DF8033047EA03279DF87A
:10A974000530142D46EA032600B23FB236B226D083
:10A9840006D8082D0CD00E2D3AD0204603B0F0BDC9
:10A994001A2D35D0192DF8D9282D01D02E2DF4D10A
:10A9A4000BF0CAFA244B00220BF096F9C4E900011B
:10A9B40038460BF0C1FA204B00220BF08DF9C4E9A4
:10A9C400020130460BF0B8FA1B4B002215E00BF0E5
:10A9D400B3FA1A4B00220BF07FF9C4E900013846A0
:10A9E4000BF0AAFA154B00220BF076F9C4E9020128
:10A9F40030460BF0A1FA114B00220BF06DF917E071
:10AA04000BF09AFA0E4B00220BF0CAF8C4E90001CD
:10AA140038460BF091FA0A4B00220BF0C1F8C4E956
:10AA2400020130460BF088FA054B00220BF0B8F80F
:10AA3400C4E90401A9E700BF0000594000208C408C
:10AA44000000B03F30B50C4687B0054624220021F3
:10AA540020460CF07BF824232360AB686360032357
:10AA6400A360FBF733FE1A22206129466846FFF7EC
:10AA74005DFFDDE900010BF0B9FA6061DDE9020177
:10AA84000BF0B4FAA061DDE904010BF0AFFAE06168
:10AA9400012007B030BD30B4026A84685510034603
:10AAA40004EB6200D20748BF6259DB6930BC48BF7F
:10AAB400D3581847704708B502690D4681680446A3
:10AAC400561001EB6200D20748BF8A59E36848BFB9
:10AAD400D3589847A369A2686469591013F0010F09
:10AAE40002EB63061CBF53581C59FBF7EFFD2946C4
:10AAF40002463046A04710B504460CF0D5F820466F
:10AB040010BD000070B50C460546164600212422EF
:10AB140020460CF01BF8D5ED0D7A95ED007ADFEDAB
:10AB2400166A27EE277A2423C7EE267A23602B6C35
:10AB340063600123A36026619FED107A67EE877A34
:10AB4400C4ED057AD5ED0D7A95ED016A26EE276AF6
:10AB5400C6EE267A67EE877AC4ED067AD5ED0D7ACD
:10AB640095ED026A26EE276AC6EE267A67EE877AA4
:10AB7400C4ED077A70BD00BF00007A440AE81C41A6
:10AB840070B50C46054616460021242220460BF0DB
:10AB9400DDFFD5ED0E7A95ED037A27EE277ADFED0A
:10ABA400117AC7EE276A242323606B6C6360022347
:10ABB400A3602661C4ED056AD5ED0E6A95ED047AAD
:10ABC40027EE267AC7EE276AC4ED066AD5ED0E6A2B
:10ABD40095ED057A27EE267AC7EE276AC4ED076A53
:10ABE40070BD00BF00007A4470B50C460546164699
:10ABF4000021242220460BF0A9FF95ED0F7AD5ED14
:10AC0400067A242367EE877A23602B6CC4ED057AD9
:10AC140095ED0F7AD5ED077A636067EE877A0423A2
:10AC2400C4ED067AD5ED087A95ED0F7AA36067EE48
:10AC3400877A2661C4ED077A70BD70B50C46054667
:10AC440016460021242220460BF080FF2423236093
:10AC5400EB6C63600D23A360B5F92430266107EE25
:10AC6400103AB8EEC77AF4EE006AF3EE057AE7EE2E
:10AC7400267AC4ED057A70BD38B50C4605462822FF
:10AC8400002120460BF062FF08490B2220460BF0FE
:10AC940043FE00230122E372E260296C6362002315
:10ACA400C4E90412A361E361236238BD2C97030055
:10ACB40038B50C4605462822002120460BF046FFF5
:10ACC4000B22094920460BF027FE00230122E372E0
:10ACD400E2606A6C22616362022200236261A36102
:10ACE400E361236238BD00BF3697030038B50C46D4
:10ACF40005462822002120460BF028FF0B22094993
:10AD040020460BF009FE00230122E372E260AA6CE4
:10AD140022616362042200236261A361E36123620E
:10AD240038BD00BF4097030038B50C4605462822BD
:10AD3400002120460BF00AFF0B22094920460BF0A4
:10AD4400EBFD00230122E372E260EA6C226163629C
:10AD54000D2200236261A361E361236238BD00BF59
:10AD64004A9703000B46097910B50171996881600F
:10AD7400024600F10C04D3E9030184E80300D3E99B
:10AD8400050102F1140484E80300D3E9070102F188
:10AD94001C0484E80300104610BD000070B50123B4
:10ADA40080F82630D3180364931C8AB04364D31C00
:10ADB4008364234B0493234B234E81620025043286
:10ADC400CDE90635214BC2640446039001A95030F5
:10ADD400CDE9083501960595FFF7C4FF1C4B019694
:10ADE400CDE904351B4B0394CDE906351A4B01A973
:10ADF40004F17400CDE90835FFF7B4FF174B019651
:10AE0400CDE90435164B0394CDE90635154B01A95C
:10AE140004F19800CDE90835FFF7A4FF124B019621
:10AE2400CDE90435114B0394CDE90635104B01A946
:10AE340004F1BC00CDE90835FFF794FF0AB070BDFA
:10AE4400E7AE020009AB02005C9703007DAC020090
:10AE540045AF020085AB0200B5AC0200A3AF02000F
:10AE6400EDAB0200F1AC020001B002003FAC020005
:10AE74002DAD020010B5074B036504460A4643672F
:10AE8400C0F89830C0F8BC300349FFF787FF20466C
:10AE940010BD00BF5C9703000C3400200029F8B5F6
:10AEA40014BF1E276B2704461646806A39461D4682
:10AEB400FFF75FFC3146A06AFFF795FCA06AFFF735
:10AEC4008DFCA06A2A463946FFF750FCA84206D1F9
:10AED400069DA06AFFF797FC05F8010BF9E700202F
:10AEE400F8BD1FB502AB0093A82206230021044637
:10AEF400FFF7D4FF9DF90B209DF80A309DF9091046
:10AF040043EA022307EE903A9DF90D209DF80C3098
:10AF140043EA02239DF80820F8EEE77A42EA012288
:10AF240007EE102AC4ED017A07EE903AB8EEC77A1C
:10AF3400F8EEE77A84ED007AC4ED027A04B010BD2D
:10AF44001FB502AB0093A822062301210446FFF794
:10AF5400A5FF9DF90B209DF80A309DF9091043EADD
:10AF6400022307EE903A9DF90D209DF80C3043EA38
:10AF740002239DF80820F8EEE77A42EA012207EE60
:10AF8400102AC4ED047A07EE903AB8EEC77AF8EEC8
:10AF9400E77A84ED037AC4ED057A04B010BD1FB5D9
:10AFA40002AB00939822062300210446FFF776FFA4
:10AFB4009DF90B209DF80A309DF9091043EA0223FC
:10AFC40007EE903A9DF90D209DF80C3043EA0223D8
:10AFD4009DF80820F8EEE77A42EA012207EE102AEB
:10AFE400C4ED077A07EE903AB8EEC77AF8EEE77A3E
:10AFF40084ED067AC4ED087A04B010BD1FB503AB26
:10B0040000939522022300210446FFF747FF9DF990
:10B014000D209DF80C3043EA0223A38404B010BD34
:10B024002DE9F84FB0F806A04579D2F800B09DF8A4
:10B0340028900AFB05F5043D88460BEB0301A94261
:10B0440003F1040488BFA5EB030BB4FBFAF607462F
:10B054000AFB1644C2F800B04EB9AAEB04055D45DC
:10B0640028BF5D46BBF1000F04D1BDE8F88F3F68EF
:10B07400013EF1E7043408EB06003C442A46B9F1EA
:10B08400000F0DD02146ABEB050B0BF036FDDA4576
:10B094002E443F6855464FF0000428BF5D46E1E763
:10B0A40001462046EFE7F8B546790146721E05468B
:10B0B400002393422D6803D30024A64202D8F8BD8E
:10B0C4000133F6E70F682846FEF7DEFA0134394605
:10B0D400F3E72DE9F843068ACD1C0746FEF7B0FADC
:10B0E400043E35440446B5FBF6F5F0B14FF48073E5
:10B0F400EDB28380C680013D076081464FF00008B1
:10B10400A84512D23846FEF79BFA064648B1637941
:10B114000133637108F10108C9F800000760814632
:10B12400EEE72046FFF7BFFF34462046BDE8F8832C
:10B1340001210430FEF749BA10B501210446043058
:10B14400FEF74FFA10F0FF0F04D12046BDE810407F
:10B15400FFF7A9BF10BD1FB503920022009203AAF6
:10B16400FFF75EFF05B05DF804FB00000378022BD7
:10B1740002D1044804F0F4BB012B01D10248F9E7E1
:10B18400704700BF709703007C97030038B5054DE6
:10B19400044645F001054FF47A40A847013CFAD132
:10B1A40038BD00BFB09A030038B504460BF04AFD21
:10B1B4002518AC4206D02078FEF790F90028FAD181
:10B1C4000134F6E7BDE838406420FFF7DFBF000034
:10B1D40000B58BB000234FF00A0C08930B23CDE984
:10B1E40006C30F4B0993CDE90412FEF751F9FEF79C
:10B1F4009DF90C4B0C4A00934FF48073CDE9022364
:10B2040001930A4A6946072304A8FEF7E9F8084BA4
:10B214001870084804F0A4FB0BB05DF804FB00BFF1
:10B2240000E0D7015D5C00205D5D002071B102008B
:10B234005C5C00208897030008B5FFF7C9FFBDE8F0
:10B244000840FEF725B900002DE9F34704461746E8
:10B254001D460E4621B1FEF71BF93046FFF7A4FF49
:10B264004FF48062002120460BF070FC3846FBF757
:10B27400E1FC1C4FDFF87480002D18BF2F46002618
:10B2840040F2FE39FEF7A4F830B30DF10700FEF7E3
:10B294000FF90028F9D14E459DF807A008DD40F2CA
:10B2A400FF1204F5007120460BF027FC40F2FF1654
:10B2B400751C002304F806A03946635520460BF09C
:10B2C40054FB40B1084804F04BFBFBF7A7FCE8B281
:10B2D40002B0BDE8F0872E46D8F80030002BD1D05C
:10B2E400FF20F5E7CE970300D2970300945A00207D
:10B2F40010B50446094804F033FB002342F21072EF
:10B3040007492046FFF7A0FF2146064804F028FB22
:10B31400FEF7BEF8BDE81040FEF708B9DF9703005A
:10B32400F29703009086030010B50446074804F022
:10B3340017FB07492046002342F21072FFF784FFEF
:10B3440021460448BDE8104004F00ABBFE97030000
:10B35400109803009086030030B5054687B0224854
:10B3640004F0FEFA2149002342F210722846FFF746
:10B374006BFF1F48294604F0F3FA28460BF062FCE1
:10B38400E8B11C4901A80BF014FC29461A4804F042
:10B39400E7FA1A4928460BF0E8FA19490446284600
:10B3A4000BF004FB164900200BF000FB14490020AD
:10B3B4000BF0FCFA054620B9201E18BF012007B087
:10B3C40030BD01460F4804F0CBFA01A928460BF022
:10B3D40012FC044601460C4804F0C2FA002C0CBFCF
:10B3E40003200220EBE700BF4098030055980300B8
:10B3F4009086030063980300749803008598030003
:10B40400108703008A9803009C98030010B5044633
:10B41400074804F0A5FA07492046002342F21072B7
:10B42400FFF712FF21460448BDE8104004F098BA23
:10B43400C3980300DB9803009086030010B504460C
:10B44400094804F08DFA094804F08AFA08492046AC
:10B45400002342F21072FFF7F7FE21460548BDE8CB
:10B46400104004F07DBA00BFEC9803000299030079
:10B474001299030090860300FFF7E0BF30B585B052
:10B4840004460D460F22002168460BF05FFB2A4656
:10B494000A4968460BF0C5F96946094804F060FAA0
:10B4A400002342F2107269462046FFF7CDFE214682
:10B4B400044804F055FA05B030BD00BF21990300DB
:10B4C4002F9903009086030030B5BBB004460D46A7
:10B4D40001920021DC2203A80BF038FB019B0949EF
:10B4E4002A4603A80BF09DF9002342F2107203A927
:10B4F4002046FFF7A9FE2146034804F031FA012053
:10B504003BB030BD3A9903009086030010B5044661
:10B51400074804F025FA07492046002342F2107236
:10B52400FFF792FE21460448BDE8104004F018BA23
:10B53400A4980300B79803009086030030B5ADF6D5
:10B54400AC7D04460191154600214FF47A6202A8AD
:10B554000BF0FCFA019B0F492A4602A80BF061F993
:10B5640002A90D4804F0FCF96420FFF70FFE0DF169
:10B5740085010A4804F0F4F9002342F2107202A98A
:10B584002046FFF761FE2146054804F0E9F90DF66F
:10B59400AC7D30BD50990300659903007899030090
:10B5A40090860300F0B5C3B004460E46174600214A
:10B5B400FA2203A81D460BF0C9FA3B46324611494C
:10B5C40003A80BF02EF9002342F2107203A92046BF
:10B5D400FFF73AFE21460C4804F0C2F90B49204615
:10B5E4000BF0E4F901900BF02DFB0199024628467B
:10B5F4000BF083FA064900200BF0D8F90BF05FFA40
:10B6040043B0F0BD7F990300908603009399030033
:10B614009A840300F0B5ADF5277D04460E4617461F
:10B624000021FA2267A81D460BF090FA4FF48062BD
:10B63400002120460BF08AFA1E493B46324667A891
:10B644000BF0EFF8002342F2107267A92046FFF7CF
:10B65400FBFD58B3184920460BF0A8F91749002000
:10B664000BF0A4F901900BF0EDFA0199024603A83E
:10B674000BF043FA124903A80BF098F901900BF070
:10B68400E1FA0199024635A80BF037FA0D4935A8BD
:10B694000BF08CF901900BF0D5FA0199024628467B
:10B6A4000BF02BFA01200DF5277DF0BD4FF0FF3094
:10B6B400F9E700BF7F9903009F9903009C99030059
:10B6C400A1990300D0970300F0B5ADF53F7D044682
:10B6D4000D4617460021FA2202A81E460BF036FA40
:10B6E4004FF48062002120460BF030FA3B462A4694
:10B6F400184902A80BF095F8002342F2107202A92F
:10B704002046FFF7A1FD144920460BF04FF91349D9
:10B71400044628460BF06FFA4FF4FA72002141A850
:10B724000BF014FA20460BF08DFA2146024641A88C
:10B734000BF0E3F90A4941A80BF038F901900BF03A
:10B7440081FA0199024630460BF0D7F901200DF534
:10B754003F7DF0BD7F99030093990300A3990300F3
:10B76400D0970300F0B5002385B004460E4642F29C
:10B7740010725E49FFF768FD5D48214604F0F0F859
:10B78400013EFDF725FE0546002859D1E37862788D
:10B79400217800935748A378574E04F0E1F85749AD
:10B7A40020460BF003F9002814BF01230023337053
:10B7B40040F09980514920460BF0F8F8002800F039
:10B7C40093800146701C0BF0F4F94C4920460BF0B1
:10B7D400EDF8014600283ED10025474E474F394633
:10B7E40020460BF0E3F800287DD00BF068F93946C9
:10B7F400A6F8440020460BF0D9F8F8B10BF05FF935
:10B804003946A6F8460020460BF0D0F8B0B10BF04C
:10B8140056F93946A6F8480020460BF0C7F868B137
:10B824000BF04DF93946A6F84A0020460BF0BEF855
:10B8340020B10BF044F90135A6F84C000A36CEE7E6
:10B844000DF10F00FDF734FE0028F9D19DF80F30FB
:10B8540006F8013F95E706F110000BF0AAF9274915
:10B8640020460BF0A3F801460028B5D006F11F00CE
:10B874000BF09FF9214920460BF098F80028ABD033
:10B884000BF01DF91D49F08520460BF08FF80028B8
:10B89400A2D00BF014F91949308620460BF086F833
:10B8A400002899D00BF00BF91449708620460BF050
:10B8B4007DF8002890D00BF002F91049B08620469C
:10B8C4000BF074F8002887D00BF0F9F80B49F086D8
:10B8D40020460BF06BF800283FF47EAF0BF0EFF836
:10B8E4000125308779E7E8B205B0F0BD319803004F
:10B8F400A7990300C09903005E5E0020108703002F
:10B904002DE9F04100238AB042F210720C4605463C
:10B914003349344EDFF8E480FFF796FC2946324879
:10B9240004F01EF8314928460BF040F83146002057
:10B934000BF03CF807AD014628460BF03AF93146C6
:10B9440000200BF033F808AE014630460BF031F915
:10B95400274900200BF02AF809AF014638460BF0BE
:10B9640028F9414600200BF021F8014604A80BF009
:10B9740020F9414600200BF019F8014605A80BF008
:10B9840018F91C4900200BF011F8014606A80BF029
:10B9940010F906AB05AA04A9CDE90165009716487C
:10B9A40003F0DEFF38460BF08AF8208130460BF0B6
:10B9B40086F8608128460BF082F800F5FA60A081D1
:10B9C40004A80BF07CF8E08105A80BF078F820823D
:10B9D40006A80BF074F8608200200AB0BDE8F0817C
:10B9E400D7990300F6990300E2990300C097030076
:10B9F40010870300F8990300FA9903009F99030044
:10BA040030B500238FB00D4642F21072324904461D
:10BA1400FFF71AFC01285CD02146304803F0A0FF50
:10BA24002F4920460AF0C2FF2D4900200AF0BEFF2C
:10BA3400014608A80BF0BDF8294900200AF0B6FF1A
:10BA4400274900200AF0B2FF01460AA80BF0B1F81A
:10BA5400002342F2107223492046FFF7F5FB2146EA
:10BA6400214803F07DFF1E4920460AF09FFF1C4930
:10BA740000200AF09BFFC11C044606A80BF099F8AD
:10BA84000322214604A80BF038F8002317498DF847
:10BA9400133002AA08A80AF0D9FE144903AA0AA876
:10BAA4000AF0D4FE039B009306AA029B104804A943
:10BAB40003F056FF06A80BF002F8288004A80AF049
:10BAC400FEFF029B2B81039B68806B6001200FB0FB
